{
  "contractName": "DoctorWeb3",
  "abi": [
    {
      "inputs": [],
      "stateMutability": "nonpayable",
      "type": "constructor"
    },
    {
      "anonymous": false,
      "inputs": [
        {
          "indexed": false,
          "internalType": "address",
          "name": "applicantAddress",
          "type": "address"
        },
        {
          "indexed": false,
          "internalType": "string",
          "name": "medicalId",
          "type": "string"
        },
        {
          "indexed": false,
          "internalType": "bool",
          "name": "status",
          "type": "bool"
        }
      ],
      "name": "AuthorizationResult",
      "type": "event"
    },
    {
      "anonymous": false,
      "inputs": [
        {
          "indexed": true,
          "internalType": "bytes32",
          "name": "id",
          "type": "bytes32"
        }
      ],
      "name": "ChainlinkCancelled",
      "type": "event"
    },
    {
      "anonymous": false,
      "inputs": [
        {
          "indexed": true,
          "internalType": "bytes32",
          "name": "id",
          "type": "bytes32"
        }
      ],
      "name": "ChainlinkFulfilled",
      "type": "event"
    },
    {
      "anonymous": false,
      "inputs": [
        {
          "indexed": true,
          "internalType": "bytes32",
          "name": "id",
          "type": "bytes32"
        }
      ],
      "name": "ChainlinkRequested",
      "type": "event"
    },
    {
      "anonymous": false,
      "inputs": [
        {
          "indexed": false,
          "internalType": "string",
          "name": "name",
          "type": "string"
        },
        {
          "indexed": false,
          "internalType": "address",
          "name": "_authAddress",
          "type": "address"
        },
        {
          "indexed": false,
          "internalType": "string",
          "name": "medicalId",
          "type": "string"
        },
        {
          "indexed": false,
          "internalType": "uint256",
          "name": "AuthOnDate",
          "type": "uint256"
        }
      ],
      "name": "DoctorAuthorized",
      "type": "event"
    },
    {
      "anonymous": false,
      "inputs": [
        {
          "indexed": false,
          "internalType": "string",
          "name": "name",
          "type": "string"
        },
        {
          "indexed": false,
          "internalType": "address",
          "name": "_authAddress",
          "type": "address"
        },
        {
          "indexed": false,
          "internalType": "string",
          "name": "medicalId",
          "type": "string"
        },
        {
          "indexed": false,
          "internalType": "uint256",
          "name": "AuthOnDate",
          "type": "uint256"
        }
      ],
      "name": "HospitalAuthorized",
      "type": "event"
    },
    {
      "inputs": [
        {
          "internalType": "bytes32",
          "name": "",
          "type": "bytes32"
        }
      ],
      "name": "Applicants",
      "outputs": [
        {
          "internalType": "string",
          "name": "name",
          "type": "string"
        },
        {
          "internalType": "address",
          "name": "applicantAddress",
          "type": "address"
        },
        {
          "internalType": "string",
          "name": "medicalId",
          "type": "string"
        },
        {
          "internalType": "uint256",
          "name": "applicantType",
          "type": "uint256"
        }
      ],
      "stateMutability": "view",
      "type": "function",
      "constant": true
    },
    {
      "inputs": [
        {
          "internalType": "address",
          "name": "",
          "type": "address"
        }
      ],
      "name": "AuthorisedDoctor",
      "outputs": [
        {
          "internalType": "bool",
          "name": "",
          "type": "bool"
        }
      ],
      "stateMutability": "view",
      "type": "function",
      "constant": true
    },
    {
      "inputs": [
        {
          "internalType": "address",
          "name": "",
          "type": "address"
        }
      ],
      "name": "AuthorisedHospital",
      "outputs": [
        {
          "internalType": "bool",
          "name": "",
          "type": "bool"
        }
      ],
      "stateMutability": "view",
      "type": "function",
      "constant": true
    },
    {
      "inputs": [
        {
          "internalType": "address",
          "name": "",
          "type": "address"
        }
      ],
      "name": "AuthorizedDH",
      "outputs": [
        {
          "internalType": "address",
          "name": "authorizedDHAddress",
          "type": "address"
        },
        {
          "internalType": "string",
          "name": "name",
          "type": "string"
        },
        {
          "internalType": "string",
          "name": "medicalId",
          "type": "string"
        }
      ],
      "stateMutability": "view",
      "type": "function",
      "constant": true
    },
    {
      "inputs": [
        {
          "internalType": "address",
          "name": "",
          "type": "address"
        },
        {
          "internalType": "uint256",
          "name": "",
          "type": "uint256"
        }
      ],
      "name": "PatientReports",
      "outputs": [
        {
          "internalType": "string",
          "name": "",
          "type": "string"
        }
      ],
      "stateMutability": "view",
      "type": "function",
      "constant": true
    },
    {
      "inputs": [
        {
          "internalType": "string",
          "name": "",
          "type": "string"
        }
      ],
      "name": "Reports",
      "outputs": [
        {
          "internalType": "string",
          "name": "fileHash",
          "type": "string"
        },
        {
          "internalType": "string",
          "name": "category",
          "type": "string"
        },
        {
          "internalType": "address",
          "name": "Patient",
          "type": "address"
        },
        {
          "components": [
            {
              "internalType": "address",
              "name": "patient",
              "type": "address"
            },
            {
              "internalType": "uint256",
              "name": "age",
              "type": "uint256"
            },
            {
              "internalType": "uint256",
              "name": "weight",
              "type": "uint256"
            },
            {
              "internalType": "uint256",
              "name": "height",
              "type": "uint256"
            },
            {
              "internalType": "string",
              "name": "gender",
              "type": "string"
            },
            {
              "internalType": "string",
              "name": "bloodGroup",
              "type": "string"
            }
          ],
          "internalType": "struct DoctorWeb3.PatientInfo",
          "name": "patientInfo",
          "type": "tuple"
        }
      ],
      "stateMutability": "view",
      "type": "function",
      "constant": true
    },
    {
      "inputs": [
        {
          "internalType": "address",
          "name": "_address",
          "type": "address"
        }
      ],
      "name": "getPatientReports",
      "outputs": [
        {
          "internalType": "string[]",
          "name": "",
          "type": "string[]"
        }
      ],
      "stateMutability": "view",
      "type": "function",
      "constant": true
    },
    {
      "inputs": [
        {
          "internalType": "string",
          "name": "_fileHash",
          "type": "string"
        }
      ],
      "name": "getDetailedReports",
      "outputs": [
        {
          "components": [
            {
              "internalType": "string",
              "name": "fileHash",
              "type": "string"
            },
            {
              "internalType": "string",
              "name": "category",
              "type": "string"
            },
            {
              "internalType": "address",
              "name": "Patient",
              "type": "address"
            },
            {
              "components": [
                {
                  "internalType": "address",
                  "name": "patient",
                  "type": "address"
                },
                {
                  "internalType": "uint256",
                  "name": "age",
                  "type": "uint256"
                },
                {
                  "internalType": "uint256",
                  "name": "weight",
                  "type": "uint256"
                },
                {
                  "internalType": "uint256",
                  "name": "height",
                  "type": "uint256"
                },
                {
                  "internalType": "string",
                  "name": "gender",
                  "type": "string"
                },
                {
                  "internalType": "string",
                  "name": "bloodGroup",
                  "type": "string"
                }
              ],
              "internalType": "struct DoctorWeb3.PatientInfo",
              "name": "patientInfo",
              "type": "tuple"
            }
          ],
          "internalType": "struct DoctorWeb3.Report",
          "name": "",
          "type": "tuple"
        }
      ],
      "stateMutability": "view",
      "type": "function",
      "constant": true
    },
    {
      "inputs": [],
      "name": "findDoctors",
      "outputs": [
        {
          "internalType": "address[]",
          "name": "",
          "type": "address[]"
        }
      ],
      "stateMutability": "view",
      "type": "function",
      "constant": true
    },
    {
      "inputs": [],
      "name": "findHospitals",
      "outputs": [
        {
          "internalType": "address[]",
          "name": "",
          "type": "address[]"
        }
      ],
      "stateMutability": "view",
      "type": "function",
      "constant": true
    },
    {
      "inputs": [
        {
          "internalType": "address",
          "name": "_address",
          "type": "address"
        }
      ],
      "name": "getAuthorizedDHDetails",
      "outputs": [
        {
          "components": [
            {
              "internalType": "address",
              "name": "authorizedDHAddress",
              "type": "address"
            },
            {
              "internalType": "string",
              "name": "name",
              "type": "string"
            },
            {
              "internalType": "string",
              "name": "medicalId",
              "type": "string"
            }
          ],
          "internalType": "struct DoctorWeb3.AuthorizedDHDetails",
          "name": "",
          "type": "tuple"
        }
      ],
      "stateMutability": "view",
      "type": "function",
      "constant": true
    },
    {
      "inputs": [
        {
          "internalType": "string",
          "name": "_name",
          "type": "string"
        },
        {
          "internalType": "address",
          "name": "_applicantAddress",
          "type": "address"
        },
        {
          "internalType": "string",
          "name": "_medicalId",
          "type": "string"
        },
        {
          "internalType": "uint256",
          "name": "_applicantType",
          "type": "uint256"
        }
      ],
      "name": "ApplyForVerification",
      "outputs": [
        {
          "internalType": "bytes32",
          "name": "requestId",
          "type": "bytes32"
        }
      ],
      "stateMutability": "nonpayable",
      "type": "function"
    },
    {
      "inputs": [
        {
          "internalType": "bytes32",
          "name": "_requestId",
          "type": "bytes32"
        },
        {
          "internalType": "bool",
          "name": "_verification",
          "type": "bool"
        }
      ],
      "name": "fulfill",
      "outputs": [],
      "stateMutability": "nonpayable",
      "type": "function"
    },
    {
      "inputs": [
        {
          "internalType": "string",
          "name": "_fileHash",
          "type": "string"
        },
        {
          "internalType": "string",
          "name": "_category",
          "type": "string"
        },
        {
          "internalType": "uint256",
          "name": "_age",
          "type": "uint256"
        },
        {
          "internalType": "uint256",
          "name": "_weight",
          "type": "uint256"
        },
        {
          "internalType": "uint256",
          "name": "_height",
          "type": "uint256"
        },
        {
          "internalType": "string",
          "name": "_gender",
          "type": "string"
        },
        {
          "internalType": "string",
          "name": "_bloodGroup",
          "type": "string"
        }
      ],
      "name": "uploadReport",
      "outputs": [],
      "stateMutability": "nonpayable",
      "type": "function"
    },
    {
      "inputs": [],
      "name": "testFunction",
      "outputs": [
        {
          "internalType": "string",
          "name": "myString",
          "type": "string"
        }
      ],
      "stateMutability": "pure",
      "type": "function",
      "constant": true
    }
  ],
  "bytecode": "0x608060405260016004553480156200001657600080fd5b5033600660006101000a81548173ffffffffffffffffffffffffffffffffffffffff021916908373ffffffffffffffffffffffffffffffffffffffff1602179055506200007d73326c977e6efc84e512bb9c30f76e30c160ed06fb6200010e60201b60201c565b7340193c8518bb267228fc409a613bdbd8ec5a97b3600760006101000a81548173ffffffffffffffffffffffffffffffffffffffff021916908373ffffffffffffffffffffffffffffffffffffffff1602179055507f633163356539323838303839346562366232376433636165313936373061613360088190555067016345785d8a000060098190555062000152565b80600260006101000a81548173ffffffffffffffffffffffffffffffffffffffff021916908373ffffffffffffffffffffffffffffffffffffffff16021790555050565b613ffd80620001626000396000f3fe608060405234801561001057600080fd5b50600436106100f55760003560e01c80637f59624111610097578063e5e7892011610066578063e5e78920146102c6578063e65a0691146102f6578063fcd9f2c014610326578063fd68990a14610358576100f5565b80637f5962411461022a5780639b43ef6514610248578063aa134f1e14610278578063e16b4a9b146102a8576100f5565b806318718fa9116100d357806318718fa9146101645780634af23337146101945780635bfc0548146101c757806373b911d5146101f7576100f5565b8063060efe0e146100fa5780631057299c1461012a57806312ecfacf14610146575b600080fd5b610114600480360381019061010f9190612a7b565b610374565b6040516101219190612c9e565b60405180910390f35b610144600480360381019061013f9190612cec565b6106d2565b005b61014e61094b565b60405161015b9190612ead565b60405180910390f35b61017e60048036038101906101799190612efb565b6109d9565b60405161018b9190612f7f565b60405180910390f35b6101ae60048036038101906101a99190612fd7565b610bac565b6040516101be949392919061306c565b60405180910390f35b6101e160048036038101906101dc9190612efb565b610d0c565b6040516101ee91906130da565b60405180910390f35b610211600480360381019061020c9190612a7b565b610d2c565b6040516102219493929190613185565b60405180910390f35b610232611044565b60405161023f9190612ead565b60405180910390f35b610262600480360381019061025d91906131df565b6110d2565b60405161026f919061328d565b60405180910390f35b610292600480360381019061028d91906132a8565b611382565b60405161029f91906132e8565b60405180910390f35b6102b061143b565b6040516102bd91906132e8565b60405180910390f35b6102e060048036038101906102db9190612efb565b61145b565b6040516102ed91906130da565b60405180910390f35b610310600480360381019061030b9190612efb565b61147b565b60405161031d91906133cc565b60405180910390f35b610340600480360381019061033b9190612efb565b611593565b60405161034f939291906133ee565b60405180910390f35b610372600480360381019061036d919061345f565b6116ed565b005b61037c6127d3565b600d8260405161038c91906134db565b90815260200160405180910390206040518060800160405290816000820180546103b590613521565b80601f01602080910402602001604051908101604052809291908181526020018280546103e190613521565b801561042e5780601f106104035761010080835404028352916020019161042e565b820191906000526020600020905b81548152906001019060200180831161041157829003601f168201915b5050505050815260200160018201805461044790613521565b80601f016020809104026020016040519081016040528092919081815260200182805461047390613521565b80156104c05780601f10610495576101008083540402835291602001916104c0565b820191906000526020600020905b8154815290600101906020018083116104a357829003601f168201915b505050505081526020016002820160009054906101000a900473ffffffffffffffffffffffffffffffffffffffff1673ffffffffffffffffffffffffffffffffffffffff1673ffffffffffffffffffffffffffffffffffffffff168152602001600382016040518060c00160405290816000820160009054906101000a900473ffffffffffffffffffffffffffffffffffffffff1673ffffffffffffffffffffffffffffffffffffffff1673ffffffffffffffffffffffffffffffffffffffff1681526020016001820154815260200160028201548152602001600382015481526020016004820180546105b390613521565b80601f01602080910402602001604051908101604052809291908181526020018280546105df90613521565b801561062c5780601f106106015761010080835404028352916020019161062c565b820191906000526020600020905b81548152906001019060200180831161060f57829003601f168201915b5050505050815260200160058201805461064590613521565b80601f016020809104026020016040519081016040528092919081815260200182805461067190613521565b80156106be5780601f10610693576101008083540402835291602001916106be565b820191906000526020600020905b8154815290600101906020018083116106a157829003601f168201915b505050505081525050815250509050919050565b6106da612817565b6106e26127d3565b33826000019073ffffffffffffffffffffffffffffffffffffffff16908173ffffffffffffffffffffffffffffffffffffffff168152505086826020018181525050828260a00181905250838260800181905250858260400181815250508482606001818152505088816000018190525033816040019073ffffffffffffffffffffffffffffffffffffffff16908173ffffffffffffffffffffffffffffffffffffffff168152505087816020018190525081816060018190525080600d8a6040516107ae91906134db565b908152602001604051809103902060008201518160000190816107d191906136fe565b5060208201518160010190816107e791906136fe565b5060408201518160020160006101000a81548173ffffffffffffffffffffffffffffffffffffffff021916908373ffffffffffffffffffffffffffffffffffffffff16021790555060608201518160030160008201518160000160006101000a81548173ffffffffffffffffffffffffffffffffffffffff021916908373ffffffffffffffffffffffffffffffffffffffff16021790555060208201518160010155604082015181600201556060820151816003015560808201518160040190816108b291906136fe565b5060a08201518160050190816108c891906136fe565b505050905050600c60003373ffffffffffffffffffffffffffffffffffffffff1673ffffffffffffffffffffffffffffffffffffffff1681526020019081526020016000208990806001815401808255809150506001900390600052602060002001600090919091909150908161093f91906136fe565b50505050505050505050565b6060600a8054806020026020016040519081016040528092919081815260200182805480156109cf57602002820191906000526020600020905b8160009054906101000a900473ffffffffffffffffffffffffffffffffffffffff1673ffffffffffffffffffffffffffffffffffffffff1681526020019060010190808311610985575b5050505050905090565b6109e1612863565b601060008373ffffffffffffffffffffffffffffffffffffffff1673ffffffffffffffffffffffffffffffffffffffff1681526020019081526020016000206040518060600160405290816000820160009054906101000a900473ffffffffffffffffffffffffffffffffffffffff1673ffffffffffffffffffffffffffffffffffffffff1673ffffffffffffffffffffffffffffffffffffffff168152602001600182018054610a9190613521565b80601f0160208091040260200160405190810160405280929190818152602001828054610abd90613521565b8015610b0a5780601f10610adf57610100808354040283529160200191610b0a565b820191906000526020600020905b815481529060010190602001808311610aed57829003601f168201915b50505050508152602001600282018054610b2390613521565b80601f0160208091040260200160405190810160405280929190818152602001828054610b4f90613521565b8015610b9c5780601f10610b7157610100808354040283529160200191610b9c565b820191906000526020600020905b815481529060010190602001808311610b7f57829003601f168201915b5050505050815250509050919050565b600e602052806000526040600020600091509050806000018054610bcf90613521565b80601f0160208091040260200160405190810160405280929190818152602001828054610bfb90613521565b8015610c485780601f10610c1d57610100808354040283529160200191610c48565b820191906000526020600020905b815481529060010190602001808311610c2b57829003601f168201915b5050505050908060010160009054906101000a900473ffffffffffffffffffffffffffffffffffffffff1690806002018054610c8390613521565b80601f0160208091040260200160405190810160405280929190818152602001828054610caf90613521565b8015610cfc5780601f10610cd157610100808354040283529160200191610cfc565b820191906000526020600020905b815481529060010190602001808311610cdf57829003601f168201915b5050505050908060030154905084565b60126020528060005260406000206000915054906101000a900460ff1681565b600d81805160208101820180518482526020830160208501208183528095505050505050600091509050806000018054610d6590613521565b80601f0160208091040260200160405190810160405280929190818152602001828054610d9190613521565b8015610dde5780601f10610db357610100808354040283529160200191610dde565b820191906000526020600020905b815481529060010190602001808311610dc157829003601f168201915b505050505090806001018054610df390613521565b80601f0160208091040260200160405190810160405280929190818152602001828054610e1f90613521565b8015610e6c5780601f10610e4157610100808354040283529160200191610e6c565b820191906000526020600020905b815481529060010190602001808311610e4f57829003601f168201915b5050505050908060020160009054906101000a900473ffffffffffffffffffffffffffffffffffffffff1690806003016040518060c00160405290816000820160009054906101000a900473ffffffffffffffffffffffffffffffffffffffff1673ffffffffffffffffffffffffffffffffffffffff1673ffffffffffffffffffffffffffffffffffffffff168152602001600182015481526020016002820154815260200160038201548152602001600482018054610f2b90613521565b80601f0160208091040260200160405190810160405280929190818152602001828054610f5790613521565b8015610fa45780601f10610f7957610100808354040283529160200191610fa4565b820191906000526020600020905b815481529060010190602001808311610f8757829003601f168201915b50505050508152602001600582018054610fbd90613521565b80601f0160208091040260200160405190810160405280929190818152602001828054610fe990613521565b80156110365780601f1061100b57610100808354040283529160200191611036565b820191906000526020600020905b81548152906001019060200180831161101957829003601f168201915b505050505081525050905084565b6060600b8054806020026020016040519081016040528092919081815260200182805480156110c857602002820191906000526020600020905b8160009054906101000a900473ffffffffffffffffffffffffffffffffffffffff1673ffffffffffffffffffffffffffffffffffffffff168152602001906001019080831161107e575b5050505050905090565b600060018214806110e35750600082145b611122576040517f08c379a00000000000000000000000000000000000000000000000000000000081526004016111199061381c565b60405180910390fd5b600f8360405161113291906134db565b908152602001604051809103902060009054906101000a900460ff161561118e576040517f08c379a000000000000000000000000000000000000000000000000000000000815260040161118590613888565b60405180910390fd5b60006111a46008543063fd68990a60e01b611aad565b90506111ff6040518060400160405280600381526020017f67657400000000000000000000000000000000000000000000000000000000008152506040518060200160405280600081525083611ade9092919063ffffffff16565b61127e6040518060400160405280600481526020017f70617468000000000000000000000000000000000000000000000000000000008152506040518060400160405280601381526020017f564552494649434154494f4e2e5354415455530000000000000000000000000081525083611ade9092919063ffffffff16565b6112ad600760009054906101000a900473ffffffffffffffffffffffffffffffffffffffff1682600954611b11565b915060405180608001604052808781526020018673ffffffffffffffffffffffffffffffffffffffff16815260200185815260200184815250600e6000848152602001908152602001600020600082015181600001908161130e91906136fe565b5060208201518160010160006101000a81548173ffffffffffffffffffffffffffffffffffffffff021916908373ffffffffffffffffffffffffffffffffffffffff160217905550604082015181600201908161136b91906136fe565b506060820151816003015590505050949350505050565b600c602052816000526040600020818154811061139e57600080fd5b906000526020600020016000915091505080546113ba90613521565b80601f01602080910402602001604051908101604052809291908181526020018280546113e690613521565b80156114335780601f1061140857610100808354040283529160200191611433565b820191906000526020600020905b81548152906001019060200180831161141657829003601f168201915b505050505081565b60606040518060600160405280602a8152602001613f9e602a9139905090565b60116020528060005260406000206000915054906101000a900460ff1681565b6060600c60008373ffffffffffffffffffffffffffffffffffffffff1673ffffffffffffffffffffffffffffffffffffffff168152602001908152602001600020805480602002602001604051908101604052809291908181526020016000905b828210156115885783829060005260206000200180546114fb90613521565b80601f016020809104026020016040519081016040528092919081815260200182805461152790613521565b80156115745780601f1061154957610100808354040283529160200191611574565b820191906000526020600020905b81548152906001019060200180831161155757829003601f168201915b5050505050815260200190600101906114dc565b505050509050919050565b60106020528060005260406000206000915090508060000160009054906101000a900473ffffffffffffffffffffffffffffffffffffffff16908060010180546115dc90613521565b80601f016020809104026020016040519081016040528092919081815260200182805461160890613521565b80156116555780601f1061162a57610100808354040283529160200191611655565b820191906000526020600020905b81548152906001019060200180831161163857829003601f168201915b50505050509080600201805461166a90613521565b80601f016020809104026020016040519081016040528092919081815260200182805461169690613521565b80156116e35780601f106116b8576101008083540402835291602001916116e3565b820191906000526020600020905b8154815290600101906020018083116116c657829003601f168201915b5050505050905083565b816005600082815260200190815260200160002060009054906101000a900473ffffffffffffffffffffffffffffffffffffffff1673ffffffffffffffffffffffffffffffffffffffff163373ffffffffffffffffffffffffffffffffffffffff161461178f576040517f08c379a00000000000000000000000000000000000000000000000000000000081526004016117869061391a565b60405180910390fd5b6005600082815260200190815260200160002060006101000a81549073ffffffffffffffffffffffffffffffffffffffff0219169055807f7cc135e0cebb02c3480ae5d74d377283180a2601f8f644edf7987b009316c63a60405160405180910390a26000600e600085815260200190815260200160002060405180608001604052908160008201805461182290613521565b80601f016020809104026020016040519081016040528092919081815260200182805461184e90613521565b801561189b5780601f106118705761010080835404028352916020019161189b565b820191906000526020600020905b81548152906001019060200180831161187e57829003601f168201915b505050505081526020016001820160009054906101000a900473ffffffffffffffffffffffffffffffffffffffff1673ffffffffffffffffffffffffffffffffffffffff1673ffffffffffffffffffffffffffffffffffffffff16815260200160028201805461190a90613521565b80601f016020809104026020016040519081016040528092919081815260200182805461193690613521565b80156119835780601f1061195857610100808354040283529160200191611983565b820191906000526020600020905b81548152906001019060200180831161196657829003601f168201915b5050505050815260200160038201548152505090508215611a275760008160600151036119c6576119c1816020015182600001518360400151611bdd565b6119de565b6119dd816020015182600001518360400151611e70565b5b7f43fa451d1fb47cf164ccb6a777532e04af59430576b822519086e12fa351f151816020015182604001516001604051611a1a9392919061393a565b60405180910390a1611a6c565b7f43fa451d1fb47cf164ccb6a777532e04af59430576b822519086e12fa351f151816020015182604001516000604051611a639392919061393a565b60405180910390a15b6001600f8260400151604051611a8291906134db565b908152602001604051809103902060006101000a81548160ff02191690831515021790555050505050565b611ab561289a565b611abd61289a565b611ad485858584612103909392919063ffffffff16565b9150509392505050565b611af58284608001516121b390919063ffffffff16565b611b0c8184608001516121b390919063ffffffff16565b505050565b6000806004549050600181611b2691906139a7565b6004819055506000634042994660e01b60008087600001513089604001518760018c6080015160000151604051602401611b67989796959493929190613a6b565b604051602081830303815290604052907bffffffffffffffffffffffffffffffffffffffffffffffffffffffff19166020820180517bffffffffffffffffffffffffffffffffffffffffffffffffffffffff83818316178352505050509050611bd2868386846121d8565b925050509392505050565b601260008473ffffffffffffffffffffffffffffffffffffffff1673ffffffffffffffffffffffffffffffffffffffff16815260200190815260200160002060009054906101000a900460ff1615611c6a576040517f08c379a0000000000000000000000000000000000000000000000000000000008152600401611c6190613b3c565b60405180910390fd5b600a839080600181540180825580915050600190039060005260206000200160009091909190916101000a81548173ffffffffffffffffffffffffffffffffffffffff021916908373ffffffffffffffffffffffffffffffffffffffff1602179055506001601260008573ffffffffffffffffffffffffffffffffffffffff1673ffffffffffffffffffffffffffffffffffffffff16815260200190815260200160002060006101000a81548160ff021916908315150217905550611d2d612863565b83816000019073ffffffffffffffffffffffffffffffffffffffff16908173ffffffffffffffffffffffffffffffffffffffff168152505082816020018190525081816040018190525080601060008673ffffffffffffffffffffffffffffffffffffffff1673ffffffffffffffffffffffffffffffffffffffff16815260200190815260200160002060008201518160000160006101000a81548173ffffffffffffffffffffffffffffffffffffffff021916908373ffffffffffffffffffffffffffffffffffffffff1602179055506020820151816001019081611e1391906136fe565b506040820151816002019081611e2991906136fe565b509050507f5d8da039f46939dac1f22e6429f726ab699d613ead17618999c45147211fb9d383858442604051611e62949392919061306c565b60405180910390a150505050565b601160008473ffffffffffffffffffffffffffffffffffffffff1673ffffffffffffffffffffffffffffffffffffffff16815260200190815260200160002060009054906101000a900460ff1615611efd576040517f08c379a0000000000000000000000000000000000000000000000000000000008152600401611ef490613b3c565b60405180910390fd5b600b839080600181540180825580915050600190039060005260206000200160009091909190916101000a81548173ffffffffffffffffffffffffffffffffffffffff021916908373ffffffffffffffffffffffffffffffffffffffff1602179055506001601160008573ffffffffffffffffffffffffffffffffffffffff1673ffffffffffffffffffffffffffffffffffffffff16815260200190815260200160002060006101000a81548160ff021916908315150217905550611fc0612863565b83816000019073ffffffffffffffffffffffffffffffffffffffff16908173ffffffffffffffffffffffffffffffffffffffff168152505082816020018190525081816040018190525080601060008673ffffffffffffffffffffffffffffffffffffffff1673ffffffffffffffffffffffffffffffffffffffff16815260200190815260200160002060008201518160000160006101000a81548173ffffffffffffffffffffffffffffffffffffffff021916908373ffffffffffffffffffffffffffffffffffffffff16021790555060208201518160010190816120a691906136fe565b5060408201518160020190816120bc91906136fe565b509050507f465daa34e4a04fd10e1b1da9ecb97133b5ff5b459841488cb1d9128dd793fd4d838584426040516120f5949392919061306c565b60405180910390a150505050565b61210b61289a565b61211b856080015161010061236d565b508385600001818152505082856020019073ffffffffffffffffffffffffffffffffffffffff16908173ffffffffffffffffffffffffffffffffffffffff16815250508185604001907bffffffffffffffffffffffffffffffffffffffffffffffffffffffff191690817bffffffffffffffffffffffffffffffffffffffffffffffffffffffff191681525050849050949350505050565b6121c082600383516123d7565b6121d3818361255c90919063ffffffff16565b505050565b600030846040516020016121ed929190613c0b565b604051602081830303815290604052805190602001209050846005600083815260200190815260200160002060006101000a81548173ffffffffffffffffffffffffffffffffffffffff021916908373ffffffffffffffffffffffffffffffffffffffff160217905550807fb5e6e01e79f91267dc17b4e6314d5d4d03593d2ceee0fbb452b750bd70ea5af960405160405180910390a2600260009054906101000a900473ffffffffffffffffffffffffffffffffffffffff1673ffffffffffffffffffffffffffffffffffffffff16634000aea08685856040518463ffffffff1660e01b81526004016122e393929190613c37565b6020604051808303816000875af1158015612302573d6000803e3d6000fd5b505050506040513d601f19601f820116820180604052508101906123269190613c8a565b612365576040517f08c379a000000000000000000000000000000000000000000000000000000000815260040161235c90613d29565b60405180910390fd5b949350505050565b612375612907565b60006020836123849190613d78565b146123b0576020826123969190613d78565b60206123a29190613da9565b826123ad91906139a7565b91505b81836020018181525050604051808452600081528281016020016040525082905092915050565b60178167ffffffffffffffff161161240e576124088160058460ff16901b60ff16178461257e90919063ffffffff16565b50612557565b60ff8167ffffffffffffffff16116124645761243d601860058460ff16901b178461257e90919063ffffffff16565b5061245e8167ffffffffffffffff1660018561259e9092919063ffffffff16565b50612556565b61ffff8167ffffffffffffffff16116124bb57612494601960058460ff16901b178461257e90919063ffffffff16565b506124b58167ffffffffffffffff1660028561259e9092919063ffffffff16565b50612555565b63ffffffff8167ffffffffffffffff1611612514576124ed601a60058460ff16901b178461257e90919063ffffffff16565b5061250e8167ffffffffffffffff1660048561259e9092919063ffffffff16565b50612554565b612531601b60058460ff16901b178461257e90919063ffffffff16565b506125528167ffffffffffffffff1660088561259e9092919063ffffffff16565b505b5b5b5b505050565b612564612907565b612576838460000151518485516125c0565b905092915050565b612586612907565b61259683846000015151846126af565b905092915050565b6125a6612907565b6125b7848560000151518585612705565b90509392505050565b6125c8612907565b82518211156125d657600080fd5b846020015182856125e791906139a7565b111561261c5761261b85600261260c8860200151888761260791906139a7565b612793565b6126169190613ddd565b6127af565b5b60008086518051876020830101935080888701111561263b5787860182525b60208701925050505b60208410612682578051825260208261265d91906139a7565b915060208161266c91906139a7565b905060208461267b9190613da9565b9350612644565b60006001856020036101000a03905080198251168184511681811785525050508692505050949350505050565b6126b7612907565b836020015183106126dd576126dc84600286602001516126d79190613ddd565b6127af565b5b835180516020858301018481538186036126f8576001820183525b5050508390509392505050565b61270d612907565b8460200151848361271e91906139a7565b111561274657612745856002868561273691906139a7565b6127409190613ddd565b6127af565b5b60006001836101006127589190613f52565b6127629190613da9565b905085518386820101858319825116178152815185880111156127855784870182525b505085915050949350505050565b6000818311156127a5578290506127a9565b8190505b92915050565b6000826000015190506127c2838361236d565b506127cd838261255c565b50505050565b60405180608001604052806060815260200160608152602001600073ffffffffffffffffffffffffffffffffffffffff168152602001612811612817565b81525090565b6040518060c00160405280600073ffffffffffffffffffffffffffffffffffffffff16815260200160008152602001600081526020016000815260200160608152602001606081525090565b6040518060600160405280600073ffffffffffffffffffffffffffffffffffffffff16815260200160608152602001606081525090565b6040518060a0016040528060008019168152602001600073ffffffffffffffffffffffffffffffffffffffff16815260200160007bffffffffffffffffffffffffffffffffffffffffffffffffffffffff1916815260200160008152602001612901612907565b81525090565b604051806040016040528060608152602001600081525090565b6000604051905090565b600080fd5b600080fd5b600080fd5b600080fd5b6000601f19601f8301169050919050565b7f4e487b7100000000000000000000000000000000000000000000000000000000600052604160045260246000fd5b6129888261293f565b810181811067ffffffffffffffff821117156129a7576129a6612950565b5b80604052505050565b60006129ba612921565b90506129c6828261297f565b919050565b600067ffffffffffffffff8211156129e6576129e5612950565b5b6129ef8261293f565b9050602081019050919050565b82818337600083830152505050565b6000612a1e612a19846129cb565b6129b0565b905082815260208101848484011115612a3a57612a3961293a565b5b612a458482856129fc565b509392505050565b600082601f830112612a6257612a61612935565b5b8135612a72848260208601612a0b565b91505092915050565b600060208284031215612a9157612a9061292b565b5b600082013567ffffffffffffffff811115612aaf57612aae612930565b5b612abb84828501612a4d565b91505092915050565b600081519050919050565b600082825260208201905092915050565b60005b83811015612afe578082015181840152602081019050612ae3565b60008484015250505050565b6000612b1582612ac4565b612b1f8185612acf565b9350612b2f818560208601612ae0565b612b388161293f565b840191505092915050565b600073ffffffffffffffffffffffffffffffffffffffff82169050919050565b6000612b6e82612b43565b9050919050565b612b7e81612b63565b82525050565b6000819050919050565b612b9781612b84565b82525050565b600060c083016000830151612bb56000860182612b75565b506020830151612bc86020860182612b8e565b506040830151612bdb6040860182612b8e565b506060830151612bee6060860182612b8e565b5060808301518482036080860152612c068282612b0a565b91505060a083015184820360a0860152612c208282612b0a565b9150508091505092915050565b60006080830160008301518482036000860152612c4a8282612b0a565b91505060208301518482036020860152612c648282612b0a565b9150506040830151612c796040860182612b75565b5060608301518482036060860152612c918282612b9d565b9150508091505092915050565b60006020820190508181036000830152612cb88184612c2d565b905092915050565b612cc981612b84565b8114612cd457600080fd5b50565b600081359050612ce681612cc0565b92915050565b600080600080600080600060e0888a031215612d0b57612d0a61292b565b5b600088013567ffffffffffffffff811115612d2957612d28612930565b5b612d358a828b01612a4d565b975050602088013567ffffffffffffffff811115612d5657612d55612930565b5b612d628a828b01612a4d565b9650506040612d738a828b01612cd7565b9550506060612d848a828b01612cd7565b9450506080612d958a828b01612cd7565b93505060a088013567ffffffffffffffff811115612db657612db5612930565b5b612dc28a828b01612a4d565b92505060c088013567ffffffffffffffff811115612de357612de2612930565b5b612def8a828b01612a4d565b91505092959891949750929550565b600081519050919050565b600082825260208201905092915050565b6000819050602082019050919050565b6000612e368383612b75565b60208301905092915050565b6000602082019050919050565b6000612e5a82612dfe565b612e648185612e09565b9350612e6f83612e1a565b8060005b83811015612ea0578151612e878882612e2a565b9750612e9283612e42565b925050600181019050612e73565b5085935050505092915050565b60006020820190508181036000830152612ec78184612e4f565b905092915050565b612ed881612b63565b8114612ee357600080fd5b50565b600081359050612ef581612ecf565b92915050565b600060208284031215612f1157612f1061292b565b5b6000612f1f84828501612ee6565b91505092915050565b6000606083016000830151612f406000860182612b75565b5060208301518482036020860152612f588282612b0a565b91505060408301518482036040860152612f728282612b0a565b9150508091505092915050565b60006020820190508181036000830152612f998184612f28565b905092915050565b6000819050919050565b612fb481612fa1565b8114612fbf57600080fd5b50565b600081359050612fd181612fab565b92915050565b600060208284031215612fed57612fec61292b565b5b6000612ffb84828501612fc2565b91505092915050565b600082825260208201905092915050565b600061302082612ac4565b61302a8185613004565b935061303a818560208601612ae0565b6130438161293f565b840191505092915050565b61305781612b63565b82525050565b61306681612b84565b82525050565b600060808201905081810360008301526130868187613015565b9050613095602083018661304e565b81810360408301526130a78185613015565b90506130b6606083018461305d565b95945050505050565b60008115159050919050565b6130d4816130bf565b82525050565b60006020820190506130ef60008301846130cb565b92915050565b600060c08301600083015161310d6000860182612b75565b5060208301516131206020860182612b8e565b5060408301516131336040860182612b8e565b5060608301516131466060860182612b8e565b506080830151848203608086015261315e8282612b0a565b91505060a083015184820360a08601526131788282612b0a565b9150508091505092915050565b6000608082019050818103600083015261319f8187613015565b905081810360208301526131b38186613015565b90506131c2604083018561304e565b81810360608301526131d481846130f5565b905095945050505050565b600080600080608085870312156131f9576131f861292b565b5b600085013567ffffffffffffffff81111561321757613216612930565b5b61322387828801612a4d565b945050602061323487828801612ee6565b935050604085013567ffffffffffffffff81111561325557613254612930565b5b61326187828801612a4d565b925050606061327287828801612cd7565b91505092959194509250565b61328781612fa1565b82525050565b60006020820190506132a2600083018461327e565b92915050565b600080604083850312156132bf576132be61292b565b5b60006132cd85828601612ee6565b92505060206132de85828601612cd7565b9150509250929050565b600060208201905081810360008301526133028184613015565b905092915050565b600081519050919050565b600082825260208201905092915050565b6000819050602082019050919050565b60006133428383612b0a565b905092915050565b6000602082019050919050565b60006133628261330a565b61336c8185613315565b93508360208202850161337e85613326565b8060005b858110156133ba578484038952815161339b8582613336565b94506133a68361334a565b925060208a01995050600181019050613382565b50829750879550505050505092915050565b600060208201905081810360008301526133e68184613357565b905092915050565b6000606082019050613403600083018661304e565b81810360208301526134158185613015565b905081810360408301526134298184613015565b9050949350505050565b61343c816130bf565b811461344757600080fd5b50565b60008135905061345981613433565b92915050565b600080604083850312156134765761347561292b565b5b600061348485828601612fc2565b92505060206134958582860161344a565b9150509250929050565b600081905092915050565b60006134b582612ac4565b6134bf818561349f565b93506134cf818560208601612ae0565b80840191505092915050565b60006134e782846134aa565b915081905092915050565b7f4e487b7100000000000000000000000000000000000000000000000000000000600052602260045260246000fd5b6000600282049050600182168061353957607f821691505b60208210810361354c5761354b6134f2565b5b50919050565b60008190508160005260206000209050919050565b60006020601f8301049050919050565b600082821b905092915050565b6000600883026135b47fffffffffffffffffffffffffffffffffffffffffffffffffffffffffffffffff82613577565b6135be8683613577565b95508019841693508086168417925050509392505050565b6000819050919050565b60006135fb6135f66135f184612b84565b6135d6565b612b84565b9050919050565b6000819050919050565b613615836135e0565b61362961362182613602565b848454613584565b825550505050565b600090565b61363e613631565b61364981848461360c565b505050565b5b8181101561366d57613662600082613636565b60018101905061364f565b5050565b601f8211156136b25761368381613552565b61368c84613567565b8101602085101561369b578190505b6136af6136a785613567565b83018261364e565b50505b505050565b600082821c905092915050565b60006136d5600019846008026136b7565b1980831691505092915050565b60006136ee83836136c4565b9150826002028217905092915050565b61370782612ac4565b67ffffffffffffffff8111156137205761371f612950565b5b61372a8254613521565b613735828285613671565b600060209050601f8311600181146137685760008415613756578287015190505b61376085826136e2565b8655506137c8565b601f19841661377686613552565b60005b8281101561379e57848901518255600182019150602085019450602081019050613779565b868310156137bb57848901516137b7601f8916826136c4565b8355505b6001600288020188555050505b505050505050565b7f4170706c792069642073686f756c64206265206569746865722030206f722031600082015250565b6000613806602083613004565b9150613811826137d0565b602082019050919050565b60006020820190508181036000830152613835816137f9565b9050919050565b7f4d65646963616c20494420697320616c72656164792075736564000000000000600082015250565b6000613872601a83613004565b915061387d8261383c565b602082019050919050565b600060208201905081810360008301526138a181613865565b9050919050565b7f536f75726365206d75737420626520746865206f7261636c65206f662074686560008201527f2072657175657374000000000000000000000000000000000000000000000000602082015250565b6000613904602883613004565b915061390f826138a8565b604082019050919050565b60006020820190508181036000830152613933816138f7565b9050919050565b600060608201905061394f600083018661304e565b81810360208301526139618185613015565b905061397060408301846130cb565b949350505050565b7f4e487b7100000000000000000000000000000000000000000000000000000000600052601160045260246000fd5b60006139b282612b84565b91506139bd83612b84565b92508282019050808211156139d5576139d4613978565b5b92915050565b60007fffffffff0000000000000000000000000000000000000000000000000000000082169050919050565b613a10816139db565b82525050565b600081519050919050565b600082825260208201905092915050565b6000613a3d82613a16565b613a478185613a21565b9350613a57818560208601612ae0565b613a608161293f565b840191505092915050565b600061010082019050613a81600083018b61304e565b613a8e602083018a61305d565b613a9b604083018961327e565b613aa8606083018861304e565b613ab56080830187613a07565b613ac260a083018661305d565b613acf60c083018561305d565b81810360e0830152613ae18184613a32565b90509998505050505050505050565b7f416c726561647920726567697374657265642100000000000000000000000000600082015250565b6000613b26601383613004565b9150613b3182613af0565b602082019050919050565b60006020820190508181036000830152613b5581613b19565b9050919050565b6000613b77613b72613b6d84612b43565b6135d6565b612b43565b9050919050565b6000613b8982613b5c565b9050919050565b6000613b9b82613b7e565b9050919050565b60008160601b9050919050565b6000613bba82613ba2565b9050919050565b6000613bcc82613baf565b9050919050565b613be4613bdf82613b90565b613bc1565b82525050565b6000819050919050565b613c05613c0082612b84565b613bea565b82525050565b6000613c178285613bd3565b601482019150613c278284613bf4565b6020820191508190509392505050565b6000606082019050613c4c600083018661304e565b613c59602083018561305d565b8181036040830152613c6b8184613a32565b9050949350505050565b600081519050613c8481613433565b92915050565b600060208284031215613ca057613c9f61292b565b5b6000613cae84828501613c75565b91505092915050565b7f756e61626c6520746f207472616e73666572416e6443616c6c20746f206f726160008201527f636c650000000000000000000000000000000000000000000000000000000000602082015250565b6000613d13602383613004565b9150613d1e82613cb7565b604082019050919050565b60006020820190508181036000830152613d4281613d06565b9050919050565b7f4e487b7100000000000000000000000000000000000000000000000000000000600052601260045260246000fd5b6000613d8382612b84565b9150613d8e83612b84565b925082613d9e57613d9d613d49565b5b828206905092915050565b6000613db482612b84565b9150613dbf83612b84565b9250828203905081811115613dd757613dd6613978565b5b92915050565b6000613de882612b84565b9150613df383612b84565b9250828202613e0181612b84565b91508282048414831517613e1857613e17613978565b5b5092915050565b60008160011c9050919050565b6000808291508390505b6001851115613e7657808604811115613e5257613e51613978565b5b6001851615613e615780820291505b8081029050613e6f85613e1f565b9450613e36565b94509492505050565b600082613e8f5760019050613f4b565b81613e9d5760009050613f4b565b8160018114613eb35760028114613ebd57613eec565b6001915050613f4b565b60ff841115613ecf57613ece613978565b5b8360020a915084821115613ee657613ee5613978565b5b50613f4b565b5060208310610133831016604e8410600b8410161715613f215782820a905083811115613f1c57613f1b613978565b5b613f4b565b613f2e8484846001613e2c565b92509050818404811115613f4557613f44613978565b5b81810290505b9392505050565b6000613f5d82612b84565b9150613f6883612b84565b9250613f957fffffffffffffffffffffffffffffffffffffffffffffffffffffffffffffffff8484613e7f565b90509291505056fe48656c6c6f212054686520436f6e747261637420697320636f6e6e656374656420776974682077656233a264697066735822122063ff758068a5992070bb1b31c0d5767040725debd14ad83fd7eeef92186d0c3164736f6c63430008110033",
  "immutableReferences": {},
  "source": "// SPDX-License-Identifier: MIT\r\npragma solidity ^0.8.0;\r\n\r\n// [X] 1  - Apply for verification as Doctor/Hospital\r\n// [X] 2  - Find Patient/User Reports Collection\r\n// [X] 3  - Find Doctors\r\n// [X] 4  - Find Hospitals\r\n// [X] 5  - Send Report to Doctor/Hospital for analysis\r\n// [ ] 6  - Send Report Analysis back to patient\r\n// [ ] 7  - Reviews Doctor/Hospital on receiving the report\r\n// [X] 8  - Find authorized Doctor/Hospital\r\n\r\nimport \"@chainlink/contracts/src/v0.8/ChainlinkClient.sol\";\r\n\r\ncontract DoctorWeb3 is ChainlinkClient {\r\n    using Chainlink for Chainlink.Request;\r\n    address owner;\r\n    address private oracle;\r\n    bytes32 private jobId;\r\n    uint256 private fee;\r\n\r\n    constructor() {\r\n        owner = msg.sender;\r\n        setChainlinkToken(0x326C977E6efc84E512bB9C30f76E30c160eD06FB);\r\n        oracle = 0x40193c8518BB267228Fc409a613bDbD8eC5a97b3;\r\n        jobId = \"c1c5e92880894eb6b27d3cae19670aa3\";\r\n        fee = 0.1 * 10 ** 18; // 0.1 LINK\r\n    }\r\n\r\n    struct PatientInfo {\r\n        address patient;\r\n        uint256 age;\r\n        uint256 weight;\r\n        uint256 height;\r\n        string gender;\r\n        string bloodGroup;\r\n    }\r\n\r\n    struct Report {\r\n        string fileHash;\r\n        string category;\r\n        address Patient;\r\n        PatientInfo patientInfo;\r\n    }\r\n\r\n    struct Applicant {\r\n        string name;\r\n        address applicantAddress;\r\n        string medicalId;\r\n        uint256 applicantType; // 0 = Doctor, 1 = Hospital\r\n    }\r\n\r\n    struct AuthorizedDHDetails {\r\n        address authorizedDHAddress;\r\n        string name;\r\n        string medicalId;\r\n    }\r\n\r\n    address[] Doctors;\r\n    address[] Hospitals;\r\n    mapping(address => string[]) public PatientReports; // Maps Patient's address to its reports\r\n    mapping(string => Report) public Reports; // Maps report hash value from IPFS to Report Datatype\r\n    mapping(bytes32 => Applicant) public Applicants; // Maps address of applicant to Applicant DataType\r\n    mapping(string => bool) private medicalIdUsed; // Maps medicalId to boolean\r\n    mapping(address => AuthorizedDHDetails) public AuthorizedDH; // Maps address of authorized Doctor or hospital with their details\r\n    mapping(address => bool) public AuthorisedHospital;\r\n    mapping(address => bool) public AuthorisedDoctor;\r\n\r\n    event AuthorizationResult(\r\n        address applicantAddress,\r\n        string medicalId,\r\n        bool status\r\n    );\r\n\r\n    event DoctorAuthorized(\r\n        string name,\r\n        address _authAddress,\r\n        string medicalId,\r\n        uint AuthOnDate\r\n    );\r\n\r\n    event HospitalAuthorized(\r\n        string name,\r\n        address _authAddress,\r\n        string medicalId,\r\n        uint AuthOnDate\r\n    );\r\n\r\n    function getPatientReports(address _address)\r\n        public\r\n        view\r\n        returns (string[] memory)\r\n    {\r\n        return PatientReports[_address];\r\n    }\r\n\r\n    function getDetailedReports(string memory _fileHash)\r\n        public\r\n        view\r\n        returns (Report memory)\r\n    {\r\n        return Reports[_fileHash];\r\n    }\r\n\r\n    function findDoctors() public view returns (address[] memory) {\r\n        return Doctors;\r\n    }\r\n\r\n    function findHospitals() public view returns (address[] memory) {\r\n        return Hospitals;\r\n    }\r\n\r\n    function getAuthorizedDHDetails(address _address) public view returns (AuthorizedDHDetails memory) {\r\n        return AuthorizedDH[_address];\r\n    }\r\n\r\n    function ApplyForVerification(\r\n        string memory _name,\r\n        address _applicantAddress,\r\n        string memory _medicalId,\r\n        uint256 _applicantType\r\n    ) public returns (bytes32 requestId) {\r\n        require(_applicantType == 1 || _applicantType == 0,\"Apply id should be either 0 or 1\");\r\n        require(!medicalIdUsed[_medicalId], \"Medical ID is already used\"); // Stopping function spamming\r\n\r\n        //ChainLink Code for Verification\r\n\r\n        Chainlink.Request memory request = buildChainlinkRequest(jobId, address(this), this.fulfill.selector);\r\n        request.add(\"get\", \"\");\r\n\r\n        //Set the path\r\n        /* {\r\n            \"VERIFICATION\":\r\n                \"STATUS\": true\r\n        } */\r\n        request.add(\"path\", \"VERIFICATION.STATUS\");\r\n\r\n        requestId = sendChainlinkRequestTo(oracle, request, fee);\r\n        Applicants[requestId] = Applicant(\r\n            _name,\r\n            _applicantAddress,\r\n            _medicalId,\r\n            _applicantType\r\n        );\r\n\r\n        return requestId;\r\n    }\r\n\r\n    function fulfill(bytes32 _requestId, bool _verification)\r\n        public\r\n        recordChainlinkFulfillment(_requestId)\r\n    {\r\n        Applicant memory applicant = Applicants[_requestId];\r\n        if (_verification) {\r\n            if (applicant.applicantType == 0) {\r\n                addAuthorizedDoctor(\r\n                    applicant.applicantAddress,\r\n                    applicant.name,\r\n                    applicant.medicalId\r\n                );\r\n            } else {\r\n                addAuthorizedHospital(\r\n                    applicant.applicantAddress,\r\n                    applicant.name,\r\n                    applicant.medicalId\r\n                );\r\n            }\r\n            emit AuthorizationResult(applicant.applicantAddress, applicant.medicalId, true);\r\n        } else {\r\n            emit AuthorizationResult(applicant.applicantAddress, applicant.medicalId, false);\r\n        }\r\n        medicalIdUsed[applicant.medicalId] = true;\r\n    }\r\n\r\n    function addAuthorizedDoctor(\r\n        address _authAddress,\r\n        string memory _name,\r\n        string memory _medicalId\r\n    ) private {\r\n        require(!AuthorisedDoctor[_authAddress], \"Already registered!\");\r\n        Doctors.push(_authAddress);\r\n        AuthorisedDoctor[_authAddress] = true;\r\n\r\n        AuthorizedDHDetails memory _authorizedDHDetail;\r\n\r\n        _authorizedDHDetail.authorizedDHAddress = _authAddress;\r\n        _authorizedDHDetail.name = _name;\r\n        _authorizedDHDetail.medicalId = _medicalId;\r\n\r\n        AuthorizedDH[_authAddress] = _authorizedDHDetail;\r\n\r\n        emit DoctorAuthorized(_name, _authAddress, _medicalId, block.timestamp);\r\n    }\r\n\r\n    function addAuthorizedHospital(\r\n        address _authAddress,\r\n        string memory _name,\r\n        string memory _medicalId\r\n    ) private {\r\n        require(!AuthorisedHospital[_authAddress], \"Already registered!\");\r\n        Hospitals.push(_authAddress);\r\n        AuthorisedHospital[_authAddress] = true;\r\n\r\n        AuthorizedDHDetails memory _authorizedDHDetail;\r\n\r\n        _authorizedDHDetail.authorizedDHAddress = _authAddress;\r\n        _authorizedDHDetail.name = _name;\r\n        _authorizedDHDetail.medicalId = _medicalId;\r\n\r\n        AuthorizedDH[_authAddress] = _authorizedDHDetail;\r\n\r\n        emit HospitalAuthorized(_name, _authAddress, _medicalId, block.timestamp);\r\n    }\r\n\r\n    function uploadReport(\r\n        string memory _fileHash,\r\n        string memory _category,\r\n        uint256 _age,\r\n        uint256 _weight,\r\n        uint256 _height,\r\n        string memory _gender,\r\n        string memory _bloodGroup\r\n    ) public {\r\n        PatientInfo memory _patientInfo;\r\n        Report memory _report;\r\n\r\n        _patientInfo.patient = msg.sender;\r\n        _patientInfo.age = _age;\r\n        _patientInfo.bloodGroup = _bloodGroup;\r\n        _patientInfo.gender = _gender;\r\n        _patientInfo.weight = _weight;\r\n        _patientInfo.height = _height;\r\n\r\n        _report.fileHash = _fileHash;\r\n        _report.Patient = msg.sender;\r\n        _report.category = _category;\r\n        _report.patientInfo = _patientInfo;\r\n\r\n        Reports[_fileHash] = _report;\r\n        PatientReports[msg.sender].push(_fileHash);\r\n    }\r\n\r\n    function testFunction() public pure returns (string memory myString) {\r\n        return \"Hello! The Contract is connected with web3\";\r\n    }\r\n}\r\n",
  "sourcePath": "D:\\OLD_PC\\JavaScript_apps\\React\\DoctorWeb3\\doctorweb3\\src\\contracts\\DoctorWeb3.sol",
  "compiler": {
    "name": "solc",
    "version": "0.8.17+commit.8df45f5f.Emscripten.clang"
  },
  "schemaVersion": "3.4.9",
  "updatedAt": "2022-11-18T17:27:18.958Z",
  "networkType": "ethereum",
  "devdoc": {
    "kind": "dev",
    "methods": {},
    "version": 1
  },
  "userdoc": {
    "kind": "user",
    "methods": {},
    "version": 1
  }
}