{
  "contractName": "DoctorWeb3",
  "abi": [
    {
      "inputs": [],
      "stateMutability": "nonpayable",
      "type": "constructor"
    },
    {
      "anonymous": false,
      "inputs": [
        {
          "indexed": false,
          "internalType": "address",
          "name": "applicantAddress",
          "type": "address"
        },
        {
          "indexed": false,
          "internalType": "string",
          "name": "medicalId",
          "type": "string"
        },
        {
          "indexed": false,
          "internalType": "bool",
          "name": "status",
          "type": "bool"
        }
      ],
      "name": "AuthorizationResult",
      "type": "event"
    },
    {
      "anonymous": false,
      "inputs": [
        {
          "indexed": true,
          "internalType": "bytes32",
          "name": "id",
          "type": "bytes32"
        }
      ],
      "name": "ChainlinkCancelled",
      "type": "event"
    },
    {
      "anonymous": false,
      "inputs": [
        {
          "indexed": true,
          "internalType": "bytes32",
          "name": "id",
          "type": "bytes32"
        }
      ],
      "name": "ChainlinkFulfilled",
      "type": "event"
    },
    {
      "anonymous": false,
      "inputs": [
        {
          "indexed": true,
          "internalType": "bytes32",
          "name": "id",
          "type": "bytes32"
        }
      ],
      "name": "ChainlinkRequested",
      "type": "event"
    },
    {
      "anonymous": false,
      "inputs": [
        {
          "indexed": false,
          "internalType": "string",
          "name": "name",
          "type": "string"
        },
        {
          "indexed": false,
          "internalType": "address",
          "name": "_authAddress",
          "type": "address"
        },
        {
          "indexed": false,
          "internalType": "string",
          "name": "medicalId",
          "type": "string"
        },
        {
          "indexed": false,
          "internalType": "uint256",
          "name": "AuthOnDate",
          "type": "uint256"
        }
      ],
      "name": "DoctorAuthorized",
      "type": "event"
    },
    {
      "anonymous": false,
      "inputs": [
        {
          "indexed": false,
          "internalType": "string",
          "name": "name",
          "type": "string"
        },
        {
          "indexed": false,
          "internalType": "address",
          "name": "_authAddress",
          "type": "address"
        },
        {
          "indexed": false,
          "internalType": "string",
          "name": "medicalId",
          "type": "string"
        },
        {
          "indexed": false,
          "internalType": "uint256",
          "name": "AuthOnDate",
          "type": "uint256"
        }
      ],
      "name": "HospitalAuthorized",
      "type": "event"
    },
    {
      "anonymous": false,
      "inputs": [
        {
          "indexed": false,
          "internalType": "address",
          "name": "",
          "type": "address"
        },
        {
          "indexed": false,
          "internalType": "uint256",
          "name": "",
          "type": "uint256"
        }
      ],
      "name": "Received",
      "type": "event"
    },
    {
      "anonymous": false,
      "inputs": [
        {
          "indexed": true,
          "internalType": "address",
          "name": "author",
          "type": "address"
        },
        {
          "indexed": false,
          "internalType": "string",
          "name": "oldValue",
          "type": "string"
        },
        {
          "indexed": false,
          "internalType": "string",
          "name": "newValue",
          "type": "string"
        }
      ],
      "name": "ValueChanged",
      "type": "event"
    },
    {
      "inputs": [
        {
          "internalType": "bytes32",
          "name": "",
          "type": "bytes32"
        }
      ],
      "name": "Applicants",
      "outputs": [
        {
          "internalType": "string",
          "name": "name",
          "type": "string"
        },
        {
          "internalType": "address",
          "name": "applicantAddress",
          "type": "address"
        },
        {
          "internalType": "string",
          "name": "medicalId",
          "type": "string"
        },
        {
          "internalType": "uint256",
          "name": "applicantType",
          "type": "uint256"
        }
      ],
      "stateMutability": "view",
      "type": "function",
      "constant": true
    },
    {
      "inputs": [
        {
          "internalType": "address",
          "name": "",
          "type": "address"
        }
      ],
      "name": "AuthorisedDoctor",
      "outputs": [
        {
          "internalType": "bool",
          "name": "",
          "type": "bool"
        }
      ],
      "stateMutability": "view",
      "type": "function",
      "constant": true
    },
    {
      "inputs": [
        {
          "internalType": "address",
          "name": "",
          "type": "address"
        }
      ],
      "name": "AuthorisedHospital",
      "outputs": [
        {
          "internalType": "bool",
          "name": "",
          "type": "bool"
        }
      ],
      "stateMutability": "view",
      "type": "function",
      "constant": true
    },
    {
      "inputs": [
        {
          "internalType": "address",
          "name": "",
          "type": "address"
        }
      ],
      "name": "AuthorizedDH",
      "outputs": [
        {
          "internalType": "address",
          "name": "authorizedDHAddress",
          "type": "address"
        },
        {
          "internalType": "string",
          "name": "name",
          "type": "string"
        },
        {
          "internalType": "string",
          "name": "medicalId",
          "type": "string"
        }
      ],
      "stateMutability": "view",
      "type": "function",
      "constant": true
    },
    {
      "inputs": [
        {
          "internalType": "address",
          "name": "",
          "type": "address"
        },
        {
          "internalType": "uint256",
          "name": "",
          "type": "uint256"
        }
      ],
      "name": "PatientReports",
      "outputs": [
        {
          "internalType": "string",
          "name": "",
          "type": "string"
        }
      ],
      "stateMutability": "view",
      "type": "function",
      "constant": true
    },
    {
      "inputs": [
        {
          "internalType": "string",
          "name": "",
          "type": "string"
        }
      ],
      "name": "Reports",
      "outputs": [
        {
          "internalType": "string",
          "name": "fileHash",
          "type": "string"
        },
        {
          "internalType": "string",
          "name": "category",
          "type": "string"
        },
        {
          "internalType": "address",
          "name": "Patient",
          "type": "address"
        },
        {
          "components": [
            {
              "internalType": "address",
              "name": "patient",
              "type": "address"
            },
            {
              "internalType": "uint256",
              "name": "age",
              "type": "uint256"
            },
            {
              "internalType": "uint256",
              "name": "weight",
              "type": "uint256"
            },
            {
              "internalType": "uint256",
              "name": "height",
              "type": "uint256"
            },
            {
              "internalType": "string",
              "name": "gender",
              "type": "string"
            },
            {
              "internalType": "string",
              "name": "bloodGroup",
              "type": "string"
            }
          ],
          "internalType": "struct DoctorWeb3.PatientInfo",
          "name": "patientInfo",
          "type": "tuple"
        }
      ],
      "stateMutability": "view",
      "type": "function",
      "constant": true
    },
    {
      "stateMutability": "payable",
      "type": "receive",
      "payable": true
    },
    {
      "inputs": [],
      "name": "getValue",
      "outputs": [
        {
          "internalType": "string",
          "name": "",
          "type": "string"
        }
      ],
      "stateMutability": "view",
      "type": "function",
      "constant": true
    },
    {
      "inputs": [
        {
          "internalType": "string",
          "name": "value",
          "type": "string"
        }
      ],
      "name": "setValue",
      "outputs": [],
      "stateMutability": "nonpayable",
      "type": "function"
    },
    {
      "inputs": [],
      "name": "testFunction",
      "outputs": [
        {
          "internalType": "string",
          "name": "myString",
          "type": "string"
        }
      ],
      "stateMutability": "pure",
      "type": "function",
      "constant": true
    },
    {
      "inputs": [
        {
          "internalType": "address",
          "name": "_address",
          "type": "address"
        }
      ],
      "name": "getPatientReports",
      "outputs": [
        {
          "internalType": "string[]",
          "name": "",
          "type": "string[]"
        }
      ],
      "stateMutability": "view",
      "type": "function",
      "constant": true
    },
    {
      "inputs": [
        {
          "internalType": "string",
          "name": "_fileHash",
          "type": "string"
        }
      ],
      "name": "getDetailedReports",
      "outputs": [
        {
          "components": [
            {
              "internalType": "string",
              "name": "fileHash",
              "type": "string"
            },
            {
              "internalType": "string",
              "name": "category",
              "type": "string"
            },
            {
              "internalType": "address",
              "name": "Patient",
              "type": "address"
            },
            {
              "components": [
                {
                  "internalType": "address",
                  "name": "patient",
                  "type": "address"
                },
                {
                  "internalType": "uint256",
                  "name": "age",
                  "type": "uint256"
                },
                {
                  "internalType": "uint256",
                  "name": "weight",
                  "type": "uint256"
                },
                {
                  "internalType": "uint256",
                  "name": "height",
                  "type": "uint256"
                },
                {
                  "internalType": "string",
                  "name": "gender",
                  "type": "string"
                },
                {
                  "internalType": "string",
                  "name": "bloodGroup",
                  "type": "string"
                }
              ],
              "internalType": "struct DoctorWeb3.PatientInfo",
              "name": "patientInfo",
              "type": "tuple"
            }
          ],
          "internalType": "struct DoctorWeb3.Report",
          "name": "",
          "type": "tuple"
        }
      ],
      "stateMutability": "view",
      "type": "function",
      "constant": true
    },
    {
      "inputs": [],
      "name": "findDoctors",
      "outputs": [
        {
          "internalType": "address[]",
          "name": "",
          "type": "address[]"
        }
      ],
      "stateMutability": "view",
      "type": "function",
      "constant": true
    },
    {
      "inputs": [],
      "name": "findHospitals",
      "outputs": [
        {
          "internalType": "address[]",
          "name": "",
          "type": "address[]"
        }
      ],
      "stateMutability": "view",
      "type": "function",
      "constant": true
    },
    {
      "inputs": [
        {
          "internalType": "address",
          "name": "_address",
          "type": "address"
        }
      ],
      "name": "getAuthorizedDHDetails",
      "outputs": [
        {
          "components": [
            {
              "internalType": "address",
              "name": "authorizedDHAddress",
              "type": "address"
            },
            {
              "internalType": "string",
              "name": "name",
              "type": "string"
            },
            {
              "internalType": "string",
              "name": "medicalId",
              "type": "string"
            }
          ],
          "internalType": "struct DoctorWeb3.AuthorizedDHDetails",
          "name": "",
          "type": "tuple"
        }
      ],
      "stateMutability": "view",
      "type": "function",
      "constant": true
    },
    {
      "inputs": [
        {
          "internalType": "string",
          "name": "_name",
          "type": "string"
        },
        {
          "internalType": "address",
          "name": "_applicantAddress",
          "type": "address"
        },
        {
          "internalType": "string",
          "name": "_medicalId",
          "type": "string"
        },
        {
          "internalType": "uint256",
          "name": "_applicantType",
          "type": "uint256"
        }
      ],
      "name": "ApplyForVerification",
      "outputs": [
        {
          "internalType": "bytes32",
          "name": "requestId",
          "type": "bytes32"
        }
      ],
      "stateMutability": "nonpayable",
      "type": "function"
    },
    {
      "inputs": [
        {
          "internalType": "bytes32",
          "name": "_requestId",
          "type": "bytes32"
        },
        {
          "internalType": "bool",
          "name": "_verification",
          "type": "bool"
        }
      ],
      "name": "fulfill",
      "outputs": [],
      "stateMutability": "nonpayable",
      "type": "function"
    },
    {
      "inputs": [
        {
          "internalType": "string",
          "name": "_fileHash",
          "type": "string"
        },
        {
          "internalType": "string",
          "name": "_category",
          "type": "string"
        },
        {
          "internalType": "uint256",
          "name": "_age",
          "type": "uint256"
        },
        {
          "internalType": "uint256",
          "name": "_weight",
          "type": "uint256"
        },
        {
          "internalType": "uint256",
          "name": "_height",
          "type": "uint256"
        },
        {
          "internalType": "string",
          "name": "_gender",
          "type": "string"
        },
        {
          "internalType": "string",
          "name": "_bloodGroup",
          "type": "string"
        }
      ],
      "name": "uploadReport",
      "outputs": [],
      "stateMutability": "nonpayable",
      "type": "function"
    }
  ],
  "bytecode": "0x608060405260016004553480156200001657600080fd5b5033600660006101000a81548173ffffffffffffffffffffffffffffffffffffffff021916908373ffffffffffffffffffffffffffffffffffffffff1602179055506200007d73326c977e6efc84e512bb9c30f76e30c160ed06fb6200015560201b60201c565b7340193c8518bb267228fc409a613bdbd8ec5a97b3600760006101000a81548173ffffffffffffffffffffffffffffffffffffffff021916908373ffffffffffffffffffffffffffffffffffffffff1602179055507f633163356539323838303839346562366232376433636165313936373061613360088190555067016345785d8a00006009819055506040518060400160405280600581526020017f68656c6c6f000000000000000000000000000000000000000000000000000000815250600a90816200014e919062000413565b50620004fa565b80600260006101000a81548173ffffffffffffffffffffffffffffffffffffffff021916908373ffffffffffffffffffffffffffffffffffffffff16021790555050565b600081519050919050565b7f4e487b7100000000000000000000000000000000000000000000000000000000600052604160045260246000fd5b7f4e487b7100000000000000000000000000000000000000000000000000000000600052602260045260246000fd5b600060028204905060018216806200021b57607f821691505b602082108103620002315762000230620001d3565b5b50919050565b60008190508160005260206000209050919050565b60006020601f8301049050919050565b600082821b905092915050565b6000600883026200029b7fffffffffffffffffffffffffffffffffffffffffffffffffffffffffffffffff826200025c565b620002a786836200025c565b95508019841693508086168417925050509392505050565b6000819050919050565b6000819050919050565b6000620002f4620002ee620002e884620002bf565b620002c9565b620002bf565b9050919050565b6000819050919050565b6200031083620002d3565b620003286200031f82620002fb565b84845462000269565b825550505050565b600090565b6200033f62000330565b6200034c81848462000305565b505050565b5b8181101562000374576200036860008262000335565b60018101905062000352565b5050565b601f821115620003c3576200038d8162000237565b62000398846200024c565b81016020851015620003a8578190505b620003c0620003b7856200024c565b83018262000351565b50505b505050565b600082821c905092915050565b6000620003e860001984600802620003c8565b1980831691505092915050565b6000620004038383620003d5565b9150826002028217905092915050565b6200041e8262000199565b67ffffffffffffffff8111156200043a5762000439620001a4565b5b62000446825462000202565b6200045382828562000378565b600060209050601f8311600181146200048b576000841562000476578287015190505b620004828582620003f5565b865550620004f2565b601f1984166200049b8662000237565b60005b82811015620004c5578489015182556001820191506020850194506020810190506200049e565b86831015620004e55784890151620004e1601f891682620003d5565b8355505b6001600288020188555050505b505050505050565b61437c806200050a6000396000f3fe6080604052600436106101025760003560e01c80637f59624111610095578063e16b4a9b11610064578063e16b4a9b146103cb578063e5e78920146103f6578063e65a069114610433578063fcd9f2c014610470578063fd68990a146104af57610142565b80637f596241146102fd57806393a09352146103285780639b43ef6514610351578063aa134f1e1461038e57610142565b806320965255116100d157806320965255146102155780634af23337146102405780635bfc05481461028057806373b911d5146102bd57610142565b8063060efe0e146101475780631057299c1461018457806312ecfacf146101ad57806318718fa9146101d857610142565b36610142577f88a5966d370b9919b20f3e2c13ff65706f196a4e32cc2c12bf57088f885258743334604051610138929190612bde565b60405180910390a1005b600080fd5b34801561015357600080fd5b5061016e60048036038101906101699190612d61565b6104d8565b60405161017b9190612f48565b60405180910390f35b34801561019057600080fd5b506101ab60048036038101906101a69190612f96565b610836565b005b3480156101b957600080fd5b506101c2610aaf565b6040516101cf9190613157565b60405180910390f35b3480156101e457600080fd5b506101ff60048036038101906101fa91906131a5565b610b3d565b60405161020c9190613229565b60405180910390f35b34801561022157600080fd5b5061022a610d10565b6040516102379190613295565b60405180910390f35b34801561024c57600080fd5b50610267600480360381019061026291906132ed565b610da2565b604051610277949392919061331a565b60405180910390f35b34801561028c57600080fd5b506102a760048036038101906102a291906131a5565b610f02565b6040516102b49190613388565b60405180910390f35b3480156102c957600080fd5b506102e460048036038101906102df9190612d61565b610f22565b6040516102f49493929190613433565b60405180910390f35b34801561030957600080fd5b5061031261123a565b60405161031f9190613157565b60405180910390f35b34801561033457600080fd5b5061034f600480360381019061034a9190612d61565b6112c8565b005b34801561035d57600080fd5b506103786004803603810190610373919061348d565b61132c565b604051610385919061353b565b60405180910390f35b34801561039a57600080fd5b506103b560048036038101906103b09190613556565b6115e5565b6040516103c29190613295565b60405180910390f35b3480156103d757600080fd5b506103e061169e565b6040516103ed9190613295565b60405180910390f35b34801561040257600080fd5b5061041d600480360381019061041891906131a5565b6116be565b60405161042a9190613388565b60405180910390f35b34801561043f57600080fd5b5061045a600480360381019061045591906131a5565b6116de565b6040516104679190613658565b60405180910390f35b34801561047c57600080fd5b50610497600480360381019061049291906131a5565b6117f6565b6040516104a69392919061367a565b60405180910390f35b3480156104bb57600080fd5b506104d660048036038101906104d191906136eb565b611950565b005b6104e0612a36565b600e826040516104f09190613767565b9081526020016040518091039020604051806080016040529081600082018054610519906137ad565b80601f0160208091040260200160405190810160405280929190818152602001828054610545906137ad565b80156105925780601f1061056757610100808354040283529160200191610592565b820191906000526020600020905b81548152906001019060200180831161057557829003601f168201915b505050505081526020016001820180546105ab906137ad565b80601f01602080910402602001604051908101604052809291908181526020018280546105d7906137ad565b80156106245780601f106105f957610100808354040283529160200191610624565b820191906000526020600020905b81548152906001019060200180831161060757829003601f168201915b505050505081526020016002820160009054906101000a900473ffffffffffffffffffffffffffffffffffffffff1673ffffffffffffffffffffffffffffffffffffffff1673ffffffffffffffffffffffffffffffffffffffff168152602001600382016040518060c00160405290816000820160009054906101000a900473ffffffffffffffffffffffffffffffffffffffff1673ffffffffffffffffffffffffffffffffffffffff1673ffffffffffffffffffffffffffffffffffffffff168152602001600182015481526020016002820154815260200160038201548152602001600482018054610717906137ad565b80601f0160208091040260200160405190810160405280929190818152602001828054610743906137ad565b80156107905780601f1061076557610100808354040283529160200191610790565b820191906000526020600020905b81548152906001019060200180831161077357829003601f168201915b505050505081526020016005820180546107a9906137ad565b80601f01602080910402602001604051908101604052809291908181526020018280546107d5906137ad565b80156108225780601f106107f757610100808354040283529160200191610822565b820191906000526020600020905b81548152906001019060200180831161080557829003601f168201915b505050505081525050815250509050919050565b61083e612a7a565b610846612a36565b33826000019073ffffffffffffffffffffffffffffffffffffffff16908173ffffffffffffffffffffffffffffffffffffffff168152505086826020018181525050828260a00181905250838260800181905250858260400181815250508482606001818152505088816000018190525033816040019073ffffffffffffffffffffffffffffffffffffffff16908173ffffffffffffffffffffffffffffffffffffffff168152505087816020018190525081816060018190525080600e8a6040516109129190613767565b90815260200160405180910390206000820151816000019081610935919061398a565b50602082015181600101908161094b919061398a565b5060408201518160020160006101000a81548173ffffffffffffffffffffffffffffffffffffffff021916908373ffffffffffffffffffffffffffffffffffffffff16021790555060608201518160030160008201518160000160006101000a81548173ffffffffffffffffffffffffffffffffffffffff021916908373ffffffffffffffffffffffffffffffffffffffff1602179055506020820151816001015560408201518160020155606082015181600301556080820151816004019081610a16919061398a565b5060a0820151816005019081610a2c919061398a565b505050905050600d60003373ffffffffffffffffffffffffffffffffffffffff1673ffffffffffffffffffffffffffffffffffffffff16815260200190815260200160002089908060018154018082558091505060019003906000526020600020016000909190919091509081610aa3919061398a565b50505050505050505050565b6060600b805480602002602001604051908101604052809291908181526020018280548015610b3357602002820191906000526020600020905b8160009054906101000a900473ffffffffffffffffffffffffffffffffffffffff1673ffffffffffffffffffffffffffffffffffffffff1681526020019060010190808311610ae9575b5050505050905090565b610b45612ac6565b601160008373ffffffffffffffffffffffffffffffffffffffff1673ffffffffffffffffffffffffffffffffffffffff1681526020019081526020016000206040518060600160405290816000820160009054906101000a900473ffffffffffffffffffffffffffffffffffffffff1673ffffffffffffffffffffffffffffffffffffffff1673ffffffffffffffffffffffffffffffffffffffff168152602001600182018054610bf5906137ad565b80601f0160208091040260200160405190810160405280929190818152602001828054610c21906137ad565b8015610c6e5780601f10610c4357610100808354040283529160200191610c6e565b820191906000526020600020905b815481529060010190602001808311610c5157829003601f168201915b50505050508152602001600282018054610c87906137ad565b80601f0160208091040260200160405190810160405280929190818152602001828054610cb3906137ad565b8015610d005780601f10610cd557610100808354040283529160200191610d00565b820191906000526020600020905b815481529060010190602001808311610ce357829003601f168201915b5050505050815250509050919050565b6060600a8054610d1f906137ad565b80601f0160208091040260200160405190810160405280929190818152602001828054610d4b906137ad565b8015610d985780601f10610d6d57610100808354040283529160200191610d98565b820191906000526020600020905b815481529060010190602001808311610d7b57829003601f168201915b5050505050905090565b600f602052806000526040600020600091509050806000018054610dc5906137ad565b80601f0160208091040260200160405190810160405280929190818152602001828054610df1906137ad565b8015610e3e5780601f10610e1357610100808354040283529160200191610e3e565b820191906000526020600020905b815481529060010190602001808311610e2157829003601f168201915b5050505050908060010160009054906101000a900473ffffffffffffffffffffffffffffffffffffffff1690806002018054610e79906137ad565b80601f0160208091040260200160405190810160405280929190818152602001828054610ea5906137ad565b8015610ef25780601f10610ec757610100808354040283529160200191610ef2565b820191906000526020600020905b815481529060010190602001808311610ed557829003601f168201915b5050505050908060030154905084565b60136020528060005260406000206000915054906101000a900460ff1681565b600e81805160208101820180518482526020830160208501208183528095505050505050600091509050806000018054610f5b906137ad565b80601f0160208091040260200160405190810160405280929190818152602001828054610f87906137ad565b8015610fd45780601f10610fa957610100808354040283529160200191610fd4565b820191906000526020600020905b815481529060010190602001808311610fb757829003601f168201915b505050505090806001018054610fe9906137ad565b80601f0160208091040260200160405190810160405280929190818152602001828054611015906137ad565b80156110625780601f1061103757610100808354040283529160200191611062565b820191906000526020600020905b81548152906001019060200180831161104557829003601f168201915b5050505050908060020160009054906101000a900473ffffffffffffffffffffffffffffffffffffffff1690806003016040518060c00160405290816000820160009054906101000a900473ffffffffffffffffffffffffffffffffffffffff1673ffffffffffffffffffffffffffffffffffffffff1673ffffffffffffffffffffffffffffffffffffffff168152602001600182015481526020016002820154815260200160038201548152602001600482018054611121906137ad565b80601f016020809104026020016040519081016040528092919081815260200182805461114d906137ad565b801561119a5780601f1061116f5761010080835404028352916020019161119a565b820191906000526020600020905b81548152906001019060200180831161117d57829003601f168201915b505050505081526020016005820180546111b3906137ad565b80601f01602080910402602001604051908101604052809291908181526020018280546111df906137ad565b801561122c5780601f106112015761010080835404028352916020019161122c565b820191906000526020600020905b81548152906001019060200180831161120f57829003601f168201915b505050505081525050905084565b6060600c8054806020026020016040519081016040528092919081815260200182805480156112be57602002820191906000526020600020905b8160009054906101000a900473ffffffffffffffffffffffffffffffffffffffff1673ffffffffffffffffffffffffffffffffffffffff1681526020019060010190808311611274575b5050505050905090565b3373ffffffffffffffffffffffffffffffffffffffff167fe826f71647b8486f2bae59832124c70792fba044036720a54ec8dacdd5df4fcb600a83604051611311929190613ae0565b60405180910390a280600a9081611328919061398a565b5050565b6000600182148061133d5750600082145b61137c576040517f08c379a000000000000000000000000000000000000000000000000000000000815260040161137390613b63565b60405180910390fd5b60108360405161138c9190613767565b908152602001604051809103902060009054906101000a900460ff16156113e8576040517f08c379a00000000000000000000000000000000000000000000000000000000081526004016113df90613bcf565b60405180910390fd5b60006113fe6008543063fd68990a60e01b611d10565b90506114626040518060400160405280600381526020017f67657400000000000000000000000000000000000000000000000000000000008152506040518060600160405280603881526020016142e56038913983611d419092919063ffffffff16565b6114e16040518060400160405280600481526020017f70617468000000000000000000000000000000000000000000000000000000008152506040518060400160405280600781526020017f646174612e69640000000000000000000000000000000000000000000000000081525083611d419092919063ffffffff16565b611510600760009054906101000a900473ffffffffffffffffffffffffffffffffffffffff1682600954611d74565b915060405180608001604052808781526020018673ffffffffffffffffffffffffffffffffffffffff16815260200185815260200184815250600f60008481526020019081526020016000206000820151816000019081611571919061398a565b5060208201518160010160006101000a81548173ffffffffffffffffffffffffffffffffffffffff021916908373ffffffffffffffffffffffffffffffffffffffff16021790555060408201518160020190816115ce919061398a565b506060820151816003015590505050949350505050565b600d602052816000526040600020818154811061160157600080fd5b9060005260206000200160009150915050805461161d906137ad565b80601f0160208091040260200160405190810160405280929190818152602001828054611649906137ad565b80156116965780601f1061166b57610100808354040283529160200191611696565b820191906000526020600020905b81548152906001019060200180831161167957829003601f168201915b505050505081565b60606040518060600160405280602a815260200161431d602a9139905090565b60126020528060005260406000206000915054906101000a900460ff1681565b6060600d60008373ffffffffffffffffffffffffffffffffffffffff1673ffffffffffffffffffffffffffffffffffffffff168152602001908152602001600020805480602002602001604051908101604052809291908181526020016000905b828210156117eb57838290600052602060002001805461175e906137ad565b80601f016020809104026020016040519081016040528092919081815260200182805461178a906137ad565b80156117d75780601f106117ac576101008083540402835291602001916117d7565b820191906000526020600020905b8154815290600101906020018083116117ba57829003601f168201915b50505050508152602001906001019061173f565b505050509050919050565b60116020528060005260406000206000915090508060000160009054906101000a900473ffffffffffffffffffffffffffffffffffffffff169080600101805461183f906137ad565b80601f016020809104026020016040519081016040528092919081815260200182805461186b906137ad565b80156118b85780601f1061188d576101008083540402835291602001916118b8565b820191906000526020600020905b81548152906001019060200180831161189b57829003601f168201915b5050505050908060020180546118cd906137ad565b80601f01602080910402602001604051908101604052809291908181526020018280546118f9906137ad565b80156119465780601f1061191b57610100808354040283529160200191611946565b820191906000526020600020905b81548152906001019060200180831161192957829003601f168201915b5050505050905083565b816005600082815260200190815260200160002060009054906101000a900473ffffffffffffffffffffffffffffffffffffffff1673ffffffffffffffffffffffffffffffffffffffff163373ffffffffffffffffffffffffffffffffffffffff16146119f2576040517f08c379a00000000000000000000000000000000000000000000000000000000081526004016119e990613c61565b60405180910390fd5b6005600082815260200190815260200160002060006101000a81549073ffffffffffffffffffffffffffffffffffffffff0219169055807f7cc135e0cebb02c3480ae5d74d377283180a2601f8f644edf7987b009316c63a60405160405180910390a26000600f6000858152602001908152602001600020604051806080016040529081600082018054611a85906137ad565b80601f0160208091040260200160405190810160405280929190818152602001828054611ab1906137ad565b8015611afe5780601f10611ad357610100808354040283529160200191611afe565b820191906000526020600020905b815481529060010190602001808311611ae157829003601f168201915b505050505081526020016001820160009054906101000a900473ffffffffffffffffffffffffffffffffffffffff1673ffffffffffffffffffffffffffffffffffffffff1673ffffffffffffffffffffffffffffffffffffffff168152602001600282018054611b6d906137ad565b80601f0160208091040260200160405190810160405280929190818152602001828054611b99906137ad565b8015611be65780601f10611bbb57610100808354040283529160200191611be6565b820191906000526020600020905b815481529060010190602001808311611bc957829003601f168201915b5050505050815260200160038201548152505090508215611c8a576000816060015103611c2957611c24816020015182600001518360400151611e40565b611c41565b611c408160200151826000015183604001516120d3565b5b7f43fa451d1fb47cf164ccb6a777532e04af59430576b822519086e12fa351f151816020015182604001516001604051611c7d93929190613c81565b60405180910390a1611ccf565b7f43fa451d1fb47cf164ccb6a777532e04af59430576b822519086e12fa351f151816020015182604001516000604051611cc693929190613c81565b60405180910390a15b600160108260400151604051611ce59190613767565b908152602001604051809103902060006101000a81548160ff02191690831515021790555050505050565b611d18612afd565b611d20612afd565b611d3785858584612366909392919063ffffffff16565b9150509392505050565b611d5882846080015161241690919063ffffffff16565b611d6f81846080015161241690919063ffffffff16565b505050565b6000806004549050600181611d899190613cee565b6004819055506000634042994660e01b60008087600001513089604001518760018c6080015160000151604051602401611dca989796959493929190613db2565b604051602081830303815290604052907bffffffffffffffffffffffffffffffffffffffffffffffffffffffff19166020820180517bffffffffffffffffffffffffffffffffffffffffffffffffffffffff83818316178352505050509050611e358683868461243b565b925050509392505050565b601360008473ffffffffffffffffffffffffffffffffffffffff1673ffffffffffffffffffffffffffffffffffffffff16815260200190815260200160002060009054906101000a900460ff1615611ecd576040517f08c379a0000000000000000000000000000000000000000000000000000000008152600401611ec490613e83565b60405180910390fd5b600b839080600181540180825580915050600190039060005260206000200160009091909190916101000a81548173ffffffffffffffffffffffffffffffffffffffff021916908373ffffffffffffffffffffffffffffffffffffffff1602179055506001601360008573ffffffffffffffffffffffffffffffffffffffff1673ffffffffffffffffffffffffffffffffffffffff16815260200190815260200160002060006101000a81548160ff021916908315150217905550611f90612ac6565b83816000019073ffffffffffffffffffffffffffffffffffffffff16908173ffffffffffffffffffffffffffffffffffffffff168152505082816020018190525081816040018190525080601160008673ffffffffffffffffffffffffffffffffffffffff1673ffffffffffffffffffffffffffffffffffffffff16815260200190815260200160002060008201518160000160006101000a81548173ffffffffffffffffffffffffffffffffffffffff021916908373ffffffffffffffffffffffffffffffffffffffff1602179055506020820151816001019081612076919061398a565b50604082015181600201908161208c919061398a565b509050507f5d8da039f46939dac1f22e6429f726ab699d613ead17618999c45147211fb9d3838584426040516120c5949392919061331a565b60405180910390a150505050565b601260008473ffffffffffffffffffffffffffffffffffffffff1673ffffffffffffffffffffffffffffffffffffffff16815260200190815260200160002060009054906101000a900460ff1615612160576040517f08c379a000000000000000000000000000000000000000000000000000000000815260040161215790613e83565b60405180910390fd5b600c839080600181540180825580915050600190039060005260206000200160009091909190916101000a81548173ffffffffffffffffffffffffffffffffffffffff021916908373ffffffffffffffffffffffffffffffffffffffff1602179055506001601260008573ffffffffffffffffffffffffffffffffffffffff1673ffffffffffffffffffffffffffffffffffffffff16815260200190815260200160002060006101000a81548160ff021916908315150217905550612223612ac6565b83816000019073ffffffffffffffffffffffffffffffffffffffff16908173ffffffffffffffffffffffffffffffffffffffff168152505082816020018190525081816040018190525080601160008673ffffffffffffffffffffffffffffffffffffffff1673ffffffffffffffffffffffffffffffffffffffff16815260200190815260200160002060008201518160000160006101000a81548173ffffffffffffffffffffffffffffffffffffffff021916908373ffffffffffffffffffffffffffffffffffffffff1602179055506020820151816001019081612309919061398a565b50604082015181600201908161231f919061398a565b509050507f465daa34e4a04fd10e1b1da9ecb97133b5ff5b459841488cb1d9128dd793fd4d83858442604051612358949392919061331a565b60405180910390a150505050565b61236e612afd565b61237e85608001516101006125d0565b508385600001818152505082856020019073ffffffffffffffffffffffffffffffffffffffff16908173ffffffffffffffffffffffffffffffffffffffff16815250508185604001907bffffffffffffffffffffffffffffffffffffffffffffffffffffffff191690817bffffffffffffffffffffffffffffffffffffffffffffffffffffffff191681525050849050949350505050565b612423826003835161263a565b61243681836127bf90919063ffffffff16565b505050565b60003084604051602001612450929190613f52565b604051602081830303815290604052805190602001209050846005600083815260200190815260200160002060006101000a81548173ffffffffffffffffffffffffffffffffffffffff021916908373ffffffffffffffffffffffffffffffffffffffff160217905550807fb5e6e01e79f91267dc17b4e6314d5d4d03593d2ceee0fbb452b750bd70ea5af960405160405180910390a2600260009054906101000a900473ffffffffffffffffffffffffffffffffffffffff1673ffffffffffffffffffffffffffffffffffffffff16634000aea08685856040518463ffffffff1660e01b815260040161254693929190613f7e565b6020604051808303816000875af1158015612565573d6000803e3d6000fd5b505050506040513d601f19601f820116820180604052508101906125899190613fd1565b6125c8576040517f08c379a00000000000000000000000000000000000000000000000000000000081526004016125bf90614070565b60405180910390fd5b949350505050565b6125d8612b6a565b60006020836125e791906140bf565b14612613576020826125f991906140bf565b602061260591906140f0565b826126109190613cee565b91505b81836020018181525050604051808452600081528281016020016040525082905092915050565b60178167ffffffffffffffff16116126715761266b8160058460ff16901b60ff1617846127e190919063ffffffff16565b506127ba565b60ff8167ffffffffffffffff16116126c7576126a0601860058460ff16901b17846127e190919063ffffffff16565b506126c18167ffffffffffffffff166001856128019092919063ffffffff16565b506127b9565b61ffff8167ffffffffffffffff161161271e576126f7601960058460ff16901b17846127e190919063ffffffff16565b506127188167ffffffffffffffff166002856128019092919063ffffffff16565b506127b8565b63ffffffff8167ffffffffffffffff161161277757612750601a60058460ff16901b17846127e190919063ffffffff16565b506127718167ffffffffffffffff166004856128019092919063ffffffff16565b506127b7565b612794601b60058460ff16901b17846127e190919063ffffffff16565b506127b58167ffffffffffffffff166008856128019092919063ffffffff16565b505b5b5b5b505050565b6127c7612b6a565b6127d983846000015151848551612823565b905092915050565b6127e9612b6a565b6127f98384600001515184612912565b905092915050565b612809612b6a565b61281a848560000151518585612968565b90509392505050565b61282b612b6a565b825182111561283957600080fd5b8460200151828561284a9190613cee565b111561287f5761287e85600261286f8860200151888761286a9190613cee565b6129f6565b6128799190614124565b612a12565b5b60008086518051876020830101935080888701111561289e5787860182525b60208701925050505b602084106128e557805182526020826128c09190613cee565b91506020816128cf9190613cee565b90506020846128de91906140f0565b93506128a7565b60006001856020036101000a03905080198251168184511681811785525050508692505050949350505050565b61291a612b6a565b836020015183106129405761293f846002866020015161293a9190614124565b612a12565b5b8351805160208583010184815381860361295b576001820183525b5050508390509392505050565b612970612b6a565b846020015184836129819190613cee565b11156129a9576129a885600286856129999190613cee565b6129a39190614124565b612a12565b5b60006001836101006129bb9190614299565b6129c591906140f0565b905085518386820101858319825116178152815185880111156129e85784870182525b505085915050949350505050565b600081831115612a0857829050612a0c565b8190505b92915050565b600082600001519050612a2583836125d0565b50612a3083826127bf565b50505050565b60405180608001604052806060815260200160608152602001600073ffffffffffffffffffffffffffffffffffffffff168152602001612a74612a7a565b81525090565b6040518060c00160405280600073ffffffffffffffffffffffffffffffffffffffff16815260200160008152602001600081526020016000815260200160608152602001606081525090565b6040518060600160405280600073ffffffffffffffffffffffffffffffffffffffff16815260200160608152602001606081525090565b6040518060a0016040528060008019168152602001600073ffffffffffffffffffffffffffffffffffffffff16815260200160007bffffffffffffffffffffffffffffffffffffffffffffffffffffffff1916815260200160008152602001612b64612b6a565b81525090565b604051806040016040528060608152602001600081525090565b600073ffffffffffffffffffffffffffffffffffffffff82169050919050565b6000612baf82612b84565b9050919050565b612bbf81612ba4565b82525050565b6000819050919050565b612bd881612bc5565b82525050565b6000604082019050612bf36000830185612bb6565b612c006020830184612bcf565b9392505050565b6000604051905090565b600080fd5b600080fd5b600080fd5b600080fd5b6000601f19601f8301169050919050565b7f4e487b7100000000000000000000000000000000000000000000000000000000600052604160045260246000fd5b612c6e82612c25565b810181811067ffffffffffffffff82111715612c8d57612c8c612c36565b5b80604052505050565b6000612ca0612c07565b9050612cac8282612c65565b919050565b600067ffffffffffffffff821115612ccc57612ccb612c36565b5b612cd582612c25565b9050602081019050919050565b82818337600083830152505050565b6000612d04612cff84612cb1565b612c96565b905082815260208101848484011115612d2057612d1f612c20565b5b612d2b848285612ce2565b509392505050565b600082601f830112612d4857612d47612c1b565b5b8135612d58848260208601612cf1565b91505092915050565b600060208284031215612d7757612d76612c11565b5b600082013567ffffffffffffffff811115612d9557612d94612c16565b5b612da184828501612d33565b91505092915050565b600081519050919050565b600082825260208201905092915050565b60005b83811015612de4578082015181840152602081019050612dc9565b60008484015250505050565b6000612dfb82612daa565b612e058185612db5565b9350612e15818560208601612dc6565b612e1e81612c25565b840191505092915050565b612e3281612ba4565b82525050565b612e4181612bc5565b82525050565b600060c083016000830151612e5f6000860182612e29565b506020830151612e726020860182612e38565b506040830151612e856040860182612e38565b506060830151612e986060860182612e38565b5060808301518482036080860152612eb08282612df0565b91505060a083015184820360a0860152612eca8282612df0565b9150508091505092915050565b60006080830160008301518482036000860152612ef48282612df0565b91505060208301518482036020860152612f0e8282612df0565b9150506040830151612f236040860182612e29565b5060608301518482036060860152612f3b8282612e47565b9150508091505092915050565b60006020820190508181036000830152612f628184612ed7565b905092915050565b612f7381612bc5565b8114612f7e57600080fd5b50565b600081359050612f9081612f6a565b92915050565b600080600080600080600060e0888a031215612fb557612fb4612c11565b5b600088013567ffffffffffffffff811115612fd357612fd2612c16565b5b612fdf8a828b01612d33565b975050602088013567ffffffffffffffff81111561300057612fff612c16565b5b61300c8a828b01612d33565b965050604061301d8a828b01612f81565b955050606061302e8a828b01612f81565b945050608061303f8a828b01612f81565b93505060a088013567ffffffffffffffff8111156130605761305f612c16565b5b61306c8a828b01612d33565b92505060c088013567ffffffffffffffff81111561308d5761308c612c16565b5b6130998a828b01612d33565b91505092959891949750929550565b600081519050919050565b600082825260208201905092915050565b6000819050602082019050919050565b60006130e08383612e29565b60208301905092915050565b6000602082019050919050565b6000613104826130a8565b61310e81856130b3565b9350613119836130c4565b8060005b8381101561314a57815161313188826130d4565b975061313c836130ec565b92505060018101905061311d565b5085935050505092915050565b6000602082019050818103600083015261317181846130f9565b905092915050565b61318281612ba4565b811461318d57600080fd5b50565b60008135905061319f81613179565b92915050565b6000602082840312156131bb576131ba612c11565b5b60006131c984828501613190565b91505092915050565b60006060830160008301516131ea6000860182612e29565b50602083015184820360208601526132028282612df0565b9150506040830151848203604086015261321c8282612df0565b9150508091505092915050565b6000602082019050818103600083015261324381846131d2565b905092915050565b600082825260208201905092915050565b600061326782612daa565b613271818561324b565b9350613281818560208601612dc6565b61328a81612c25565b840191505092915050565b600060208201905081810360008301526132af818461325c565b905092915050565b6000819050919050565b6132ca816132b7565b81146132d557600080fd5b50565b6000813590506132e7816132c1565b92915050565b60006020828403121561330357613302612c11565b5b6000613311848285016132d8565b91505092915050565b60006080820190508181036000830152613334818761325c565b90506133436020830186612bb6565b8181036040830152613355818561325c565b90506133646060830184612bcf565b95945050505050565b60008115159050919050565b6133828161336d565b82525050565b600060208201905061339d6000830184613379565b92915050565b600060c0830160008301516133bb6000860182612e29565b5060208301516133ce6020860182612e38565b5060408301516133e16040860182612e38565b5060608301516133f46060860182612e38565b506080830151848203608086015261340c8282612df0565b91505060a083015184820360a08601526134268282612df0565b9150508091505092915050565b6000608082019050818103600083015261344d818761325c565b90508181036020830152613461818661325c565b90506134706040830185612bb6565b818103606083015261348281846133a3565b905095945050505050565b600080600080608085870312156134a7576134a6612c11565b5b600085013567ffffffffffffffff8111156134c5576134c4612c16565b5b6134d187828801612d33565b94505060206134e287828801613190565b935050604085013567ffffffffffffffff81111561350357613502612c16565b5b61350f87828801612d33565b925050606061352087828801612f81565b91505092959194509250565b613535816132b7565b82525050565b6000602082019050613550600083018461352c565b92915050565b6000806040838503121561356d5761356c612c11565b5b600061357b85828601613190565b925050602061358c85828601612f81565b9150509250929050565b600081519050919050565b600082825260208201905092915050565b6000819050602082019050919050565b60006135ce8383612df0565b905092915050565b6000602082019050919050565b60006135ee82613596565b6135f881856135a1565b93508360208202850161360a856135b2565b8060005b85811015613646578484038952815161362785826135c2565b9450613632836135d6565b925060208a0199505060018101905061360e565b50829750879550505050505092915050565b6000602082019050818103600083015261367281846135e3565b905092915050565b600060608201905061368f6000830186612bb6565b81810360208301526136a1818561325c565b905081810360408301526136b5818461325c565b9050949350505050565b6136c88161336d565b81146136d357600080fd5b50565b6000813590506136e5816136bf565b92915050565b6000806040838503121561370257613701612c11565b5b6000613710858286016132d8565b9250506020613721858286016136d6565b9150509250929050565b600081905092915050565b600061374182612daa565b61374b818561372b565b935061375b818560208601612dc6565b80840191505092915050565b60006137738284613736565b915081905092915050565b7f4e487b7100000000000000000000000000000000000000000000000000000000600052602260045260246000fd5b600060028204905060018216806137c557607f821691505b6020821081036137d8576137d761377e565b5b50919050565b60008190508160005260206000209050919050565b60006020601f8301049050919050565b600082821b905092915050565b6000600883026138407fffffffffffffffffffffffffffffffffffffffffffffffffffffffffffffffff82613803565b61384a8683613803565b95508019841693508086168417925050509392505050565b6000819050919050565b600061388761388261387d84612bc5565b613862565b612bc5565b9050919050565b6000819050919050565b6138a18361386c565b6138b56138ad8261388e565b848454613810565b825550505050565b600090565b6138ca6138bd565b6138d5818484613898565b505050565b5b818110156138f9576138ee6000826138c2565b6001810190506138db565b5050565b601f82111561393e5761390f816137de565b613918846137f3565b81016020851015613927578190505b61393b613933856137f3565b8301826138da565b50505b505050565b600082821c905092915050565b600061396160001984600802613943565b1980831691505092915050565b600061397a8383613950565b9150826002028217905092915050565b61399382612daa565b67ffffffffffffffff8111156139ac576139ab612c36565b5b6139b682546137ad565b6139c18282856138fd565b600060209050601f8311600181146139f457600084156139e2578287015190505b6139ec858261396e565b865550613a54565b601f198416613a02866137de565b60005b82811015613a2a57848901518255600182019150602085019450602081019050613a05565b86831015613a475784890151613a43601f891682613950565b8355505b6001600288020188555050505b505050505050565b60008154613a69816137ad565b613a73818661324b565b94506001821660008114613a8e5760018114613aa457613ad7565b60ff198316865281151560200286019350613ad7565b613aad856137de565b60005b83811015613acf57815481890152600182019150602081019050613ab0565b808801955050505b50505092915050565b60006040820190508181036000830152613afa8185613a5c565b90508181036020830152613b0e818461325c565b90509392505050565b7f4170706c792069642073686f756c64206265206569746865722030206f722031600082015250565b6000613b4d60208361324b565b9150613b5882613b17565b602082019050919050565b60006020820190508181036000830152613b7c81613b40565b9050919050565b7f4d65646963616c20494420697320616c72656164792075736564000000000000600082015250565b6000613bb9601a8361324b565b9150613bc482613b83565b602082019050919050565b60006020820190508181036000830152613be881613bac565b9050919050565b7f536f75726365206d75737420626520746865206f7261636c65206f662074686560008201527f2072657175657374000000000000000000000000000000000000000000000000602082015250565b6000613c4b60288361324b565b9150613c5682613bef565b604082019050919050565b60006020820190508181036000830152613c7a81613c3e565b9050919050565b6000606082019050613c966000830186612bb6565b8181036020830152613ca8818561325c565b9050613cb76040830184613379565b949350505050565b7f4e487b7100000000000000000000000000000000000000000000000000000000600052601160045260246000fd5b6000613cf982612bc5565b9150613d0483612bc5565b9250828201905080821115613d1c57613d1b613cbf565b5b92915050565b60007fffffffff0000000000000000000000000000000000000000000000000000000082169050919050565b613d5781613d22565b82525050565b600081519050919050565b600082825260208201905092915050565b6000613d8482613d5d565b613d8e8185613d68565b9350613d9e818560208601612dc6565b613da781612c25565b840191505092915050565b600061010082019050613dc8600083018b612bb6565b613dd5602083018a612bcf565b613de2604083018961352c565b613def6060830188612bb6565b613dfc6080830187613d4e565b613e0960a0830186612bcf565b613e1660c0830185612bcf565b81810360e0830152613e288184613d79565b90509998505050505050505050565b7f416c726561647920726567697374657265642100000000000000000000000000600082015250565b6000613e6d60138361324b565b9150613e7882613e37565b602082019050919050565b60006020820190508181036000830152613e9c81613e60565b9050919050565b6000613ebe613eb9613eb484612b84565b613862565b612b84565b9050919050565b6000613ed082613ea3565b9050919050565b6000613ee282613ec5565b9050919050565b60008160601b9050919050565b6000613f0182613ee9565b9050919050565b6000613f1382613ef6565b9050919050565b613f2b613f2682613ed7565b613f08565b82525050565b6000819050919050565b613f4c613f4782612bc5565b613f31565b82525050565b6000613f5e8285613f1a565b601482019150613f6e8284613f3b565b6020820191508190509392505050565b6000606082019050613f936000830186612bb6565b613fa06020830185612bcf565b8181036040830152613fb28184613d79565b9050949350505050565b600081519050613fcb816136bf565b92915050565b600060208284031215613fe757613fe6612c11565b5b6000613ff584828501613fbc565b91505092915050565b7f756e61626c6520746f207472616e73666572416e6443616c6c20746f206f726160008201527f636c650000000000000000000000000000000000000000000000000000000000602082015250565b600061405a60238361324b565b915061406582613ffe565b604082019050919050565b600060208201905081810360008301526140898161404d565b9050919050565b7f4e487b7100000000000000000000000000000000000000000000000000000000600052601260045260246000fd5b60006140ca82612bc5565b91506140d583612bc5565b9250826140e5576140e4614090565b5b828206905092915050565b60006140fb82612bc5565b915061410683612bc5565b925082820390508181111561411e5761411d613cbf565b5b92915050565b600061412f82612bc5565b915061413a83612bc5565b925082820261414881612bc5565b9150828204841483151761415f5761415e613cbf565b5b5092915050565b60008160011c9050919050565b6000808291508390505b60018511156141bd5780860481111561419957614198613cbf565b5b60018516156141a85780820291505b80810290506141b685614166565b945061417d565b94509492505050565b6000826141d65760019050614292565b816141e45760009050614292565b81600181146141fa576002811461420457614233565b6001915050614292565b60ff84111561421657614215613cbf565b5b8360020a91508482111561422d5761422c613cbf565b5b50614292565b5060208310610133831016604e8410600b84101617156142685782820a90508381111561426357614262613cbf565b5b614292565b6142758484846001614173565b9250905081840481111561428c5761428b613cbf565b5b81810290505b9392505050565b60006142a482612bc5565b91506142af83612bc5565b92506142dc7fffffffffffffffffffffffffffffffffffffffffffffffffffffffffffffffff84846141c6565b90509291505056fe68747470733a2f2f6d6f636b692e696f2f76312f38386532303332382d373932632d343332332d393364312d37303464653935343931346348656c6c6f212054686520436f6e747261637420697320636f6e6e656374656420776974682077656233a264697066735822122073a02e71140b571a3440563072eae19b89fa1d53028d1ecd123070a3ed1d450d64736f6c63430008110033",
  "immutableReferences": {},
  "source": "// SPDX-License-Identifier: MIT\r\npragma solidity ^0.8.0;\r\n\r\n// [X] 1  - Apply for verification as Doctor/Hospital\r\n// [X] 2  - Find Patient/User Reports Collection\r\n// [X] 3  - Find Doctors\r\n// [X] 4  - Find Hospitals\r\n// [X] 5  - Send Report to Doctor/Hospital for analysis\r\n// [ ] 6  - Send Report Analysis back to patient\r\n// [ ] 7  - Reviews Doctor/Hospital on receiving the report\r\n// [X] 8  - Find authorized Doctor/Hospital\r\n\r\nimport \"@chainlink/contracts/src/v0.8/ChainlinkClient.sol\";\r\n\r\ncontract DoctorWeb3 is ChainlinkClient {\r\n    using Chainlink for Chainlink.Request;\r\n    address owner;\r\n    address private oracle;\r\n    bytes32 private jobId;\r\n    uint256 private fee;\r\n    string _value;\r\n\r\n    constructor() {\r\n        owner = msg.sender;\r\n        setChainlinkToken(0x326C977E6efc84E512bB9C30f76E30c160eD06FB);\r\n        oracle = 0x40193c8518BB267228Fc409a613bDbD8eC5a97b3;\r\n        jobId = \"c1c5e92880894eb6b27d3cae19670aa3\";\r\n        fee = 0.1 * 10 ** 18; // 0.1 LINK\r\n        _value = \"hello\";\r\n    }\r\n    event ValueChanged(address indexed author, string oldValue, string newValue);\r\n\r\n\r\n    struct PatientInfo {\r\n        address patient;\r\n        uint256 age;\r\n        uint256 weight;\r\n        uint256 height;\r\n        string gender;\r\n        string bloodGroup;\r\n    }\r\n\r\n    struct Report {\r\n        string fileHash;\r\n        string category;\r\n        address Patient;\r\n        PatientInfo patientInfo;\r\n    }\r\n\r\n    struct Applicant {\r\n        string name;\r\n        address applicantAddress;\r\n        string medicalId;\r\n        uint256 applicantType; // 0 = Doctor, 1 = Hospital\r\n    }\r\n\r\n    struct AuthorizedDHDetails {\r\n        address authorizedDHAddress;\r\n        string name;\r\n        string medicalId;\r\n    }\r\n\r\n    address[] Doctors;\r\n    address[] Hospitals;\r\n    mapping(address => string[]) public PatientReports; // Maps Patient's address to its reports\r\n    mapping(string => Report) public Reports; // Maps report hash value from IPFS to Report Datatype\r\n    mapping(bytes32 => Applicant) public Applicants; // Maps address of applicant to Applicant DataType\r\n    mapping(string => bool) private medicalIdUsed; // Maps medicalId to boolean\r\n    mapping(address => AuthorizedDHDetails) public AuthorizedDH; // Maps address of authorized Doctor or hospital with their details\r\n    mapping(address => bool) public AuthorisedHospital;\r\n    mapping(address => bool) public AuthorisedDoctor;\r\n\r\n    event AuthorizationResult(\r\n        address applicantAddress,\r\n        string medicalId,\r\n        bool status\r\n    );\r\n\r\n    event DoctorAuthorized(\r\n        string name,\r\n        address _authAddress,\r\n        string medicalId,\r\n        uint AuthOnDate\r\n    );\r\n\r\n    event HospitalAuthorized(\r\n        string name,\r\n        address _authAddress,\r\n        string medicalId,\r\n        uint AuthOnDate\r\n    );\r\n\r\n    function getValue() view public returns (string memory) {\r\n        return _value;\r\n    }\r\n\r\n    function setValue(string memory value) public {\r\n        emit ValueChanged(msg.sender, _value, value);\r\n        _value = value;\r\n    }\r\n\r\n    function testFunction() public pure returns (string memory myString) {\r\n        return \"Hello! The Contract is connected with web3\";\r\n    }\r\n\r\n    event Received(address, uint);\r\n    receive() external payable {\r\n        emit Received(msg.sender, msg.value);\r\n    }\r\n\r\n    function getPatientReports(address _address)\r\n        public\r\n        view\r\n        returns (string[] memory)\r\n    {\r\n        return PatientReports[_address];\r\n    }\r\n\r\n    function getDetailedReports(string memory _fileHash)\r\n        public\r\n        view\r\n        returns (Report memory)\r\n    {\r\n        return Reports[_fileHash];\r\n    }\r\n\r\n    function findDoctors() public view returns (address[] memory) {\r\n        return Doctors;\r\n    }\r\n\r\n    function findHospitals() public view returns (address[] memory) {\r\n        return Hospitals;\r\n    }\r\n\r\n    function getAuthorizedDHDetails(address _address) public view returns (AuthorizedDHDetails memory) {\r\n        return AuthorizedDH[_address];\r\n    }\r\n\r\n    function ApplyForVerification(\r\n        string memory _name,\r\n        address _applicantAddress,\r\n        string memory _medicalId,\r\n        uint256 _applicantType\r\n    ) public returns (bytes32 requestId) {\r\n        require(_applicantType == 1 || _applicantType == 0,\"Apply id should be either 0 or 1\");\r\n        require(!medicalIdUsed[_medicalId], \"Medical ID is already used\"); // Stopping function spamming\r\n\r\n        //ChainLink Code for Verification\r\n\r\n        Chainlink.Request memory request = buildChainlinkRequest(jobId, address(this), this.fulfill.selector);\r\n        request.add(\"get\", \"https://mocki.io/v1/88e20328-792c-4323-93d1-704de954914c\");\r\n\r\n        //Set the path\r\n        /* {\"data\":{\"id\":true}} */\r\n        request.add(\"path\", \"data.id\");\r\n\r\n        requestId = sendChainlinkRequestTo(oracle, request, fee);\r\n        Applicants[requestId] = Applicant(\r\n            _name,\r\n            _applicantAddress,\r\n            _medicalId,\r\n            _applicantType\r\n        );\r\n\r\n        return requestId;\r\n    }\r\n\r\n    function fulfill(bytes32 _requestId, bool _verification)\r\n        public\r\n        recordChainlinkFulfillment(_requestId)\r\n    {\r\n        Applicant memory applicant = Applicants[_requestId];\r\n        if (_verification) {\r\n            if (applicant.applicantType == 0) {\r\n                addAuthorizedDoctor(\r\n                    applicant.applicantAddress,\r\n                    applicant.name,\r\n                    applicant.medicalId\r\n                );\r\n            } else {\r\n                addAuthorizedHospital(\r\n                    applicant.applicantAddress,\r\n                    applicant.name,\r\n                    applicant.medicalId\r\n                );\r\n            }\r\n            emit AuthorizationResult(applicant.applicantAddress, applicant.medicalId, true);\r\n        } else {\r\n            emit AuthorizationResult(applicant.applicantAddress, applicant.medicalId, false);\r\n        }\r\n        medicalIdUsed[applicant.medicalId] = true;\r\n    }\r\n\r\n    function addAuthorizedDoctor(\r\n        address _authAddress,\r\n        string memory _name,\r\n        string memory _medicalId\r\n    ) private {\r\n        require(!AuthorisedDoctor[_authAddress], \"Already registered!\");\r\n        Doctors.push(_authAddress);\r\n        AuthorisedDoctor[_authAddress] = true;\r\n\r\n        AuthorizedDHDetails memory _authorizedDHDetail;\r\n\r\n        _authorizedDHDetail.authorizedDHAddress = _authAddress;\r\n        _authorizedDHDetail.name = _name;\r\n        _authorizedDHDetail.medicalId = _medicalId;\r\n\r\n        AuthorizedDH[_authAddress] = _authorizedDHDetail;\r\n\r\n        emit DoctorAuthorized(_name, _authAddress, _medicalId, block.timestamp);\r\n    }\r\n\r\n    function addAuthorizedHospital(\r\n        address _authAddress,\r\n        string memory _name,\r\n        string memory _medicalId\r\n    ) private {\r\n        require(!AuthorisedHospital[_authAddress], \"Already registered!\");\r\n        Hospitals.push(_authAddress);\r\n        AuthorisedHospital[_authAddress] = true;\r\n\r\n        AuthorizedDHDetails memory _authorizedDHDetail;\r\n\r\n        _authorizedDHDetail.authorizedDHAddress = _authAddress;\r\n        _authorizedDHDetail.name = _name;\r\n        _authorizedDHDetail.medicalId = _medicalId;\r\n\r\n        AuthorizedDH[_authAddress] = _authorizedDHDetail;\r\n\r\n        emit HospitalAuthorized(_name, _authAddress, _medicalId, block.timestamp);\r\n    }\r\n\r\n    function uploadReport(\r\n        string memory _fileHash,\r\n        string memory _category,\r\n        uint256 _age,\r\n        uint256 _weight,\r\n        uint256 _height,\r\n        string memory _gender,\r\n        string memory _bloodGroup\r\n    ) public {\r\n        PatientInfo memory _patientInfo;\r\n        Report memory _report;\r\n\r\n        _patientInfo.patient = msg.sender;\r\n        _patientInfo.age = _age;\r\n        _patientInfo.bloodGroup = _bloodGroup;\r\n        _patientInfo.gender = _gender;\r\n        _patientInfo.weight = _weight;\r\n        _patientInfo.height = _height;\r\n\r\n        _report.fileHash = _fileHash;\r\n        _report.Patient = msg.sender;\r\n        _report.category = _category;\r\n        _report.patientInfo = _patientInfo;\r\n\r\n        Reports[_fileHash] = _report;\r\n        PatientReports[msg.sender].push(_fileHash);\r\n    }\r\n\r\n}\r\n",
  "sourcePath": "D:\\OLD_PC\\JavaScript_apps\\React\\DoctorWeb3\\doctorweb3\\src\\contracts\\DoctorWeb3.sol",
  "compiler": {
    "name": "solc",
    "version": "0.8.17+commit.8df45f5f.Emscripten.clang"
  },
  "schemaVersion": "3.4.9",
  "updatedAt": "2022-11-21T16:26:04.391Z",
  "networkType": "ethereum",
  "devdoc": {
    "kind": "dev",
    "methods": {},
    "version": 1
  },
  "userdoc": {
    "kind": "user",
    "methods": {},
    "version": 1
  }
}