{
  "contractName": "DoctorWeb3",
  "abi": [
    {
      "inputs": [],
      "stateMutability": "nonpayable",
      "type": "constructor"
    },
    {
      "anonymous": false,
      "inputs": [
        {
          "indexed": false,
          "internalType": "address",
          "name": "applicantAddress",
          "type": "address"
        },
        {
          "indexed": false,
          "internalType": "string",
          "name": "medicalId",
          "type": "string"
        },
        {
          "indexed": false,
          "internalType": "bool",
          "name": "status",
          "type": "bool"
        }
      ],
      "name": "AuthorizationResult",
      "type": "event"
    },
    {
      "anonymous": false,
      "inputs": [
        {
          "indexed": true,
          "internalType": "bytes32",
          "name": "id",
          "type": "bytes32"
        }
      ],
      "name": "ChainlinkCancelled",
      "type": "event"
    },
    {
      "anonymous": false,
      "inputs": [
        {
          "indexed": true,
          "internalType": "bytes32",
          "name": "id",
          "type": "bytes32"
        }
      ],
      "name": "ChainlinkFulfilled",
      "type": "event"
    },
    {
      "anonymous": false,
      "inputs": [
        {
          "indexed": true,
          "internalType": "bytes32",
          "name": "id",
          "type": "bytes32"
        }
      ],
      "name": "ChainlinkRequested",
      "type": "event"
    },
    {
      "anonymous": false,
      "inputs": [
        {
          "indexed": false,
          "internalType": "string",
          "name": "name",
          "type": "string"
        },
        {
          "indexed": false,
          "internalType": "address",
          "name": "_authAddress",
          "type": "address"
        },
        {
          "indexed": false,
          "internalType": "string",
          "name": "medicalId",
          "type": "string"
        },
        {
          "indexed": false,
          "internalType": "uint256",
          "name": "AuthOnDate",
          "type": "uint256"
        }
      ],
      "name": "DoctorAuthorized",
      "type": "event"
    },
    {
      "anonymous": false,
      "inputs": [
        {
          "indexed": false,
          "internalType": "string",
          "name": "name",
          "type": "string"
        },
        {
          "indexed": false,
          "internalType": "address",
          "name": "_authAddress",
          "type": "address"
        },
        {
          "indexed": false,
          "internalType": "string",
          "name": "medicalId",
          "type": "string"
        },
        {
          "indexed": false,
          "internalType": "uint256",
          "name": "AuthOnDate",
          "type": "uint256"
        }
      ],
      "name": "HospitalAuthorized",
      "type": "event"
    },
    {
      "anonymous": false,
      "inputs": [
        {
          "indexed": true,
          "internalType": "address",
          "name": "from",
          "type": "address"
        },
        {
          "indexed": true,
          "internalType": "address",
          "name": "to",
          "type": "address"
        }
      ],
      "name": "OwnershipTransferRequested",
      "type": "event"
    },
    {
      "anonymous": false,
      "inputs": [
        {
          "indexed": true,
          "internalType": "address",
          "name": "from",
          "type": "address"
        },
        {
          "indexed": true,
          "internalType": "address",
          "name": "to",
          "type": "address"
        }
      ],
      "name": "OwnershipTransferred",
      "type": "event"
    },
    {
      "anonymous": false,
      "inputs": [
        {
          "indexed": false,
          "internalType": "address",
          "name": "",
          "type": "address"
        },
        {
          "indexed": false,
          "internalType": "uint256",
          "name": "",
          "type": "uint256"
        }
      ],
      "name": "Received",
      "type": "event"
    },
    {
      "anonymous": false,
      "inputs": [
        {
          "indexed": false,
          "internalType": "string",
          "name": "fileHash",
          "type": "string"
        },
        {
          "indexed": false,
          "internalType": "address",
          "name": "Patient",
          "type": "address"
        },
        {
          "indexed": false,
          "internalType": "address",
          "name": "recipient",
          "type": "address"
        },
        {
          "indexed": false,
          "internalType": "string",
          "name": "secretMessage",
          "type": "string"
        }
      ],
      "name": "ReportShared",
      "type": "event"
    },
    {
      "anonymous": false,
      "inputs": [
        {
          "indexed": false,
          "internalType": "string",
          "name": "fileHash",
          "type": "string"
        },
        {
          "indexed": false,
          "internalType": "string",
          "name": "category",
          "type": "string"
        }
      ],
      "name": "ReportUploaded",
      "type": "event"
    },
    {
      "anonymous": false,
      "inputs": [
        {
          "indexed": false,
          "internalType": "address",
          "name": "sender",
          "type": "address"
        },
        {
          "indexed": false,
          "internalType": "address",
          "name": "receiver",
          "type": "address"
        },
        {
          "indexed": false,
          "internalType": "string",
          "name": "response",
          "type": "string"
        },
        {
          "indexed": false,
          "internalType": "string",
          "name": "filehash",
          "type": "string"
        }
      ],
      "name": "dhResponseEvent",
      "type": "event"
    },
    {
      "inputs": [
        {
          "internalType": "uint256",
          "name": "",
          "type": "uint256"
        }
      ],
      "name": "Applicants",
      "outputs": [
        {
          "internalType": "string",
          "name": "name",
          "type": "string"
        },
        {
          "internalType": "address",
          "name": "applicantAddress",
          "type": "address"
        },
        {
          "internalType": "string",
          "name": "medicalId",
          "type": "string"
        },
        {
          "internalType": "uint256",
          "name": "applicantType",
          "type": "uint256"
        }
      ],
      "stateMutability": "view",
      "type": "function",
      "constant": true
    },
    {
      "inputs": [
        {
          "internalType": "address",
          "name": "",
          "type": "address"
        }
      ],
      "name": "AuthorisedDoctor",
      "outputs": [
        {
          "internalType": "bool",
          "name": "",
          "type": "bool"
        }
      ],
      "stateMutability": "view",
      "type": "function",
      "constant": true
    },
    {
      "inputs": [
        {
          "internalType": "address",
          "name": "",
          "type": "address"
        }
      ],
      "name": "AuthorisedHospital",
      "outputs": [
        {
          "internalType": "bool",
          "name": "",
          "type": "bool"
        }
      ],
      "stateMutability": "view",
      "type": "function",
      "constant": true
    },
    {
      "inputs": [
        {
          "internalType": "address",
          "name": "",
          "type": "address"
        }
      ],
      "name": "AuthorizedDH",
      "outputs": [
        {
          "internalType": "address",
          "name": "authorizedDHAddress",
          "type": "address"
        },
        {
          "internalType": "string",
          "name": "name",
          "type": "string"
        },
        {
          "internalType": "string",
          "name": "medicalId",
          "type": "string"
        }
      ],
      "stateMutability": "view",
      "type": "function",
      "constant": true
    },
    {
      "inputs": [
        {
          "internalType": "string",
          "name": "",
          "type": "string"
        },
        {
          "internalType": "uint256",
          "name": "",
          "type": "uint256"
        }
      ],
      "name": "DoctorHospitalResponse",
      "outputs": [
        {
          "internalType": "address",
          "name": "sender",
          "type": "address"
        },
        {
          "internalType": "address",
          "name": "receiver",
          "type": "address"
        },
        {
          "internalType": "string",
          "name": "response",
          "type": "string"
        }
      ],
      "stateMutability": "view",
      "type": "function",
      "constant": true
    },
    {
      "inputs": [
        {
          "internalType": "address",
          "name": "",
          "type": "address"
        },
        {
          "internalType": "uint256",
          "name": "",
          "type": "uint256"
        }
      ],
      "name": "PatientReports",
      "outputs": [
        {
          "internalType": "string",
          "name": "",
          "type": "string"
        }
      ],
      "stateMutability": "view",
      "type": "function",
      "constant": true
    },
    {
      "inputs": [
        {
          "internalType": "string",
          "name": "",
          "type": "string"
        }
      ],
      "name": "Reports",
      "outputs": [
        {
          "internalType": "string",
          "name": "fileHash",
          "type": "string"
        },
        {
          "internalType": "string",
          "name": "category",
          "type": "string"
        },
        {
          "internalType": "address",
          "name": "Patient",
          "type": "address"
        },
        {
          "components": [
            {
              "internalType": "address",
              "name": "patient",
              "type": "address"
            },
            {
              "internalType": "uint256",
              "name": "age",
              "type": "uint256"
            },
            {
              "internalType": "uint256",
              "name": "weight",
              "type": "uint256"
            },
            {
              "internalType": "uint256",
              "name": "height",
              "type": "uint256"
            },
            {
              "internalType": "string",
              "name": "gender",
              "type": "string"
            },
            {
              "internalType": "string",
              "name": "bloodGroup",
              "type": "string"
            }
          ],
          "internalType": "struct DoctorWeb3.PatientInfo",
          "name": "patientInfo",
          "type": "tuple"
        }
      ],
      "stateMutability": "view",
      "type": "function",
      "constant": true
    },
    {
      "inputs": [
        {
          "internalType": "bytes32",
          "name": "",
          "type": "bytes32"
        }
      ],
      "name": "SharedReports",
      "outputs": [
        {
          "internalType": "string",
          "name": "fileHash",
          "type": "string"
        },
        {
          "internalType": "address",
          "name": "Patient",
          "type": "address"
        },
        {
          "internalType": "address",
          "name": "recipient",
          "type": "address"
        },
        {
          "internalType": "string",
          "name": "secretMessage",
          "type": "string"
        }
      ],
      "stateMutability": "view",
      "type": "function",
      "constant": true
    },
    {
      "inputs": [],
      "name": "acceptOwnership",
      "outputs": [],
      "stateMutability": "nonpayable",
      "type": "function"
    },
    {
      "inputs": [],
      "name": "owner",
      "outputs": [
        {
          "internalType": "address",
          "name": "",
          "type": "address"
        }
      ],
      "stateMutability": "view",
      "type": "function",
      "constant": true
    },
    {
      "inputs": [
        {
          "internalType": "address",
          "name": "to",
          "type": "address"
        }
      ],
      "name": "transferOwnership",
      "outputs": [],
      "stateMutability": "nonpayable",
      "type": "function"
    },
    {
      "stateMutability": "payable",
      "type": "receive",
      "payable": true
    },
    {
      "inputs": [],
      "name": "getPatientReports",
      "outputs": [
        {
          "internalType": "string[]",
          "name": "",
          "type": "string[]"
        }
      ],
      "stateMutability": "view",
      "type": "function",
      "constant": true
    },
    {
      "inputs": [
        {
          "internalType": "string",
          "name": "_fileHash",
          "type": "string"
        }
      ],
      "name": "getDetailedReports",
      "outputs": [
        {
          "components": [
            {
              "internalType": "string",
              "name": "fileHash",
              "type": "string"
            },
            {
              "internalType": "string",
              "name": "category",
              "type": "string"
            },
            {
              "internalType": "address",
              "name": "Patient",
              "type": "address"
            },
            {
              "components": [
                {
                  "internalType": "address",
                  "name": "patient",
                  "type": "address"
                },
                {
                  "internalType": "uint256",
                  "name": "age",
                  "type": "uint256"
                },
                {
                  "internalType": "uint256",
                  "name": "weight",
                  "type": "uint256"
                },
                {
                  "internalType": "uint256",
                  "name": "height",
                  "type": "uint256"
                },
                {
                  "internalType": "string",
                  "name": "gender",
                  "type": "string"
                },
                {
                  "internalType": "string",
                  "name": "bloodGroup",
                  "type": "string"
                }
              ],
              "internalType": "struct DoctorWeb3.PatientInfo",
              "name": "patientInfo",
              "type": "tuple"
            }
          ],
          "internalType": "struct DoctorWeb3.Report",
          "name": "",
          "type": "tuple"
        }
      ],
      "stateMutability": "view",
      "type": "function",
      "constant": true
    },
    {
      "inputs": [],
      "name": "findDoctors",
      "outputs": [
        {
          "internalType": "address[]",
          "name": "",
          "type": "address[]"
        }
      ],
      "stateMutability": "view",
      "type": "function",
      "constant": true
    },
    {
      "inputs": [],
      "name": "findHospitals",
      "outputs": [
        {
          "internalType": "address[]",
          "name": "",
          "type": "address[]"
        }
      ],
      "stateMutability": "view",
      "type": "function",
      "constant": true
    },
    {
      "inputs": [
        {
          "internalType": "address",
          "name": "_addr",
          "type": "address"
        }
      ],
      "name": "getAuthorizedDHDetails",
      "outputs": [
        {
          "internalType": "address",
          "name": "",
          "type": "address"
        },
        {
          "internalType": "string",
          "name": "",
          "type": "string"
        },
        {
          "internalType": "string",
          "name": "",
          "type": "string"
        }
      ],
      "stateMutability": "view",
      "type": "function",
      "constant": true
    },
    {
      "inputs": [
        {
          "internalType": "string",
          "name": "_name",
          "type": "string"
        },
        {
          "internalType": "address",
          "name": "_applicantAddress",
          "type": "address"
        },
        {
          "internalType": "string",
          "name": "_medicalId",
          "type": "string"
        },
        {
          "internalType": "uint256",
          "name": "_applicantType",
          "type": "uint256"
        }
      ],
      "name": "request",
      "outputs": [
        {
          "internalType": "bytes32",
          "name": "_requestId",
          "type": "bytes32"
        }
      ],
      "stateMutability": "nonpayable",
      "type": "function"
    },
    {
      "inputs": [
        {
          "internalType": "bytes32",
          "name": "_requestId",
          "type": "bytes32"
        },
        {
          "internalType": "bool",
          "name": "_response",
          "type": "bool"
        }
      ],
      "name": "fulfill",
      "outputs": [],
      "stateMutability": "nonpayable",
      "type": "function"
    },
    {
      "inputs": [],
      "name": "getRes",
      "outputs": [
        {
          "internalType": "bool",
          "name": "",
          "type": "bool"
        }
      ],
      "stateMutability": "view",
      "type": "function",
      "constant": true
    },
    {
      "inputs": [],
      "name": "withdrawLink",
      "outputs": [],
      "stateMutability": "nonpayable",
      "type": "function"
    },
    {
      "inputs": [
        {
          "internalType": "string",
          "name": "_name",
          "type": "string"
        },
        {
          "internalType": "address",
          "name": "_applicantAddress",
          "type": "address"
        },
        {
          "internalType": "string",
          "name": "_medicalId",
          "type": "string"
        },
        {
          "internalType": "uint256",
          "name": "_applicantType",
          "type": "uint256"
        }
      ],
      "name": "ApplyForVerification",
      "outputs": [],
      "stateMutability": "nonpayable",
      "type": "function"
    },
    {
      "inputs": [
        {
          "internalType": "string",
          "name": "_fileHash",
          "type": "string"
        },
        {
          "internalType": "string",
          "name": "_category",
          "type": "string"
        },
        {
          "internalType": "uint256",
          "name": "_age",
          "type": "uint256"
        },
        {
          "internalType": "uint256",
          "name": "_weight",
          "type": "uint256"
        },
        {
          "internalType": "uint256",
          "name": "_height",
          "type": "uint256"
        },
        {
          "internalType": "string",
          "name": "_gender",
          "type": "string"
        },
        {
          "internalType": "string",
          "name": "_bloodGroup",
          "type": "string"
        }
      ],
      "name": "uploadReport",
      "outputs": [],
      "stateMutability": "nonpayable",
      "type": "function"
    },
    {
      "inputs": [
        {
          "internalType": "string",
          "name": "_fileHash",
          "type": "string"
        },
        {
          "internalType": "address",
          "name": "_recipient",
          "type": "address"
        },
        {
          "internalType": "string",
          "name": "_secretMessage",
          "type": "string"
        }
      ],
      "name": "shareReport",
      "outputs": [],
      "stateMutability": "nonpayable",
      "type": "function"
    },
    {
      "inputs": [],
      "name": "getSharedReportIds",
      "outputs": [
        {
          "internalType": "bytes32[]",
          "name": "",
          "type": "bytes32[]"
        }
      ],
      "stateMutability": "view",
      "type": "function",
      "constant": true
    },
    {
      "inputs": [
        {
          "internalType": "bytes32",
          "name": "_sharedReportId",
          "type": "bytes32"
        }
      ],
      "name": "getSharedReport",
      "outputs": [
        {
          "internalType": "string",
          "name": "",
          "type": "string"
        },
        {
          "internalType": "address",
          "name": "",
          "type": "address"
        },
        {
          "internalType": "address",
          "name": "",
          "type": "address"
        },
        {
          "internalType": "string",
          "name": "",
          "type": "string"
        }
      ],
      "stateMutability": "view",
      "type": "function",
      "constant": true
    },
    {
      "inputs": [
        {
          "internalType": "bytes32",
          "name": "_sharedReportId",
          "type": "bytes32"
        },
        {
          "internalType": "string",
          "name": "_response",
          "type": "string"
        }
      ],
      "name": "shareReportResponse",
      "outputs": [],
      "stateMutability": "nonpayable",
      "type": "function"
    },
    {
      "inputs": [
        {
          "internalType": "string",
          "name": "_filehash",
          "type": "string"
        }
      ],
      "name": "getDHResponse",
      "outputs": [
        {
          "components": [
            {
              "internalType": "address",
              "name": "sender",
              "type": "address"
            },
            {
              "internalType": "address",
              "name": "receiver",
              "type": "address"
            },
            {
              "internalType": "string",
              "name": "response",
              "type": "string"
            }
          ],
          "internalType": "struct DoctorWeb3.dhResponse[]",
          "name": "",
          "type": "tuple[]"
        }
      ],
      "stateMutability": "view",
      "type": "function",
      "constant": true
    }
  ],
  "bytecode": "0x608060405260016004553480156200001657600080fd5b50338060008073ffffffffffffffffffffffffffffffffffffffff168273ffffffffffffffffffffffffffffffffffffffff16036200008c576040517f08c379a00000000000000000000000000000000000000000000000000000000081526004016200008390620003da565b60405180910390fd5b81600660006101000a81548173ffffffffffffffffffffffffffffffffffffffff021916908373ffffffffffffffffffffffffffffffffffffffff160217905550600073ffffffffffffffffffffffffffffffffffffffff168173ffffffffffffffffffffffffffffffffffffffff161462000114576200011381620001c060201b60201c565b5b5050506200013c7384b9b910527ad5c03a9ca831909e21e236ea7b06620002f160201b60201c565b6200016173cc79157eb46f5624204f47ab42b3906caa40eab76200033560201b60201c565b7f633163356539323838303839346562366232376433636165313936373061613360098190555067016345785d8a0000600a819055506001600c819055506000600b60006101000a81548160ff0219169083151502179055506200046e565b3373ffffffffffffffffffffffffffffffffffffffff168173ffffffffffffffffffffffffffffffffffffffff160362000231576040517f08c379a000000000000000000000000000000000000000000000000000000000815260040162000228906200044c565b60405180910390fd5b80600760006101000a81548173ffffffffffffffffffffffffffffffffffffffff021916908373ffffffffffffffffffffffffffffffffffffffff1602179055508073ffffffffffffffffffffffffffffffffffffffff16600660009054906101000a900473ffffffffffffffffffffffffffffffffffffffff1673ffffffffffffffffffffffffffffffffffffffff167fed8889f560326eb138920d842192f0eb3dd22b4f139c87a2c57538e05bae127860405160405180910390a350565b80600260006101000a81548173ffffffffffffffffffffffffffffffffffffffff021916908373ffffffffffffffffffffffffffffffffffffffff16021790555050565b80600360006101000a81548173ffffffffffffffffffffffffffffffffffffffff021916908373ffffffffffffffffffffffffffffffffffffffff16021790555050565b600082825260208201905092915050565b7f43616e6e6f7420736574206f776e657220746f207a65726f0000000000000000600082015250565b6000620003c260188362000379565b9150620003cf826200038a565b602082019050919050565b60006020820190508181036000830152620003f581620003b3565b9050919050565b7f43616e6e6f74207472616e7366657220746f2073656c66000000000000000000600082015250565b60006200043460178362000379565b91506200044182620003fc565b602082019050919050565b60006020820190508181036000830152620004678162000425565b9050919050565b615de9806200047e6000396000f3fe6080604052600436106101a05760003560e01c806389e20701116100ec578063aa134f1e1161008a578063f2fde38b11610064578063f2fde38b14610666578063fcd9f2c01461068f578063fd54a82c146106ce578063fd68990a1461070d576101e0565b8063aa134f1e146105c3578063bd5d0fcb14610600578063e5e7892014610629576101e0565b80638dc654a2116100c65780638dc654a21461050657806394a98ba41461051d5780639b43ef651461055a5780639ed4a52a14610583576101e0565b806389e20701146104855780638b93b3bc146104b05780638da5cb5b146104db576101e0565b8063384423da1161015957806373b911d51161013357806373b911d5146103d8578063797e7a481461041857806379ba5097146104435780637f5962411461045a576101e0565b8063384423da14610332578063565392e4146103725780635bfc05481461039b576101e0565b8063060efe0e146101e5578063064f88c2146102225780630a20cced146102625780631057299c1461029f57806312ecfacf146102c857806318718fa9146102f3576101e0565b366101e0577f88a5966d370b9919b20f3e2c13ff65706f196a4e32cc2c12bf57088f8852587433346040516101d692919061429f565b60405180910390a1005b600080fd5b3480156101f157600080fd5b5061020c60048036038101906102079190614422565b610736565b6040516102199190614612565b60405180910390f35b34801561022e57600080fd5b5061024960048036038101906102449190614660565b610a94565b60405161025994939291906146d7565b60405180910390f35b34801561026e57600080fd5b5061028960048036038101906102849190614756565b610bf4565b604051610296919061480e565b60405180910390f35b3480156102ab57600080fd5b506102c660048036038101906102c19190614829565b610ddf565b005b3480156102d457600080fd5b506102dd6110b4565b6040516102ea91906149ea565b60405180910390f35b3480156102ff57600080fd5b5061031a60048036038101906103159190614a0c565b611142565b60405161032993929190614a39565b60405180910390f35b34801561033e57600080fd5b5061035960048036038101906103549190614aaa565b61135f565b6040516103699493929190614ad7565b60405180910390f35b34801561037e57600080fd5b5061039960048036038101906103949190614b2a565b6114df565b005b3480156103a757600080fd5b506103c260048036038101906103bd9190614a0c565b61166f565b6040516103cf9190614ba1565b60405180910390f35b3480156103e457600080fd5b506103ff60048036038101906103fa9190614422565b61168f565b60405161040f9493929190614c4c565b60405180910390f35b34801561042457600080fd5b5061042d6119a7565b60405161043a9190614ba1565b60405180910390f35b34801561044f57600080fd5b506104586119be565b005b34801561046657600080fd5b5061046f611b55565b60405161047c91906149ea565b60405180910390f35b34801561049157600080fd5b5061049a611be3565b6040516104a79190614d68565b60405180910390f35b3480156104bc57600080fd5b506104c5611cf9565b6040516104d29190614e48565b60405180910390f35b3480156104e757600080fd5b506104f0611d8e565b6040516104fd9190614e6a565b60405180910390f35b34801561051257600080fd5b5061051b611db8565b005b34801561052957600080fd5b50610544600480360381019061053f9190614422565b611f05565b6040516105519190614f97565b60405180910390f35b34801561056657600080fd5b50610581600480360381019061057c9190614756565b6120c0565b005b34801561058f57600080fd5b506105aa60048036038101906105a59190614aaa565b61242a565b6040516105ba9493929190614ad7565b60405180910390f35b3480156105cf57600080fd5b506105ea60048036038101906105e59190614fb9565b612647565b6040516105f79190614ff9565b60405180910390f35b34801561060c57600080fd5b506106276004803603810190610622919061501b565b612700565b005b34801561063557600080fd5b50610650600480360381019061064b9190614a0c565b612a90565b60405161065d9190614ba1565b60405180910390f35b34801561067257600080fd5b5061068d60048036038101906106889190614a0c565b612ab0565b005b34801561069b57600080fd5b506106b660048036038101906106b19190614a0c565b612ac4565b6040516106c593929190614a39565b60405180910390f35b3480156106da57600080fd5b506106f560048036038101906106f091906150a6565b612c1e565b60405161070493929190615102565b60405180910390f35b34801561071957600080fd5b50610734600480360381019061072f919061516c565b612d43565b005b61073e614054565b60108260405161074e91906151e8565b90815260200160405180910390206040518060800160405290816000820180546107779061522e565b80601f01602080910402602001604051908101604052809291908181526020018280546107a39061522e565b80156107f05780601f106107c5576101008083540402835291602001916107f0565b820191906000526020600020905b8154815290600101906020018083116107d357829003601f168201915b505050505081526020016001820180546108099061522e565b80601f01602080910402602001604051908101604052809291908181526020018280546108359061522e565b80156108825780601f1061085757610100808354040283529160200191610882565b820191906000526020600020905b81548152906001019060200180831161086557829003601f168201915b505050505081526020016002820160009054906101000a900473ffffffffffffffffffffffffffffffffffffffff1673ffffffffffffffffffffffffffffffffffffffff1673ffffffffffffffffffffffffffffffffffffffff168152602001600382016040518060c00160405290816000820160009054906101000a900473ffffffffffffffffffffffffffffffffffffffff1673ffffffffffffffffffffffffffffffffffffffff1673ffffffffffffffffffffffffffffffffffffffff1681526020016001820154815260200160028201548152602001600382015481526020016004820180546109759061522e565b80601f01602080910402602001604051908101604052809291908181526020018280546109a19061522e565b80156109ee5780601f106109c3576101008083540402835291602001916109ee565b820191906000526020600020905b8154815290600101906020018083116109d157829003601f168201915b50505050508152602001600582018054610a079061522e565b80601f0160208091040260200160405190810160405280929190818152602001828054610a339061522e565b8015610a805780601f10610a5557610100808354040283529160200191610a80565b820191906000526020600020905b815481529060010190602001808311610a6357829003601f168201915b505050505081525050815250509050919050565b6011602052806000526040600020600091509050806000018054610ab79061522e565b80601f0160208091040260200160405190810160405280929190818152602001828054610ae39061522e565b8015610b305780601f10610b0557610100808354040283529160200191610b30565b820191906000526020600020905b815481529060010190602001808311610b1357829003601f168201915b5050505050908060010160009054906101000a900473ffffffffffffffffffffffffffffffffffffffff1690806002018054610b6b9061522e565b80601f0160208091040260200160405190810160405280929190818152602001828054610b979061522e565b8015610be45780601f10610bb957610100808354040283529160200191610be4565b820191906000526020600020905b815481529060010190602001808311610bc757829003601f168201915b5050505050908060030154905084565b600080610c0b6009543063fd68990a60e01b6130f1565b9050610c6f6040518060400160405280600381526020017f67657400000000000000000000000000000000000000000000000000000000008152506040518060600160405280603c8152602001615d78603c9139836131229092919063ffffffff16565b610cee6040518060400160405280600481526020017f70617468000000000000000000000000000000000000000000000000000000008152506040518060400160405280600a81526020017f302c726573706f6e736500000000000000000000000000000000000000000000815250836131229092919063ffffffff16565b60405180608001604052808781526020018673ffffffffffffffffffffffffffffffffffffffff1681526020018581526020018481525060116000600c5481526020019081526020016000206000820151816000019080519060200190610d56929190614098565b5060208201518160010160006101000a81548173ffffffffffffffffffffffffffffffffffffffff021916908373ffffffffffffffffffffffffffffffffffffffff1602179055506040820151816002019080519060200190610dba929190614098565b5060608201518160030155905050610dd481600a54613155565b915050949350505050565b610de761411e565b610def614054565b33826000019073ffffffffffffffffffffffffffffffffffffffff16908173ffffffffffffffffffffffffffffffffffffffff168152505086826020018181525050828260a00181905250838260800181905250858260400181815250508482606001818152505088816000018190525033816040019073ffffffffffffffffffffffffffffffffffffffff16908173ffffffffffffffffffffffffffffffffffffffff16815250508781602001819052508181606001819052508060108a604051610ebb91906151e8565b90815260200160405180910390206000820151816000019080519060200190610ee5929190614098565b506020820151816001019080519060200190610f02929190614098565b5060408201518160020160006101000a81548173ffffffffffffffffffffffffffffffffffffffff021916908373ffffffffffffffffffffffffffffffffffffffff16021790555060608201518160030160008201518160000160006101000a81548173ffffffffffffffffffffffffffffffffffffffff021916908373ffffffffffffffffffffffffffffffffffffffff1602179055506020820151816001015560408201518160020155606082015181600301556080820151816004019080519060200190610fd4929190614098565b5060a0820151816005019080519060200190610ff1929190614098565b505050905050600f60003373ffffffffffffffffffffffffffffffffffffffff1673ffffffffffffffffffffffffffffffffffffffff1681526020019081526020016000208990806001815401808255809150506001900390600052602060002001600090919091909150908051906020019061106f929190614098565b507fe57ee35bc047d45ae97a7be850275f3baddba755df186218be07dfacf856768689896040516110a192919061525f565b60405180910390a1505050505050505050565b6060600d80548060200260200160405190810160405280929190818152602001828054801561113857602002820191906000526020600020905b8160009054906101000a900473ffffffffffffffffffffffffffffffffffffffff1673ffffffffffffffffffffffffffffffffffffffff16815260200190600101908083116110ee575b5050505050905090565b60006060806000601360008673ffffffffffffffffffffffffffffffffffffffff1673ffffffffffffffffffffffffffffffffffffffff16815260200190815260200160002060010180546111969061522e565b80601f01602080910402602001604051908101604052809291908181526020018280546111c29061522e565b801561120f5780601f106111e45761010080835404028352916020019161120f565b820191906000526020600020905b8154815290600101906020018083116111f257829003601f168201915b505050505090506000601360008773ffffffffffffffffffffffffffffffffffffffff1673ffffffffffffffffffffffffffffffffffffffff16815260200190815260200160002060000160009054906101000a900473ffffffffffffffffffffffffffffffffffffffff1690506000601360008873ffffffffffffffffffffffffffffffffffffffff1673ffffffffffffffffffffffffffffffffffffffff16815260200190815260200160002060020180546112cc9061522e565b80601f01602080910402602001604051908101604052809291908181526020018280546112f89061522e565b80156113455780601f1061131a57610100808354040283529160200191611345565b820191906000526020600020905b81548152906001019060200180831161132857829003601f168201915b505050505090508183829550955095505050509193909250565b60176020528060005260406000206000915090508060000180546113829061522e565b80601f01602080910402602001604051908101604052809291908181526020018280546113ae9061522e565b80156113fb5780601f106113d0576101008083540402835291602001916113fb565b820191906000526020600020905b8154815290600101906020018083116113de57829003601f168201915b5050505050908060010160009054906101000a900473ffffffffffffffffffffffffffffffffffffffff16908060020160009054906101000a900473ffffffffffffffffffffffffffffffffffffffff169080600301805461145c9061522e565b80601f01602080910402602001604051908101604052809291908181526020018280546114889061522e565b80156114d55780601f106114aa576101008083540402835291602001916114d5565b820191906000526020600020905b8154815290600101906020018083116114b857829003601f168201915b5050505050905084565b6000806114eb8461242a565b50509150915060188260405161150191906151e8565b908152602001604051809103902060405180606001604052803373ffffffffffffffffffffffffffffffffffffffff1681526020018373ffffffffffffffffffffffffffffffffffffffff16815260200185815250908060018154018082558091505060019003906000526020600020906003020160009091909190915060008201518160000160006101000a81548173ffffffffffffffffffffffffffffffffffffffff021916908373ffffffffffffffffffffffffffffffffffffffff16021790555060208201518160010160006101000a81548173ffffffffffffffffffffffffffffffffffffffff021916908373ffffffffffffffffffffffffffffffffffffffff1602179055506040820151816002019080519060200190611629929190614098565b5050507f722ceed5441b29abc58d069a0479bcb97475848b269e099dec303aea6b15a913338285856040516116619493929190615296565b60405180910390a150505050565b60156020528060005260406000206000915054906101000a900460ff1681565b6010818051602081018201805184825260208301602085012081835280955050505050506000915090508060000180546116c89061522e565b80601f01602080910402602001604051908101604052809291908181526020018280546116f49061522e565b80156117415780601f1061171657610100808354040283529160200191611741565b820191906000526020600020905b81548152906001019060200180831161172457829003601f168201915b5050505050908060010180546117569061522e565b80601f01602080910402602001604051908101604052809291908181526020018280546117829061522e565b80156117cf5780601f106117a4576101008083540402835291602001916117cf565b820191906000526020600020905b8154815290600101906020018083116117b257829003601f168201915b5050505050908060020160009054906101000a900473ffffffffffffffffffffffffffffffffffffffff1690806003016040518060c00160405290816000820160009054906101000a900473ffffffffffffffffffffffffffffffffffffffff1673ffffffffffffffffffffffffffffffffffffffff1673ffffffffffffffffffffffffffffffffffffffff16815260200160018201548152602001600282015481526020016003820154815260200160048201805461188e9061522e565b80601f01602080910402602001604051908101604052809291908181526020018280546118ba9061522e565b80156119075780601f106118dc57610100808354040283529160200191611907565b820191906000526020600020905b8154815290600101906020018083116118ea57829003601f168201915b505050505081526020016005820180546119209061522e565b80601f016020809104026020016040519081016040528092919081815260200182805461194c9061522e565b80156119995780601f1061196e57610100808354040283529160200191611999565b820191906000526020600020905b81548152906001019060200180831161197c57829003601f168201915b505050505081525050905084565b6000600b60009054906101000a900460ff16905090565b600760009054906101000a900473ffffffffffffffffffffffffffffffffffffffff1673ffffffffffffffffffffffffffffffffffffffff163373ffffffffffffffffffffffffffffffffffffffff1614611a4e576040517f08c379a0000000000000000000000000000000000000000000000000000000008152600401611a4590615335565b60405180910390fd5b6000600660009054906101000a900473ffffffffffffffffffffffffffffffffffffffff16905033600660006101000a81548173ffffffffffffffffffffffffffffffffffffffff021916908373ffffffffffffffffffffffffffffffffffffffff1602179055506000600760006101000a81548173ffffffffffffffffffffffffffffffffffffffff021916908373ffffffffffffffffffffffffffffffffffffffff1602179055503373ffffffffffffffffffffffffffffffffffffffff168173ffffffffffffffffffffffffffffffffffffffff167f8be0079c531659141344cd1fd0a4f28419497f9722a3daafe3b4186f6b6457e060405160405180910390a350565b6060600e805480602002602001604051908101604052809291908181526020018280548015611bd957602002820191906000526020600020905b8160009054906101000a900473ffffffffffffffffffffffffffffffffffffffff1673ffffffffffffffffffffffffffffffffffffffff1681526020019060010190808311611b8f575b5050505050905090565b6060600f60003373ffffffffffffffffffffffffffffffffffffffff1673ffffffffffffffffffffffffffffffffffffffff168152602001908152602001600020805480602002602001604051908101604052809291908181526020016000905b82821015611cf0578382906000526020600020018054611c639061522e565b80601f0160208091040260200160405190810160405280929190818152602001828054611c8f9061522e565b8015611cdc5780601f10611cb157610100808354040283529160200191611cdc565b820191906000526020600020905b815481529060010190602001808311611cbf57829003601f168201915b505050505081526020019060010190611c44565b50505050905090565b6060601660003373ffffffffffffffffffffffffffffffffffffffff1673ffffffffffffffffffffffffffffffffffffffff168152602001908152602001600020805480602002602001604051908101604052809291908181526020018280548015611d8457602002820191906000526020600020905b815481526020019060010190808311611d70575b5050505050905090565b6000600660009054906101000a900473ffffffffffffffffffffffffffffffffffffffff16905090565b611dc061318c565b6000611dca61321e565b90508073ffffffffffffffffffffffffffffffffffffffff1663a9059cbb338373ffffffffffffffffffffffffffffffffffffffff166370a08231306040518263ffffffff1660e01b8152600401611e229190614e6a565b602060405180830381865afa158015611e3f573d6000803e3d6000fd5b505050506040513d601f19601f82011682018060405250810190611e63919061536a565b6040518363ffffffff1660e01b8152600401611e8092919061429f565b6020604051808303816000875af1158015611e9f573d6000803e3d6000fd5b505050506040513d601f19601f82011682018060405250810190611ec391906153ac565b611f02576040517f08c379a0000000000000000000000000000000000000000000000000000000008152600401611ef990615425565b60405180910390fd5b50565b6060601882604051611f1791906151e8565b9081526020016040518091039020805480602002602001604051908101604052809291908181526020016000905b828210156120b557838290600052602060002090600302016040518060600160405290816000820160009054906101000a900473ffffffffffffffffffffffffffffffffffffffff1673ffffffffffffffffffffffffffffffffffffffff1673ffffffffffffffffffffffffffffffffffffffff1681526020016001820160009054906101000a900473ffffffffffffffffffffffffffffffffffffffff1673ffffffffffffffffffffffffffffffffffffffff1673ffffffffffffffffffffffffffffffffffffffff1681526020016002820180546120249061522e565b80601f01602080910402602001604051908101604052809291908181526020018280546120509061522e565b801561209d5780601f106120725761010080835404028352916020019161209d565b820191906000526020600020905b81548152906001019060200180831161208057829003601f168201915b50505050508152505081526020019060010190611f45565b505050509050919050565b60405180608001604052808581526020018473ffffffffffffffffffffffffffffffffffffffff1681526020018381526020018281525060116000600c5481526020019081526020016000206000820151816000019080519060200190612128929190614098565b5060208201518160010160006101000a81548173ffffffffffffffffffffffffffffffffffffffff021916908373ffffffffffffffffffffffffffffffffffffffff160217905550604082015181600201908051906020019061218c929190614098565b5060608201518160030155905050600060116000600c5481526020019081526020016000206040518060800160405290816000820180546121cc9061522e565b80601f01602080910402602001604051908101604052809291908181526020018280546121f89061522e565b80156122455780601f1061221a57610100808354040283529160200191612245565b820191906000526020600020905b81548152906001019060200180831161222857829003601f168201915b505050505081526020016001820160009054906101000a900473ffffffffffffffffffffffffffffffffffffffff1673ffffffffffffffffffffffffffffffffffffffff1673ffffffffffffffffffffffffffffffffffffffff1681526020016002820180546122b49061522e565b80601f01602080910402602001604051908101604052809291908181526020018280546122e09061522e565b801561232d5780601f106123025761010080835404028352916020019161232d565b820191906000526020600020905b81548152906001019060200180831161231057829003601f168201915b505050505081526020016003820154815250509050600081606001510361236a57612365816020015182600001518360400151613248565b61238f565b600181606001510361238e5761238d8160200151826000015183604001516134e9565b5b5b6001600c5461239e9190615474565b600c819055507f43fa451d1fb47cf164ccb6a777532e04af59430576b822519086e12fa351f1518160200151826040015160016040516123e0939291906154ca565b60405180910390a16001601282604001516040516123fe91906151e8565b908152602001604051809103902060006101000a81548160ff0219169083151502179055505050505050565b606060008060606000601760008781526020019081526020016000206040518060800160405290816000820180546124619061522e565b80601f016020809104026020016040519081016040528092919081815260200182805461248d9061522e565b80156124da5780601f106124af576101008083540402835291602001916124da565b820191906000526020600020905b8154815290600101906020018083116124bd57829003601f168201915b505050505081526020016001820160009054906101000a900473ffffffffffffffffffffffffffffffffffffffff1673ffffffffffffffffffffffffffffffffffffffff1673ffffffffffffffffffffffffffffffffffffffff1681526020016002820160009054906101000a900473ffffffffffffffffffffffffffffffffffffffff1673ffffffffffffffffffffffffffffffffffffffff1673ffffffffffffffffffffffffffffffffffffffff16815260200160038201805461259f9061522e565b80601f01602080910402602001604051908101604052809291908181526020018280546125cb9061522e565b80156126185780601f106125ed57610100808354040283529160200191612618565b820191906000526020600020905b8154815290600101906020018083116125fb57829003601f168201915b505050505081525050905080600001518160200151826040015183606001519450945094509450509193509193565b600f602052816000526040600020818154811061266357600080fd5b9060005260206000200160009150915050805461267f9061522e565b80601f01602080910402602001604051908101604052809291908181526020018280546126ab9061522e565b80156126f85780601f106126cd576101008083540402835291602001916126f8565b820191906000526020600020905b8154815290600101906020018083116126db57829003601f168201915b505050505081565b60108360405161271091906151e8565b908152602001604051809103902060020160009054906101000a900473ffffffffffffffffffffffffffffffffffffffff1673ffffffffffffffffffffffffffffffffffffffff163373ffffffffffffffffffffffffffffffffffffffff16146127af576040517f08c379a00000000000000000000000000000000000000000000000000000000081526004016127a69061557a565b60405180910390fd5b601560008373ffffffffffffffffffffffffffffffffffffffff1673ffffffffffffffffffffffffffffffffffffffff16815260200190815260200160002060009054906101000a900460ff16806128505750601460008373ffffffffffffffffffffffffffffffffffffffff1673ffffffffffffffffffffffffffffffffffffffff16815260200190815260200160002060009054906101000a900460ff165b61288f576040517f08c379a00000000000000000000000000000000000000000000000000000000081526004016128869061560c565b60405180910390fd5b600083836040516020016128a4929190615674565b60405160208183030381529060405280519060200120905060405180608001604052808581526020013373ffffffffffffffffffffffffffffffffffffffff1681526020018473ffffffffffffffffffffffffffffffffffffffff16815260200183815250601760008381526020019081526020016000206000820151816000019080519060200190612938929190614098565b5060208201518160010160006101000a81548173ffffffffffffffffffffffffffffffffffffffff021916908373ffffffffffffffffffffffffffffffffffffffff16021790555060408201518160020160006101000a81548173ffffffffffffffffffffffffffffffffffffffff021916908373ffffffffffffffffffffffffffffffffffffffff16021790555060608201518160030190805190602001906129e3929190614098565b50905050601660008473ffffffffffffffffffffffffffffffffffffffff1673ffffffffffffffffffffffffffffffffffffffff1681526020019081526020016000208190806001815401808255809150506001900390600052602060002001600090919091909150557fc5825d7737677ed1d1a5d607a9dcb5f0aead3d00ee0df5ea2646bb9d6374a8eb84338585604051612a829493929190614ad7565b60405180910390a150505050565b60146020528060005260406000206000915054906101000a900460ff1681565b612ab861318c565b612ac18161378a565b50565b60136020528060005260406000206000915090508060000160009054906101000a900473ffffffffffffffffffffffffffffffffffffffff1690806001018054612b0d9061522e565b80601f0160208091040260200160405190810160405280929190818152602001828054612b399061522e565b8015612b865780601f10612b5b57610100808354040283529160200191612b86565b820191906000526020600020905b815481529060010190602001808311612b6957829003601f168201915b505050505090806002018054612b9b9061522e565b80601f0160208091040260200160405190810160405280929190818152602001828054612bc79061522e565b8015612c145780601f10612be957610100808354040283529160200191612c14565b820191906000526020600020905b815481529060010190602001808311612bf757829003601f168201915b5050505050905083565b6018828051602081018201805184825260208301602085012081835280955050505050508181548110612c5057600080fd5b9060005260206000209060030201600091509150508060000160009054906101000a900473ffffffffffffffffffffffffffffffffffffffff16908060010160009054906101000a900473ffffffffffffffffffffffffffffffffffffffff1690806002018054612cc09061522e565b80601f0160208091040260200160405190810160405280929190818152602001828054612cec9061522e565b8015612d395780601f10612d0e57610100808354040283529160200191612d39565b820191906000526020600020905b815481529060010190602001808311612d1c57829003601f168201915b5050505050905083565b816005600082815260200190815260200160002060009054906101000a900473ffffffffffffffffffffffffffffffffffffffff1673ffffffffffffffffffffffffffffffffffffffff163373ffffffffffffffffffffffffffffffffffffffff1614612de5576040517f08c379a0000000000000000000000000000000000000000000000000000000008152600401612ddc9061570e565b60405180910390fd5b6005600082815260200190815260200160002060006101000a81549073ffffffffffffffffffffffffffffffffffffffff0219169055807f7cc135e0cebb02c3480ae5d74d377283180a2601f8f644edf7987b009316c63a60405160405180910390a281600b60006101000a81548160ff021916908315150217905550600060116000600c548152602001908152602001600020604051806080016040529081600082018054612e949061522e565b80601f0160208091040260200160405190810160405280929190818152602001828054612ec09061522e565b8015612f0d5780601f10612ee257610100808354040283529160200191612f0d565b820191906000526020600020905b815481529060010190602001808311612ef057829003601f168201915b505050505081526020016001820160009054906101000a900473ffffffffffffffffffffffffffffffffffffffff1673ffffffffffffffffffffffffffffffffffffffff1673ffffffffffffffffffffffffffffffffffffffff168152602001600282018054612f7c9061522e565b80601f0160208091040260200160405190810160405280929190818152602001828054612fa89061522e565b8015612ff55780601f10612fca57610100808354040283529160200191612ff5565b820191906000526020600020905b815481529060010190602001808311612fd857829003601f168201915b50505050508152602001600382015481525050905060008160600151036130325761302d816020015182600001518360400151613248565b613057565b6001816060015103613056576130558160200151826000015183604001516134e9565b5b5b6001600c546130669190615474565b600c819055507f43fa451d1fb47cf164ccb6a777532e04af59430576b822519086e12fa351f1518160200151826040015160016040516130a8939291906154ca565b60405180910390a16001601282604001516040516130c691906151e8565b908152602001604051809103902060006101000a81548160ff02191690831515021790555050505050565b6130f961416a565b61310161416a565b613118858585846138b8909392919063ffffffff16565b9150509392505050565b61313982846080015161396890919063ffffffff16565b61315081846080015161396890919063ffffffff16565b505050565b6000613184600360009054906101000a900473ffffffffffffffffffffffffffffffffffffffff16848461398d565b905092915050565b600660009054906101000a900473ffffffffffffffffffffffffffffffffffffffff1673ffffffffffffffffffffffffffffffffffffffff163373ffffffffffffffffffffffffffffffffffffffff161461321c576040517f08c379a00000000000000000000000000000000000000000000000000000000081526004016132139061577a565b60405180910390fd5b565b6000600260009054906101000a900473ffffffffffffffffffffffffffffffffffffffff16905090565b601560008473ffffffffffffffffffffffffffffffffffffffff1673ffffffffffffffffffffffffffffffffffffffff16815260200190815260200160002060009054906101000a900460ff16156132d5576040517f08c379a00000000000000000000000000000000000000000000000000000000081526004016132cc906157e6565b60405180910390fd5b600d839080600181540180825580915050600190039060005260206000200160009091909190916101000a81548173ffffffffffffffffffffffffffffffffffffffff021916908373ffffffffffffffffffffffffffffffffffffffff1602179055506001601560008573ffffffffffffffffffffffffffffffffffffffff1673ffffffffffffffffffffffffffffffffffffffff16815260200190815260200160002060006101000a81548160ff0219169083151502179055506133986141d7565b83816000019073ffffffffffffffffffffffffffffffffffffffff16908173ffffffffffffffffffffffffffffffffffffffff168152505082816020018190525081816040018190525080601360008673ffffffffffffffffffffffffffffffffffffffff1673ffffffffffffffffffffffffffffffffffffffff16815260200190815260200160002060008201518160000160006101000a81548173ffffffffffffffffffffffffffffffffffffffff021916908373ffffffffffffffffffffffffffffffffffffffff1602179055506020820151816001019080519060200190613485929190614098565b5060408201518160020190805190602001906134a2929190614098565b509050507f5d8da039f46939dac1f22e6429f726ab699d613ead17618999c45147211fb9d3838584426040516134db94939291906146d7565b60405180910390a150505050565b601460008473ffffffffffffffffffffffffffffffffffffffff1673ffffffffffffffffffffffffffffffffffffffff16815260200190815260200160002060009054906101000a900460ff1615613576576040517f08c379a000000000000000000000000000000000000000000000000000000000815260040161356d906157e6565b60405180910390fd5b600e839080600181540180825580915050600190039060005260206000200160009091909190916101000a81548173ffffffffffffffffffffffffffffffffffffffff021916908373ffffffffffffffffffffffffffffffffffffffff1602179055506001601460008573ffffffffffffffffffffffffffffffffffffffff1673ffffffffffffffffffffffffffffffffffffffff16815260200190815260200160002060006101000a81548160ff0219169083151502179055506136396141d7565b83816000019073ffffffffffffffffffffffffffffffffffffffff16908173ffffffffffffffffffffffffffffffffffffffff168152505082816020018190525081816040018190525080601360008673ffffffffffffffffffffffffffffffffffffffff1673ffffffffffffffffffffffffffffffffffffffff16815260200190815260200160002060008201518160000160006101000a81548173ffffffffffffffffffffffffffffffffffffffff021916908373ffffffffffffffffffffffffffffffffffffffff1602179055506020820151816001019080519060200190613726929190614098565b506040820151816002019080519060200190613743929190614098565b509050507f465daa34e4a04fd10e1b1da9ecb97133b5ff5b459841488cb1d9128dd793fd4d8385844260405161377c94939291906146d7565b60405180910390a150505050565b3373ffffffffffffffffffffffffffffffffffffffff168173ffffffffffffffffffffffffffffffffffffffff16036137f8576040517f08c379a00000000000000000000000000000000000000000000000000000000081526004016137ef90615852565b60405180910390fd5b80600760006101000a81548173ffffffffffffffffffffffffffffffffffffffff021916908373ffffffffffffffffffffffffffffffffffffffff1602179055508073ffffffffffffffffffffffffffffffffffffffff16600660009054906101000a900473ffffffffffffffffffffffffffffffffffffffff1673ffffffffffffffffffffffffffffffffffffffff167fed8889f560326eb138920d842192f0eb3dd22b4f139c87a2c57538e05bae127860405160405180910390a350565b6138c061416a565b6138d08560800151610100613a59565b508385600001818152505082856020019073ffffffffffffffffffffffffffffffffffffffff16908173ffffffffffffffffffffffffffffffffffffffff16815250508185604001907bffffffffffffffffffffffffffffffffffffffffffffffffffffffff191690817bffffffffffffffffffffffffffffffffffffffffffffffffffffffff191681525050849050949350505050565b6139758260038351613ac3565b6139888183613c4890919063ffffffff16565b505050565b60008060045490506001816139a29190615474565b6004819055506000634042994660e01b60008087600001513089604001518760018c60800151600001516040516024016139e3989796959493929190615902565b604051602081830303815290604052907bffffffffffffffffffffffffffffffffffffffffffffffffffffffff19166020820180517bffffffffffffffffffffffffffffffffffffffffffffffffffffffff83818316178352505050509050613a4e86838684613c6a565b925050509392505050565b613a6161420e565b6000602083613a7091906159b6565b14613a9c57602082613a8291906159b6565b6020613a8e91906159e7565b82613a999190615474565b91505b81836020018181525050604051808452600081528281016020016040525082905092915050565b60178167ffffffffffffffff1611613afa57613af48160058460ff16901b60ff161784613dff90919063ffffffff16565b50613c43565b60ff8167ffffffffffffffff1611613b5057613b29601860058460ff16901b1784613dff90919063ffffffff16565b50613b4a8167ffffffffffffffff16600185613e1f9092919063ffffffff16565b50613c42565b61ffff8167ffffffffffffffff1611613ba757613b80601960058460ff16901b1784613dff90919063ffffffff16565b50613ba18167ffffffffffffffff16600285613e1f9092919063ffffffff16565b50613c41565b63ffffffff8167ffffffffffffffff1611613c0057613bd9601a60058460ff16901b1784613dff90919063ffffffff16565b50613bfa8167ffffffffffffffff16600485613e1f9092919063ffffffff16565b50613c40565b613c1d601b60058460ff16901b1784613dff90919063ffffffff16565b50613c3e8167ffffffffffffffff16600885613e1f9092919063ffffffff16565b505b5b5b5b505050565b613c5061420e565b613c6283846000015151848551613e41565b905092915050565b60003084604051602001613c7f929190615aa3565b604051602081830303815290604052805190602001209050846005600083815260200190815260200160002060006101000a81548173ffffffffffffffffffffffffffffffffffffffff021916908373ffffffffffffffffffffffffffffffffffffffff160217905550807fb5e6e01e79f91267dc17b4e6314d5d4d03593d2ceee0fbb452b750bd70ea5af960405160405180910390a2600260009054906101000a900473ffffffffffffffffffffffffffffffffffffffff1673ffffffffffffffffffffffffffffffffffffffff16634000aea08685856040518463ffffffff1660e01b8152600401613d7593929190615acf565b6020604051808303816000875af1158015613d94573d6000803e3d6000fd5b505050506040513d601f19601f82011682018060405250810190613db891906153ac565b613df7576040517f08c379a0000000000000000000000000000000000000000000000000000000008152600401613dee90615b7f565b60405180910390fd5b949350505050565b613e0761420e565b613e178384600001515184613f30565b905092915050565b613e2761420e565b613e38848560000151518585613f86565b90509392505050565b613e4961420e565b8251821115613e5757600080fd5b84602001518285613e689190615474565b1115613e9d57613e9c856002613e8d88602001518887613e889190615474565b614014565b613e979190615b9f565b614030565b5b600080865180518760208301019350808887011115613ebc5787860182525b60208701925050505b60208410613f035780518252602082613ede9190615474565b9150602081613eed9190615474565b9050602084613efc91906159e7565b9350613ec5565b60006001856020036101000a03905080198251168184511681811785525050508692505050949350505050565b613f3861420e565b83602001518310613f5e57613f5d8460028660200151613f589190615b9f565b614030565b5b83518051602085830101848153818603613f79576001820183525b5050508390509392505050565b613f8e61420e565b84602001518483613f9f9190615474565b1115613fc757613fc68560028685613fb79190615474565b613fc19190615b9f565b614030565b5b6000600183610100613fd99190615d2c565b613fe391906159e7565b905085518386820101858319825116178152815185880111156140065784870182525b505085915050949350505050565b6000818311156140265782905061402a565b8190505b92915050565b6000826000015190506140438383613a59565b5061404e8382613c48565b50505050565b60405180608001604052806060815260200160608152602001600073ffffffffffffffffffffffffffffffffffffffff16815260200161409261411e565b81525090565b8280546140a49061522e565b90600052602060002090601f0160209004810192826140c6576000855561410d565b82601f106140df57805160ff191683800117855561410d565b8280016001018555821561410d579182015b8281111561410c5782518255916020019190600101906140f1565b5b50905061411a9190614228565b5090565b6040518060c00160405280600073ffffffffffffffffffffffffffffffffffffffff16815260200160008152602001600081526020016000815260200160608152602001606081525090565b6040518060a0016040528060008019168152602001600073ffffffffffffffffffffffffffffffffffffffff16815260200160007bffffffffffffffffffffffffffffffffffffffffffffffffffffffff19168152602001600081526020016141d161420e565b81525090565b6040518060600160405280600073ffffffffffffffffffffffffffffffffffffffff16815260200160608152602001606081525090565b604051806040016040528060608152602001600081525090565b5b80821115614241576000816000905550600101614229565b5090565b600073ffffffffffffffffffffffffffffffffffffffff82169050919050565b600061427082614245565b9050919050565b61428081614265565b82525050565b6000819050919050565b61429981614286565b82525050565b60006040820190506142b46000830185614277565b6142c16020830184614290565b9392505050565b6000604051905090565b600080fd5b600080fd5b600080fd5b600080fd5b6000601f19601f8301169050919050565b7f4e487b7100000000000000000000000000000000000000000000000000000000600052604160045260246000fd5b61432f826142e6565b810181811067ffffffffffffffff8211171561434e5761434d6142f7565b5b80604052505050565b60006143616142c8565b905061436d8282614326565b919050565b600067ffffffffffffffff82111561438d5761438c6142f7565b5b614396826142e6565b9050602081019050919050565b82818337600083830152505050565b60006143c56143c084614372565b614357565b9050828152602081018484840111156143e1576143e06142e1565b5b6143ec8482856143a3565b509392505050565b600082601f830112614409576144086142dc565b5b81356144198482602086016143b2565b91505092915050565b600060208284031215614438576144376142d2565b5b600082013567ffffffffffffffff811115614456576144556142d7565b5b614462848285016143f4565b91505092915050565b600081519050919050565b600082825260208201905092915050565b60005b838110156144a557808201518184015260208101905061448a565b838111156144b4576000848401525b50505050565b60006144c58261446b565b6144cf8185614476565b93506144df818560208601614487565b6144e8816142e6565b840191505092915050565b6144fc81614265565b82525050565b61450b81614286565b82525050565b600060c08301600083015161452960008601826144f3565b50602083015161453c6020860182614502565b50604083015161454f6040860182614502565b5060608301516145626060860182614502565b506080830151848203608086015261457a82826144ba565b91505060a083015184820360a086015261459482826144ba565b9150508091505092915050565b600060808301600083015184820360008601526145be82826144ba565b915050602083015184820360208601526145d882826144ba565b91505060408301516145ed60408601826144f3565b50606083015184820360608601526146058282614511565b9150508091505092915050565b6000602082019050818103600083015261462c81846145a1565b905092915050565b61463d81614286565b811461464857600080fd5b50565b60008135905061465a81614634565b92915050565b600060208284031215614676576146756142d2565b5b60006146848482850161464b565b91505092915050565b600082825260208201905092915050565b60006146a98261446b565b6146b3818561468d565b93506146c3818560208601614487565b6146cc816142e6565b840191505092915050565b600060808201905081810360008301526146f1818761469e565b90506147006020830186614277565b8181036040830152614712818561469e565b90506147216060830184614290565b95945050505050565b61473381614265565b811461473e57600080fd5b50565b6000813590506147508161472a565b92915050565b600080600080608085870312156147705761476f6142d2565b5b600085013567ffffffffffffffff81111561478e5761478d6142d7565b5b61479a878288016143f4565b94505060206147ab87828801614741565b935050604085013567ffffffffffffffff8111156147cc576147cb6142d7565b5b6147d8878288016143f4565b92505060606147e98782880161464b565b91505092959194509250565b6000819050919050565b614808816147f5565b82525050565b600060208201905061482360008301846147ff565b92915050565b600080600080600080600060e0888a031215614848576148476142d2565b5b600088013567ffffffffffffffff811115614866576148656142d7565b5b6148728a828b016143f4565b975050602088013567ffffffffffffffff811115614893576148926142d7565b5b61489f8a828b016143f4565b96505060406148b08a828b0161464b565b95505060606148c18a828b0161464b565b94505060806148d28a828b0161464b565b93505060a088013567ffffffffffffffff8111156148f3576148f26142d7565b5b6148ff8a828b016143f4565b92505060c088013567ffffffffffffffff8111156149205761491f6142d7565b5b61492c8a828b016143f4565b91505092959891949750929550565b600081519050919050565b600082825260208201905092915050565b6000819050602082019050919050565b600061497383836144f3565b60208301905092915050565b6000602082019050919050565b60006149978261493b565b6149a18185614946565b93506149ac83614957565b8060005b838110156149dd5781516149c48882614967565b97506149cf8361497f565b9250506001810190506149b0565b5085935050505092915050565b60006020820190508181036000830152614a04818461498c565b905092915050565b600060208284031215614a2257614a216142d2565b5b6000614a3084828501614741565b91505092915050565b6000606082019050614a4e6000830186614277565b8181036020830152614a60818561469e565b90508181036040830152614a74818461469e565b9050949350505050565b614a87816147f5565b8114614a9257600080fd5b50565b600081359050614aa481614a7e565b92915050565b600060208284031215614ac057614abf6142d2565b5b6000614ace84828501614a95565b91505092915050565b60006080820190508181036000830152614af1818761469e565b9050614b006020830186614277565b614b0d6040830185614277565b8181036060830152614b1f818461469e565b905095945050505050565b60008060408385031215614b4157614b406142d2565b5b6000614b4f85828601614a95565b925050602083013567ffffffffffffffff811115614b7057614b6f6142d7565b5b614b7c858286016143f4565b9150509250929050565b60008115159050919050565b614b9b81614b86565b82525050565b6000602082019050614bb66000830184614b92565b92915050565b600060c083016000830151614bd460008601826144f3565b506020830151614be76020860182614502565b506040830151614bfa6040860182614502565b506060830151614c0d6060860182614502565b5060808301518482036080860152614c2582826144ba565b91505060a083015184820360a0860152614c3f82826144ba565b9150508091505092915050565b60006080820190508181036000830152614c66818761469e565b90508181036020830152614c7a818661469e565b9050614c896040830185614277565b8181036060830152614c9b8184614bbc565b905095945050505050565b600081519050919050565b600082825260208201905092915050565b6000819050602082019050919050565b6000614cde83836144ba565b905092915050565b6000602082019050919050565b6000614cfe82614ca6565b614d088185614cb1565b935083602082028501614d1a85614cc2565b8060005b85811015614d565784840389528151614d378582614cd2565b9450614d4283614ce6565b925060208a01995050600181019050614d1e565b50829750879550505050505092915050565b60006020820190508181036000830152614d828184614cf3565b905092915050565b600081519050919050565b600082825260208201905092915050565b6000819050602082019050919050565b614dbf816147f5565b82525050565b6000614dd18383614db6565b60208301905092915050565b6000602082019050919050565b6000614df582614d8a565b614dff8185614d95565b9350614e0a83614da6565b8060005b83811015614e3b578151614e228882614dc5565b9750614e2d83614ddd565b925050600181019050614e0e565b5085935050505092915050565b60006020820190508181036000830152614e628184614dea565b905092915050565b6000602082019050614e7f6000830184614277565b92915050565b600081519050919050565b600082825260208201905092915050565b6000819050602082019050919050565b6000606083016000830151614ec960008601826144f3565b506020830151614edc60208601826144f3565b5060408301518482036040860152614ef482826144ba565b9150508091505092915050565b6000614f0d8383614eb1565b905092915050565b6000602082019050919050565b6000614f2d82614e85565b614f378185614e90565b935083602082028501614f4985614ea1565b8060005b85811015614f855784840389528151614f668582614f01565b9450614f7183614f15565b925060208a01995050600181019050614f4d565b50829750879550505050505092915050565b60006020820190508181036000830152614fb18184614f22565b905092915050565b60008060408385031215614fd057614fcf6142d2565b5b6000614fde85828601614741565b9250506020614fef8582860161464b565b9150509250929050565b60006020820190508181036000830152615013818461469e565b905092915050565b600080600060608486031215615034576150336142d2565b5b600084013567ffffffffffffffff811115615052576150516142d7565b5b61505e868287016143f4565b935050602061506f86828701614741565b925050604084013567ffffffffffffffff8111156150905761508f6142d7565b5b61509c868287016143f4565b9150509250925092565b600080604083850312156150bd576150bc6142d2565b5b600083013567ffffffffffffffff8111156150db576150da6142d7565b5b6150e7858286016143f4565b92505060206150f88582860161464b565b9150509250929050565b60006060820190506151176000830186614277565b6151246020830185614277565b8181036040830152615136818461469e565b9050949350505050565b61514981614b86565b811461515457600080fd5b50565b60008135905061516681615140565b92915050565b60008060408385031215615183576151826142d2565b5b600061519185828601614a95565b92505060206151a285828601615157565b9150509250929050565b600081905092915050565b60006151c28261446b565b6151cc81856151ac565b93506151dc818560208601614487565b80840191505092915050565b60006151f482846151b7565b915081905092915050565b7f4e487b7100000000000000000000000000000000000000000000000000000000600052602260045260246000fd5b6000600282049050600182168061524657607f821691505b602082108103615259576152586151ff565b5b50919050565b60006040820190508181036000830152615279818561469e565b9050818103602083015261528d818461469e565b90509392505050565b60006080820190506152ab6000830187614277565b6152b86020830186614277565b81810360408301526152ca818561469e565b905081810360608301526152de818461469e565b905095945050505050565b7f4d7573742062652070726f706f736564206f776e657200000000000000000000600082015250565b600061531f60168361468d565b915061532a826152e9565b602082019050919050565b6000602082019050818103600083015261534e81615312565b9050919050565b60008151905061536481614634565b92915050565b6000602082840312156153805761537f6142d2565b5b600061538e84828501615355565b91505092915050565b6000815190506153a681615140565b92915050565b6000602082840312156153c2576153c16142d2565b5b60006153d084828501615397565b91505092915050565b7f556e61626c6520746f207472616e736665720000000000000000000000000000600082015250565b600061540f60128361468d565b915061541a826153d9565b602082019050919050565b6000602082019050818103600083015261543e81615402565b9050919050565b7f4e487b7100000000000000000000000000000000000000000000000000000000600052601160045260246000fd5b600061547f82614286565b915061548a83614286565b9250827fffffffffffffffffffffffffffffffffffffffffffffffffffffffffffffffff038211156154bf576154be615445565b5b828201905092915050565b60006060820190506154df6000830186614277565b81810360208301526154f1818561469e565b90506155006040830184614b92565b949350505050565b7f4f6e6c792050617469656e742063616e20736861726520746865207265706f7260008201527f7400000000000000000000000000000000000000000000000000000000000000602082015250565b600061556460218361468d565b915061556f82615508565b604082019050919050565b6000602082019050818103600083015261559381615557565b9050919050565b7f446f63746f722f486f73706974616c206973206e6f7420617574686f72697a6560008201527f6400000000000000000000000000000000000000000000000000000000000000602082015250565b60006155f660218361468d565b91506156018261559a565b604082019050919050565b60006020820190508181036000830152615625816155e9565b9050919050565b60008160601b9050919050565b60006156448261562c565b9050919050565b600061565682615639565b9050919050565b61566e61566982614265565b61564b565b82525050565b600061568082856151b7565b915061568c828461565d565b6014820191508190509392505050565b7f536f75726365206d75737420626520746865206f7261636c65206f662074686560008201527f2072657175657374000000000000000000000000000000000000000000000000602082015250565b60006156f860288361468d565b91506157038261569c565b604082019050919050565b60006020820190508181036000830152615727816156eb565b9050919050565b7f4f6e6c792063616c6c61626c65206279206f776e657200000000000000000000600082015250565b600061576460168361468d565b915061576f8261572e565b602082019050919050565b6000602082019050818103600083015261579381615757565b9050919050565b7f416c726561647920726567697374657265642100000000000000000000000000600082015250565b60006157d060138361468d565b91506157db8261579a565b602082019050919050565b600060208201905081810360008301526157ff816157c3565b9050919050565b7f43616e6e6f74207472616e7366657220746f2073656c66000000000000000000600082015250565b600061583c60178361468d565b915061584782615806565b602082019050919050565b6000602082019050818103600083015261586b8161582f565b9050919050565b60007fffffffff0000000000000000000000000000000000000000000000000000000082169050919050565b6158a781615872565b82525050565b600081519050919050565b600082825260208201905092915050565b60006158d4826158ad565b6158de81856158b8565b93506158ee818560208601614487565b6158f7816142e6565b840191505092915050565b600061010082019050615918600083018b614277565b615925602083018a614290565b61593260408301896147ff565b61593f6060830188614277565b61594c608083018761589e565b61595960a0830186614290565b61596660c0830185614290565b81810360e083015261597881846158c9565b90509998505050505050505050565b7f4e487b7100000000000000000000000000000000000000000000000000000000600052601260045260246000fd5b60006159c182614286565b91506159cc83614286565b9250826159dc576159db615987565b5b828206905092915050565b60006159f282614286565b91506159fd83614286565b925082821015615a1057615a0f615445565b5b828203905092915050565b6000819050919050565b6000615a40615a3b615a3684614245565b615a1b565b614245565b9050919050565b6000615a5282615a25565b9050919050565b6000615a6482615a47565b9050919050565b615a7c615a7782615a59565b61564b565b82525050565b6000819050919050565b615a9d615a9882614286565b615a82565b82525050565b6000615aaf8285615a6b565b601482019150615abf8284615a8c565b6020820191508190509392505050565b6000606082019050615ae46000830186614277565b615af16020830185614290565b8181036040830152615b0381846158c9565b9050949350505050565b7f756e61626c6520746f207472616e73666572416e6443616c6c20746f206f726160008201527f636c650000000000000000000000000000000000000000000000000000000000602082015250565b6000615b6960238361468d565b9150615b7482615b0d565b604082019050919050565b60006020820190508181036000830152615b9881615b5c565b9050919050565b6000615baa82614286565b9150615bb583614286565b9250817fffffffffffffffffffffffffffffffffffffffffffffffffffffffffffffffff0483118215151615615bee57615bed615445565b5b828202905092915050565b60008160011c9050919050565b6000808291508390505b6001851115615c5057808604811115615c2c57615c2b615445565b5b6001851615615c3b5780820291505b8081029050615c4985615bf9565b9450615c10565b94509492505050565b600082615c695760019050615d25565b81615c775760009050615d25565b8160018114615c8d5760028114615c9757615cc6565b6001915050615d25565b60ff841115615ca957615ca8615445565b5b8360020a915084821115615cc057615cbf615445565b5b50615d25565b5060208310610133831016604e8410600b8410161715615cfb5782820a905083811115615cf657615cf5615445565b5b615d25565b615d088484846001615c06565b92509050818404811115615d1f57615d1e615445565b5b81810290505b9392505050565b6000615d3782614286565b9150615d4283614286565b9250615d6f7fffffffffffffffffffffffffffffffffffffffffffffffffffffffffffffffff8484615c59565b90509291505056fe68747470733a2f2f72756e2e6d6f636b792e696f2f76332f39366430326539352d643062652d343765332d383863662d623866393839376565313263a26469706673582212202ab350413d980939352fc5238ee31682ef981649b4c38ad8e57aa8809aa8803764736f6c634300080d0033",
  "immutableReferences": {},
  "source": "// SPDX-License-Identifier: MIT\r\npragma solidity ^0.8.0;\r\n\r\n// [X] 1  - Apply for verification as Doctor/Hospital\r\n// [X] 2  - Find Patient/User Reports Collection\r\n// [X] 3  - Find Doctors\r\n// [X] 4  - Find Hospitals\r\n// [ ] 5  - Send Report to Doctor/Hospital for analysis\r\n// [ ] 6  - Send Report Analysis back to patient\r\n// [ ] 7  - Reviews Doctor/Hospital on receiving the report\r\n// [X] 8  - Find authorized Doctor/Hospital\r\n\r\nimport {Chainlink, ChainlinkClient} from \"@chainlink/contracts/src/v0.8/ChainlinkClient.sol\";\r\nimport {ConfirmedOwner} from \"@chainlink/contracts/src/v0.8/shared/access/ConfirmedOwner.sol\";\r\nimport {LinkTokenInterface} from \"@chainlink/contracts/src/v0.8/shared/interfaces/LinkTokenInterface.sol\";\r\n\r\ncontract DoctorWeb3 is ChainlinkClient, ConfirmedOwner {\r\n    using Chainlink for Chainlink.Request;\r\n    address private oracle;\r\n    bytes32 private jobId;\r\n    uint256 private fee;\r\n    bool private res;\r\n    uint256 requestId;\r\n\r\n    constructor() ConfirmedOwner(msg.sender) {\r\n        _setChainlinkToken(0x84b9B910527Ad5C03A9Ca831909E21e236EA7b06);\r\n        _setChainlinkOracle(0xCC79157eb46F5624204f47AB42b3906cAA40eaB7);\r\n        jobId = \"c1c5e92880894eb6b27d3cae19670aa3\";\r\n        fee = 0.1 * 10 ** 18; // 0.1 LINK\r\n        requestId = 1;\r\n        res = false;\r\n    }\r\n\r\n    struct PatientInfo {\r\n        address patient;\r\n        uint256 age;\r\n        uint256 weight;\r\n        uint256 height;\r\n        string gender;\r\n        string bloodGroup;\r\n    }\r\n\r\n    struct Report {\r\n        string fileHash;\r\n        string category;\r\n        address Patient;\r\n        PatientInfo patientInfo;\r\n    }\r\n\r\n    struct SharedReport {\r\n        string fileHash;\r\n        address Patient;\r\n        address recipient;\r\n        string secretMessage;\r\n    }\r\n\r\n    struct Applicant {\r\n        string name;\r\n        address applicantAddress;\r\n        string medicalId;\r\n        uint256 applicantType; // 0 = Doctor, 1 = Hospital\r\n    }\r\n\r\n    struct AuthorizedDHDetails {\r\n        address authorizedDHAddress;\r\n        string name;\r\n        string medicalId;\r\n    }\r\n\r\n    struct dhResponse {\r\n        address sender;\r\n        address receiver;\r\n        string response;\r\n    }\r\n\r\n    address[] Doctors;\r\n    address[] Hospitals;\r\n    mapping(address => string[]) public PatientReports; // Maps Patient's address to its reports\r\n    mapping(string => Report) public Reports; // Maps report hash value from IPFS to Report Datatype\r\n    //mapping(bytes32 => Applicant) public Applicants; // Maps address of applicant to Applicant DataType\r\n    mapping(uint256 => Applicant) public Applicants; // remove during main chain\r\n    mapping(string => bool) private medicalIdUsed; // Maps medicalId to boolean\r\n    mapping(address => AuthorizedDHDetails) public AuthorizedDH; // Maps address of authorized Doctor or hospital with their details\r\n    mapping(address => bool) public AuthorisedHospital;\r\n    mapping(address => bool) public AuthorisedDoctor;\r\n    mapping(address => bytes32[]) private recipientSharedReports; // Mapping to store an array of shared report IDs for each recipient\r\n    mapping(bytes32 => SharedReport) public SharedReports; // Maps report unique value from IPFS to Report Datatype\r\n    mapping(string => dhResponse[]) public DoctorHospitalResponse;\r\n\r\n    event AuthorizationResult(\r\n        address applicantAddress,\r\n        string medicalId,\r\n        bool status\r\n    );\r\n\r\n    event DoctorAuthorized(\r\n        string name,\r\n        address _authAddress,\r\n        string medicalId,\r\n        uint AuthOnDate\r\n    );\r\n\r\n    event HospitalAuthorized(\r\n        string name,\r\n        address _authAddress,\r\n        string medicalId,\r\n        uint AuthOnDate\r\n    );\r\n\r\n    event ReportUploaded(string fileHash, string category);\r\n\r\n    event ReportShared(\r\n        string fileHash,\r\n        address Patient,\r\n        address recipient,\r\n        string secretMessage\r\n    );\r\n\r\n    event dhResponseEvent(\r\n        address sender,\r\n        address receiver,\r\n        string response,\r\n        string filehash\r\n    );\r\n\r\n    event Received(address, uint);\r\n\r\n    receive() external payable {\r\n        emit Received(msg.sender, msg.value);\r\n    }\r\n\r\n    function getPatientReports() public view returns (string[] memory) {\r\n        return PatientReports[msg.sender];\r\n    }\r\n\r\n    function getDetailedReports(\r\n        string memory _fileHash\r\n    ) public view returns (Report memory) {\r\n        return Reports[_fileHash];\r\n    }\r\n\r\n    function findDoctors() public view returns (address[] memory) {\r\n        return Doctors;\r\n    }\r\n\r\n    function findHospitals() public view returns (address[] memory) {\r\n        return Hospitals;\r\n    }\r\n\r\n    function getAuthorizedDHDetails(\r\n        address _addr\r\n    ) public view returns (address, string memory, string memory) {\r\n        string memory _name = AuthorizedDH[_addr].name;\r\n        address _address = AuthorizedDH[_addr].authorizedDHAddress;\r\n        string memory _medicalId = AuthorizedDH[_addr].medicalId;\r\n        return (_address, _name, _medicalId);\r\n    }\r\n\r\n    function request(\r\n        string memory _name,\r\n        address _applicantAddress,\r\n        string memory _medicalId,\r\n        uint256 _applicantType\r\n    ) public returns (bytes32 _requestId) {\r\n        Chainlink.Request memory req = _buildChainlinkRequest(\r\n            jobId,\r\n            address(this),\r\n            this.fulfill.selector\r\n        );\r\n        req._add(\r\n            \"get\",\r\n            \"https://run.mocky.io/v3/96d02e95-d0be-47e3-88cf-b8f9897ee12c\"\r\n        );\r\n\r\n        req._add(\"path\", \"0,response\");\r\n\r\n        Applicants[requestId] = Applicant(\r\n            _name,\r\n            _applicantAddress,\r\n            _medicalId,\r\n            _applicantType\r\n        );\r\n\r\n        return _sendChainlinkRequest(req, fee);\r\n    }\r\n\r\n    function fulfill(\r\n        bytes32 _requestId,\r\n        bool _response\r\n    ) public recordChainlinkFulfillment(_requestId) {\r\n        res = _response;\r\n        Applicant memory applicant = Applicants[requestId];\r\n        if (applicant.applicantType == 0) {\r\n            addAuthorizedDoctor(\r\n                applicant.applicantAddress,\r\n                applicant.name,\r\n                applicant.medicalId\r\n            );\r\n        } else if (applicant.applicantType == 1) {\r\n            addAuthorizedHospital(\r\n                applicant.applicantAddress,\r\n                applicant.name,\r\n                applicant.medicalId\r\n            );\r\n        }\r\n        requestId = requestId + 1;\r\n        emit AuthorizationResult(\r\n            applicant.applicantAddress,\r\n            applicant.medicalId,\r\n            true\r\n        );\r\n        medicalIdUsed[applicant.medicalId] = true;\r\n    }\r\n\r\n    function getRes() public view returns (bool) {\r\n        return res;\r\n    }\r\n\r\n    /**\r\n     * Allow withdraw of Link tokens from the contract\r\n     */\r\n    function withdrawLink() public onlyOwner {\r\n        LinkTokenInterface link = LinkTokenInterface(_chainlinkTokenAddress());\r\n        require(\r\n            link.transfer(msg.sender, link.balanceOf(address(this))),\r\n            \"Unable to transfer\"\r\n        );\r\n    }\r\n\r\n    function ApplyForVerification(\r\n        string memory _name,\r\n        address _applicantAddress,\r\n        string memory _medicalId,\r\n        uint256 _applicantType\r\n    ) public {\r\n        //require(_applicantType == 1 || _applicantType == 0,\"Apply id should be either 0 or 1\");\r\n        //require(!medicalIdUsed[_medicalId], \"Medical ID is already used\"); // Stopping function spamming\r\n        Applicants[requestId] = Applicant(\r\n            _name,\r\n            _applicantAddress,\r\n            _medicalId,\r\n            _applicantType\r\n        );\r\n\r\n        Applicant memory applicant = Applicants[requestId];\r\n\r\n        if (applicant.applicantType == 0) {\r\n            addAuthorizedDoctor(\r\n                applicant.applicantAddress,\r\n                applicant.name,\r\n                applicant.medicalId\r\n            );\r\n        } else if (applicant.applicantType == 1) {\r\n            addAuthorizedHospital(\r\n                applicant.applicantAddress,\r\n                applicant.name,\r\n                applicant.medicalId\r\n            );\r\n        }\r\n        requestId = requestId + 1;\r\n        emit AuthorizationResult(\r\n            applicant.applicantAddress,\r\n            applicant.medicalId,\r\n            true\r\n        );\r\n        medicalIdUsed[applicant.medicalId] = true;\r\n    }\r\n\r\n    function addAuthorizedDoctor(\r\n        address _authAddress,\r\n        string memory _name,\r\n        string memory _medicalId\r\n    ) private {\r\n        require(!AuthorisedDoctor[_authAddress], \"Already registered!\");\r\n        Doctors.push(_authAddress);\r\n        AuthorisedDoctor[_authAddress] = true;\r\n\r\n        AuthorizedDHDetails memory _authorizedDHDetail;\r\n\r\n        _authorizedDHDetail.authorizedDHAddress = _authAddress;\r\n        _authorizedDHDetail.name = _name;\r\n        _authorizedDHDetail.medicalId = _medicalId;\r\n\r\n        AuthorizedDH[_authAddress] = _authorizedDHDetail;\r\n\r\n        emit DoctorAuthorized(_name, _authAddress, _medicalId, block.timestamp);\r\n    }\r\n\r\n    function addAuthorizedHospital(\r\n        address _authAddress,\r\n        string memory _name,\r\n        string memory _medicalId\r\n    ) private {\r\n        require(!AuthorisedHospital[_authAddress], \"Already registered!\");\r\n        Hospitals.push(_authAddress);\r\n        AuthorisedHospital[_authAddress] = true;\r\n\r\n        AuthorizedDHDetails memory _authorizedDHDetail;\r\n\r\n        _authorizedDHDetail.authorizedDHAddress = _authAddress;\r\n        _authorizedDHDetail.name = _name;\r\n        _authorizedDHDetail.medicalId = _medicalId;\r\n\r\n        AuthorizedDH[_authAddress] = _authorizedDHDetail;\r\n\r\n        emit HospitalAuthorized(\r\n            _name,\r\n            _authAddress,\r\n            _medicalId,\r\n            block.timestamp\r\n        );\r\n    }\r\n\r\n    function uploadReport(\r\n        string memory _fileHash,\r\n        string memory _category,\r\n        uint256 _age,\r\n        uint256 _weight,\r\n        uint256 _height,\r\n        string memory _gender,\r\n        string memory _bloodGroup\r\n    ) public {\r\n        PatientInfo memory _patientInfo;\r\n        Report memory _report;\r\n\r\n        _patientInfo.patient = msg.sender;\r\n        _patientInfo.age = _age;\r\n        _patientInfo.bloodGroup = _bloodGroup;\r\n        _patientInfo.gender = _gender;\r\n        _patientInfo.weight = _weight;\r\n        _patientInfo.height = _height;\r\n\r\n        _report.fileHash = _fileHash;\r\n        _report.Patient = msg.sender;\r\n        _report.category = _category;\r\n        _report.patientInfo = _patientInfo;\r\n\r\n        Reports[_fileHash] = _report;\r\n        PatientReports[msg.sender].push(_fileHash);\r\n\r\n        emit ReportUploaded(_fileHash, _category);\r\n    }\r\n\r\n    function shareReport(\r\n        string memory _fileHash,\r\n        address _recipient,\r\n        string memory _secretMessage\r\n    ) public {\r\n        require(\r\n            msg.sender == Reports[_fileHash].Patient,\r\n            \"Only Patient can share the report\"\r\n        );\r\n        require(\r\n            AuthorisedDoctor[_recipient] || AuthorisedHospital[_recipient],\r\n            \"Doctor/Hospital is not authorized\"\r\n        );\r\n        bytes32 sharedReportId = keccak256(\r\n            abi.encodePacked(_fileHash, _recipient)\r\n        );\r\n        SharedReports[sharedReportId] = SharedReport({\r\n            fileHash: _fileHash,\r\n            Patient: msg.sender,\r\n            recipient: _recipient,\r\n            secretMessage: _secretMessage\r\n        });\r\n        // Store the shared report ID for the recipient\r\n        recipientSharedReports[_recipient].push(sharedReportId);\r\n        // Emit an event to notify the parties involved\r\n        emit ReportShared(_fileHash, msg.sender, _recipient, _secretMessage);\r\n    }\r\n\r\n    function getSharedReportIds() public view returns (bytes32[] memory) {\r\n        return recipientSharedReports[msg.sender];\r\n    }\r\n\r\n    function getSharedReport(\r\n        bytes32 _sharedReportId\r\n    ) public view returns (string memory, address, address, string memory) {\r\n        SharedReport memory sharedReport = SharedReports[_sharedReportId];\r\n        return (\r\n            sharedReport.fileHash,\r\n            sharedReport.Patient,\r\n            sharedReport.recipient,\r\n            sharedReport.secretMessage\r\n        );\r\n    }\r\n\r\n    function shareReportResponse(\r\n        bytes32 _sharedReportId,\r\n        string memory _response\r\n    ) public {\r\n        (string memory _filehash, address _receiver, , ) = getSharedReport(\r\n            _sharedReportId\r\n        );\r\n\r\n        DoctorHospitalResponse[_filehash].push(\r\n            dhResponse({\r\n                sender: msg.sender,\r\n                receiver: _receiver,\r\n                response: _response\r\n            })\r\n        );\r\n        emit dhResponseEvent(msg.sender, _receiver, _response, _filehash);\r\n    }\r\n\r\n    function getDHResponse(\r\n        string memory _filehash\r\n    ) public view returns (dhResponse[] memory) {\r\n        return DoctorHospitalResponse[_filehash];\r\n    }\r\n}\r\n",
  "sourcePath": "D:\\OLD_PC\\JavaScript_apps\\React\\DoctorWeb3\\doctorweb3\\src\\contracts\\DoctorWeb3.sol",
  "compiler": {
    "name": "solc",
    "version": "0.8.13+commit.abaa5c0e.Emscripten.clang"
  },
  "schemaVersion": "3.4.13",
  "updatedAt": "2024-04-30T22:21:45.963Z",
  "networkType": "ethereum",
  "devdoc": {
    "kind": "dev",
    "methods": {},
    "version": 1
  },
  "userdoc": {
    "kind": "user",
    "methods": {
      "acceptOwnership()": {
        "notice": "Allows an ownership transfer to be completed by the recipient."
      },
      "owner()": {
        "notice": "Get the current owner"
      },
      "transferOwnership(address)": {
        "notice": "Allows an owner to begin transferring ownership to a new address."
      },
      "withdrawLink()": {
        "notice": "Allow withdraw of Link tokens from the contract"
      }
    },
    "version": 1
  }
}