{
  "contractName": "DoctorWeb3",
  "abi": [
    {
      "inputs": [],
      "stateMutability": "nonpayable",
      "type": "constructor"
    },
    {
      "anonymous": false,
      "inputs": [
        {
          "indexed": false,
          "internalType": "address",
          "name": "applicantAddress",
          "type": "address"
        },
        {
          "indexed": false,
          "internalType": "string",
          "name": "medicalId",
          "type": "string"
        },
        {
          "indexed": false,
          "internalType": "bool",
          "name": "status",
          "type": "bool"
        }
      ],
      "name": "AuthorizationResult",
      "type": "event"
    },
    {
      "anonymous": false,
      "inputs": [
        {
          "indexed": true,
          "internalType": "bytes32",
          "name": "id",
          "type": "bytes32"
        }
      ],
      "name": "ChainlinkCancelled",
      "type": "event"
    },
    {
      "anonymous": false,
      "inputs": [
        {
          "indexed": true,
          "internalType": "bytes32",
          "name": "id",
          "type": "bytes32"
        }
      ],
      "name": "ChainlinkFulfilled",
      "type": "event"
    },
    {
      "anonymous": false,
      "inputs": [
        {
          "indexed": true,
          "internalType": "bytes32",
          "name": "id",
          "type": "bytes32"
        }
      ],
      "name": "ChainlinkRequested",
      "type": "event"
    },
    {
      "anonymous": false,
      "inputs": [
        {
          "indexed": false,
          "internalType": "string",
          "name": "name",
          "type": "string"
        },
        {
          "indexed": false,
          "internalType": "address",
          "name": "_authAddress",
          "type": "address"
        },
        {
          "indexed": false,
          "internalType": "string",
          "name": "medicalId",
          "type": "string"
        },
        {
          "indexed": false,
          "internalType": "uint256",
          "name": "AuthOnDate",
          "type": "uint256"
        }
      ],
      "name": "DoctorAuthorized",
      "type": "event"
    },
    {
      "anonymous": false,
      "inputs": [
        {
          "indexed": false,
          "internalType": "string",
          "name": "name",
          "type": "string"
        },
        {
          "indexed": false,
          "internalType": "address",
          "name": "_authAddress",
          "type": "address"
        },
        {
          "indexed": false,
          "internalType": "string",
          "name": "medicalId",
          "type": "string"
        },
        {
          "indexed": false,
          "internalType": "uint256",
          "name": "AuthOnDate",
          "type": "uint256"
        }
      ],
      "name": "HospitalAuthorized",
      "type": "event"
    },
    {
      "anonymous": false,
      "inputs": [
        {
          "indexed": false,
          "internalType": "address",
          "name": "",
          "type": "address"
        },
        {
          "indexed": false,
          "internalType": "uint256",
          "name": "",
          "type": "uint256"
        }
      ],
      "name": "Received",
      "type": "event"
    },
    {
      "anonymous": false,
      "inputs": [
        {
          "indexed": false,
          "internalType": "string",
          "name": "fileHash",
          "type": "string"
        },
        {
          "indexed": false,
          "internalType": "string",
          "name": "category",
          "type": "string"
        }
      ],
      "name": "ReportUploaded",
      "type": "event"
    },
    {
      "anonymous": false,
      "inputs": [
        {
          "indexed": true,
          "internalType": "address",
          "name": "author",
          "type": "address"
        },
        {
          "indexed": false,
          "internalType": "string",
          "name": "oldValue",
          "type": "string"
        },
        {
          "indexed": false,
          "internalType": "string",
          "name": "newValue",
          "type": "string"
        }
      ],
      "name": "ValueChanged",
      "type": "event"
    },
    {
      "inputs": [
        {
          "internalType": "uint256",
          "name": "",
          "type": "uint256"
        }
      ],
      "name": "Applicants",
      "outputs": [
        {
          "internalType": "string",
          "name": "name",
          "type": "string"
        },
        {
          "internalType": "address",
          "name": "applicantAddress",
          "type": "address"
        },
        {
          "internalType": "string",
          "name": "medicalId",
          "type": "string"
        },
        {
          "internalType": "uint256",
          "name": "applicantType",
          "type": "uint256"
        }
      ],
      "stateMutability": "view",
      "type": "function",
      "constant": true
    },
    {
      "inputs": [
        {
          "internalType": "address",
          "name": "",
          "type": "address"
        }
      ],
      "name": "AuthorisedDoctor",
      "outputs": [
        {
          "internalType": "bool",
          "name": "",
          "type": "bool"
        }
      ],
      "stateMutability": "view",
      "type": "function",
      "constant": true
    },
    {
      "inputs": [
        {
          "internalType": "address",
          "name": "",
          "type": "address"
        }
      ],
      "name": "AuthorisedHospital",
      "outputs": [
        {
          "internalType": "bool",
          "name": "",
          "type": "bool"
        }
      ],
      "stateMutability": "view",
      "type": "function",
      "constant": true
    },
    {
      "inputs": [
        {
          "internalType": "address",
          "name": "",
          "type": "address"
        }
      ],
      "name": "AuthorizedDH",
      "outputs": [
        {
          "internalType": "address",
          "name": "authorizedDHAddress",
          "type": "address"
        },
        {
          "internalType": "string",
          "name": "name",
          "type": "string"
        },
        {
          "internalType": "string",
          "name": "medicalId",
          "type": "string"
        }
      ],
      "stateMutability": "view",
      "type": "function",
      "constant": true
    },
    {
      "inputs": [
        {
          "internalType": "address",
          "name": "",
          "type": "address"
        },
        {
          "internalType": "uint256",
          "name": "",
          "type": "uint256"
        }
      ],
      "name": "PatientReports",
      "outputs": [
        {
          "internalType": "string",
          "name": "",
          "type": "string"
        }
      ],
      "stateMutability": "view",
      "type": "function",
      "constant": true
    },
    {
      "inputs": [
        {
          "internalType": "string",
          "name": "",
          "type": "string"
        }
      ],
      "name": "Reports",
      "outputs": [
        {
          "internalType": "string",
          "name": "fileHash",
          "type": "string"
        },
        {
          "internalType": "string",
          "name": "category",
          "type": "string"
        },
        {
          "internalType": "address",
          "name": "Patient",
          "type": "address"
        },
        {
          "components": [
            {
              "internalType": "address",
              "name": "patient",
              "type": "address"
            },
            {
              "internalType": "uint256",
              "name": "age",
              "type": "uint256"
            },
            {
              "internalType": "uint256",
              "name": "weight",
              "type": "uint256"
            },
            {
              "internalType": "uint256",
              "name": "height",
              "type": "uint256"
            },
            {
              "internalType": "string",
              "name": "gender",
              "type": "string"
            },
            {
              "internalType": "string",
              "name": "bloodGroup",
              "type": "string"
            }
          ],
          "internalType": "struct DoctorWeb3.PatientInfo",
          "name": "patientInfo",
          "type": "tuple"
        }
      ],
      "stateMutability": "view",
      "type": "function",
      "constant": true
    },
    {
      "stateMutability": "payable",
      "type": "receive",
      "payable": true
    },
    {
      "inputs": [],
      "name": "getValue",
      "outputs": [
        {
          "internalType": "string",
          "name": "",
          "type": "string"
        }
      ],
      "stateMutability": "view",
      "type": "function",
      "constant": true
    },
    {
      "inputs": [
        {
          "internalType": "string",
          "name": "value",
          "type": "string"
        }
      ],
      "name": "setValue",
      "outputs": [],
      "stateMutability": "nonpayable",
      "type": "function"
    },
    {
      "inputs": [],
      "name": "testFunction",
      "outputs": [
        {
          "internalType": "string",
          "name": "myString",
          "type": "string"
        }
      ],
      "stateMutability": "pure",
      "type": "function",
      "constant": true
    },
    {
      "inputs": [],
      "name": "getPatientReports",
      "outputs": [
        {
          "internalType": "string[]",
          "name": "",
          "type": "string[]"
        }
      ],
      "stateMutability": "view",
      "type": "function",
      "constant": true
    },
    {
      "inputs": [
        {
          "internalType": "string",
          "name": "_fileHash",
          "type": "string"
        }
      ],
      "name": "getDetailedReports",
      "outputs": [
        {
          "components": [
            {
              "internalType": "string",
              "name": "fileHash",
              "type": "string"
            },
            {
              "internalType": "string",
              "name": "category",
              "type": "string"
            },
            {
              "internalType": "address",
              "name": "Patient",
              "type": "address"
            },
            {
              "components": [
                {
                  "internalType": "address",
                  "name": "patient",
                  "type": "address"
                },
                {
                  "internalType": "uint256",
                  "name": "age",
                  "type": "uint256"
                },
                {
                  "internalType": "uint256",
                  "name": "weight",
                  "type": "uint256"
                },
                {
                  "internalType": "uint256",
                  "name": "height",
                  "type": "uint256"
                },
                {
                  "internalType": "string",
                  "name": "gender",
                  "type": "string"
                },
                {
                  "internalType": "string",
                  "name": "bloodGroup",
                  "type": "string"
                }
              ],
              "internalType": "struct DoctorWeb3.PatientInfo",
              "name": "patientInfo",
              "type": "tuple"
            }
          ],
          "internalType": "struct DoctorWeb3.Report",
          "name": "",
          "type": "tuple"
        }
      ],
      "stateMutability": "view",
      "type": "function",
      "constant": true
    },
    {
      "inputs": [],
      "name": "findDoctors",
      "outputs": [
        {
          "internalType": "address[]",
          "name": "",
          "type": "address[]"
        }
      ],
      "stateMutability": "view",
      "type": "function",
      "constant": true
    },
    {
      "inputs": [],
      "name": "findHospitals",
      "outputs": [
        {
          "internalType": "address[]",
          "name": "",
          "type": "address[]"
        }
      ],
      "stateMutability": "view",
      "type": "function",
      "constant": true
    },
    {
      "inputs": [
        {
          "internalType": "address",
          "name": "_addr",
          "type": "address"
        }
      ],
      "name": "getAuthorizedDHDetails",
      "outputs": [
        {
          "internalType": "address",
          "name": "",
          "type": "address"
        },
        {
          "internalType": "string",
          "name": "",
          "type": "string"
        },
        {
          "internalType": "string",
          "name": "",
          "type": "string"
        }
      ],
      "stateMutability": "view",
      "type": "function",
      "constant": true
    },
    {
      "inputs": [
        {
          "internalType": "string",
          "name": "_name",
          "type": "string"
        },
        {
          "internalType": "address",
          "name": "_applicantAddress",
          "type": "address"
        },
        {
          "internalType": "string",
          "name": "_medicalId",
          "type": "string"
        },
        {
          "internalType": "uint256",
          "name": "_applicantType",
          "type": "uint256"
        }
      ],
      "name": "ApplyForVerification",
      "outputs": [],
      "stateMutability": "nonpayable",
      "type": "function"
    },
    {
      "inputs": [
        {
          "internalType": "string",
          "name": "_fileHash",
          "type": "string"
        },
        {
          "internalType": "string",
          "name": "_category",
          "type": "string"
        },
        {
          "internalType": "uint256",
          "name": "_age",
          "type": "uint256"
        },
        {
          "internalType": "uint256",
          "name": "_weight",
          "type": "uint256"
        },
        {
          "internalType": "uint256",
          "name": "_height",
          "type": "uint256"
        },
        {
          "internalType": "string",
          "name": "_gender",
          "type": "string"
        },
        {
          "internalType": "string",
          "name": "_bloodGroup",
          "type": "string"
        }
      ],
      "name": "uploadReport",
      "outputs": [],
      "stateMutability": "nonpayable",
      "type": "function"
    }
  ],
  "bytecode": "0x608060405260016004553480156200001657600080fd5b5033600660006101000a81548173ffffffffffffffffffffffffffffffffffffffff021916908373ffffffffffffffffffffffffffffffffffffffff1602179055506200007d73326c977e6efc84e512bb9c30f76e30c160ed06fb6200016460201b60201c565b7340193c8518bb267228fc409a613bdbd8ec5a97b3600760006101000a81548173ffffffffffffffffffffffffffffffffffffffff021916908373ffffffffffffffffffffffffffffffffffffffff1602179055507f636139383336366363373331343935376238633031326337326630356165656260088190555067016345785d8a00006009819055506040518060400160405280600581526020017f68656c6c6f000000000000000000000000000000000000000000000000000000815250600a908051906020019062000155929190620001a8565b506001600b81905550620002bc565b80600260006101000a81548173ffffffffffffffffffffffffffffffffffffffff021916908373ffffffffffffffffffffffffffffffffffffffff16021790555050565b828054620001b69062000287565b90600052602060002090601f016020900481019282620001da576000855562000226565b82601f10620001f557805160ff191683800117855562000226565b8280016001018555821562000226579182015b828111156200022557825182559160200191906001019062000208565b5b50905062000235919062000239565b5090565b5b80821115620002545760008160009055506001016200023a565b5090565b7f4e487b7100000000000000000000000000000000000000000000000000000000600052602260045260246000fd5b60006002820490506001821680620002a057607f821691505b602082108103620002b657620002b562000258565b5b50919050565b612eb080620002cc6000396000f3fe6080604052600436106100f75760003560e01c80637f5962411161008a578063aa134f1e11610059578063aa134f1e1461039c578063e16b4a9b146103d9578063e5e7892014610404578063fcd9f2c01461044157610137565b80637f596241146102f457806389e207011461031f57806393a093521461034a5780639b43ef651461037357610137565b806318718fa9116100c657806318718fa91461020d578063209652551461024c5780635bfc05481461027757806373b911d5146102b457610137565b8063060efe0e1461013c578063064f88c2146101795780631057299c146101b957806312ecfacf146101e257610137565b36610137577f88a5966d370b9919b20f3e2c13ff65706f196a4e32cc2c12bf57088f88525874333460405161012d92919061215a565b60405180910390a1005b600080fd5b34801561014857600080fd5b50610163600480360381019061015e91906122dd565b610480565b60405161017091906124cd565b60405180910390f35b34801561018557600080fd5b506101a0600480360381019061019b919061251b565b6107de565b6040516101b09493929190612592565b60405180910390f35b3480156101c557600080fd5b506101e060048036038101906101db91906125e5565b61093e565b005b3480156101ee57600080fd5b506101f7610c13565b60405161020491906127a6565b60405180910390f35b34801561021957600080fd5b50610234600480360381019061022f91906127f4565b610ca1565b60405161024393929190612821565b60405180910390f35b34801561025857600080fd5b50610261610ebe565b60405161026e9190612866565b60405180910390f35b34801561028357600080fd5b5061029e600480360381019061029991906127f4565b610f50565b6040516102ab91906128a3565b60405180910390f35b3480156102c057600080fd5b506102db60048036038101906102d691906122dd565b610f70565b6040516102eb949392919061294e565b60405180910390f35b34801561030057600080fd5b50610309611288565b60405161031691906127a6565b60405180910390f35b34801561032b57600080fd5b50610334611316565b6040516103419190612a6a565b60405180910390f35b34801561035657600080fd5b50610371600480360381019061036c91906122dd565b61142c565b005b34801561037f57600080fd5b5061039a60048036038101906103959190612a8c565b611497565b005b3480156103a857600080fd5b506103c360048036038101906103be9190612b2b565b611801565b6040516103d09190612866565b60405180910390f35b3480156103e557600080fd5b506103ee6118ba565b6040516103fb9190612866565b60405180910390f35b34801561041057600080fd5b5061042b600480360381019061042691906127f4565b6118da565b60405161043891906128a3565b60405180910390f35b34801561044d57600080fd5b50610468600480360381019061046391906127f4565b6118fa565b60405161047793929190612821565b60405180910390f35b610488611f96565b600f826040516104989190612ba7565b90815260200160405180910390206040518060800160405290816000820180546104c190612bed565b80601f01602080910402602001604051908101604052809291908181526020018280546104ed90612bed565b801561053a5780601f1061050f5761010080835404028352916020019161053a565b820191906000526020600020905b81548152906001019060200180831161051d57829003601f168201915b5050505050815260200160018201805461055390612bed565b80601f016020809104026020016040519081016040528092919081815260200182805461057f90612bed565b80156105cc5780601f106105a1576101008083540402835291602001916105cc565b820191906000526020600020905b8154815290600101906020018083116105af57829003601f168201915b505050505081526020016002820160009054906101000a900473ffffffffffffffffffffffffffffffffffffffff1673ffffffffffffffffffffffffffffffffffffffff1673ffffffffffffffffffffffffffffffffffffffff168152602001600382016040518060c00160405290816000820160009054906101000a900473ffffffffffffffffffffffffffffffffffffffff1673ffffffffffffffffffffffffffffffffffffffff1673ffffffffffffffffffffffffffffffffffffffff1681526020016001820154815260200160028201548152602001600382015481526020016004820180546106bf90612bed565b80601f01602080910402602001604051908101604052809291908181526020018280546106eb90612bed565b80156107385780601f1061070d57610100808354040283529160200191610738565b820191906000526020600020905b81548152906001019060200180831161071b57829003601f168201915b5050505050815260200160058201805461075190612bed565b80601f016020809104026020016040519081016040528092919081815260200182805461077d90612bed565b80156107ca5780601f1061079f576101008083540402835291602001916107ca565b820191906000526020600020905b8154815290600101906020018083116107ad57829003601f168201915b505050505081525050815250509050919050565b601060205280600052604060002060009150905080600001805461080190612bed565b80601f016020809104026020016040519081016040528092919081815260200182805461082d90612bed565b801561087a5780601f1061084f5761010080835404028352916020019161087a565b820191906000526020600020905b81548152906001019060200180831161085d57829003601f168201915b5050505050908060010160009054906101000a900473ffffffffffffffffffffffffffffffffffffffff16908060020180546108b590612bed565b80601f01602080910402602001604051908101604052809291908181526020018280546108e190612bed565b801561092e5780601f106109035761010080835404028352916020019161092e565b820191906000526020600020905b81548152906001019060200180831161091157829003601f168201915b5050505050908060030154905084565b610946611fda565b61094e611f96565b33826000019073ffffffffffffffffffffffffffffffffffffffff16908173ffffffffffffffffffffffffffffffffffffffff168152505086826020018181525050828260a00181905250838260800181905250858260400181815250508482606001818152505088816000018190525033816040019073ffffffffffffffffffffffffffffffffffffffff16908173ffffffffffffffffffffffffffffffffffffffff168152505087816020018190525081816060018190525080600f8a604051610a1a9190612ba7565b90815260200160405180910390206000820151816000019080519060200190610a44929190612026565b506020820151816001019080519060200190610a61929190612026565b5060408201518160020160006101000a81548173ffffffffffffffffffffffffffffffffffffffff021916908373ffffffffffffffffffffffffffffffffffffffff16021790555060608201518160030160008201518160000160006101000a81548173ffffffffffffffffffffffffffffffffffffffff021916908373ffffffffffffffffffffffffffffffffffffffff1602179055506020820151816001015560408201518160020155606082015181600301556080820151816004019080519060200190610b33929190612026565b5060a0820151816005019080519060200190610b50929190612026565b505050905050600e60003373ffffffffffffffffffffffffffffffffffffffff1673ffffffffffffffffffffffffffffffffffffffff16815260200190815260200160002089908060018154018082558091505060019003906000526020600020016000909190919091509080519060200190610bce929190612026565b507fe57ee35bc047d45ae97a7be850275f3baddba755df186218be07dfacf85676868989604051610c00929190612c1e565b60405180910390a1505050505050505050565b6060600c805480602002602001604051908101604052809291908181526020018280548015610c9757602002820191906000526020600020905b8160009054906101000a900473ffffffffffffffffffffffffffffffffffffffff1673ffffffffffffffffffffffffffffffffffffffff1681526020019060010190808311610c4d575b5050505050905090565b60006060806000601260008673ffffffffffffffffffffffffffffffffffffffff1673ffffffffffffffffffffffffffffffffffffffff1681526020019081526020016000206001018054610cf590612bed565b80601f0160208091040260200160405190810160405280929190818152602001828054610d2190612bed565b8015610d6e5780601f10610d4357610100808354040283529160200191610d6e565b820191906000526020600020905b815481529060010190602001808311610d5157829003601f168201915b505050505090506000601260008773ffffffffffffffffffffffffffffffffffffffff1673ffffffffffffffffffffffffffffffffffffffff16815260200190815260200160002060000160009054906101000a900473ffffffffffffffffffffffffffffffffffffffff1690506000601260008873ffffffffffffffffffffffffffffffffffffffff1673ffffffffffffffffffffffffffffffffffffffff1681526020019081526020016000206002018054610e2b90612bed565b80601f0160208091040260200160405190810160405280929190818152602001828054610e5790612bed565b8015610ea45780601f10610e7957610100808354040283529160200191610ea4565b820191906000526020600020905b815481529060010190602001808311610e8757829003601f168201915b505050505090508183829550955095505050509193909250565b6060600a8054610ecd90612bed565b80601f0160208091040260200160405190810160405280929190818152602001828054610ef990612bed565b8015610f465780601f10610f1b57610100808354040283529160200191610f46565b820191906000526020600020905b815481529060010190602001808311610f2957829003601f168201915b5050505050905090565b60146020528060005260406000206000915054906101000a900460ff1681565b600f81805160208101820180518482526020830160208501208183528095505050505050600091509050806000018054610fa990612bed565b80601f0160208091040260200160405190810160405280929190818152602001828054610fd590612bed565b80156110225780601f10610ff757610100808354040283529160200191611022565b820191906000526020600020905b81548152906001019060200180831161100557829003601f168201915b50505050509080600101805461103790612bed565b80601f016020809104026020016040519081016040528092919081815260200182805461106390612bed565b80156110b05780601f10611085576101008083540402835291602001916110b0565b820191906000526020600020905b81548152906001019060200180831161109357829003601f168201915b5050505050908060020160009054906101000a900473ffffffffffffffffffffffffffffffffffffffff1690806003016040518060c00160405290816000820160009054906101000a900473ffffffffffffffffffffffffffffffffffffffff1673ffffffffffffffffffffffffffffffffffffffff1673ffffffffffffffffffffffffffffffffffffffff16815260200160018201548152602001600282015481526020016003820154815260200160048201805461116f90612bed565b80601f016020809104026020016040519081016040528092919081815260200182805461119b90612bed565b80156111e85780601f106111bd576101008083540402835291602001916111e8565b820191906000526020600020905b8154815290600101906020018083116111cb57829003601f168201915b5050505050815260200160058201805461120190612bed565b80601f016020809104026020016040519081016040528092919081815260200182805461122d90612bed565b801561127a5780601f1061124f5761010080835404028352916020019161127a565b820191906000526020600020905b81548152906001019060200180831161125d57829003601f168201915b505050505081525050905084565b6060600d80548060200260200160405190810160405280929190818152602001828054801561130c57602002820191906000526020600020905b8160009054906101000a900473ffffffffffffffffffffffffffffffffffffffff1673ffffffffffffffffffffffffffffffffffffffff16815260200190600101908083116112c2575b5050505050905090565b6060600e60003373ffffffffffffffffffffffffffffffffffffffff1673ffffffffffffffffffffffffffffffffffffffff168152602001908152602001600020805480602002602001604051908101604052809291908181526020016000905b8282101561142357838290600052602060002001805461139690612bed565b80601f01602080910402602001604051908101604052809291908181526020018280546113c290612bed565b801561140f5780601f106113e45761010080835404028352916020019161140f565b820191906000526020600020905b8154815290600101906020018083116113f257829003601f168201915b505050505081526020019060010190611377565b50505050905090565b3373ffffffffffffffffffffffffffffffffffffffff167fe826f71647b8486f2bae59832124c70792fba044036720a54ec8dacdd5df4fcb600a83604051611475929190612cea565b60405180910390a280600a9080519060200190611493929190612026565b5050565b60405180608001604052808581526020018473ffffffffffffffffffffffffffffffffffffffff1681526020018381526020018281525060106000600b54815260200190815260200160002060008201518160000190805190602001906114ff929190612026565b5060208201518160010160006101000a81548173ffffffffffffffffffffffffffffffffffffffff021916908373ffffffffffffffffffffffffffffffffffffffff1602179055506040820151816002019080519060200190611563929190612026565b5060608201518160030155905050600060106000600b5481526020019081526020016000206040518060800160405290816000820180546115a390612bed565b80601f01602080910402602001604051908101604052809291908181526020018280546115cf90612bed565b801561161c5780601f106115f15761010080835404028352916020019161161c565b820191906000526020600020905b8154815290600101906020018083116115ff57829003601f168201915b505050505081526020016001820160009054906101000a900473ffffffffffffffffffffffffffffffffffffffff1673ffffffffffffffffffffffffffffffffffffffff1673ffffffffffffffffffffffffffffffffffffffff16815260200160028201805461168b90612bed565b80601f01602080910402602001604051908101604052809291908181526020018280546116b790612bed565b80156117045780601f106116d957610100808354040283529160200191611704565b820191906000526020600020905b8154815290600101906020018083116116e757829003601f168201915b50505050508152602001600382015481525050905060008160600151036117415761173c816020015182600001518360400151611a54565b611766565b600181606001510361176557611764816020015182600001518360400151611cf5565b5b5b6001600b546117759190612d50565b600b819055507f43fa451d1fb47cf164ccb6a777532e04af59430576b822519086e12fa351f1518160200151826040015160016040516117b793929190612da6565b60405180910390a16001601182604001516040516117d59190612ba7565b908152602001604051809103902060006101000a81548160ff0219169083151502179055505050505050565b600e602052816000526040600020818154811061181d57600080fd5b9060005260206000200160009150915050805461183990612bed565b80601f016020809104026020016040519081016040528092919081815260200182805461186590612bed565b80156118b25780601f10611887576101008083540402835291602001916118b2565b820191906000526020600020905b81548152906001019060200180831161189557829003601f168201915b505050505081565b60606040518060600160405280602a8152602001612e51602a9139905090565b60136020528060005260406000206000915054906101000a900460ff1681565b60126020528060005260406000206000915090508060000160009054906101000a900473ffffffffffffffffffffffffffffffffffffffff169080600101805461194390612bed565b80601f016020809104026020016040519081016040528092919081815260200182805461196f90612bed565b80156119bc5780601f10611991576101008083540402835291602001916119bc565b820191906000526020600020905b81548152906001019060200180831161199f57829003601f168201915b5050505050908060020180546119d190612bed565b80601f01602080910402602001604051908101604052809291908181526020018280546119fd90612bed565b8015611a4a5780601f10611a1f57610100808354040283529160200191611a4a565b820191906000526020600020905b815481529060010190602001808311611a2d57829003601f168201915b5050505050905083565b601460008473ffffffffffffffffffffffffffffffffffffffff1673ffffffffffffffffffffffffffffffffffffffff16815260200190815260200160002060009054906101000a900460ff1615611ae1576040517f08c379a0000000000000000000000000000000000000000000000000000000008152600401611ad890612e30565b60405180910390fd5b600c839080600181540180825580915050600190039060005260206000200160009091909190916101000a81548173ffffffffffffffffffffffffffffffffffffffff021916908373ffffffffffffffffffffffffffffffffffffffff1602179055506001601460008573ffffffffffffffffffffffffffffffffffffffff1673ffffffffffffffffffffffffffffffffffffffff16815260200190815260200160002060006101000a81548160ff021916908315150217905550611ba46120ac565b83816000019073ffffffffffffffffffffffffffffffffffffffff16908173ffffffffffffffffffffffffffffffffffffffff168152505082816020018190525081816040018190525080601260008673ffffffffffffffffffffffffffffffffffffffff1673ffffffffffffffffffffffffffffffffffffffff16815260200190815260200160002060008201518160000160006101000a81548173ffffffffffffffffffffffffffffffffffffffff021916908373ffffffffffffffffffffffffffffffffffffffff1602179055506020820151816001019080519060200190611c91929190612026565b506040820151816002019080519060200190611cae929190612026565b509050507f5d8da039f46939dac1f22e6429f726ab699d613ead17618999c45147211fb9d383858442604051611ce79493929190612592565b60405180910390a150505050565b601360008473ffffffffffffffffffffffffffffffffffffffff1673ffffffffffffffffffffffffffffffffffffffff16815260200190815260200160002060009054906101000a900460ff1615611d82576040517f08c379a0000000000000000000000000000000000000000000000000000000008152600401611d7990612e30565b60405180910390fd5b600d839080600181540180825580915050600190039060005260206000200160009091909190916101000a81548173ffffffffffffffffffffffffffffffffffffffff021916908373ffffffffffffffffffffffffffffffffffffffff1602179055506001601360008573ffffffffffffffffffffffffffffffffffffffff1673ffffffffffffffffffffffffffffffffffffffff16815260200190815260200160002060006101000a81548160ff021916908315150217905550611e456120ac565b83816000019073ffffffffffffffffffffffffffffffffffffffff16908173ffffffffffffffffffffffffffffffffffffffff168152505082816020018190525081816040018190525080601260008673ffffffffffffffffffffffffffffffffffffffff1673ffffffffffffffffffffffffffffffffffffffff16815260200190815260200160002060008201518160000160006101000a81548173ffffffffffffffffffffffffffffffffffffffff021916908373ffffffffffffffffffffffffffffffffffffffff1602179055506020820151816001019080519060200190611f32929190612026565b506040820151816002019080519060200190611f4f929190612026565b509050507f465daa34e4a04fd10e1b1da9ecb97133b5ff5b459841488cb1d9128dd793fd4d83858442604051611f889493929190612592565b60405180910390a150505050565b60405180608001604052806060815260200160608152602001600073ffffffffffffffffffffffffffffffffffffffff168152602001611fd4611fda565b81525090565b6040518060c00160405280600073ffffffffffffffffffffffffffffffffffffffff16815260200160008152602001600081526020016000815260200160608152602001606081525090565b82805461203290612bed565b90600052602060002090601f016020900481019282612054576000855561209b565b82601f1061206d57805160ff191683800117855561209b565b8280016001018555821561209b579182015b8281111561209a57825182559160200191906001019061207f565b5b5090506120a891906120e3565b5090565b6040518060600160405280600073ffffffffffffffffffffffffffffffffffffffff16815260200160608152602001606081525090565b5b808211156120fc5760008160009055506001016120e4565b5090565b600073ffffffffffffffffffffffffffffffffffffffff82169050919050565b600061212b82612100565b9050919050565b61213b81612120565b82525050565b6000819050919050565b61215481612141565b82525050565b600060408201905061216f6000830185612132565b61217c602083018461214b565b9392505050565b6000604051905090565b600080fd5b600080fd5b600080fd5b600080fd5b6000601f19601f8301169050919050565b7f4e487b7100000000000000000000000000000000000000000000000000000000600052604160045260246000fd5b6121ea826121a1565b810181811067ffffffffffffffff82111715612209576122086121b2565b5b80604052505050565b600061221c612183565b905061222882826121e1565b919050565b600067ffffffffffffffff821115612248576122476121b2565b5b612251826121a1565b9050602081019050919050565b82818337600083830152505050565b600061228061227b8461222d565b612212565b90508281526020810184848401111561229c5761229b61219c565b5b6122a784828561225e565b509392505050565b600082601f8301126122c4576122c3612197565b5b81356122d484826020860161226d565b91505092915050565b6000602082840312156122f3576122f261218d565b5b600082013567ffffffffffffffff81111561231157612310612192565b5b61231d848285016122af565b91505092915050565b600081519050919050565b600082825260208201905092915050565b60005b83811015612360578082015181840152602081019050612345565b8381111561236f576000848401525b50505050565b600061238082612326565b61238a8185612331565b935061239a818560208601612342565b6123a3816121a1565b840191505092915050565b6123b781612120565b82525050565b6123c681612141565b82525050565b600060c0830160008301516123e460008601826123ae565b5060208301516123f760208601826123bd565b50604083015161240a60408601826123bd565b50606083015161241d60608601826123bd565b50608083015184820360808601526124358282612375565b91505060a083015184820360a086015261244f8282612375565b9150508091505092915050565b600060808301600083015184820360008601526124798282612375565b915050602083015184820360208601526124938282612375565b91505060408301516124a860408601826123ae565b50606083015184820360608601526124c082826123cc565b9150508091505092915050565b600060208201905081810360008301526124e7818461245c565b905092915050565b6124f881612141565b811461250357600080fd5b50565b600081359050612515816124ef565b92915050565b6000602082840312156125315761253061218d565b5b600061253f84828501612506565b91505092915050565b600082825260208201905092915050565b600061256482612326565b61256e8185612548565b935061257e818560208601612342565b612587816121a1565b840191505092915050565b600060808201905081810360008301526125ac8187612559565b90506125bb6020830186612132565b81810360408301526125cd8185612559565b90506125dc606083018461214b565b95945050505050565b600080600080600080600060e0888a0312156126045761260361218d565b5b600088013567ffffffffffffffff81111561262257612621612192565b5b61262e8a828b016122af565b975050602088013567ffffffffffffffff81111561264f5761264e612192565b5b61265b8a828b016122af565b965050604061266c8a828b01612506565b955050606061267d8a828b01612506565b945050608061268e8a828b01612506565b93505060a088013567ffffffffffffffff8111156126af576126ae612192565b5b6126bb8a828b016122af565b92505060c088013567ffffffffffffffff8111156126dc576126db612192565b5b6126e88a828b016122af565b91505092959891949750929550565b600081519050919050565b600082825260208201905092915050565b6000819050602082019050919050565b600061272f83836123ae565b60208301905092915050565b6000602082019050919050565b6000612753826126f7565b61275d8185612702565b935061276883612713565b8060005b838110156127995781516127808882612723565b975061278b8361273b565b92505060018101905061276c565b5085935050505092915050565b600060208201905081810360008301526127c08184612748565b905092915050565b6127d181612120565b81146127dc57600080fd5b50565b6000813590506127ee816127c8565b92915050565b60006020828403121561280a5761280961218d565b5b6000612818848285016127df565b91505092915050565b60006060820190506128366000830186612132565b81810360208301526128488185612559565b9050818103604083015261285c8184612559565b9050949350505050565b600060208201905081810360008301526128808184612559565b905092915050565b60008115159050919050565b61289d81612888565b82525050565b60006020820190506128b86000830184612894565b92915050565b600060c0830160008301516128d660008601826123ae565b5060208301516128e960208601826123bd565b5060408301516128fc60408601826123bd565b50606083015161290f60608601826123bd565b50608083015184820360808601526129278282612375565b91505060a083015184820360a08601526129418282612375565b9150508091505092915050565b600060808201905081810360008301526129688187612559565b9050818103602083015261297c8186612559565b905061298b6040830185612132565b818103606083015261299d81846128be565b905095945050505050565b600081519050919050565b600082825260208201905092915050565b6000819050602082019050919050565b60006129e08383612375565b905092915050565b6000602082019050919050565b6000612a00826129a8565b612a0a81856129b3565b935083602082028501612a1c856129c4565b8060005b85811015612a585784840389528151612a3985826129d4565b9450612a44836129e8565b925060208a01995050600181019050612a20565b50829750879550505050505092915050565b60006020820190508181036000830152612a8481846129f5565b905092915050565b60008060008060808587031215612aa657612aa561218d565b5b600085013567ffffffffffffffff811115612ac457612ac3612192565b5b612ad0878288016122af565b9450506020612ae1878288016127df565b935050604085013567ffffffffffffffff811115612b0257612b01612192565b5b612b0e878288016122af565b9250506060612b1f87828801612506565b91505092959194509250565b60008060408385031215612b4257612b4161218d565b5b6000612b50858286016127df565b9250506020612b6185828601612506565b9150509250929050565b600081905092915050565b6000612b8182612326565b612b8b8185612b6b565b9350612b9b818560208601612342565b80840191505092915050565b6000612bb38284612b76565b915081905092915050565b7f4e487b7100000000000000000000000000000000000000000000000000000000600052602260045260246000fd5b60006002820490506001821680612c0557607f821691505b602082108103612c1857612c17612bbe565b5b50919050565b60006040820190508181036000830152612c388185612559565b90508181036020830152612c4c8184612559565b90509392505050565b60008190508160005260206000209050919050565b60008154612c7781612bed565b612c818186612548565b94506001821660008114612c9c5760018114612cae57612ce1565b60ff1983168652602086019350612ce1565b612cb785612c55565b60005b83811015612cd957815481890152600182019150602081019050612cba565b808801955050505b50505092915050565b60006040820190508181036000830152612d048185612c6a565b90508181036020830152612d188184612559565b90509392505050565b7f4e487b7100000000000000000000000000000000000000000000000000000000600052601160045260246000fd5b6000612d5b82612141565b9150612d6683612141565b9250827fffffffffffffffffffffffffffffffffffffffffffffffffffffffffffffffff03821115612d9b57612d9a612d21565b5b828201905092915050565b6000606082019050612dbb6000830186612132565b8181036020830152612dcd8185612559565b9050612ddc6040830184612894565b949350505050565b7f416c726561647920726567697374657265642100000000000000000000000000600082015250565b6000612e1a601383612548565b9150612e2582612de4565b602082019050919050565b60006020820190508181036000830152612e4981612e0d565b905091905056fe48656c6c6f212054686520436f6e747261637420697320636f6e6e656374656420776974682077656233a2646970667358221220ebe4384999ef5bd06965c960dc14af97941fad2360991116c03acad68dbf457964736f6c634300080d0033",
  "immutableReferences": {},
  "source": "// SPDX-License-Identifier: MIT\r\npragma solidity ^0.8.0;\r\n\r\n// [X] 1  - Apply for verification as Doctor/Hospital\r\n// [X] 2  - Find Patient/User Reports Collection\r\n// [X] 3  - Find Doctors\r\n// [X] 4  - Find Hospitals\r\n// [ ] 5  - Send Report to Doctor/Hospital for analysis\r\n// [ ] 6  - Send Report Analysis back to patient\r\n// [ ] 7  - Reviews Doctor/Hospital on receiving the report\r\n// [X] 8  - Find authorized Doctor/Hospital\r\n\r\nimport \"@chainlink/contracts/src/v0.8/ChainlinkClient.sol\";\r\n\r\ncontract DoctorWeb3 is ChainlinkClient {\r\n    using Chainlink for Chainlink.Request;\r\n    address owner;\r\n    address private oracle;\r\n    bytes32 private jobId;\r\n    uint256 private fee;\r\n    string _value;\r\n    uint256 requestId;\r\n\r\n    constructor() {\r\n        owner = msg.sender;\r\n        setChainlinkToken(0x326C977E6efc84E512bB9C30f76E30c160eD06FB);\r\n        oracle = 0x40193c8518BB267228Fc409a613bDbD8eC5a97b3;\r\n        jobId = \"ca98366cc7314957b8c012c72f05aeeb\";\r\n        fee = 0.1 * 10 ** 18; // 0.1 LINK\r\n        _value = \"hello\";\r\n        requestId = 1;\r\n\r\n    }\r\n    event ValueChanged(address indexed author, string oldValue, string newValue);\r\n\r\n\r\n    struct PatientInfo {\r\n        address patient;\r\n        uint256 age;\r\n        uint256 weight;\r\n        uint256 height;\r\n        string gender;\r\n        string bloodGroup;\r\n    }\r\n\r\n    struct Report {\r\n        string fileHash;\r\n        string category;\r\n        address Patient;\r\n        PatientInfo patientInfo;\r\n    }\r\n\r\n    struct Applicant {\r\n        string name;\r\n        address applicantAddress;\r\n        string medicalId;\r\n        uint256 applicantType; // 0 = Doctor, 1 = Hospital\r\n    }\r\n\r\n    struct AuthorizedDHDetails {\r\n        address authorizedDHAddress;\r\n        string name;\r\n        string medicalId;\r\n    }\r\n\r\n    address[] Doctors;\r\n    address[] Hospitals;\r\n    mapping(address => string[]) public PatientReports; // Maps Patient's address to its reports\r\n    mapping(string => Report) public Reports; // Maps report hash value from IPFS to Report Datatype\r\n    //mapping(bytes32 => Applicant) public Applicants; // Maps address of applicant to Applicant DataType\r\n    mapping(uint256 => Applicant) public Applicants; // remove during main chain\r\n    mapping(string => bool) private medicalIdUsed; // Maps medicalId to boolean\r\n    mapping(address => AuthorizedDHDetails) public AuthorizedDH; // Maps address of authorized Doctor or hospital with their details\r\n    mapping(address => bool) public AuthorisedHospital;\r\n    mapping(address => bool) public AuthorisedDoctor;\r\n\r\n    event AuthorizationResult(\r\n        address applicantAddress,\r\n        string medicalId,\r\n        bool status\r\n    );\r\n\r\n    event DoctorAuthorized(\r\n        string name,\r\n        address _authAddress,\r\n        string medicalId,\r\n        uint AuthOnDate\r\n    );\r\n\r\n    event HospitalAuthorized(\r\n        string name,\r\n        address _authAddress,\r\n        string medicalId,\r\n        uint AuthOnDate\r\n    );\r\n\r\n    event ReportUploaded(\r\n        string fileHash,\r\n        string category\r\n    );\r\n\r\n    function getValue() view public returns (string memory) {\r\n        return _value;\r\n    }\r\n\r\n    function setValue(string memory value) public {\r\n        emit ValueChanged(msg.sender, _value, value);\r\n        _value = value;\r\n    }\r\n\r\n    function testFunction() public pure returns (string memory myString) {\r\n        return \"Hello! The Contract is connected with web3\";\r\n    }\r\n\r\n    event Received(address, uint);\r\n    receive() external payable {\r\n        emit Received(msg.sender, msg.value);\r\n    }\r\n\r\n    function getPatientReports()\r\n        public\r\n        view\r\n        returns (string[] memory)\r\n    {\r\n        return PatientReports[msg.sender];\r\n    }\r\n\r\n    function getDetailedReports(string memory _fileHash)\r\n        public\r\n        view\r\n        returns (Report memory)\r\n    {\r\n        return Reports[_fileHash];\r\n    }\r\n\r\n    function findDoctors() public view returns (address[] memory) {\r\n        return Doctors;\r\n    }\r\n\r\n    function findHospitals() public view returns (address[] memory) {\r\n        return Hospitals;\r\n    }\r\n\r\n    function getAuthorizedDHDetails(address _addr) public view returns (address, string memory, string memory) {\r\n        string memory _name = AuthorizedDH[_addr].name;\r\n        address _address = AuthorizedDH[_addr].authorizedDHAddress;\r\n        string memory _medicalId = AuthorizedDH[_addr].medicalId;\r\n        return (_address, _name, _medicalId);\r\n    }\r\n\r\n    /* function ApplyForVerification(\r\n        string memory _name,\r\n        address _applicantAddress,\r\n        string memory _medicalId,\r\n        uint256 _applicantType\r\n    ) public returns (bytes32 requestId) {\r\n        require(_applicantType == 1 || _applicantType == 0,\"Apply id should be either 0 or 1\");\r\n        require(!medicalIdUsed[_medicalId], \"Medical ID is already used\"); // Stopping function spamming\r\n\r\n        //ChainLink Code for Verification\r\n\r\n        Chainlink.Request memory request = buildChainlinkRequest(jobId, address(this), this.fulfill.selector);\r\n        request.add(\"get\", \"https://mocki.io/v1/9471e151-4903-43bb-8bf9-45e98994672b\");\r\n\r\n        //Set the path {\"data\":{\"id\":100}}\r\n\r\n        request.add(\"path\", \"data,id\");\r\n\r\n        requestId = sendChainlinkRequestTo(oracle, request, fee);\r\n        Applicants[requestId] = Applicant(\r\n            _name,\r\n            _applicantAddress,\r\n            _medicalId,\r\n            _applicantType\r\n        );\r\n\r\n        return requestId;\r\n    }\r\n\r\n    function fulfill(bytes32 _requestId, uint256 _verification)\r\n        public\r\n        recordChainlinkFulfillment(_requestId)\r\n    {\r\n        Applicant memory applicant = Applicants[_requestId];\r\n        if (_verification == 100) {\r\n            if (applicant.applicantType == 0) {\r\n                addAuthorizedDoctor(\r\n                    applicant.applicantAddress,\r\n                    applicant.name,\r\n                    applicant.medicalId\r\n                );\r\n            } else {\r\n                addAuthorizedHospital(\r\n                    applicant.applicantAddress,\r\n                    applicant.name,\r\n                    applicant.medicalId\r\n                );\r\n            }\r\n            emit AuthorizationResult(applicant.applicantAddress, applicant.medicalId, true);\r\n        } else {\r\n            emit AuthorizationResult(applicant.applicantAddress, applicant.medicalId, false);\r\n        }\r\n        medicalIdUsed[applicant.medicalId] = true;\r\n    } */\r\n\r\n    function ApplyForVerification(\r\n        string memory _name,\r\n        address _applicantAddress,\r\n        string memory _medicalId,\r\n        uint256 _applicantType\r\n    ) public {\r\n        //require(_applicantType == 1 || _applicantType == 0,\"Apply id should be either 0 or 1\");\r\n        //require(!medicalIdUsed[_medicalId], \"Medical ID is already used\"); // Stopping function spamming\r\n        Applicants[requestId] = Applicant(\r\n            _name,\r\n            _applicantAddress,\r\n            _medicalId,\r\n            _applicantType\r\n        );\r\n\r\n        Applicant memory applicant = Applicants[requestId];\r\n\r\n        if (applicant.applicantType == 0) {\r\n                addAuthorizedDoctor(\r\n                    applicant.applicantAddress,\r\n                    applicant.name,\r\n                    applicant.medicalId\r\n                );\r\n            } else if (applicant.applicantType == 1)  {\r\n                addAuthorizedHospital(\r\n                    applicant.applicantAddress,\r\n                    applicant.name,\r\n                    applicant.medicalId\r\n                );\r\n            }\r\n        requestId = requestId + 1;\r\n        emit AuthorizationResult(applicant.applicantAddress, applicant.medicalId, true);\r\n        medicalIdUsed[applicant.medicalId] = true;\r\n\r\n    }\r\n\r\n    function addAuthorizedDoctor(\r\n        address _authAddress,\r\n        string memory _name,\r\n        string memory _medicalId\r\n    ) private {\r\n        require(!AuthorisedDoctor[_authAddress], \"Already registered!\");\r\n        Doctors.push(_authAddress);\r\n        AuthorisedDoctor[_authAddress] = true;\r\n\r\n        AuthorizedDHDetails memory _authorizedDHDetail;\r\n\r\n        _authorizedDHDetail.authorizedDHAddress = _authAddress;\r\n        _authorizedDHDetail.name = _name;\r\n        _authorizedDHDetail.medicalId = _medicalId;\r\n\r\n        AuthorizedDH[_authAddress] = _authorizedDHDetail;\r\n\r\n        emit DoctorAuthorized(_name, _authAddress, _medicalId, block.timestamp);\r\n    }\r\n\r\n    function addAuthorizedHospital(\r\n        address _authAddress,\r\n        string memory _name,\r\n        string memory _medicalId\r\n    ) private {\r\n        require(!AuthorisedHospital[_authAddress], \"Already registered!\");\r\n        Hospitals.push(_authAddress);\r\n        AuthorisedHospital[_authAddress] = true;\r\n\r\n        AuthorizedDHDetails memory _authorizedDHDetail;\r\n\r\n        _authorizedDHDetail.authorizedDHAddress = _authAddress;\r\n        _authorizedDHDetail.name = _name;\r\n        _authorizedDHDetail.medicalId = _medicalId;\r\n\r\n        AuthorizedDH[_authAddress] = _authorizedDHDetail;\r\n\r\n        emit HospitalAuthorized(_name, _authAddress, _medicalId, block.timestamp);\r\n    }\r\n\r\n    function uploadReport(\r\n        string memory _fileHash,\r\n        string memory _category,\r\n        uint256 _age,\r\n        uint256 _weight,\r\n        uint256 _height,\r\n        string memory _gender,\r\n        string memory _bloodGroup\r\n    ) public {\r\n        PatientInfo memory _patientInfo;\r\n        Report memory _report;\r\n\r\n        _patientInfo.patient = msg.sender;\r\n        _patientInfo.age = _age;\r\n        _patientInfo.bloodGroup = _bloodGroup;\r\n        _patientInfo.gender = _gender;\r\n        _patientInfo.weight = _weight;\r\n        _patientInfo.height = _height;\r\n\r\n        _report.fileHash = _fileHash;\r\n        _report.Patient = msg.sender;\r\n        _report.category = _category;\r\n        _report.patientInfo = _patientInfo;\r\n\r\n        Reports[_fileHash] = _report;\r\n        PatientReports[msg.sender].push(_fileHash);\r\n\r\n        emit ReportUploaded(_fileHash, _category);\r\n    }\r\n\r\n}\r\n",
  "sourcePath": "D:\\OLD_PC\\JavaScript_apps\\React\\DoctorWeb3\\doctorweb3\\src\\contracts\\DoctorWeb3.sol",
  "compiler": {
    "name": "solc",
    "version": "0.8.13+commit.abaa5c0e.Emscripten.clang"
  },
  "schemaVersion": "3.4.13",
  "updatedAt": "2023-11-23T16:38:27.390Z",
  "networkType": "ethereum",
  "devdoc": {
    "kind": "dev",
    "methods": {},
    "version": 1
  },
  "userdoc": {
    "kind": "user",
    "methods": {},
    "version": 1
  }
}