{
  "contractName": "DoctorWeb3",
  "abi": [
    {
      "inputs": [],
      "stateMutability": "nonpayable",
      "type": "constructor"
    },
    {
      "anonymous": false,
      "inputs": [
        {
          "indexed": false,
          "internalType": "address",
          "name": "applicantAddress",
          "type": "address"
        },
        {
          "indexed": false,
          "internalType": "string",
          "name": "medicalId",
          "type": "string"
        },
        {
          "indexed": false,
          "internalType": "bool",
          "name": "status",
          "type": "bool"
        }
      ],
      "name": "AuthorizationResult",
      "type": "event"
    },
    {
      "anonymous": false,
      "inputs": [
        {
          "indexed": true,
          "internalType": "bytes32",
          "name": "id",
          "type": "bytes32"
        }
      ],
      "name": "ChainlinkCancelled",
      "type": "event"
    },
    {
      "anonymous": false,
      "inputs": [
        {
          "indexed": true,
          "internalType": "bytes32",
          "name": "id",
          "type": "bytes32"
        }
      ],
      "name": "ChainlinkFulfilled",
      "type": "event"
    },
    {
      "anonymous": false,
      "inputs": [
        {
          "indexed": true,
          "internalType": "bytes32",
          "name": "id",
          "type": "bytes32"
        }
      ],
      "name": "ChainlinkRequested",
      "type": "event"
    },
    {
      "anonymous": false,
      "inputs": [
        {
          "indexed": false,
          "internalType": "string",
          "name": "name",
          "type": "string"
        },
        {
          "indexed": false,
          "internalType": "address",
          "name": "_authAddress",
          "type": "address"
        },
        {
          "indexed": false,
          "internalType": "string",
          "name": "medicalId",
          "type": "string"
        },
        {
          "indexed": false,
          "internalType": "uint256",
          "name": "AuthOnDate",
          "type": "uint256"
        }
      ],
      "name": "DoctorAuthorized",
      "type": "event"
    },
    {
      "anonymous": false,
      "inputs": [
        {
          "indexed": false,
          "internalType": "string",
          "name": "name",
          "type": "string"
        },
        {
          "indexed": false,
          "internalType": "address",
          "name": "_authAddress",
          "type": "address"
        },
        {
          "indexed": false,
          "internalType": "string",
          "name": "medicalId",
          "type": "string"
        },
        {
          "indexed": false,
          "internalType": "uint256",
          "name": "AuthOnDate",
          "type": "uint256"
        }
      ],
      "name": "HospitalAuthorized",
      "type": "event"
    },
    {
      "anonymous": false,
      "inputs": [
        {
          "indexed": false,
          "internalType": "address",
          "name": "",
          "type": "address"
        },
        {
          "indexed": false,
          "internalType": "uint256",
          "name": "",
          "type": "uint256"
        }
      ],
      "name": "Received",
      "type": "event"
    },
    {
      "anonymous": false,
      "inputs": [
        {
          "indexed": false,
          "internalType": "string",
          "name": "fileHash",
          "type": "string"
        },
        {
          "indexed": false,
          "internalType": "address",
          "name": "Patient",
          "type": "address"
        },
        {
          "indexed": false,
          "internalType": "address",
          "name": "recipient",
          "type": "address"
        },
        {
          "indexed": false,
          "internalType": "string",
          "name": "secretMessage",
          "type": "string"
        }
      ],
      "name": "ReportShared",
      "type": "event"
    },
    {
      "anonymous": false,
      "inputs": [
        {
          "indexed": false,
          "internalType": "string",
          "name": "fileHash",
          "type": "string"
        },
        {
          "indexed": false,
          "internalType": "string",
          "name": "category",
          "type": "string"
        }
      ],
      "name": "ReportUploaded",
      "type": "event"
    },
    {
      "anonymous": false,
      "inputs": [
        {
          "indexed": true,
          "internalType": "address",
          "name": "author",
          "type": "address"
        },
        {
          "indexed": false,
          "internalType": "string",
          "name": "oldValue",
          "type": "string"
        },
        {
          "indexed": false,
          "internalType": "string",
          "name": "newValue",
          "type": "string"
        }
      ],
      "name": "ValueChanged",
      "type": "event"
    },
    {
      "inputs": [
        {
          "internalType": "uint256",
          "name": "",
          "type": "uint256"
        }
      ],
      "name": "Applicants",
      "outputs": [
        {
          "internalType": "string",
          "name": "name",
          "type": "string"
        },
        {
          "internalType": "address",
          "name": "applicantAddress",
          "type": "address"
        },
        {
          "internalType": "string",
          "name": "medicalId",
          "type": "string"
        },
        {
          "internalType": "uint256",
          "name": "applicantType",
          "type": "uint256"
        }
      ],
      "stateMutability": "view",
      "type": "function",
      "constant": true
    },
    {
      "inputs": [
        {
          "internalType": "address",
          "name": "",
          "type": "address"
        }
      ],
      "name": "AuthorisedDoctor",
      "outputs": [
        {
          "internalType": "bool",
          "name": "",
          "type": "bool"
        }
      ],
      "stateMutability": "view",
      "type": "function",
      "constant": true
    },
    {
      "inputs": [
        {
          "internalType": "address",
          "name": "",
          "type": "address"
        }
      ],
      "name": "AuthorisedHospital",
      "outputs": [
        {
          "internalType": "bool",
          "name": "",
          "type": "bool"
        }
      ],
      "stateMutability": "view",
      "type": "function",
      "constant": true
    },
    {
      "inputs": [
        {
          "internalType": "address",
          "name": "",
          "type": "address"
        }
      ],
      "name": "AuthorizedDH",
      "outputs": [
        {
          "internalType": "address",
          "name": "authorizedDHAddress",
          "type": "address"
        },
        {
          "internalType": "string",
          "name": "name",
          "type": "string"
        },
        {
          "internalType": "string",
          "name": "medicalId",
          "type": "string"
        }
      ],
      "stateMutability": "view",
      "type": "function",
      "constant": true
    },
    {
      "inputs": [
        {
          "internalType": "address",
          "name": "",
          "type": "address"
        },
        {
          "internalType": "uint256",
          "name": "",
          "type": "uint256"
        }
      ],
      "name": "PatientReports",
      "outputs": [
        {
          "internalType": "string",
          "name": "",
          "type": "string"
        }
      ],
      "stateMutability": "view",
      "type": "function",
      "constant": true
    },
    {
      "inputs": [
        {
          "internalType": "string",
          "name": "",
          "type": "string"
        }
      ],
      "name": "Reports",
      "outputs": [
        {
          "internalType": "string",
          "name": "fileHash",
          "type": "string"
        },
        {
          "internalType": "string",
          "name": "category",
          "type": "string"
        },
        {
          "internalType": "address",
          "name": "Patient",
          "type": "address"
        },
        {
          "components": [
            {
              "internalType": "address",
              "name": "patient",
              "type": "address"
            },
            {
              "internalType": "uint256",
              "name": "age",
              "type": "uint256"
            },
            {
              "internalType": "uint256",
              "name": "weight",
              "type": "uint256"
            },
            {
              "internalType": "uint256",
              "name": "height",
              "type": "uint256"
            },
            {
              "internalType": "string",
              "name": "gender",
              "type": "string"
            },
            {
              "internalType": "string",
              "name": "bloodGroup",
              "type": "string"
            }
          ],
          "internalType": "struct DoctorWeb3.PatientInfo",
          "name": "patientInfo",
          "type": "tuple"
        }
      ],
      "stateMutability": "view",
      "type": "function",
      "constant": true
    },
    {
      "inputs": [
        {
          "internalType": "bytes32",
          "name": "",
          "type": "bytes32"
        }
      ],
      "name": "SharedReports",
      "outputs": [
        {
          "internalType": "string",
          "name": "fileHash",
          "type": "string"
        },
        {
          "internalType": "address",
          "name": "Patient",
          "type": "address"
        },
        {
          "internalType": "address",
          "name": "recipient",
          "type": "address"
        },
        {
          "internalType": "string",
          "name": "secretMessage",
          "type": "string"
        }
      ],
      "stateMutability": "view",
      "type": "function",
      "constant": true
    },
    {
      "stateMutability": "payable",
      "type": "receive",
      "payable": true
    },
    {
      "inputs": [],
      "name": "getValue",
      "outputs": [
        {
          "internalType": "string",
          "name": "",
          "type": "string"
        }
      ],
      "stateMutability": "view",
      "type": "function",
      "constant": true
    },
    {
      "inputs": [
        {
          "internalType": "string",
          "name": "value",
          "type": "string"
        }
      ],
      "name": "setValue",
      "outputs": [],
      "stateMutability": "nonpayable",
      "type": "function"
    },
    {
      "inputs": [],
      "name": "testFunction",
      "outputs": [
        {
          "internalType": "string",
          "name": "myString",
          "type": "string"
        }
      ],
      "stateMutability": "pure",
      "type": "function",
      "constant": true
    },
    {
      "inputs": [],
      "name": "getPatientReports",
      "outputs": [
        {
          "internalType": "string[]",
          "name": "",
          "type": "string[]"
        }
      ],
      "stateMutability": "view",
      "type": "function",
      "constant": true
    },
    {
      "inputs": [
        {
          "internalType": "string",
          "name": "_fileHash",
          "type": "string"
        }
      ],
      "name": "getDetailedReports",
      "outputs": [
        {
          "components": [
            {
              "internalType": "string",
              "name": "fileHash",
              "type": "string"
            },
            {
              "internalType": "string",
              "name": "category",
              "type": "string"
            },
            {
              "internalType": "address",
              "name": "Patient",
              "type": "address"
            },
            {
              "components": [
                {
                  "internalType": "address",
                  "name": "patient",
                  "type": "address"
                },
                {
                  "internalType": "uint256",
                  "name": "age",
                  "type": "uint256"
                },
                {
                  "internalType": "uint256",
                  "name": "weight",
                  "type": "uint256"
                },
                {
                  "internalType": "uint256",
                  "name": "height",
                  "type": "uint256"
                },
                {
                  "internalType": "string",
                  "name": "gender",
                  "type": "string"
                },
                {
                  "internalType": "string",
                  "name": "bloodGroup",
                  "type": "string"
                }
              ],
              "internalType": "struct DoctorWeb3.PatientInfo",
              "name": "patientInfo",
              "type": "tuple"
            }
          ],
          "internalType": "struct DoctorWeb3.Report",
          "name": "",
          "type": "tuple"
        }
      ],
      "stateMutability": "view",
      "type": "function",
      "constant": true
    },
    {
      "inputs": [],
      "name": "findDoctors",
      "outputs": [
        {
          "internalType": "address[]",
          "name": "",
          "type": "address[]"
        }
      ],
      "stateMutability": "view",
      "type": "function",
      "constant": true
    },
    {
      "inputs": [],
      "name": "findHospitals",
      "outputs": [
        {
          "internalType": "address[]",
          "name": "",
          "type": "address[]"
        }
      ],
      "stateMutability": "view",
      "type": "function",
      "constant": true
    },
    {
      "inputs": [
        {
          "internalType": "address",
          "name": "_addr",
          "type": "address"
        }
      ],
      "name": "getAuthorizedDHDetails",
      "outputs": [
        {
          "internalType": "address",
          "name": "",
          "type": "address"
        },
        {
          "internalType": "string",
          "name": "",
          "type": "string"
        },
        {
          "internalType": "string",
          "name": "",
          "type": "string"
        }
      ],
      "stateMutability": "view",
      "type": "function",
      "constant": true
    },
    {
      "inputs": [
        {
          "internalType": "string",
          "name": "_name",
          "type": "string"
        },
        {
          "internalType": "address",
          "name": "_applicantAddress",
          "type": "address"
        },
        {
          "internalType": "string",
          "name": "_medicalId",
          "type": "string"
        },
        {
          "internalType": "uint256",
          "name": "_applicantType",
          "type": "uint256"
        }
      ],
      "name": "ApplyForVerification",
      "outputs": [],
      "stateMutability": "nonpayable",
      "type": "function"
    },
    {
      "inputs": [
        {
          "internalType": "string",
          "name": "_fileHash",
          "type": "string"
        },
        {
          "internalType": "string",
          "name": "_category",
          "type": "string"
        },
        {
          "internalType": "uint256",
          "name": "_age",
          "type": "uint256"
        },
        {
          "internalType": "uint256",
          "name": "_weight",
          "type": "uint256"
        },
        {
          "internalType": "uint256",
          "name": "_height",
          "type": "uint256"
        },
        {
          "internalType": "string",
          "name": "_gender",
          "type": "string"
        },
        {
          "internalType": "string",
          "name": "_bloodGroup",
          "type": "string"
        }
      ],
      "name": "uploadReport",
      "outputs": [],
      "stateMutability": "nonpayable",
      "type": "function"
    },
    {
      "inputs": [
        {
          "internalType": "string",
          "name": "_fileHash",
          "type": "string"
        },
        {
          "internalType": "address",
          "name": "_recipient",
          "type": "address"
        },
        {
          "internalType": "string",
          "name": "_secretMessage",
          "type": "string"
        }
      ],
      "name": "shareReport",
      "outputs": [],
      "stateMutability": "nonpayable",
      "type": "function"
    },
    {
      "inputs": [],
      "name": "getSharedReportIds",
      "outputs": [
        {
          "internalType": "bytes32[]",
          "name": "",
          "type": "bytes32[]"
        }
      ],
      "stateMutability": "view",
      "type": "function",
      "constant": true
    },
    {
      "inputs": [
        {
          "internalType": "bytes32",
          "name": "_sharedReportId",
          "type": "bytes32"
        }
      ],
      "name": "getSharedReport",
      "outputs": [
        {
          "internalType": "string",
          "name": "",
          "type": "string"
        },
        {
          "internalType": "address",
          "name": "",
          "type": "address"
        },
        {
          "internalType": "address",
          "name": "",
          "type": "address"
        },
        {
          "internalType": "string",
          "name": "",
          "type": "string"
        }
      ],
      "stateMutability": "view",
      "type": "function",
      "constant": true
    }
  ],
  "bytecode": "0x608060405260016004553480156200001657600080fd5b5033600660006101000a81548173ffffffffffffffffffffffffffffffffffffffff021916908373ffffffffffffffffffffffffffffffffffffffff1602179055506200007d73326c977e6efc84e512bb9c30f76e30c160ed06fb6200016460201b60201c565b7340193c8518bb267228fc409a613bdbd8ec5a97b3600760006101000a81548173ffffffffffffffffffffffffffffffffffffffff021916908373ffffffffffffffffffffffffffffffffffffffff1602179055507f636139383336366363373331343935376238633031326337326630356165656260088190555067016345785d8a00006009819055506040518060400160405280600581526020017f68656c6c6f000000000000000000000000000000000000000000000000000000815250600a908051906020019062000155929190620001a8565b506001600b81905550620002bc565b80600260006101000a81548173ffffffffffffffffffffffffffffffffffffffff021916908373ffffffffffffffffffffffffffffffffffffffff16021790555050565b828054620001b69062000287565b90600052602060002090601f016020900481019282620001da576000855562000226565b82601f10620001f557805160ff191683800117855562000226565b8280016001018555821562000226579182015b828111156200022557825182559160200191906001019062000208565b5b50905062000235919062000239565b5090565b5b80821115620002545760008160009055506001016200023a565b5090565b7f4e487b7100000000000000000000000000000000000000000000000000000000600052602260045260246000fd5b60006002820490506001821680620002a057607f821691505b602082108103620002b657620002b562000258565b5b50919050565b613b2780620002cc6000396000f3fe6080604052600436106101235760003560e01c806389e20701116100a0578063aa134f1e11610064578063aa134f1e14610473578063bd5d0fcb146104b0578063e16b4a9b146104d9578063e5e7892014610504578063fcd9f2c01461054157610163565b806389e207011461038b5780638b93b3bc146103b657806393a09352146103e15780639b43ef651461040a5780639ed4a52a1461043357610163565b806320965255116100e75780632096525514610278578063384423da146102a35780635bfc0548146102e357806373b911d5146103205780637f5962411461036057610163565b8063060efe0e14610168578063064f88c2146101a55780631057299c146101e557806312ecfacf1461020e57806318718fa91461023957610163565b36610163577f88a5966d370b9919b20f3e2c13ff65706f196a4e32cc2c12bf57088f885258743334604051610159929190612a1c565b60405180910390a1005b600080fd5b34801561017457600080fd5b5061018f600480360381019061018a9190612b9f565b610580565b60405161019c9190612d8f565b60405180910390f35b3480156101b157600080fd5b506101cc60048036038101906101c79190612ddd565b6108de565b6040516101dc9493929190612e54565b60405180910390f35b3480156101f157600080fd5b5061020c60048036038101906102079190612ea7565b610a3e565b005b34801561021a57600080fd5b50610223610d13565b6040516102309190613068565b60405180910390f35b34801561024557600080fd5b50610260600480360381019061025b91906130b6565b610da1565b60405161026f939291906130e3565b60405180910390f35b34801561028457600080fd5b5061028d610fbe565b60405161029a9190613128565b60405180910390f35b3480156102af57600080fd5b506102ca60048036038101906102c59190613180565b611050565b6040516102da94939291906131ad565b60405180910390f35b3480156102ef57600080fd5b5061030a600480360381019061030591906130b6565b6111d0565b604051610317919061321b565b60405180910390f35b34801561032c57600080fd5b5061034760048036038101906103429190612b9f565b6111f0565b60405161035794939291906132c6565b60405180910390f35b34801561036c57600080fd5b50610375611508565b6040516103829190613068565b60405180910390f35b34801561039757600080fd5b506103a0611596565b6040516103ad91906133e2565b60405180910390f35b3480156103c257600080fd5b506103cb6116ac565b6040516103d891906134c2565b60405180910390f35b3480156103ed57600080fd5b5061040860048036038101906104039190612b9f565b611741565b005b34801561041657600080fd5b50610431600480360381019061042c91906134e4565b6117ac565b005b34801561043f57600080fd5b5061045a60048036038101906104559190613180565b611b16565b60405161046a94939291906131ad565b60405180910390f35b34801561047f57600080fd5b5061049a60048036038101906104959190613583565b611d33565b6040516104a79190613128565b60405180910390f35b3480156104bc57600080fd5b506104d760048036038101906104d291906135c3565b611dec565b005b3480156104e557600080fd5b506104ee61217c565b6040516104fb9190613128565b60405180910390f35b34801561051057600080fd5b5061052b600480360381019061052691906130b6565b61219c565b604051610538919061321b565b60405180910390f35b34801561054d57600080fd5b50610568600480360381019061056391906130b6565b6121bc565b604051610577939291906130e3565b60405180910390f35b610588612858565b600f82604051610598919061368a565b90815260200160405180910390206040518060800160405290816000820180546105c1906136d0565b80601f01602080910402602001604051908101604052809291908181526020018280546105ed906136d0565b801561063a5780601f1061060f5761010080835404028352916020019161063a565b820191906000526020600020905b81548152906001019060200180831161061d57829003601f168201915b50505050508152602001600182018054610653906136d0565b80601f016020809104026020016040519081016040528092919081815260200182805461067f906136d0565b80156106cc5780601f106106a1576101008083540402835291602001916106cc565b820191906000526020600020905b8154815290600101906020018083116106af57829003601f168201915b505050505081526020016002820160009054906101000a900473ffffffffffffffffffffffffffffffffffffffff1673ffffffffffffffffffffffffffffffffffffffff1673ffffffffffffffffffffffffffffffffffffffff168152602001600382016040518060c00160405290816000820160009054906101000a900473ffffffffffffffffffffffffffffffffffffffff1673ffffffffffffffffffffffffffffffffffffffff1673ffffffffffffffffffffffffffffffffffffffff1681526020016001820154815260200160028201548152602001600382015481526020016004820180546107bf906136d0565b80601f01602080910402602001604051908101604052809291908181526020018280546107eb906136d0565b80156108385780601f1061080d57610100808354040283529160200191610838565b820191906000526020600020905b81548152906001019060200180831161081b57829003601f168201915b50505050508152602001600582018054610851906136d0565b80601f016020809104026020016040519081016040528092919081815260200182805461087d906136d0565b80156108ca5780601f1061089f576101008083540402835291602001916108ca565b820191906000526020600020905b8154815290600101906020018083116108ad57829003601f168201915b505050505081525050815250509050919050565b6010602052806000526040600020600091509050806000018054610901906136d0565b80601f016020809104026020016040519081016040528092919081815260200182805461092d906136d0565b801561097a5780601f1061094f5761010080835404028352916020019161097a565b820191906000526020600020905b81548152906001019060200180831161095d57829003601f168201915b5050505050908060010160009054906101000a900473ffffffffffffffffffffffffffffffffffffffff16908060020180546109b5906136d0565b80601f01602080910402602001604051908101604052809291908181526020018280546109e1906136d0565b8015610a2e5780601f10610a0357610100808354040283529160200191610a2e565b820191906000526020600020905b815481529060010190602001808311610a1157829003601f168201915b5050505050908060030154905084565b610a4661289c565b610a4e612858565b33826000019073ffffffffffffffffffffffffffffffffffffffff16908173ffffffffffffffffffffffffffffffffffffffff168152505086826020018181525050828260a00181905250838260800181905250858260400181815250508482606001818152505088816000018190525033816040019073ffffffffffffffffffffffffffffffffffffffff16908173ffffffffffffffffffffffffffffffffffffffff168152505087816020018190525081816060018190525080600f8a604051610b1a919061368a565b90815260200160405180910390206000820151816000019080519060200190610b449291906128e8565b506020820151816001019080519060200190610b619291906128e8565b5060408201518160020160006101000a81548173ffffffffffffffffffffffffffffffffffffffff021916908373ffffffffffffffffffffffffffffffffffffffff16021790555060608201518160030160008201518160000160006101000a81548173ffffffffffffffffffffffffffffffffffffffff021916908373ffffffffffffffffffffffffffffffffffffffff1602179055506020820151816001015560408201518160020155606082015181600301556080820151816004019080519060200190610c339291906128e8565b5060a0820151816005019080519060200190610c509291906128e8565b505050905050600e60003373ffffffffffffffffffffffffffffffffffffffff1673ffffffffffffffffffffffffffffffffffffffff16815260200190815260200160002089908060018154018082558091505060019003906000526020600020016000909190919091509080519060200190610cce9291906128e8565b507fe57ee35bc047d45ae97a7be850275f3baddba755df186218be07dfacf85676868989604051610d00929190613701565b60405180910390a1505050505050505050565b6060600c805480602002602001604051908101604052809291908181526020018280548015610d9757602002820191906000526020600020905b8160009054906101000a900473ffffffffffffffffffffffffffffffffffffffff1673ffffffffffffffffffffffffffffffffffffffff1681526020019060010190808311610d4d575b5050505050905090565b60006060806000601260008673ffffffffffffffffffffffffffffffffffffffff1673ffffffffffffffffffffffffffffffffffffffff1681526020019081526020016000206001018054610df5906136d0565b80601f0160208091040260200160405190810160405280929190818152602001828054610e21906136d0565b8015610e6e5780601f10610e4357610100808354040283529160200191610e6e565b820191906000526020600020905b815481529060010190602001808311610e5157829003601f168201915b505050505090506000601260008773ffffffffffffffffffffffffffffffffffffffff1673ffffffffffffffffffffffffffffffffffffffff16815260200190815260200160002060000160009054906101000a900473ffffffffffffffffffffffffffffffffffffffff1690506000601260008873ffffffffffffffffffffffffffffffffffffffff1673ffffffffffffffffffffffffffffffffffffffff1681526020019081526020016000206002018054610f2b906136d0565b80601f0160208091040260200160405190810160405280929190818152602001828054610f57906136d0565b8015610fa45780601f10610f7957610100808354040283529160200191610fa4565b820191906000526020600020905b815481529060010190602001808311610f8757829003601f168201915b505050505090508183829550955095505050509193909250565b6060600a8054610fcd906136d0565b80601f0160208091040260200160405190810160405280929190818152602001828054610ff9906136d0565b80156110465780601f1061101b57610100808354040283529160200191611046565b820191906000526020600020905b81548152906001019060200180831161102957829003601f168201915b5050505050905090565b6016602052806000526040600020600091509050806000018054611073906136d0565b80601f016020809104026020016040519081016040528092919081815260200182805461109f906136d0565b80156110ec5780601f106110c1576101008083540402835291602001916110ec565b820191906000526020600020905b8154815290600101906020018083116110cf57829003601f168201915b5050505050908060010160009054906101000a900473ffffffffffffffffffffffffffffffffffffffff16908060020160009054906101000a900473ffffffffffffffffffffffffffffffffffffffff169080600301805461114d906136d0565b80601f0160208091040260200160405190810160405280929190818152602001828054611179906136d0565b80156111c65780601f1061119b576101008083540402835291602001916111c6565b820191906000526020600020905b8154815290600101906020018083116111a957829003601f168201915b5050505050905084565b60146020528060005260406000206000915054906101000a900460ff1681565b600f81805160208101820180518482526020830160208501208183528095505050505050600091509050806000018054611229906136d0565b80601f0160208091040260200160405190810160405280929190818152602001828054611255906136d0565b80156112a25780601f10611277576101008083540402835291602001916112a2565b820191906000526020600020905b81548152906001019060200180831161128557829003601f168201915b5050505050908060010180546112b7906136d0565b80601f01602080910402602001604051908101604052809291908181526020018280546112e3906136d0565b80156113305780601f1061130557610100808354040283529160200191611330565b820191906000526020600020905b81548152906001019060200180831161131357829003601f168201915b5050505050908060020160009054906101000a900473ffffffffffffffffffffffffffffffffffffffff1690806003016040518060c00160405290816000820160009054906101000a900473ffffffffffffffffffffffffffffffffffffffff1673ffffffffffffffffffffffffffffffffffffffff1673ffffffffffffffffffffffffffffffffffffffff1681526020016001820154815260200160028201548152602001600382015481526020016004820180546113ef906136d0565b80601f016020809104026020016040519081016040528092919081815260200182805461141b906136d0565b80156114685780601f1061143d57610100808354040283529160200191611468565b820191906000526020600020905b81548152906001019060200180831161144b57829003601f168201915b50505050508152602001600582018054611481906136d0565b80601f01602080910402602001604051908101604052809291908181526020018280546114ad906136d0565b80156114fa5780601f106114cf576101008083540402835291602001916114fa565b820191906000526020600020905b8154815290600101906020018083116114dd57829003601f168201915b505050505081525050905084565b6060600d80548060200260200160405190810160405280929190818152602001828054801561158c57602002820191906000526020600020905b8160009054906101000a900473ffffffffffffffffffffffffffffffffffffffff1673ffffffffffffffffffffffffffffffffffffffff1681526020019060010190808311611542575b5050505050905090565b6060600e60003373ffffffffffffffffffffffffffffffffffffffff1673ffffffffffffffffffffffffffffffffffffffff168152602001908152602001600020805480602002602001604051908101604052809291908181526020016000905b828210156116a3578382906000526020600020018054611616906136d0565b80601f0160208091040260200160405190810160405280929190818152602001828054611642906136d0565b801561168f5780601f106116645761010080835404028352916020019161168f565b820191906000526020600020905b81548152906001019060200180831161167257829003601f168201915b5050505050815260200190600101906115f7565b50505050905090565b6060601560003373ffffffffffffffffffffffffffffffffffffffff1673ffffffffffffffffffffffffffffffffffffffff16815260200190815260200160002080548060200260200160405190810160405280929190818152602001828054801561173757602002820191906000526020600020905b815481526020019060010190808311611723575b5050505050905090565b3373ffffffffffffffffffffffffffffffffffffffff167fe826f71647b8486f2bae59832124c70792fba044036720a54ec8dacdd5df4fcb600a8360405161178a9291906137cd565b60405180910390a280600a90805190602001906117a89291906128e8565b5050565b60405180608001604052808581526020018473ffffffffffffffffffffffffffffffffffffffff1681526020018381526020018281525060106000600b54815260200190815260200160002060008201518160000190805190602001906118149291906128e8565b5060208201518160010160006101000a81548173ffffffffffffffffffffffffffffffffffffffff021916908373ffffffffffffffffffffffffffffffffffffffff16021790555060408201518160020190805190602001906118789291906128e8565b5060608201518160030155905050600060106000600b5481526020019081526020016000206040518060800160405290816000820180546118b8906136d0565b80601f01602080910402602001604051908101604052809291908181526020018280546118e4906136d0565b80156119315780601f1061190657610100808354040283529160200191611931565b820191906000526020600020905b81548152906001019060200180831161191457829003601f168201915b505050505081526020016001820160009054906101000a900473ffffffffffffffffffffffffffffffffffffffff1673ffffffffffffffffffffffffffffffffffffffff1673ffffffffffffffffffffffffffffffffffffffff1681526020016002820180546119a0906136d0565b80601f01602080910402602001604051908101604052809291908181526020018280546119cc906136d0565b8015611a195780601f106119ee57610100808354040283529160200191611a19565b820191906000526020600020905b8154815290600101906020018083116119fc57829003601f168201915b5050505050815260200160038201548152505090506000816060015103611a5657611a51816020015182600001518360400151612316565b611a7b565b6001816060015103611a7a57611a798160200151826000015183604001516125b7565b5b5b6001600b54611a8a9190613833565b600b819055507f43fa451d1fb47cf164ccb6a777532e04af59430576b822519086e12fa351f151816020015182604001516001604051611acc93929190613889565b60405180910390a1600160118260400151604051611aea919061368a565b908152602001604051809103902060006101000a81548160ff0219169083151502179055505050505050565b60606000806060600060166000878152602001908152602001600020604051806080016040529081600082018054611b4d906136d0565b80601f0160208091040260200160405190810160405280929190818152602001828054611b79906136d0565b8015611bc65780601f10611b9b57610100808354040283529160200191611bc6565b820191906000526020600020905b815481529060010190602001808311611ba957829003601f168201915b505050505081526020016001820160009054906101000a900473ffffffffffffffffffffffffffffffffffffffff1673ffffffffffffffffffffffffffffffffffffffff1673ffffffffffffffffffffffffffffffffffffffff1681526020016002820160009054906101000a900473ffffffffffffffffffffffffffffffffffffffff1673ffffffffffffffffffffffffffffffffffffffff1673ffffffffffffffffffffffffffffffffffffffff168152602001600382018054611c8b906136d0565b80601f0160208091040260200160405190810160405280929190818152602001828054611cb7906136d0565b8015611d045780601f10611cd957610100808354040283529160200191611d04565b820191906000526020600020905b815481529060010190602001808311611ce757829003601f168201915b505050505081525050905080600001518160200151826040015183606001519450945094509450509193509193565b600e6020528160005260406000208181548110611d4f57600080fd5b90600052602060002001600091509150508054611d6b906136d0565b80601f0160208091040260200160405190810160405280929190818152602001828054611d97906136d0565b8015611de45780601f10611db957610100808354040283529160200191611de4565b820191906000526020600020905b815481529060010190602001808311611dc757829003601f168201915b505050505081565b600f83604051611dfc919061368a565b908152602001604051809103902060020160009054906101000a900473ffffffffffffffffffffffffffffffffffffffff1673ffffffffffffffffffffffffffffffffffffffff163373ffffffffffffffffffffffffffffffffffffffff1614611e9b576040517f08c379a0000000000000000000000000000000000000000000000000000000008152600401611e9290613939565b60405180910390fd5b601460008373ffffffffffffffffffffffffffffffffffffffff1673ffffffffffffffffffffffffffffffffffffffff16815260200190815260200160002060009054906101000a900460ff1680611f3c5750601360008373ffffffffffffffffffffffffffffffffffffffff1673ffffffffffffffffffffffffffffffffffffffff16815260200190815260200160002060009054906101000a900460ff165b611f7b576040517f08c379a0000000000000000000000000000000000000000000000000000000008152600401611f72906139cb565b60405180910390fd5b60008383604051602001611f90929190613a33565b60405160208183030381529060405280519060200120905060405180608001604052808581526020013373ffffffffffffffffffffffffffffffffffffffff1681526020018473ffffffffffffffffffffffffffffffffffffffff168152602001838152506016600083815260200190815260200160002060008201518160000190805190602001906120249291906128e8565b5060208201518160010160006101000a81548173ffffffffffffffffffffffffffffffffffffffff021916908373ffffffffffffffffffffffffffffffffffffffff16021790555060408201518160020160006101000a81548173ffffffffffffffffffffffffffffffffffffffff021916908373ffffffffffffffffffffffffffffffffffffffff16021790555060608201518160030190805190602001906120cf9291906128e8565b50905050601560008473ffffffffffffffffffffffffffffffffffffffff1673ffffffffffffffffffffffffffffffffffffffff1681526020019081526020016000208190806001815401808255809150506001900390600052602060002001600090919091909150557fc5825d7737677ed1d1a5d607a9dcb5f0aead3d00ee0df5ea2646bb9d6374a8eb8433858560405161216e94939291906131ad565b60405180910390a150505050565b60606040518060600160405280602a8152602001613ac8602a9139905090565b60136020528060005260406000206000915054906101000a900460ff1681565b60126020528060005260406000206000915090508060000160009054906101000a900473ffffffffffffffffffffffffffffffffffffffff1690806001018054612205906136d0565b80601f0160208091040260200160405190810160405280929190818152602001828054612231906136d0565b801561227e5780601f106122535761010080835404028352916020019161227e565b820191906000526020600020905b81548152906001019060200180831161226157829003601f168201915b505050505090806002018054612293906136d0565b80601f01602080910402602001604051908101604052809291908181526020018280546122bf906136d0565b801561230c5780601f106122e15761010080835404028352916020019161230c565b820191906000526020600020905b8154815290600101906020018083116122ef57829003601f168201915b5050505050905083565b601460008473ffffffffffffffffffffffffffffffffffffffff1673ffffffffffffffffffffffffffffffffffffffff16815260200190815260200160002060009054906101000a900460ff16156123a3576040517f08c379a000000000000000000000000000000000000000000000000000000000815260040161239a90613aa7565b60405180910390fd5b600c839080600181540180825580915050600190039060005260206000200160009091909190916101000a81548173ffffffffffffffffffffffffffffffffffffffff021916908373ffffffffffffffffffffffffffffffffffffffff1602179055506001601460008573ffffffffffffffffffffffffffffffffffffffff1673ffffffffffffffffffffffffffffffffffffffff16815260200190815260200160002060006101000a81548160ff02191690831515021790555061246661296e565b83816000019073ffffffffffffffffffffffffffffffffffffffff16908173ffffffffffffffffffffffffffffffffffffffff168152505082816020018190525081816040018190525080601260008673ffffffffffffffffffffffffffffffffffffffff1673ffffffffffffffffffffffffffffffffffffffff16815260200190815260200160002060008201518160000160006101000a81548173ffffffffffffffffffffffffffffffffffffffff021916908373ffffffffffffffffffffffffffffffffffffffff16021790555060208201518160010190805190602001906125539291906128e8565b5060408201518160020190805190602001906125709291906128e8565b509050507f5d8da039f46939dac1f22e6429f726ab699d613ead17618999c45147211fb9d3838584426040516125a99493929190612e54565b60405180910390a150505050565b601360008473ffffffffffffffffffffffffffffffffffffffff1673ffffffffffffffffffffffffffffffffffffffff16815260200190815260200160002060009054906101000a900460ff1615612644576040517f08c379a000000000000000000000000000000000000000000000000000000000815260040161263b90613aa7565b60405180910390fd5b600d839080600181540180825580915050600190039060005260206000200160009091909190916101000a81548173ffffffffffffffffffffffffffffffffffffffff021916908373ffffffffffffffffffffffffffffffffffffffff1602179055506001601360008573ffffffffffffffffffffffffffffffffffffffff1673ffffffffffffffffffffffffffffffffffffffff16815260200190815260200160002060006101000a81548160ff02191690831515021790555061270761296e565b83816000019073ffffffffffffffffffffffffffffffffffffffff16908173ffffffffffffffffffffffffffffffffffffffff168152505082816020018190525081816040018190525080601260008673ffffffffffffffffffffffffffffffffffffffff1673ffffffffffffffffffffffffffffffffffffffff16815260200190815260200160002060008201518160000160006101000a81548173ffffffffffffffffffffffffffffffffffffffff021916908373ffffffffffffffffffffffffffffffffffffffff16021790555060208201518160010190805190602001906127f49291906128e8565b5060408201518160020190805190602001906128119291906128e8565b509050507f465daa34e4a04fd10e1b1da9ecb97133b5ff5b459841488cb1d9128dd793fd4d8385844260405161284a9493929190612e54565b60405180910390a150505050565b60405180608001604052806060815260200160608152602001600073ffffffffffffffffffffffffffffffffffffffff16815260200161289661289c565b81525090565b6040518060c00160405280600073ffffffffffffffffffffffffffffffffffffffff16815260200160008152602001600081526020016000815260200160608152602001606081525090565b8280546128f4906136d0565b90600052602060002090601f016020900481019282612916576000855561295d565b82601f1061292f57805160ff191683800117855561295d565b8280016001018555821561295d579182015b8281111561295c578251825591602001919060010190612941565b5b50905061296a91906129a5565b5090565b6040518060600160405280600073ffffffffffffffffffffffffffffffffffffffff16815260200160608152602001606081525090565b5b808211156129be5760008160009055506001016129a6565b5090565b600073ffffffffffffffffffffffffffffffffffffffff82169050919050565b60006129ed826129c2565b9050919050565b6129fd816129e2565b82525050565b6000819050919050565b612a1681612a03565b82525050565b6000604082019050612a3160008301856129f4565b612a3e6020830184612a0d565b9392505050565b6000604051905090565b600080fd5b600080fd5b600080fd5b600080fd5b6000601f19601f8301169050919050565b7f4e487b7100000000000000000000000000000000000000000000000000000000600052604160045260246000fd5b612aac82612a63565b810181811067ffffffffffffffff82111715612acb57612aca612a74565b5b80604052505050565b6000612ade612a45565b9050612aea8282612aa3565b919050565b600067ffffffffffffffff821115612b0a57612b09612a74565b5b612b1382612a63565b9050602081019050919050565b82818337600083830152505050565b6000612b42612b3d84612aef565b612ad4565b905082815260208101848484011115612b5e57612b5d612a5e565b5b612b69848285612b20565b509392505050565b600082601f830112612b8657612b85612a59565b5b8135612b96848260208601612b2f565b91505092915050565b600060208284031215612bb557612bb4612a4f565b5b600082013567ffffffffffffffff811115612bd357612bd2612a54565b5b612bdf84828501612b71565b91505092915050565b600081519050919050565b600082825260208201905092915050565b60005b83811015612c22578082015181840152602081019050612c07565b83811115612c31576000848401525b50505050565b6000612c4282612be8565b612c4c8185612bf3565b9350612c5c818560208601612c04565b612c6581612a63565b840191505092915050565b612c79816129e2565b82525050565b612c8881612a03565b82525050565b600060c083016000830151612ca66000860182612c70565b506020830151612cb96020860182612c7f565b506040830151612ccc6040860182612c7f565b506060830151612cdf6060860182612c7f565b5060808301518482036080860152612cf78282612c37565b91505060a083015184820360a0860152612d118282612c37565b9150508091505092915050565b60006080830160008301518482036000860152612d3b8282612c37565b91505060208301518482036020860152612d558282612c37565b9150506040830151612d6a6040860182612c70565b5060608301518482036060860152612d828282612c8e565b9150508091505092915050565b60006020820190508181036000830152612da98184612d1e565b905092915050565b612dba81612a03565b8114612dc557600080fd5b50565b600081359050612dd781612db1565b92915050565b600060208284031215612df357612df2612a4f565b5b6000612e0184828501612dc8565b91505092915050565b600082825260208201905092915050565b6000612e2682612be8565b612e308185612e0a565b9350612e40818560208601612c04565b612e4981612a63565b840191505092915050565b60006080820190508181036000830152612e6e8187612e1b565b9050612e7d60208301866129f4565b8181036040830152612e8f8185612e1b565b9050612e9e6060830184612a0d565b95945050505050565b600080600080600080600060e0888a031215612ec657612ec5612a4f565b5b600088013567ffffffffffffffff811115612ee457612ee3612a54565b5b612ef08a828b01612b71565b975050602088013567ffffffffffffffff811115612f1157612f10612a54565b5b612f1d8a828b01612b71565b9650506040612f2e8a828b01612dc8565b9550506060612f3f8a828b01612dc8565b9450506080612f508a828b01612dc8565b93505060a088013567ffffffffffffffff811115612f7157612f70612a54565b5b612f7d8a828b01612b71565b92505060c088013567ffffffffffffffff811115612f9e57612f9d612a54565b5b612faa8a828b01612b71565b91505092959891949750929550565b600081519050919050565b600082825260208201905092915050565b6000819050602082019050919050565b6000612ff18383612c70565b60208301905092915050565b6000602082019050919050565b600061301582612fb9565b61301f8185612fc4565b935061302a83612fd5565b8060005b8381101561305b5781516130428882612fe5565b975061304d83612ffd565b92505060018101905061302e565b5085935050505092915050565b60006020820190508181036000830152613082818461300a565b905092915050565b613093816129e2565b811461309e57600080fd5b50565b6000813590506130b08161308a565b92915050565b6000602082840312156130cc576130cb612a4f565b5b60006130da848285016130a1565b91505092915050565b60006060820190506130f860008301866129f4565b818103602083015261310a8185612e1b565b9050818103604083015261311e8184612e1b565b9050949350505050565b600060208201905081810360008301526131428184612e1b565b905092915050565b6000819050919050565b61315d8161314a565b811461316857600080fd5b50565b60008135905061317a81613154565b92915050565b60006020828403121561319657613195612a4f565b5b60006131a48482850161316b565b91505092915050565b600060808201905081810360008301526131c78187612e1b565b90506131d660208301866129f4565b6131e360408301856129f4565b81810360608301526131f58184612e1b565b905095945050505050565b60008115159050919050565b61321581613200565b82525050565b6000602082019050613230600083018461320c565b92915050565b600060c08301600083015161324e6000860182612c70565b5060208301516132616020860182612c7f565b5060408301516132746040860182612c7f565b5060608301516132876060860182612c7f565b506080830151848203608086015261329f8282612c37565b91505060a083015184820360a08601526132b98282612c37565b9150508091505092915050565b600060808201905081810360008301526132e08187612e1b565b905081810360208301526132f48186612e1b565b905061330360408301856129f4565b81810360608301526133158184613236565b905095945050505050565b600081519050919050565b600082825260208201905092915050565b6000819050602082019050919050565b60006133588383612c37565b905092915050565b6000602082019050919050565b600061337882613320565b613382818561332b565b9350836020820285016133948561333c565b8060005b858110156133d057848403895281516133b1858261334c565b94506133bc83613360565b925060208a01995050600181019050613398565b50829750879550505050505092915050565b600060208201905081810360008301526133fc818461336d565b905092915050565b600081519050919050565b600082825260208201905092915050565b6000819050602082019050919050565b6134398161314a565b82525050565b600061344b8383613430565b60208301905092915050565b6000602082019050919050565b600061346f82613404565b613479818561340f565b935061348483613420565b8060005b838110156134b557815161349c888261343f565b97506134a783613457565b925050600181019050613488565b5085935050505092915050565b600060208201905081810360008301526134dc8184613464565b905092915050565b600080600080608085870312156134fe576134fd612a4f565b5b600085013567ffffffffffffffff81111561351c5761351b612a54565b5b61352887828801612b71565b9450506020613539878288016130a1565b935050604085013567ffffffffffffffff81111561355a57613559612a54565b5b61356687828801612b71565b925050606061357787828801612dc8565b91505092959194509250565b6000806040838503121561359a57613599612a4f565b5b60006135a8858286016130a1565b92505060206135b985828601612dc8565b9150509250929050565b6000806000606084860312156135dc576135db612a4f565b5b600084013567ffffffffffffffff8111156135fa576135f9612a54565b5b61360686828701612b71565b9350506020613617868287016130a1565b925050604084013567ffffffffffffffff81111561363857613637612a54565b5b61364486828701612b71565b9150509250925092565b600081905092915050565b600061366482612be8565b61366e818561364e565b935061367e818560208601612c04565b80840191505092915050565b60006136968284613659565b915081905092915050565b7f4e487b7100000000000000000000000000000000000000000000000000000000600052602260045260246000fd5b600060028204905060018216806136e857607f821691505b6020821081036136fb576136fa6136a1565b5b50919050565b6000604082019050818103600083015261371b8185612e1b565b9050818103602083015261372f8184612e1b565b90509392505050565b60008190508160005260206000209050919050565b6000815461375a816136d0565b6137648186612e0a565b9450600182166000811461377f5760018114613791576137c4565b60ff19831686526020860193506137c4565b61379a85613738565b60005b838110156137bc5781548189015260018201915060208101905061379d565b808801955050505b50505092915050565b600060408201905081810360008301526137e7818561374d565b905081810360208301526137fb8184612e1b565b90509392505050565b7f4e487b7100000000000000000000000000000000000000000000000000000000600052601160045260246000fd5b600061383e82612a03565b915061384983612a03565b9250827fffffffffffffffffffffffffffffffffffffffffffffffffffffffffffffffff0382111561387e5761387d613804565b5b828201905092915050565b600060608201905061389e60008301866129f4565b81810360208301526138b08185612e1b565b90506138bf604083018461320c565b949350505050565b7f4f6e6c792050617469656e742063616e20736861726520746865207265706f7260008201527f7400000000000000000000000000000000000000000000000000000000000000602082015250565b6000613923602183612e0a565b915061392e826138c7565b604082019050919050565b6000602082019050818103600083015261395281613916565b9050919050565b7f446f63746f722f486f73706974616c206973206e6f7420617574686f72697a6560008201527f6400000000000000000000000000000000000000000000000000000000000000602082015250565b60006139b5602183612e0a565b91506139c082613959565b604082019050919050565b600060208201905081810360008301526139e4816139a8565b9050919050565b60008160601b9050919050565b6000613a03826139eb565b9050919050565b6000613a15826139f8565b9050919050565b613a2d613a28826129e2565b613a0a565b82525050565b6000613a3f8285613659565b9150613a4b8284613a1c565b6014820191508190509392505050565b7f416c726561647920726567697374657265642100000000000000000000000000600082015250565b6000613a91601383612e0a565b9150613a9c82613a5b565b602082019050919050565b60006020820190508181036000830152613ac081613a84565b905091905056fe48656c6c6f212054686520436f6e747261637420697320636f6e6e656374656420776974682077656233a26469706673582212202839385bcbb09a6dfbad2ee7ffc88169f92f1d27c7746eb0228ab4840ad1ca9764736f6c634300080d0033",
  "immutableReferences": {},
  "source": "// SPDX-License-Identifier: MIT\r\npragma solidity ^0.8.0;\r\n\r\n// [X] 1  - Apply for verification as Doctor/Hospital\r\n// [X] 2  - Find Patient/User Reports Collection\r\n// [X] 3  - Find Doctors\r\n// [X] 4  - Find Hospitals\r\n// [ ] 5  - Send Report to Doctor/Hospital for analysis\r\n// [ ] 6  - Send Report Analysis back to patient\r\n// [ ] 7  - Reviews Doctor/Hospital on receiving the report\r\n// [X] 8  - Find authorized Doctor/Hospital\r\n\r\nimport \"@chainlink/contracts/src/v0.8/ChainlinkClient.sol\";\r\n\r\ncontract DoctorWeb3 is ChainlinkClient {\r\n    using Chainlink for Chainlink.Request;\r\n    address owner;\r\n    address private oracle;\r\n    bytes32 private jobId;\r\n    uint256 private fee;\r\n    string _value;\r\n    uint256 requestId;\r\n\r\n    constructor() {\r\n        owner = msg.sender;\r\n        setChainlinkToken(0x326C977E6efc84E512bB9C30f76E30c160eD06FB);\r\n        oracle = 0x40193c8518BB267228Fc409a613bDbD8eC5a97b3;\r\n        jobId = \"ca98366cc7314957b8c012c72f05aeeb\";\r\n        fee = 0.1 * 10 ** 18; // 0.1 LINK\r\n        _value = \"hello\";\r\n        requestId = 1;\r\n    }\r\n\r\n    event ValueChanged(\r\n        address indexed author,\r\n        string oldValue,\r\n        string newValue\r\n    );\r\n\r\n    struct PatientInfo {\r\n        address patient;\r\n        uint256 age;\r\n        uint256 weight;\r\n        uint256 height;\r\n        string gender;\r\n        string bloodGroup;\r\n    }\r\n\r\n    struct Report {\r\n        string fileHash;\r\n        string category;\r\n        address Patient;\r\n        PatientInfo patientInfo;\r\n    }\r\n\r\n    struct SharedReport {\r\n        string fileHash;\r\n        address Patient;\r\n        address recipient;\r\n        string secretMessage;\r\n    }\r\n\r\n    struct Applicant {\r\n        string name;\r\n        address applicantAddress;\r\n        string medicalId;\r\n        uint256 applicantType; // 0 = Doctor, 1 = Hospital\r\n    }\r\n\r\n    struct AuthorizedDHDetails {\r\n        address authorizedDHAddress;\r\n        string name;\r\n        string medicalId;\r\n    }\r\n\r\n    address[] Doctors;\r\n    address[] Hospitals;\r\n    mapping(address => string[]) public PatientReports; // Maps Patient's address to its reports\r\n    mapping(string => Report) public Reports; // Maps report hash value from IPFS to Report Datatype\r\n    //mapping(bytes32 => Applicant) public Applicants; // Maps address of applicant to Applicant DataType\r\n    mapping(uint256 => Applicant) public Applicants; // remove during main chain\r\n    mapping(string => bool) private medicalIdUsed; // Maps medicalId to boolean\r\n    mapping(address => AuthorizedDHDetails) public AuthorizedDH; // Maps address of authorized Doctor or hospital with their details\r\n    mapping(address => bool) public AuthorisedHospital;\r\n    mapping(address => bool) public AuthorisedDoctor;\r\n    mapping(address => bytes32[]) private recipientSharedReports; // Mapping to store an array of shared report IDs for each recipient\r\n    mapping(bytes32 => SharedReport) public SharedReports; // Maps report unique value from IPFS to Report Datatype\r\n\r\n    event AuthorizationResult(\r\n        address applicantAddress,\r\n        string medicalId,\r\n        bool status\r\n    );\r\n\r\n    event DoctorAuthorized(\r\n        string name,\r\n        address _authAddress,\r\n        string medicalId,\r\n        uint AuthOnDate\r\n    );\r\n\r\n    event HospitalAuthorized(\r\n        string name,\r\n        address _authAddress,\r\n        string medicalId,\r\n        uint AuthOnDate\r\n    );\r\n\r\n    event ReportUploaded(string fileHash, string category);\r\n\r\n    event ReportShared(\r\n        string fileHash,\r\n        address Patient,\r\n        address recipient,\r\n        string secretMessage\r\n    );\r\n\r\n    function getValue() public view returns (string memory) {\r\n        return _value;\r\n    }\r\n\r\n    function setValue(string memory value) public {\r\n        emit ValueChanged(msg.sender, _value, value);\r\n        _value = value;\r\n    }\r\n\r\n    function testFunction() public pure returns (string memory myString) {\r\n        return \"Hello! The Contract is connected with web3\";\r\n    }\r\n\r\n    event Received(address, uint);\r\n\r\n    receive() external payable {\r\n        emit Received(msg.sender, msg.value);\r\n    }\r\n\r\n    function getPatientReports() public view returns (string[] memory) {\r\n        return PatientReports[msg.sender];\r\n    }\r\n\r\n    function getDetailedReports(\r\n        string memory _fileHash\r\n    ) public view returns (Report memory) {\r\n        return Reports[_fileHash];\r\n    }\r\n\r\n    function findDoctors() public view returns (address[] memory) {\r\n        return Doctors;\r\n    }\r\n\r\n    function findHospitals() public view returns (address[] memory) {\r\n        return Hospitals;\r\n    }\r\n\r\n    function getAuthorizedDHDetails(\r\n        address _addr\r\n    ) public view returns (address, string memory, string memory) {\r\n        string memory _name = AuthorizedDH[_addr].name;\r\n        address _address = AuthorizedDH[_addr].authorizedDHAddress;\r\n        string memory _medicalId = AuthorizedDH[_addr].medicalId;\r\n        return (_address, _name, _medicalId);\r\n    }\r\n\r\n    /* function ApplyForVerification(\r\n        string memory _name,\r\n        address _applicantAddress,\r\n        string memory _medicalId,\r\n        uint256 _applicantType\r\n    ) public returns (bytes32 requestId) {\r\n        require(_applicantType == 1 || _applicantType == 0,\"Apply id should be either 0 or 1\");\r\n        require(!medicalIdUsed[_medicalId], \"Medical ID is already used\"); // Stopping function spamming\r\n\r\n        //ChainLink Code for Verification\r\n\r\n        Chainlink.Request memory request = buildChainlinkRequest(jobId, address(this), this.fulfill.selector);\r\n        request.add(\"get\", \"https://mocki.io/v1/9471e151-4903-43bb-8bf9-45e98994672b\");\r\n\r\n        //Set the path {\"data\":{\"id\":100}}\r\n\r\n        request.add(\"path\", \"data,id\");\r\n\r\n        requestId = sendChainlinkRequestTo(oracle, request, fee);\r\n        Applicants[requestId] = Applicant(\r\n            _name,\r\n            _applicantAddress,\r\n            _medicalId,\r\n            _applicantType\r\n        );\r\n\r\n        return requestId;\r\n    }\r\n\r\n    function fulfill(bytes32 _requestId, uint256 _verification)\r\n        public\r\n        recordChainlinkFulfillment(_requestId)\r\n    {\r\n        Applicant memory applicant = Applicants[_requestId];\r\n        if (_verification == 100) {\r\n            if (applicant.applicantType == 0) {\r\n                addAuthorizedDoctor(\r\n                    applicant.applicantAddress,\r\n                    applicant.name,\r\n                    applicant.medicalId\r\n                );\r\n            } else {\r\n                addAuthorizedHospital(\r\n                    applicant.applicantAddress,\r\n                    applicant.name,\r\n                    applicant.medicalId\r\n                );\r\n            }\r\n            emit AuthorizationResult(applicant.applicantAddress, applicant.medicalId, true);\r\n        } else {\r\n            emit AuthorizationResult(applicant.applicantAddress, applicant.medicalId, false);\r\n        }\r\n        medicalIdUsed[applicant.medicalId] = true;\r\n    } */\r\n\r\n    function ApplyForVerification(\r\n        string memory _name,\r\n        address _applicantAddress,\r\n        string memory _medicalId,\r\n        uint256 _applicantType\r\n    ) public {\r\n        //require(_applicantType == 1 || _applicantType == 0,\"Apply id should be either 0 or 1\");\r\n        //require(!medicalIdUsed[_medicalId], \"Medical ID is already used\"); // Stopping function spamming\r\n        Applicants[requestId] = Applicant(\r\n            _name,\r\n            _applicantAddress,\r\n            _medicalId,\r\n            _applicantType\r\n        );\r\n\r\n        Applicant memory applicant = Applicants[requestId];\r\n\r\n        if (applicant.applicantType == 0) {\r\n            addAuthorizedDoctor(\r\n                applicant.applicantAddress,\r\n                applicant.name,\r\n                applicant.medicalId\r\n            );\r\n        } else if (applicant.applicantType == 1) {\r\n            addAuthorizedHospital(\r\n                applicant.applicantAddress,\r\n                applicant.name,\r\n                applicant.medicalId\r\n            );\r\n        }\r\n        requestId = requestId + 1;\r\n        emit AuthorizationResult(\r\n            applicant.applicantAddress,\r\n            applicant.medicalId,\r\n            true\r\n        );\r\n        medicalIdUsed[applicant.medicalId] = true;\r\n    }\r\n\r\n    function addAuthorizedDoctor(\r\n        address _authAddress,\r\n        string memory _name,\r\n        string memory _medicalId\r\n    ) private {\r\n        require(!AuthorisedDoctor[_authAddress], \"Already registered!\");\r\n        Doctors.push(_authAddress);\r\n        AuthorisedDoctor[_authAddress] = true;\r\n\r\n        AuthorizedDHDetails memory _authorizedDHDetail;\r\n\r\n        _authorizedDHDetail.authorizedDHAddress = _authAddress;\r\n        _authorizedDHDetail.name = _name;\r\n        _authorizedDHDetail.medicalId = _medicalId;\r\n\r\n        AuthorizedDH[_authAddress] = _authorizedDHDetail;\r\n\r\n        emit DoctorAuthorized(_name, _authAddress, _medicalId, block.timestamp);\r\n    }\r\n\r\n    function addAuthorizedHospital(\r\n        address _authAddress,\r\n        string memory _name,\r\n        string memory _medicalId\r\n    ) private {\r\n        require(!AuthorisedHospital[_authAddress], \"Already registered!\");\r\n        Hospitals.push(_authAddress);\r\n        AuthorisedHospital[_authAddress] = true;\r\n\r\n        AuthorizedDHDetails memory _authorizedDHDetail;\r\n\r\n        _authorizedDHDetail.authorizedDHAddress = _authAddress;\r\n        _authorizedDHDetail.name = _name;\r\n        _authorizedDHDetail.medicalId = _medicalId;\r\n\r\n        AuthorizedDH[_authAddress] = _authorizedDHDetail;\r\n\r\n        emit HospitalAuthorized(\r\n            _name,\r\n            _authAddress,\r\n            _medicalId,\r\n            block.timestamp\r\n        );\r\n    }\r\n\r\n    function uploadReport(\r\n        string memory _fileHash,\r\n        string memory _category,\r\n        uint256 _age,\r\n        uint256 _weight,\r\n        uint256 _height,\r\n        string memory _gender,\r\n        string memory _bloodGroup\r\n    ) public {\r\n        PatientInfo memory _patientInfo;\r\n        Report memory _report;\r\n\r\n        _patientInfo.patient = msg.sender;\r\n        _patientInfo.age = _age;\r\n        _patientInfo.bloodGroup = _bloodGroup;\r\n        _patientInfo.gender = _gender;\r\n        _patientInfo.weight = _weight;\r\n        _patientInfo.height = _height;\r\n\r\n        _report.fileHash = _fileHash;\r\n        _report.Patient = msg.sender;\r\n        _report.category = _category;\r\n        _report.patientInfo = _patientInfo;\r\n\r\n        Reports[_fileHash] = _report;\r\n        PatientReports[msg.sender].push(_fileHash);\r\n\r\n        emit ReportUploaded(_fileHash, _category);\r\n    }\r\n\r\n    function shareReport(\r\n        string memory _fileHash,\r\n        address _recipient,\r\n        string memory _secretMessage\r\n    ) public {\r\n        require(\r\n            msg.sender == Reports[_fileHash].Patient,\r\n            \"Only Patient can share the report\"\r\n        );\r\n        require(\r\n            AuthorisedDoctor[_recipient] || AuthorisedHospital[_recipient],\r\n            \"Doctor/Hospital is not authorized\"\r\n        );\r\n        bytes32 sharedReportId = keccak256(\r\n            abi.encodePacked(_fileHash, _recipient)\r\n        );\r\n        SharedReports[sharedReportId] = SharedReport({\r\n            fileHash: _fileHash,\r\n            Patient: msg.sender,\r\n            recipient: _recipient,\r\n            secretMessage: _secretMessage\r\n        });\r\n        // Store the shared report ID for the recipient\r\n        recipientSharedReports[_recipient].push(sharedReportId);\r\n        // Emit an event to notify the parties involved\r\n        emit ReportShared(_fileHash, msg.sender, _recipient, _secretMessage);\r\n    }\r\n\r\n    function getSharedReportIds() public view returns (bytes32[] memory) {\r\n        return recipientSharedReports[msg.sender];\r\n    }\r\n\r\n    function getSharedReport(\r\n        bytes32 _sharedReportId\r\n    ) public view returns (string memory, address, address, string memory) {\r\n        SharedReport memory sharedReport = SharedReports[_sharedReportId];\r\n        return (\r\n            sharedReport.fileHash,\r\n            sharedReport.Patient,\r\n            sharedReport.recipient,\r\n            sharedReport.secretMessage\r\n        );\r\n    }\r\n}\r\n",
  "sourcePath": "D:\\OLD_PC\\JavaScript_apps\\React\\DoctorWeb3\\doctorweb3\\src\\contracts\\DoctorWeb3.sol",
  "compiler": {
    "name": "solc",
    "version": "0.8.13+commit.abaa5c0e.Emscripten.clang"
  },
  "schemaVersion": "3.4.13",
  "updatedAt": "2024-04-09T09:16:20.529Z",
  "networkType": "ethereum",
  "devdoc": {
    "kind": "dev",
    "methods": {},
    "version": 1
  },
  "userdoc": {
    "kind": "user",
    "methods": {},
    "version": 1
  }
}