{
  "contractName": "DoctorWeb3",
  "abi": [
    {
      "inputs": [],
      "stateMutability": "nonpayable",
      "type": "constructor"
    },
    {
      "anonymous": false,
      "inputs": [
        {
          "indexed": false,
          "internalType": "address",
          "name": "applicantAddress",
          "type": "address"
        },
        {
          "indexed": false,
          "internalType": "string",
          "name": "medicalId",
          "type": "string"
        },
        {
          "indexed": false,
          "internalType": "bool",
          "name": "status",
          "type": "bool"
        }
      ],
      "name": "AuthorizationResult",
      "type": "event"
    },
    {
      "anonymous": false,
      "inputs": [
        {
          "indexed": true,
          "internalType": "bytes32",
          "name": "id",
          "type": "bytes32"
        }
      ],
      "name": "ChainlinkCancelled",
      "type": "event"
    },
    {
      "anonymous": false,
      "inputs": [
        {
          "indexed": true,
          "internalType": "bytes32",
          "name": "id",
          "type": "bytes32"
        }
      ],
      "name": "ChainlinkFulfilled",
      "type": "event"
    },
    {
      "anonymous": false,
      "inputs": [
        {
          "indexed": true,
          "internalType": "bytes32",
          "name": "id",
          "type": "bytes32"
        }
      ],
      "name": "ChainlinkRequested",
      "type": "event"
    },
    {
      "anonymous": false,
      "inputs": [
        {
          "indexed": false,
          "internalType": "string",
          "name": "name",
          "type": "string"
        },
        {
          "indexed": false,
          "internalType": "address",
          "name": "_authAddress",
          "type": "address"
        },
        {
          "indexed": false,
          "internalType": "string",
          "name": "medicalId",
          "type": "string"
        },
        {
          "indexed": false,
          "internalType": "uint256",
          "name": "AuthOnDate",
          "type": "uint256"
        }
      ],
      "name": "DoctorAuthorized",
      "type": "event"
    },
    {
      "anonymous": false,
      "inputs": [
        {
          "indexed": false,
          "internalType": "string",
          "name": "name",
          "type": "string"
        },
        {
          "indexed": false,
          "internalType": "address",
          "name": "_authAddress",
          "type": "address"
        },
        {
          "indexed": false,
          "internalType": "string",
          "name": "medicalId",
          "type": "string"
        },
        {
          "indexed": false,
          "internalType": "uint256",
          "name": "AuthOnDate",
          "type": "uint256"
        }
      ],
      "name": "HospitalAuthorized",
      "type": "event"
    },
    {
      "anonymous": false,
      "inputs": [
        {
          "indexed": false,
          "internalType": "address",
          "name": "",
          "type": "address"
        },
        {
          "indexed": false,
          "internalType": "uint256",
          "name": "",
          "type": "uint256"
        }
      ],
      "name": "Received",
      "type": "event"
    },
    {
      "anonymous": false,
      "inputs": [
        {
          "indexed": false,
          "internalType": "string",
          "name": "fileHash",
          "type": "string"
        },
        {
          "indexed": false,
          "internalType": "string",
          "name": "category",
          "type": "string"
        }
      ],
      "name": "ReportUploaded",
      "type": "event"
    },
    {
      "anonymous": false,
      "inputs": [
        {
          "indexed": true,
          "internalType": "address",
          "name": "author",
          "type": "address"
        },
        {
          "indexed": false,
          "internalType": "string",
          "name": "oldValue",
          "type": "string"
        },
        {
          "indexed": false,
          "internalType": "string",
          "name": "newValue",
          "type": "string"
        }
      ],
      "name": "ValueChanged",
      "type": "event"
    },
    {
      "inputs": [
        {
          "internalType": "uint256",
          "name": "",
          "type": "uint256"
        }
      ],
      "name": "Applicants",
      "outputs": [
        {
          "internalType": "string",
          "name": "name",
          "type": "string"
        },
        {
          "internalType": "address",
          "name": "applicantAddress",
          "type": "address"
        },
        {
          "internalType": "string",
          "name": "medicalId",
          "type": "string"
        },
        {
          "internalType": "uint256",
          "name": "applicantType",
          "type": "uint256"
        }
      ],
      "stateMutability": "view",
      "type": "function",
      "constant": true
    },
    {
      "inputs": [
        {
          "internalType": "address",
          "name": "",
          "type": "address"
        }
      ],
      "name": "AuthorisedDoctor",
      "outputs": [
        {
          "internalType": "bool",
          "name": "",
          "type": "bool"
        }
      ],
      "stateMutability": "view",
      "type": "function",
      "constant": true
    },
    {
      "inputs": [
        {
          "internalType": "address",
          "name": "",
          "type": "address"
        }
      ],
      "name": "AuthorisedHospital",
      "outputs": [
        {
          "internalType": "bool",
          "name": "",
          "type": "bool"
        }
      ],
      "stateMutability": "view",
      "type": "function",
      "constant": true
    },
    {
      "inputs": [
        {
          "internalType": "address",
          "name": "",
          "type": "address"
        }
      ],
      "name": "AuthorizedDH",
      "outputs": [
        {
          "internalType": "address",
          "name": "authorizedDHAddress",
          "type": "address"
        },
        {
          "internalType": "string",
          "name": "name",
          "type": "string"
        },
        {
          "internalType": "string",
          "name": "medicalId",
          "type": "string"
        }
      ],
      "stateMutability": "view",
      "type": "function",
      "constant": true
    },
    {
      "inputs": [
        {
          "internalType": "address",
          "name": "",
          "type": "address"
        },
        {
          "internalType": "uint256",
          "name": "",
          "type": "uint256"
        }
      ],
      "name": "PatientReports",
      "outputs": [
        {
          "internalType": "string",
          "name": "",
          "type": "string"
        }
      ],
      "stateMutability": "view",
      "type": "function",
      "constant": true
    },
    {
      "inputs": [
        {
          "internalType": "string",
          "name": "",
          "type": "string"
        }
      ],
      "name": "Reports",
      "outputs": [
        {
          "internalType": "string",
          "name": "fileHash",
          "type": "string"
        },
        {
          "internalType": "string",
          "name": "category",
          "type": "string"
        },
        {
          "internalType": "address",
          "name": "Patient",
          "type": "address"
        },
        {
          "components": [
            {
              "internalType": "address",
              "name": "patient",
              "type": "address"
            },
            {
              "internalType": "uint256",
              "name": "age",
              "type": "uint256"
            },
            {
              "internalType": "uint256",
              "name": "weight",
              "type": "uint256"
            },
            {
              "internalType": "uint256",
              "name": "height",
              "type": "uint256"
            },
            {
              "internalType": "string",
              "name": "gender",
              "type": "string"
            },
            {
              "internalType": "string",
              "name": "bloodGroup",
              "type": "string"
            }
          ],
          "internalType": "struct DoctorWeb3.PatientInfo",
          "name": "patientInfo",
          "type": "tuple"
        }
      ],
      "stateMutability": "view",
      "type": "function",
      "constant": true
    },
    {
      "stateMutability": "payable",
      "type": "receive",
      "payable": true
    },
    {
      "inputs": [],
      "name": "getValue",
      "outputs": [
        {
          "internalType": "string",
          "name": "",
          "type": "string"
        }
      ],
      "stateMutability": "view",
      "type": "function",
      "constant": true
    },
    {
      "inputs": [
        {
          "internalType": "string",
          "name": "value",
          "type": "string"
        }
      ],
      "name": "setValue",
      "outputs": [],
      "stateMutability": "nonpayable",
      "type": "function"
    },
    {
      "inputs": [],
      "name": "testFunction",
      "outputs": [
        {
          "internalType": "string",
          "name": "myString",
          "type": "string"
        }
      ],
      "stateMutability": "pure",
      "type": "function",
      "constant": true
    },
    {
      "inputs": [],
      "name": "getPatientReports",
      "outputs": [
        {
          "internalType": "string[]",
          "name": "",
          "type": "string[]"
        }
      ],
      "stateMutability": "view",
      "type": "function",
      "constant": true
    },
    {
      "inputs": [
        {
          "internalType": "string",
          "name": "_fileHash",
          "type": "string"
        }
      ],
      "name": "getDetailedReports",
      "outputs": [
        {
          "components": [
            {
              "internalType": "string",
              "name": "fileHash",
              "type": "string"
            },
            {
              "internalType": "string",
              "name": "category",
              "type": "string"
            },
            {
              "internalType": "address",
              "name": "Patient",
              "type": "address"
            },
            {
              "components": [
                {
                  "internalType": "address",
                  "name": "patient",
                  "type": "address"
                },
                {
                  "internalType": "uint256",
                  "name": "age",
                  "type": "uint256"
                },
                {
                  "internalType": "uint256",
                  "name": "weight",
                  "type": "uint256"
                },
                {
                  "internalType": "uint256",
                  "name": "height",
                  "type": "uint256"
                },
                {
                  "internalType": "string",
                  "name": "gender",
                  "type": "string"
                },
                {
                  "internalType": "string",
                  "name": "bloodGroup",
                  "type": "string"
                }
              ],
              "internalType": "struct DoctorWeb3.PatientInfo",
              "name": "patientInfo",
              "type": "tuple"
            }
          ],
          "internalType": "struct DoctorWeb3.Report",
          "name": "",
          "type": "tuple"
        }
      ],
      "stateMutability": "view",
      "type": "function",
      "constant": true
    },
    {
      "inputs": [],
      "name": "findDoctors",
      "outputs": [
        {
          "internalType": "address[]",
          "name": "",
          "type": "address[]"
        }
      ],
      "stateMutability": "view",
      "type": "function",
      "constant": true
    },
    {
      "inputs": [],
      "name": "findHospitals",
      "outputs": [
        {
          "internalType": "address[]",
          "name": "",
          "type": "address[]"
        }
      ],
      "stateMutability": "view",
      "type": "function",
      "constant": true
    },
    {
      "inputs": [
        {
          "internalType": "address",
          "name": "_addr",
          "type": "address"
        }
      ],
      "name": "getAuthorizedDHDetails",
      "outputs": [
        {
          "internalType": "address",
          "name": "",
          "type": "address"
        },
        {
          "internalType": "string",
          "name": "",
          "type": "string"
        },
        {
          "internalType": "string",
          "name": "",
          "type": "string"
        }
      ],
      "stateMutability": "view",
      "type": "function",
      "constant": true
    },
    {
      "inputs": [
        {
          "internalType": "string",
          "name": "_name",
          "type": "string"
        },
        {
          "internalType": "address",
          "name": "_applicantAddress",
          "type": "address"
        },
        {
          "internalType": "string",
          "name": "_medicalId",
          "type": "string"
        },
        {
          "internalType": "uint256",
          "name": "_applicantType",
          "type": "uint256"
        }
      ],
      "name": "ApplyForVerification",
      "outputs": [],
      "stateMutability": "nonpayable",
      "type": "function"
    },
    {
      "inputs": [
        {
          "internalType": "string",
          "name": "_fileHash",
          "type": "string"
        },
        {
          "internalType": "string",
          "name": "_category",
          "type": "string"
        },
        {
          "internalType": "uint256",
          "name": "_age",
          "type": "uint256"
        },
        {
          "internalType": "uint256",
          "name": "_weight",
          "type": "uint256"
        },
        {
          "internalType": "uint256",
          "name": "_height",
          "type": "uint256"
        },
        {
          "internalType": "string",
          "name": "_gender",
          "type": "string"
        },
        {
          "internalType": "string",
          "name": "_bloodGroup",
          "type": "string"
        }
      ],
      "name": "uploadReport",
      "outputs": [],
      "stateMutability": "nonpayable",
      "type": "function"
    }
  ],
  "bytecode": "0x608060405260016004553480156200001657600080fd5b5033600660006101000a81548173ffffffffffffffffffffffffffffffffffffffff021916908373ffffffffffffffffffffffffffffffffffffffff1602179055506200007d73326c977e6efc84e512bb9c30f76e30c160ed06fb6200015d60201b60201c565b7340193c8518bb267228fc409a613bdbd8ec5a97b3600760006101000a81548173ffffffffffffffffffffffffffffffffffffffff021916908373ffffffffffffffffffffffffffffffffffffffff1602179055507f636139383336366363373331343935376238633031326337326630356165656260088190555067016345785d8a00006009819055506040518060400160405280600581526020017f68656c6c6f000000000000000000000000000000000000000000000000000000815250600a90816200014e91906200041b565b506001600b8190555062000502565b80600260006101000a81548173ffffffffffffffffffffffffffffffffffffffff021916908373ffffffffffffffffffffffffffffffffffffffff16021790555050565b600081519050919050565b7f4e487b7100000000000000000000000000000000000000000000000000000000600052604160045260246000fd5b7f4e487b7100000000000000000000000000000000000000000000000000000000600052602260045260246000fd5b600060028204905060018216806200022357607f821691505b602082108103620002395762000238620001db565b5b50919050565b60008190508160005260206000209050919050565b60006020601f8301049050919050565b600082821b905092915050565b600060088302620002a37fffffffffffffffffffffffffffffffffffffffffffffffffffffffffffffffff8262000264565b620002af868362000264565b95508019841693508086168417925050509392505050565b6000819050919050565b6000819050919050565b6000620002fc620002f6620002f084620002c7565b620002d1565b620002c7565b9050919050565b6000819050919050565b6200031883620002db565b62000330620003278262000303565b84845462000271565b825550505050565b600090565b6200034762000338565b620003548184846200030d565b505050565b5b818110156200037c57620003706000826200033d565b6001810190506200035a565b5050565b601f821115620003cb5762000395816200023f565b620003a08462000254565b81016020851015620003b0578190505b620003c8620003bf8562000254565b83018262000359565b50505b505050565b600082821c905092915050565b6000620003f060001984600802620003d0565b1980831691505092915050565b60006200040b8383620003dd565b9150826002028217905092915050565b6200042682620001a1565b67ffffffffffffffff811115620004425762000441620001ac565b5b6200044e82546200020a565b6200045b82828562000380565b600060209050601f8311600181146200049357600084156200047e578287015190505b6200048a8582620003fd565b865550620004fa565b601f198416620004a3866200023f565b60005b82811015620004cd57848901518255600182019150602085019450602081019050620004a6565b86831015620004ed5784890151620004e9601f891682620003dd565b8355505b6001600288020188555050505b505050505050565b612ffb80620005126000396000f3fe6080604052600436106100f75760003560e01c80637f5962411161008a578063aa134f1e11610059578063aa134f1e1461039c578063e16b4a9b146103d9578063e5e7892014610404578063fcd9f2c01461044157610137565b80637f596241146102f457806389e207011461031f57806393a093521461034a5780639b43ef651461037357610137565b806318718fa9116100c657806318718fa91461020d578063209652551461024c5780635bfc05481461027757806373b911d5146102b457610137565b8063060efe0e1461013c578063064f88c2146101795780631057299c146101b957806312ecfacf146101e257610137565b36610137577f88a5966d370b9919b20f3e2c13ff65706f196a4e32cc2c12bf57088f88525874333460405161012d929190612063565b60405180910390a1005b600080fd5b34801561014857600080fd5b50610163600480360381019061015e91906121e6565b610480565b60405161017091906123cd565b60405180910390f35b34801561018557600080fd5b506101a0600480360381019061019b919061241b565b6107de565b6040516101b09493929190612492565b60405180910390f35b3480156101c557600080fd5b506101e060048036038101906101db91906124e5565b61093e565b005b3480156101ee57600080fd5b506101f7610bf0565b60405161020491906126a6565b60405180910390f35b34801561021957600080fd5b50610234600480360381019061022f91906126f4565b610c7e565b60405161024393929190612721565b60405180910390f35b34801561025857600080fd5b50610261610e9b565b60405161026e9190612766565b60405180910390f35b34801561028357600080fd5b5061029e600480360381019061029991906126f4565b610f2d565b6040516102ab91906127a3565b60405180910390f35b3480156102c057600080fd5b506102db60048036038101906102d691906121e6565b610f4d565b6040516102eb949392919061284e565b60405180910390f35b34801561030057600080fd5b50610309611265565b60405161031691906126a6565b60405180910390f35b34801561032b57600080fd5b506103346112f3565b604051610341919061296a565b60405180910390f35b34801561035657600080fd5b50610371600480360381019061036c91906121e6565b611409565b005b34801561037f57600080fd5b5061039a6004803603810190610395919061298c565b61146d565b005b3480156103a857600080fd5b506103c360048036038101906103be9190612a2b565b6117c9565b6040516103d09190612766565b60405180910390f35b3480156103e557600080fd5b506103ee611882565b6040516103fb9190612766565b60405180910390f35b34801561041057600080fd5b5061042b600480360381019061042691906126f4565b6118a2565b60405161043891906127a3565b60405180910390f35b34801561044d57600080fd5b50610468600480360381019061046391906126f4565b6118c2565b60405161047793929190612721565b60405180910390f35b610488611f42565b600f826040516104989190612aa7565b90815260200160405180910390206040518060800160405290816000820180546104c190612aed565b80601f01602080910402602001604051908101604052809291908181526020018280546104ed90612aed565b801561053a5780601f1061050f5761010080835404028352916020019161053a565b820191906000526020600020905b81548152906001019060200180831161051d57829003601f168201915b5050505050815260200160018201805461055390612aed565b80601f016020809104026020016040519081016040528092919081815260200182805461057f90612aed565b80156105cc5780601f106105a1576101008083540402835291602001916105cc565b820191906000526020600020905b8154815290600101906020018083116105af57829003601f168201915b505050505081526020016002820160009054906101000a900473ffffffffffffffffffffffffffffffffffffffff1673ffffffffffffffffffffffffffffffffffffffff1673ffffffffffffffffffffffffffffffffffffffff168152602001600382016040518060c00160405290816000820160009054906101000a900473ffffffffffffffffffffffffffffffffffffffff1673ffffffffffffffffffffffffffffffffffffffff1673ffffffffffffffffffffffffffffffffffffffff1681526020016001820154815260200160028201548152602001600382015481526020016004820180546106bf90612aed565b80601f01602080910402602001604051908101604052809291908181526020018280546106eb90612aed565b80156107385780601f1061070d57610100808354040283529160200191610738565b820191906000526020600020905b81548152906001019060200180831161071b57829003601f168201915b5050505050815260200160058201805461075190612aed565b80601f016020809104026020016040519081016040528092919081815260200182805461077d90612aed565b80156107ca5780601f1061079f576101008083540402835291602001916107ca565b820191906000526020600020905b8154815290600101906020018083116107ad57829003601f168201915b505050505081525050815250509050919050565b601060205280600052604060002060009150905080600001805461080190612aed565b80601f016020809104026020016040519081016040528092919081815260200182805461082d90612aed565b801561087a5780601f1061084f5761010080835404028352916020019161087a565b820191906000526020600020905b81548152906001019060200180831161085d57829003601f168201915b5050505050908060010160009054906101000a900473ffffffffffffffffffffffffffffffffffffffff16908060020180546108b590612aed565b80601f01602080910402602001604051908101604052809291908181526020018280546108e190612aed565b801561092e5780601f106109035761010080835404028352916020019161092e565b820191906000526020600020905b81548152906001019060200180831161091157829003601f168201915b5050505050908060030154905084565b610946611f86565b61094e611f42565b33826000019073ffffffffffffffffffffffffffffffffffffffff16908173ffffffffffffffffffffffffffffffffffffffff168152505086826020018181525050828260a00181905250838260800181905250858260400181815250508482606001818152505088816000018190525033816040019073ffffffffffffffffffffffffffffffffffffffff16908173ffffffffffffffffffffffffffffffffffffffff168152505087816020018190525081816060018190525080600f8a604051610a1a9190612aa7565b90815260200160405180910390206000820151816000019081610a3d9190612cca565b506020820151816001019081610a539190612cca565b5060408201518160020160006101000a81548173ffffffffffffffffffffffffffffffffffffffff021916908373ffffffffffffffffffffffffffffffffffffffff16021790555060608201518160030160008201518160000160006101000a81548173ffffffffffffffffffffffffffffffffffffffff021916908373ffffffffffffffffffffffffffffffffffffffff1602179055506020820151816001015560408201518160020155606082015181600301556080820151816004019081610b1e9190612cca565b5060a0820151816005019081610b349190612cca565b505050905050600e60003373ffffffffffffffffffffffffffffffffffffffff1673ffffffffffffffffffffffffffffffffffffffff16815260200190815260200160002089908060018154018082558091505060019003906000526020600020016000909190919091509081610bab9190612cca565b507fe57ee35bc047d45ae97a7be850275f3baddba755df186218be07dfacf85676868989604051610bdd929190612d9c565b60405180910390a1505050505050505050565b6060600c805480602002602001604051908101604052809291908181526020018280548015610c7457602002820191906000526020600020905b8160009054906101000a900473ffffffffffffffffffffffffffffffffffffffff1673ffffffffffffffffffffffffffffffffffffffff1681526020019060010190808311610c2a575b5050505050905090565b60006060806000601260008673ffffffffffffffffffffffffffffffffffffffff1673ffffffffffffffffffffffffffffffffffffffff1681526020019081526020016000206001018054610cd290612aed565b80601f0160208091040260200160405190810160405280929190818152602001828054610cfe90612aed565b8015610d4b5780601f10610d2057610100808354040283529160200191610d4b565b820191906000526020600020905b815481529060010190602001808311610d2e57829003601f168201915b505050505090506000601260008773ffffffffffffffffffffffffffffffffffffffff1673ffffffffffffffffffffffffffffffffffffffff16815260200190815260200160002060000160009054906101000a900473ffffffffffffffffffffffffffffffffffffffff1690506000601260008873ffffffffffffffffffffffffffffffffffffffff1673ffffffffffffffffffffffffffffffffffffffff1681526020019081526020016000206002018054610e0890612aed565b80601f0160208091040260200160405190810160405280929190818152602001828054610e3490612aed565b8015610e815780601f10610e5657610100808354040283529160200191610e81565b820191906000526020600020905b815481529060010190602001808311610e6457829003601f168201915b505050505090508183829550955095505050509193909250565b6060600a8054610eaa90612aed565b80601f0160208091040260200160405190810160405280929190818152602001828054610ed690612aed565b8015610f235780601f10610ef857610100808354040283529160200191610f23565b820191906000526020600020905b815481529060010190602001808311610f0657829003601f168201915b5050505050905090565b60146020528060005260406000206000915054906101000a900460ff1681565b600f81805160208101820180518482526020830160208501208183528095505050505050600091509050806000018054610f8690612aed565b80601f0160208091040260200160405190810160405280929190818152602001828054610fb290612aed565b8015610fff5780601f10610fd457610100808354040283529160200191610fff565b820191906000526020600020905b815481529060010190602001808311610fe257829003601f168201915b50505050509080600101805461101490612aed565b80601f016020809104026020016040519081016040528092919081815260200182805461104090612aed565b801561108d5780601f106110625761010080835404028352916020019161108d565b820191906000526020600020905b81548152906001019060200180831161107057829003601f168201915b5050505050908060020160009054906101000a900473ffffffffffffffffffffffffffffffffffffffff1690806003016040518060c00160405290816000820160009054906101000a900473ffffffffffffffffffffffffffffffffffffffff1673ffffffffffffffffffffffffffffffffffffffff1673ffffffffffffffffffffffffffffffffffffffff16815260200160018201548152602001600282015481526020016003820154815260200160048201805461114c90612aed565b80601f016020809104026020016040519081016040528092919081815260200182805461117890612aed565b80156111c55780601f1061119a576101008083540402835291602001916111c5565b820191906000526020600020905b8154815290600101906020018083116111a857829003601f168201915b505050505081526020016005820180546111de90612aed565b80601f016020809104026020016040519081016040528092919081815260200182805461120a90612aed565b80156112575780601f1061122c57610100808354040283529160200191611257565b820191906000526020600020905b81548152906001019060200180831161123a57829003601f168201915b505050505081525050905084565b6060600d8054806020026020016040519081016040528092919081815260200182805480156112e957602002820191906000526020600020905b8160009054906101000a900473ffffffffffffffffffffffffffffffffffffffff1673ffffffffffffffffffffffffffffffffffffffff168152602001906001019080831161129f575b5050505050905090565b6060600e60003373ffffffffffffffffffffffffffffffffffffffff1673ffffffffffffffffffffffffffffffffffffffff168152602001908152602001600020805480602002602001604051908101604052809291908181526020016000905b8282101561140057838290600052602060002001805461137390612aed565b80601f016020809104026020016040519081016040528092919081815260200182805461139f90612aed565b80156113ec5780601f106113c1576101008083540402835291602001916113ec565b820191906000526020600020905b8154815290600101906020018083116113cf57829003601f168201915b505050505081526020019060010190611354565b50505050905090565b3373ffffffffffffffffffffffffffffffffffffffff167fe826f71647b8486f2bae59832124c70792fba044036720a54ec8dacdd5df4fcb600a83604051611452929190612e57565b60405180910390a280600a90816114699190612cca565b5050565b60405180608001604052808581526020018473ffffffffffffffffffffffffffffffffffffffff1681526020018381526020018281525060106000600b54815260200190815260200160002060008201518160000190816114ce9190612cca565b5060208201518160010160006101000a81548173ffffffffffffffffffffffffffffffffffffffff021916908373ffffffffffffffffffffffffffffffffffffffff160217905550604082015181600201908161152b9190612cca565b5060608201518160030155905050600060106000600b54815260200190815260200160002060405180608001604052908160008201805461156b90612aed565b80601f016020809104026020016040519081016040528092919081815260200182805461159790612aed565b80156115e45780601f106115b9576101008083540402835291602001916115e4565b820191906000526020600020905b8154815290600101906020018083116115c757829003601f168201915b505050505081526020016001820160009054906101000a900473ffffffffffffffffffffffffffffffffffffffff1673ffffffffffffffffffffffffffffffffffffffff1673ffffffffffffffffffffffffffffffffffffffff16815260200160028201805461165390612aed565b80601f016020809104026020016040519081016040528092919081815260200182805461167f90612aed565b80156116cc5780601f106116a1576101008083540402835291602001916116cc565b820191906000526020600020905b8154815290600101906020018083116116af57829003601f168201915b505050505081526020016003820154815250509050600081606001510361170957611704816020015182600001518360400151611a1c565b61172e565b600181606001510361172d5761172c816020015182600001518360400151611caf565b5b5b6001600b5461173d9190612ebd565b600b819055507f43fa451d1fb47cf164ccb6a777532e04af59430576b822519086e12fa351f15181602001518260400151600160405161177f93929190612ef1565b60405180910390a160016011826040015160405161179d9190612aa7565b908152602001604051809103902060006101000a81548160ff0219169083151502179055505050505050565b600e60205281600052604060002081815481106117e557600080fd5b9060005260206000200160009150915050805461180190612aed565b80601f016020809104026020016040519081016040528092919081815260200182805461182d90612aed565b801561187a5780601f1061184f5761010080835404028352916020019161187a565b820191906000526020600020905b81548152906001019060200180831161185d57829003601f168201915b505050505081565b60606040518060600160405280602a8152602001612f9c602a9139905090565b60136020528060005260406000206000915054906101000a900460ff1681565b60126020528060005260406000206000915090508060000160009054906101000a900473ffffffffffffffffffffffffffffffffffffffff169080600101805461190b90612aed565b80601f016020809104026020016040519081016040528092919081815260200182805461193790612aed565b80156119845780601f1061195957610100808354040283529160200191611984565b820191906000526020600020905b81548152906001019060200180831161196757829003601f168201915b50505050509080600201805461199990612aed565b80601f01602080910402602001604051908101604052809291908181526020018280546119c590612aed565b8015611a125780601f106119e757610100808354040283529160200191611a12565b820191906000526020600020905b8154815290600101906020018083116119f557829003601f168201915b5050505050905083565b601460008473ffffffffffffffffffffffffffffffffffffffff1673ffffffffffffffffffffffffffffffffffffffff16815260200190815260200160002060009054906101000a900460ff1615611aa9576040517f08c379a0000000000000000000000000000000000000000000000000000000008152600401611aa090612f7b565b60405180910390fd5b600c839080600181540180825580915050600190039060005260206000200160009091909190916101000a81548173ffffffffffffffffffffffffffffffffffffffff021916908373ffffffffffffffffffffffffffffffffffffffff1602179055506001601460008573ffffffffffffffffffffffffffffffffffffffff1673ffffffffffffffffffffffffffffffffffffffff16815260200190815260200160002060006101000a81548160ff021916908315150217905550611b6c611fd2565b83816000019073ffffffffffffffffffffffffffffffffffffffff16908173ffffffffffffffffffffffffffffffffffffffff168152505082816020018190525081816040018190525080601260008673ffffffffffffffffffffffffffffffffffffffff1673ffffffffffffffffffffffffffffffffffffffff16815260200190815260200160002060008201518160000160006101000a81548173ffffffffffffffffffffffffffffffffffffffff021916908373ffffffffffffffffffffffffffffffffffffffff1602179055506020820151816001019081611c529190612cca565b506040820151816002019081611c689190612cca565b509050507f5d8da039f46939dac1f22e6429f726ab699d613ead17618999c45147211fb9d383858442604051611ca19493929190612492565b60405180910390a150505050565b601360008473ffffffffffffffffffffffffffffffffffffffff1673ffffffffffffffffffffffffffffffffffffffff16815260200190815260200160002060009054906101000a900460ff1615611d3c576040517f08c379a0000000000000000000000000000000000000000000000000000000008152600401611d3390612f7b565b60405180910390fd5b600d839080600181540180825580915050600190039060005260206000200160009091909190916101000a81548173ffffffffffffffffffffffffffffffffffffffff021916908373ffffffffffffffffffffffffffffffffffffffff1602179055506001601360008573ffffffffffffffffffffffffffffffffffffffff1673ffffffffffffffffffffffffffffffffffffffff16815260200190815260200160002060006101000a81548160ff021916908315150217905550611dff611fd2565b83816000019073ffffffffffffffffffffffffffffffffffffffff16908173ffffffffffffffffffffffffffffffffffffffff168152505082816020018190525081816040018190525080601260008673ffffffffffffffffffffffffffffffffffffffff1673ffffffffffffffffffffffffffffffffffffffff16815260200190815260200160002060008201518160000160006101000a81548173ffffffffffffffffffffffffffffffffffffffff021916908373ffffffffffffffffffffffffffffffffffffffff1602179055506020820151816001019081611ee59190612cca565b506040820151816002019081611efb9190612cca565b509050507f465daa34e4a04fd10e1b1da9ecb97133b5ff5b459841488cb1d9128dd793fd4d83858442604051611f349493929190612492565b60405180910390a150505050565b60405180608001604052806060815260200160608152602001600073ffffffffffffffffffffffffffffffffffffffff168152602001611f80611f86565b81525090565b6040518060c00160405280600073ffffffffffffffffffffffffffffffffffffffff16815260200160008152602001600081526020016000815260200160608152602001606081525090565b6040518060600160405280600073ffffffffffffffffffffffffffffffffffffffff16815260200160608152602001606081525090565b600073ffffffffffffffffffffffffffffffffffffffff82169050919050565b600061203482612009565b9050919050565b61204481612029565b82525050565b6000819050919050565b61205d8161204a565b82525050565b6000604082019050612078600083018561203b565b6120856020830184612054565b9392505050565b6000604051905090565b600080fd5b600080fd5b600080fd5b600080fd5b6000601f19601f8301169050919050565b7f4e487b7100000000000000000000000000000000000000000000000000000000600052604160045260246000fd5b6120f3826120aa565b810181811067ffffffffffffffff82111715612112576121116120bb565b5b80604052505050565b600061212561208c565b905061213182826120ea565b919050565b600067ffffffffffffffff821115612151576121506120bb565b5b61215a826120aa565b9050602081019050919050565b82818337600083830152505050565b600061218961218484612136565b61211b565b9050828152602081018484840111156121a5576121a46120a5565b5b6121b0848285612167565b509392505050565b600082601f8301126121cd576121cc6120a0565b5b81356121dd848260208601612176565b91505092915050565b6000602082840312156121fc576121fb612096565b5b600082013567ffffffffffffffff81111561221a5761221961209b565b5b612226848285016121b8565b91505092915050565b600081519050919050565b600082825260208201905092915050565b60005b8381101561226957808201518184015260208101905061224e565b60008484015250505050565b60006122808261222f565b61228a818561223a565b935061229a81856020860161224b565b6122a3816120aa565b840191505092915050565b6122b781612029565b82525050565b6122c68161204a565b82525050565b600060c0830160008301516122e460008601826122ae565b5060208301516122f760208601826122bd565b50604083015161230a60408601826122bd565b50606083015161231d60608601826122bd565b50608083015184820360808601526123358282612275565b91505060a083015184820360a086015261234f8282612275565b9150508091505092915050565b600060808301600083015184820360008601526123798282612275565b915050602083015184820360208601526123938282612275565b91505060408301516123a860408601826122ae565b50606083015184820360608601526123c082826122cc565b9150508091505092915050565b600060208201905081810360008301526123e7818461235c565b905092915050565b6123f88161204a565b811461240357600080fd5b50565b600081359050612415816123ef565b92915050565b60006020828403121561243157612430612096565b5b600061243f84828501612406565b91505092915050565b600082825260208201905092915050565b60006124648261222f565b61246e8185612448565b935061247e81856020860161224b565b612487816120aa565b840191505092915050565b600060808201905081810360008301526124ac8187612459565b90506124bb602083018661203b565b81810360408301526124cd8185612459565b90506124dc6060830184612054565b95945050505050565b600080600080600080600060e0888a03121561250457612503612096565b5b600088013567ffffffffffffffff8111156125225761252161209b565b5b61252e8a828b016121b8565b975050602088013567ffffffffffffffff81111561254f5761254e61209b565b5b61255b8a828b016121b8565b965050604061256c8a828b01612406565b955050606061257d8a828b01612406565b945050608061258e8a828b01612406565b93505060a088013567ffffffffffffffff8111156125af576125ae61209b565b5b6125bb8a828b016121b8565b92505060c088013567ffffffffffffffff8111156125dc576125db61209b565b5b6125e88a828b016121b8565b91505092959891949750929550565b600081519050919050565b600082825260208201905092915050565b6000819050602082019050919050565b600061262f83836122ae565b60208301905092915050565b6000602082019050919050565b6000612653826125f7565b61265d8185612602565b935061266883612613565b8060005b838110156126995781516126808882612623565b975061268b8361263b565b92505060018101905061266c565b5085935050505092915050565b600060208201905081810360008301526126c08184612648565b905092915050565b6126d181612029565b81146126dc57600080fd5b50565b6000813590506126ee816126c8565b92915050565b60006020828403121561270a57612709612096565b5b6000612718848285016126df565b91505092915050565b6000606082019050612736600083018661203b565b81810360208301526127488185612459565b9050818103604083015261275c8184612459565b9050949350505050565b600060208201905081810360008301526127808184612459565b905092915050565b60008115159050919050565b61279d81612788565b82525050565b60006020820190506127b86000830184612794565b92915050565b600060c0830160008301516127d660008601826122ae565b5060208301516127e960208601826122bd565b5060408301516127fc60408601826122bd565b50606083015161280f60608601826122bd565b50608083015184820360808601526128278282612275565b91505060a083015184820360a08601526128418282612275565b9150508091505092915050565b600060808201905081810360008301526128688187612459565b9050818103602083015261287c8186612459565b905061288b604083018561203b565b818103606083015261289d81846127be565b905095945050505050565b600081519050919050565b600082825260208201905092915050565b6000819050602082019050919050565b60006128e08383612275565b905092915050565b6000602082019050919050565b6000612900826128a8565b61290a81856128b3565b93508360208202850161291c856128c4565b8060005b85811015612958578484038952815161293985826128d4565b9450612944836128e8565b925060208a01995050600181019050612920565b50829750879550505050505092915050565b6000602082019050818103600083015261298481846128f5565b905092915050565b600080600080608085870312156129a6576129a5612096565b5b600085013567ffffffffffffffff8111156129c4576129c361209b565b5b6129d0878288016121b8565b94505060206129e1878288016126df565b935050604085013567ffffffffffffffff811115612a0257612a0161209b565b5b612a0e878288016121b8565b9250506060612a1f87828801612406565b91505092959194509250565b60008060408385031215612a4257612a41612096565b5b6000612a50858286016126df565b9250506020612a6185828601612406565b9150509250929050565b600081905092915050565b6000612a818261222f565b612a8b8185612a6b565b9350612a9b81856020860161224b565b80840191505092915050565b6000612ab38284612a76565b915081905092915050565b7f4e487b7100000000000000000000000000000000000000000000000000000000600052602260045260246000fd5b60006002820490506001821680612b0557607f821691505b602082108103612b1857612b17612abe565b5b50919050565b60008190508160005260206000209050919050565b60006020601f8301049050919050565b600082821b905092915050565b600060088302612b807fffffffffffffffffffffffffffffffffffffffffffffffffffffffffffffffff82612b43565b612b8a8683612b43565b95508019841693508086168417925050509392505050565b6000819050919050565b6000612bc7612bc2612bbd8461204a565b612ba2565b61204a565b9050919050565b6000819050919050565b612be183612bac565b612bf5612bed82612bce565b848454612b50565b825550505050565b600090565b612c0a612bfd565b612c15818484612bd8565b505050565b5b81811015612c3957612c2e600082612c02565b600181019050612c1b565b5050565b601f821115612c7e57612c4f81612b1e565b612c5884612b33565b81016020851015612c67578190505b612c7b612c7385612b33565b830182612c1a565b50505b505050565b600082821c905092915050565b6000612ca160001984600802612c83565b1980831691505092915050565b6000612cba8383612c90565b9150826002028217905092915050565b612cd38261222f565b67ffffffffffffffff811115612cec57612ceb6120bb565b5b612cf68254612aed565b612d01828285612c3d565b600060209050601f831160018114612d345760008415612d22578287015190505b612d2c8582612cae565b865550612d94565b601f198416612d4286612b1e565b60005b82811015612d6a57848901518255600182019150602085019450602081019050612d45565b86831015612d875784890151612d83601f891682612c90565b8355505b6001600288020188555050505b505050505050565b60006040820190508181036000830152612db68185612459565b90508181036020830152612dca8184612459565b90509392505050565b60008154612de081612aed565b612dea8186612448565b94506001821660008114612e055760018114612e1b57612e4e565b60ff198316865281151560200286019350612e4e565b612e2485612b1e565b60005b83811015612e4657815481890152600182019150602081019050612e27565b808801955050505b50505092915050565b60006040820190508181036000830152612e718185612dd3565b90508181036020830152612e858184612459565b90509392505050565b7f4e487b7100000000000000000000000000000000000000000000000000000000600052601160045260246000fd5b6000612ec88261204a565b9150612ed38361204a565b9250828201905080821115612eeb57612eea612e8e565b5b92915050565b6000606082019050612f06600083018661203b565b8181036020830152612f188185612459565b9050612f276040830184612794565b949350505050565b7f416c726561647920726567697374657265642100000000000000000000000000600082015250565b6000612f65601383612448565b9150612f7082612f2f565b602082019050919050565b60006020820190508181036000830152612f9481612f58565b905091905056fe48656c6c6f212054686520436f6e747261637420697320636f6e6e656374656420776974682077656233a264697066735822122026cb86b96f0d088d6f4d829a5ae23aea0ecad7913127a49a1a93c6aa8723a13264736f6c63430008110033",
  "immutableReferences": {},
  "source": "// SPDX-License-Identifier: MIT\r\npragma solidity ^0.8.0;\r\n\r\n// [X] 1  - Apply for verification as Doctor/Hospital\r\n// [X] 2  - Find Patient/User Reports Collection\r\n// [X] 3  - Find Doctors\r\n// [X] 4  - Find Hospitals\r\n// [ ] 5  - Send Report to Doctor/Hospital for analysis\r\n// [ ] 6  - Send Report Analysis back to patient\r\n// [ ] 7  - Reviews Doctor/Hospital on receiving the report\r\n// [X] 8  - Find authorized Doctor/Hospital\r\n\r\nimport \"@chainlink/contracts/src/v0.8/ChainlinkClient.sol\";\r\n\r\ncontract DoctorWeb3 is ChainlinkClient {\r\n    using Chainlink for Chainlink.Request;\r\n    address owner;\r\n    address private oracle;\r\n    bytes32 private jobId;\r\n    uint256 private fee;\r\n    string _value;\r\n    uint256 requestId;\r\n\r\n    constructor() {\r\n        owner = msg.sender;\r\n        setChainlinkToken(0x326C977E6efc84E512bB9C30f76E30c160eD06FB);\r\n        oracle = 0x40193c8518BB267228Fc409a613bDbD8eC5a97b3;\r\n        jobId = \"ca98366cc7314957b8c012c72f05aeeb\";\r\n        fee = 0.1 * 10 ** 18; // 0.1 LINK\r\n        _value = \"hello\";\r\n        requestId = 1;\r\n\r\n    }\r\n    event ValueChanged(address indexed author, string oldValue, string newValue);\r\n\r\n\r\n    struct PatientInfo {\r\n        address patient;\r\n        uint256 age;\r\n        uint256 weight;\r\n        uint256 height;\r\n        string gender;\r\n        string bloodGroup;\r\n    }\r\n\r\n    struct Report {\r\n        string fileHash;\r\n        string category;\r\n        address Patient;\r\n        PatientInfo patientInfo;\r\n    }\r\n\r\n    struct Applicant {\r\n        string name;\r\n        address applicantAddress;\r\n        string medicalId;\r\n        uint256 applicantType; // 0 = Doctor, 1 = Hospital\r\n    }\r\n\r\n    struct AuthorizedDHDetails {\r\n        address authorizedDHAddress;\r\n        string name;\r\n        string medicalId;\r\n    }\r\n\r\n    address[] Doctors;\r\n    address[] Hospitals;\r\n    mapping(address => string[]) public PatientReports; // Maps Patient's address to its reports\r\n    mapping(string => Report) public Reports; // Maps report hash value from IPFS to Report Datatype\r\n    //mapping(bytes32 => Applicant) public Applicants; // Maps address of applicant to Applicant DataType\r\n    mapping(uint256 => Applicant) public Applicants; // remove during main chain\r\n    mapping(string => bool) private medicalIdUsed; // Maps medicalId to boolean\r\n    mapping(address => AuthorizedDHDetails) public AuthorizedDH; // Maps address of authorized Doctor or hospital with their details\r\n    mapping(address => bool) public AuthorisedHospital;\r\n    mapping(address => bool) public AuthorisedDoctor;\r\n\r\n    event AuthorizationResult(\r\n        address applicantAddress,\r\n        string medicalId,\r\n        bool status\r\n    );\r\n\r\n    event DoctorAuthorized(\r\n        string name,\r\n        address _authAddress,\r\n        string medicalId,\r\n        uint AuthOnDate\r\n    );\r\n\r\n    event HospitalAuthorized(\r\n        string name,\r\n        address _authAddress,\r\n        string medicalId,\r\n        uint AuthOnDate\r\n    );\r\n\r\n    event ReportUploaded(\r\n        string fileHash,\r\n        string category\r\n    );\r\n\r\n    function getValue() view public returns (string memory) {\r\n        return _value;\r\n    }\r\n\r\n    function setValue(string memory value) public {\r\n        emit ValueChanged(msg.sender, _value, value);\r\n        _value = value;\r\n    }\r\n\r\n    function testFunction() public pure returns (string memory myString) {\r\n        return \"Hello! The Contract is connected with web3\";\r\n    }\r\n\r\n    event Received(address, uint);\r\n    receive() external payable {\r\n        emit Received(msg.sender, msg.value);\r\n    }\r\n\r\n    function getPatientReports()\r\n        public\r\n        view\r\n        returns (string[] memory)\r\n    {\r\n        return PatientReports[msg.sender];\r\n    }\r\n\r\n    function getDetailedReports(string memory _fileHash)\r\n        public\r\n        view\r\n        returns (Report memory)\r\n    {\r\n        return Reports[_fileHash];\r\n    }\r\n\r\n    function findDoctors() public view returns (address[] memory) {\r\n        return Doctors;\r\n    }\r\n\r\n    function findHospitals() public view returns (address[] memory) {\r\n        return Hospitals;\r\n    }\r\n\r\n    function getAuthorizedDHDetails(address _addr) public view returns (address, string memory, string memory) {\r\n        string memory _name = AuthorizedDH[_addr].name;\r\n        address _address = AuthorizedDH[_addr].authorizedDHAddress;\r\n        string memory _medicalId = AuthorizedDH[_addr].medicalId;\r\n        return (_address, _name, _medicalId);\r\n    }\r\n\r\n    /* function ApplyForVerification(\r\n        string memory _name,\r\n        address _applicantAddress,\r\n        string memory _medicalId,\r\n        uint256 _applicantType\r\n    ) public returns (bytes32 requestId) {\r\n        require(_applicantType == 1 || _applicantType == 0,\"Apply id should be either 0 or 1\");\r\n        require(!medicalIdUsed[_medicalId], \"Medical ID is already used\"); // Stopping function spamming\r\n\r\n        //ChainLink Code for Verification\r\n\r\n        Chainlink.Request memory request = buildChainlinkRequest(jobId, address(this), this.fulfill.selector);\r\n        request.add(\"get\", \"https://mocki.io/v1/9471e151-4903-43bb-8bf9-45e98994672b\");\r\n\r\n        //Set the path {\"data\":{\"id\":100}}\r\n\r\n        request.add(\"path\", \"data,id\");\r\n\r\n        requestId = sendChainlinkRequestTo(oracle, request, fee);\r\n        Applicants[requestId] = Applicant(\r\n            _name,\r\n            _applicantAddress,\r\n            _medicalId,\r\n            _applicantType\r\n        );\r\n\r\n        return requestId;\r\n    }\r\n\r\n    function fulfill(bytes32 _requestId, uint256 _verification)\r\n        public\r\n        recordChainlinkFulfillment(_requestId)\r\n    {\r\n        Applicant memory applicant = Applicants[_requestId];\r\n        if (_verification == 100) {\r\n            if (applicant.applicantType == 0) {\r\n                addAuthorizedDoctor(\r\n                    applicant.applicantAddress,\r\n                    applicant.name,\r\n                    applicant.medicalId\r\n                );\r\n            } else {\r\n                addAuthorizedHospital(\r\n                    applicant.applicantAddress,\r\n                    applicant.name,\r\n                    applicant.medicalId\r\n                );\r\n            }\r\n            emit AuthorizationResult(applicant.applicantAddress, applicant.medicalId, true);\r\n        } else {\r\n            emit AuthorizationResult(applicant.applicantAddress, applicant.medicalId, false);\r\n        }\r\n        medicalIdUsed[applicant.medicalId] = true;\r\n    } */\r\n\r\n    function ApplyForVerification(\r\n        string memory _name,\r\n        address _applicantAddress,\r\n        string memory _medicalId,\r\n        uint256 _applicantType\r\n    ) public {\r\n        //require(_applicantType == 1 || _applicantType == 0,\"Apply id should be either 0 or 1\");\r\n        //require(!medicalIdUsed[_medicalId], \"Medical ID is already used\"); // Stopping function spamming\r\n        Applicants[requestId] = Applicant(\r\n            _name,\r\n            _applicantAddress,\r\n            _medicalId,\r\n            _applicantType\r\n        );\r\n\r\n        Applicant memory applicant = Applicants[requestId];\r\n\r\n        if (applicant.applicantType == 0) {\r\n                addAuthorizedDoctor(\r\n                    applicant.applicantAddress,\r\n                    applicant.name,\r\n                    applicant.medicalId\r\n                );\r\n            } else if (applicant.applicantType == 1)  {\r\n                addAuthorizedHospital(\r\n                    applicant.applicantAddress,\r\n                    applicant.name,\r\n                    applicant.medicalId\r\n                );\r\n            }\r\n        requestId = requestId + 1;\r\n        emit AuthorizationResult(applicant.applicantAddress, applicant.medicalId, true);\r\n        medicalIdUsed[applicant.medicalId] = true;\r\n\r\n    }\r\n\r\n    function addAuthorizedDoctor(\r\n        address _authAddress,\r\n        string memory _name,\r\n        string memory _medicalId\r\n    ) private {\r\n        require(!AuthorisedDoctor[_authAddress], \"Already registered!\");\r\n        Doctors.push(_authAddress);\r\n        AuthorisedDoctor[_authAddress] = true;\r\n\r\n        AuthorizedDHDetails memory _authorizedDHDetail;\r\n\r\n        _authorizedDHDetail.authorizedDHAddress = _authAddress;\r\n        _authorizedDHDetail.name = _name;\r\n        _authorizedDHDetail.medicalId = _medicalId;\r\n\r\n        AuthorizedDH[_authAddress] = _authorizedDHDetail;\r\n\r\n        emit DoctorAuthorized(_name, _authAddress, _medicalId, block.timestamp);\r\n    }\r\n\r\n    function addAuthorizedHospital(\r\n        address _authAddress,\r\n        string memory _name,\r\n        string memory _medicalId\r\n    ) private {\r\n        require(!AuthorisedHospital[_authAddress], \"Already registered!\");\r\n        Hospitals.push(_authAddress);\r\n        AuthorisedHospital[_authAddress] = true;\r\n\r\n        AuthorizedDHDetails memory _authorizedDHDetail;\r\n\r\n        _authorizedDHDetail.authorizedDHAddress = _authAddress;\r\n        _authorizedDHDetail.name = _name;\r\n        _authorizedDHDetail.medicalId = _medicalId;\r\n\r\n        AuthorizedDH[_authAddress] = _authorizedDHDetail;\r\n\r\n        emit HospitalAuthorized(_name, _authAddress, _medicalId, block.timestamp);\r\n    }\r\n\r\n    function uploadReport(\r\n        string memory _fileHash,\r\n        string memory _category,\r\n        uint256 _age,\r\n        uint256 _weight,\r\n        uint256 _height,\r\n        string memory _gender,\r\n        string memory _bloodGroup\r\n    ) public {\r\n        PatientInfo memory _patientInfo;\r\n        Report memory _report;\r\n\r\n        _patientInfo.patient = msg.sender;\r\n        _patientInfo.age = _age;\r\n        _patientInfo.bloodGroup = _bloodGroup;\r\n        _patientInfo.gender = _gender;\r\n        _patientInfo.weight = _weight;\r\n        _patientInfo.height = _height;\r\n\r\n        _report.fileHash = _fileHash;\r\n        _report.Patient = msg.sender;\r\n        _report.category = _category;\r\n        _report.patientInfo = _patientInfo;\r\n\r\n        Reports[_fileHash] = _report;\r\n        PatientReports[msg.sender].push(_fileHash);\r\n\r\n        emit ReportUploaded(_fileHash, _category);\r\n    }\r\n\r\n}\r\n",
  "sourcePath": "D:\\OLD_PC\\JavaScript_apps\\React\\DoctorWeb3\\doctorweb3\\src\\contracts\\DoctorWeb3.sol",
  "compiler": {
    "name": "solc",
    "version": "0.8.17+commit.8df45f5f.Emscripten.clang"
  },
  "schemaVersion": "3.4.9",
  "updatedAt": "2022-12-02T08:09:01.181Z",
  "networkType": "ethereum",
  "devdoc": {
    "kind": "dev",
    "methods": {},
    "version": 1
  },
  "userdoc": {
    "kind": "user",
    "methods": {},
    "version": 1
  }
}