{
  "contractName": "DoctorWeb3",
  "abi": [
    {
      "inputs": [],
      "stateMutability": "nonpayable",
      "type": "constructor"
    },
    {
      "anonymous": false,
      "inputs": [
        {
          "indexed": false,
          "internalType": "address",
          "name": "applicantAddress",
          "type": "address"
        },
        {
          "indexed": false,
          "internalType": "string",
          "name": "medicalId",
          "type": "string"
        },
        {
          "indexed": false,
          "internalType": "bool",
          "name": "status",
          "type": "bool"
        }
      ],
      "name": "AuthorizationResult",
      "type": "event"
    },
    {
      "anonymous": false,
      "inputs": [
        {
          "indexed": true,
          "internalType": "bytes32",
          "name": "id",
          "type": "bytes32"
        }
      ],
      "name": "ChainlinkCancelled",
      "type": "event"
    },
    {
      "anonymous": false,
      "inputs": [
        {
          "indexed": true,
          "internalType": "bytes32",
          "name": "id",
          "type": "bytes32"
        }
      ],
      "name": "ChainlinkFulfilled",
      "type": "event"
    },
    {
      "anonymous": false,
      "inputs": [
        {
          "indexed": true,
          "internalType": "bytes32",
          "name": "id",
          "type": "bytes32"
        }
      ],
      "name": "ChainlinkRequested",
      "type": "event"
    },
    {
      "anonymous": false,
      "inputs": [
        {
          "indexed": false,
          "internalType": "string",
          "name": "name",
          "type": "string"
        },
        {
          "indexed": false,
          "internalType": "address",
          "name": "_authAddress",
          "type": "address"
        },
        {
          "indexed": false,
          "internalType": "string",
          "name": "medicalId",
          "type": "string"
        },
        {
          "indexed": false,
          "internalType": "uint256",
          "name": "AuthOnDate",
          "type": "uint256"
        }
      ],
      "name": "DoctorAuthorized",
      "type": "event"
    },
    {
      "anonymous": false,
      "inputs": [
        {
          "indexed": false,
          "internalType": "string",
          "name": "name",
          "type": "string"
        },
        {
          "indexed": false,
          "internalType": "address",
          "name": "_authAddress",
          "type": "address"
        },
        {
          "indexed": false,
          "internalType": "string",
          "name": "medicalId",
          "type": "string"
        },
        {
          "indexed": false,
          "internalType": "uint256",
          "name": "AuthOnDate",
          "type": "uint256"
        }
      ],
      "name": "HospitalAuthorized",
      "type": "event"
    },
    {
      "anonymous": false,
      "inputs": [
        {
          "indexed": false,
          "internalType": "address",
          "name": "",
          "type": "address"
        },
        {
          "indexed": false,
          "internalType": "uint256",
          "name": "",
          "type": "uint256"
        }
      ],
      "name": "Received",
      "type": "event"
    },
    {
      "anonymous": false,
      "inputs": [
        {
          "indexed": true,
          "internalType": "address",
          "name": "author",
          "type": "address"
        },
        {
          "indexed": false,
          "internalType": "string",
          "name": "oldValue",
          "type": "string"
        },
        {
          "indexed": false,
          "internalType": "string",
          "name": "newValue",
          "type": "string"
        }
      ],
      "name": "ValueChanged",
      "type": "event"
    },
    {
      "inputs": [
        {
          "internalType": "uint256",
          "name": "",
          "type": "uint256"
        }
      ],
      "name": "Applicants",
      "outputs": [
        {
          "internalType": "string",
          "name": "name",
          "type": "string"
        },
        {
          "internalType": "address",
          "name": "applicantAddress",
          "type": "address"
        },
        {
          "internalType": "string",
          "name": "medicalId",
          "type": "string"
        },
        {
          "internalType": "uint256",
          "name": "applicantType",
          "type": "uint256"
        }
      ],
      "stateMutability": "view",
      "type": "function",
      "constant": true
    },
    {
      "inputs": [
        {
          "internalType": "address",
          "name": "",
          "type": "address"
        }
      ],
      "name": "AuthorisedDoctor",
      "outputs": [
        {
          "internalType": "bool",
          "name": "",
          "type": "bool"
        }
      ],
      "stateMutability": "view",
      "type": "function",
      "constant": true
    },
    {
      "inputs": [
        {
          "internalType": "address",
          "name": "",
          "type": "address"
        }
      ],
      "name": "AuthorisedHospital",
      "outputs": [
        {
          "internalType": "bool",
          "name": "",
          "type": "bool"
        }
      ],
      "stateMutability": "view",
      "type": "function",
      "constant": true
    },
    {
      "inputs": [
        {
          "internalType": "address",
          "name": "",
          "type": "address"
        }
      ],
      "name": "AuthorizedDH",
      "outputs": [
        {
          "internalType": "address",
          "name": "authorizedDHAddress",
          "type": "address"
        },
        {
          "internalType": "string",
          "name": "name",
          "type": "string"
        },
        {
          "internalType": "string",
          "name": "medicalId",
          "type": "string"
        }
      ],
      "stateMutability": "view",
      "type": "function",
      "constant": true
    },
    {
      "inputs": [
        {
          "internalType": "address",
          "name": "",
          "type": "address"
        },
        {
          "internalType": "uint256",
          "name": "",
          "type": "uint256"
        }
      ],
      "name": "PatientReports",
      "outputs": [
        {
          "internalType": "string",
          "name": "",
          "type": "string"
        }
      ],
      "stateMutability": "view",
      "type": "function",
      "constant": true
    },
    {
      "inputs": [
        {
          "internalType": "string",
          "name": "",
          "type": "string"
        }
      ],
      "name": "Reports",
      "outputs": [
        {
          "internalType": "string",
          "name": "fileHash",
          "type": "string"
        },
        {
          "internalType": "string",
          "name": "category",
          "type": "string"
        },
        {
          "internalType": "address",
          "name": "Patient",
          "type": "address"
        },
        {
          "components": [
            {
              "internalType": "address",
              "name": "patient",
              "type": "address"
            },
            {
              "internalType": "uint256",
              "name": "age",
              "type": "uint256"
            },
            {
              "internalType": "uint256",
              "name": "weight",
              "type": "uint256"
            },
            {
              "internalType": "uint256",
              "name": "height",
              "type": "uint256"
            },
            {
              "internalType": "string",
              "name": "gender",
              "type": "string"
            },
            {
              "internalType": "string",
              "name": "bloodGroup",
              "type": "string"
            }
          ],
          "internalType": "struct DoctorWeb3.PatientInfo",
          "name": "patientInfo",
          "type": "tuple"
        }
      ],
      "stateMutability": "view",
      "type": "function",
      "constant": true
    },
    {
      "stateMutability": "payable",
      "type": "receive",
      "payable": true
    },
    {
      "inputs": [],
      "name": "getValue",
      "outputs": [
        {
          "internalType": "string",
          "name": "",
          "type": "string"
        }
      ],
      "stateMutability": "view",
      "type": "function",
      "constant": true
    },
    {
      "inputs": [
        {
          "internalType": "string",
          "name": "value",
          "type": "string"
        }
      ],
      "name": "setValue",
      "outputs": [],
      "stateMutability": "nonpayable",
      "type": "function"
    },
    {
      "inputs": [],
      "name": "testFunction",
      "outputs": [
        {
          "internalType": "string",
          "name": "myString",
          "type": "string"
        }
      ],
      "stateMutability": "pure",
      "type": "function",
      "constant": true
    },
    {
      "inputs": [
        {
          "internalType": "address",
          "name": "_address",
          "type": "address"
        }
      ],
      "name": "getPatientReports",
      "outputs": [
        {
          "internalType": "string[]",
          "name": "",
          "type": "string[]"
        }
      ],
      "stateMutability": "view",
      "type": "function",
      "constant": true
    },
    {
      "inputs": [
        {
          "internalType": "string",
          "name": "_fileHash",
          "type": "string"
        }
      ],
      "name": "getDetailedReports",
      "outputs": [
        {
          "components": [
            {
              "internalType": "string",
              "name": "fileHash",
              "type": "string"
            },
            {
              "internalType": "string",
              "name": "category",
              "type": "string"
            },
            {
              "internalType": "address",
              "name": "Patient",
              "type": "address"
            },
            {
              "components": [
                {
                  "internalType": "address",
                  "name": "patient",
                  "type": "address"
                },
                {
                  "internalType": "uint256",
                  "name": "age",
                  "type": "uint256"
                },
                {
                  "internalType": "uint256",
                  "name": "weight",
                  "type": "uint256"
                },
                {
                  "internalType": "uint256",
                  "name": "height",
                  "type": "uint256"
                },
                {
                  "internalType": "string",
                  "name": "gender",
                  "type": "string"
                },
                {
                  "internalType": "string",
                  "name": "bloodGroup",
                  "type": "string"
                }
              ],
              "internalType": "struct DoctorWeb3.PatientInfo",
              "name": "patientInfo",
              "type": "tuple"
            }
          ],
          "internalType": "struct DoctorWeb3.Report",
          "name": "",
          "type": "tuple"
        }
      ],
      "stateMutability": "view",
      "type": "function",
      "constant": true
    },
    {
      "inputs": [],
      "name": "findDoctors",
      "outputs": [
        {
          "internalType": "address[]",
          "name": "",
          "type": "address[]"
        }
      ],
      "stateMutability": "view",
      "type": "function",
      "constant": true
    },
    {
      "inputs": [],
      "name": "findHospitals",
      "outputs": [
        {
          "internalType": "address[]",
          "name": "",
          "type": "address[]"
        }
      ],
      "stateMutability": "view",
      "type": "function",
      "constant": true
    },
    {
      "inputs": [
        {
          "internalType": "address",
          "name": "_address",
          "type": "address"
        }
      ],
      "name": "getAuthorizedDHDetails",
      "outputs": [
        {
          "components": [
            {
              "internalType": "address",
              "name": "authorizedDHAddress",
              "type": "address"
            },
            {
              "internalType": "string",
              "name": "name",
              "type": "string"
            },
            {
              "internalType": "string",
              "name": "medicalId",
              "type": "string"
            }
          ],
          "internalType": "struct DoctorWeb3.AuthorizedDHDetails",
          "name": "",
          "type": "tuple"
        }
      ],
      "stateMutability": "view",
      "type": "function",
      "constant": true
    },
    {
      "inputs": [
        {
          "internalType": "string",
          "name": "_name",
          "type": "string"
        },
        {
          "internalType": "address",
          "name": "_applicantAddress",
          "type": "address"
        },
        {
          "internalType": "string",
          "name": "_medicalId",
          "type": "string"
        },
        {
          "internalType": "uint256",
          "name": "_applicantType",
          "type": "uint256"
        }
      ],
      "name": "ApplyForVerification",
      "outputs": [],
      "stateMutability": "nonpayable",
      "type": "function"
    },
    {
      "inputs": [
        {
          "internalType": "string",
          "name": "_fileHash",
          "type": "string"
        },
        {
          "internalType": "string",
          "name": "_category",
          "type": "string"
        },
        {
          "internalType": "uint256",
          "name": "_age",
          "type": "uint256"
        },
        {
          "internalType": "uint256",
          "name": "_weight",
          "type": "uint256"
        },
        {
          "internalType": "uint256",
          "name": "_height",
          "type": "uint256"
        },
        {
          "internalType": "string",
          "name": "_gender",
          "type": "string"
        },
        {
          "internalType": "string",
          "name": "_bloodGroup",
          "type": "string"
        }
      ],
      "name": "uploadReport",
      "outputs": [],
      "stateMutability": "nonpayable",
      "type": "function"
    }
  ],
  "bytecode": "0x608060405260016004553480156200001657600080fd5b5033600660006101000a81548173ffffffffffffffffffffffffffffffffffffffff021916908373ffffffffffffffffffffffffffffffffffffffff1602179055506200007d73326c977e6efc84e512bb9c30f76e30c160ed06fb6200015d60201b60201c565b7340193c8518bb267228fc409a613bdbd8ec5a97b3600760006101000a81548173ffffffffffffffffffffffffffffffffffffffff021916908373ffffffffffffffffffffffffffffffffffffffff1602179055507f636139383336366363373331343935376238633031326337326630356165656260088190555067016345785d8a00006009819055506040518060400160405280600581526020017f68656c6c6f000000000000000000000000000000000000000000000000000000815250600a90816200014e91906200041b565b506001600b8190555062000502565b80600260006101000a81548173ffffffffffffffffffffffffffffffffffffffff021916908373ffffffffffffffffffffffffffffffffffffffff16021790555050565b600081519050919050565b7f4e487b7100000000000000000000000000000000000000000000000000000000600052604160045260246000fd5b7f4e487b7100000000000000000000000000000000000000000000000000000000600052602260045260246000fd5b600060028204905060018216806200022357607f821691505b602082108103620002395762000238620001db565b5b50919050565b60008190508160005260206000209050919050565b60006020601f8301049050919050565b600082821b905092915050565b600060088302620002a37fffffffffffffffffffffffffffffffffffffffffffffffffffffffffffffffff8262000264565b620002af868362000264565b95508019841693508086168417925050509392505050565b6000819050919050565b6000819050919050565b6000620002fc620002f6620002f084620002c7565b620002d1565b620002c7565b9050919050565b6000819050919050565b6200031883620002db565b62000330620003278262000303565b84845462000271565b825550505050565b600090565b6200034762000338565b620003548184846200030d565b505050565b5b818110156200037c57620003706000826200033d565b6001810190506200035a565b5050565b601f821115620003cb5762000395816200023f565b620003a08462000254565b81016020851015620003b0578190505b620003c8620003bf8562000254565b83018262000359565b50505b505050565b600082821c905092915050565b6000620003f060001984600802620003d0565b1980831691505092915050565b60006200040b8383620003dd565b9150826002028217905092915050565b6200042682620001a1565b67ffffffffffffffff811115620004425762000441620001ac565b5b6200044e82546200020a565b6200045b82828562000380565b600060209050601f8311600181146200049357600084156200047e578287015190505b6200048a8582620003fd565b865550620004fa565b601f198416620004a3866200023f565b60005b82811015620004cd57848901518255600182019150602085019450602081019050620004a6565b86831015620004ed5784890151620004e9601f891682620003dd565b8355505b6001600288020188555050505b505050505050565b612fcc80620005126000396000f3fe6080604052600436106100f75760003560e01c80637f5962411161008a578063e16b4a9b11610059578063e16b4a9b146103ac578063e5e78920146103d7578063e65a069114610414578063fcd9f2c01461045157610137565b80637f596241146102f257806393a093521461031d5780639b43ef6514610346578063aa134f1e1461036f57610137565b806318718fa9116100c657806318718fa91461020d578063209652551461024a5780635bfc05481461027557806373b911d5146102b257610137565b8063060efe0e1461013c578063064f88c2146101795780631057299c146101b957806312ecfacf146101e257610137565b36610137577f88a5966d370b9919b20f3e2c13ff65706f196a4e32cc2c12bf57088f88525874333460405161012d929190611ff2565b60405180910390a1005b600080fd5b34801561014857600080fd5b50610163600480360381019061015e9190612175565b610490565b604051610170919061235c565b60405180910390f35b34801561018557600080fd5b506101a0600480360381019061019b91906123aa565b6107ee565b6040516101b09493929190612421565b60405180910390f35b3480156101c557600080fd5b506101e060048036038101906101db9190612474565b61094e565b005b3480156101ee57600080fd5b506101f7610bc7565b6040516102049190612635565b60405180910390f35b34801561021957600080fd5b50610234600480360381019061022f9190612683565b610c55565b6040516102419190612707565b60405180910390f35b34801561025657600080fd5b5061025f610e28565b60405161026c9190612729565b60405180910390f35b34801561028157600080fd5b5061029c60048036038101906102979190612683565b610eba565b6040516102a99190612766565b60405180910390f35b3480156102be57600080fd5b506102d960048036038101906102d49190612175565b610eda565b6040516102e99493929190612811565b60405180910390f35b3480156102fe57600080fd5b506103076111f2565b6040516103149190612635565b60405180910390f35b34801561032957600080fd5b50610344600480360381019061033f9190612175565b611280565b005b34801561035257600080fd5b5061036d6004803603810190610368919061286b565b6112e4565b005b34801561037b57600080fd5b506103966004803603810190610391919061290a565b611640565b6040516103a39190612729565b60405180910390f35b3480156103b857600080fd5b506103c16116f9565b6040516103ce9190612729565b60405180910390f35b3480156103e357600080fd5b506103fe60048036038101906103f99190612683565b611719565b60405161040b9190612766565b60405180910390f35b34801561042057600080fd5b5061043b60048036038101906104369190612683565b611739565b6040516104489190612a0c565b60405180910390f35b34801561045d57600080fd5b5061047860048036038101906104739190612683565b611851565b60405161048793929190612a2e565b60405180910390f35b610498611ed1565b600f826040516104a89190612aaf565b90815260200160405180910390206040518060800160405290816000820180546104d190612af5565b80601f01602080910402602001604051908101604052809291908181526020018280546104fd90612af5565b801561054a5780601f1061051f5761010080835404028352916020019161054a565b820191906000526020600020905b81548152906001019060200180831161052d57829003601f168201915b5050505050815260200160018201805461056390612af5565b80601f016020809104026020016040519081016040528092919081815260200182805461058f90612af5565b80156105dc5780601f106105b1576101008083540402835291602001916105dc565b820191906000526020600020905b8154815290600101906020018083116105bf57829003601f168201915b505050505081526020016002820160009054906101000a900473ffffffffffffffffffffffffffffffffffffffff1673ffffffffffffffffffffffffffffffffffffffff1673ffffffffffffffffffffffffffffffffffffffff168152602001600382016040518060c00160405290816000820160009054906101000a900473ffffffffffffffffffffffffffffffffffffffff1673ffffffffffffffffffffffffffffffffffffffff1673ffffffffffffffffffffffffffffffffffffffff1681526020016001820154815260200160028201548152602001600382015481526020016004820180546106cf90612af5565b80601f01602080910402602001604051908101604052809291908181526020018280546106fb90612af5565b80156107485780601f1061071d57610100808354040283529160200191610748565b820191906000526020600020905b81548152906001019060200180831161072b57829003601f168201915b5050505050815260200160058201805461076190612af5565b80601f016020809104026020016040519081016040528092919081815260200182805461078d90612af5565b80156107da5780601f106107af576101008083540402835291602001916107da565b820191906000526020600020905b8154815290600101906020018083116107bd57829003601f168201915b505050505081525050815250509050919050565b601060205280600052604060002060009150905080600001805461081190612af5565b80601f016020809104026020016040519081016040528092919081815260200182805461083d90612af5565b801561088a5780601f1061085f5761010080835404028352916020019161088a565b820191906000526020600020905b81548152906001019060200180831161086d57829003601f168201915b5050505050908060010160009054906101000a900473ffffffffffffffffffffffffffffffffffffffff16908060020180546108c590612af5565b80601f01602080910402602001604051908101604052809291908181526020018280546108f190612af5565b801561093e5780601f106109135761010080835404028352916020019161093e565b820191906000526020600020905b81548152906001019060200180831161092157829003601f168201915b5050505050908060030154905084565b610956611f15565b61095e611ed1565b33826000019073ffffffffffffffffffffffffffffffffffffffff16908173ffffffffffffffffffffffffffffffffffffffff168152505086826020018181525050828260a00181905250838260800181905250858260400181815250508482606001818152505088816000018190525033816040019073ffffffffffffffffffffffffffffffffffffffff16908173ffffffffffffffffffffffffffffffffffffffff168152505087816020018190525081816060018190525080600f8a604051610a2a9190612aaf565b90815260200160405180910390206000820151816000019081610a4d9190612cd2565b506020820151816001019081610a639190612cd2565b5060408201518160020160006101000a81548173ffffffffffffffffffffffffffffffffffffffff021916908373ffffffffffffffffffffffffffffffffffffffff16021790555060608201518160030160008201518160000160006101000a81548173ffffffffffffffffffffffffffffffffffffffff021916908373ffffffffffffffffffffffffffffffffffffffff1602179055506020820151816001015560408201518160020155606082015181600301556080820151816004019081610b2e9190612cd2565b5060a0820151816005019081610b449190612cd2565b505050905050600e60003373ffffffffffffffffffffffffffffffffffffffff1673ffffffffffffffffffffffffffffffffffffffff16815260200190815260200160002089908060018154018082558091505060019003906000526020600020016000909190919091509081610bbb9190612cd2565b50505050505050505050565b6060600c805480602002602001604051908101604052809291908181526020018280548015610c4b57602002820191906000526020600020905b8160009054906101000a900473ffffffffffffffffffffffffffffffffffffffff1673ffffffffffffffffffffffffffffffffffffffff1681526020019060010190808311610c01575b5050505050905090565b610c5d611f61565b601260008373ffffffffffffffffffffffffffffffffffffffff1673ffffffffffffffffffffffffffffffffffffffff1681526020019081526020016000206040518060600160405290816000820160009054906101000a900473ffffffffffffffffffffffffffffffffffffffff1673ffffffffffffffffffffffffffffffffffffffff1673ffffffffffffffffffffffffffffffffffffffff168152602001600182018054610d0d90612af5565b80601f0160208091040260200160405190810160405280929190818152602001828054610d3990612af5565b8015610d865780601f10610d5b57610100808354040283529160200191610d86565b820191906000526020600020905b815481529060010190602001808311610d6957829003601f168201915b50505050508152602001600282018054610d9f90612af5565b80601f0160208091040260200160405190810160405280929190818152602001828054610dcb90612af5565b8015610e185780601f10610ded57610100808354040283529160200191610e18565b820191906000526020600020905b815481529060010190602001808311610dfb57829003601f168201915b5050505050815250509050919050565b6060600a8054610e3790612af5565b80601f0160208091040260200160405190810160405280929190818152602001828054610e6390612af5565b8015610eb05780601f10610e8557610100808354040283529160200191610eb0565b820191906000526020600020905b815481529060010190602001808311610e9357829003601f168201915b5050505050905090565b60146020528060005260406000206000915054906101000a900460ff1681565b600f81805160208101820180518482526020830160208501208183528095505050505050600091509050806000018054610f1390612af5565b80601f0160208091040260200160405190810160405280929190818152602001828054610f3f90612af5565b8015610f8c5780601f10610f6157610100808354040283529160200191610f8c565b820191906000526020600020905b815481529060010190602001808311610f6f57829003601f168201915b505050505090806001018054610fa190612af5565b80601f0160208091040260200160405190810160405280929190818152602001828054610fcd90612af5565b801561101a5780601f10610fef5761010080835404028352916020019161101a565b820191906000526020600020905b815481529060010190602001808311610ffd57829003601f168201915b5050505050908060020160009054906101000a900473ffffffffffffffffffffffffffffffffffffffff1690806003016040518060c00160405290816000820160009054906101000a900473ffffffffffffffffffffffffffffffffffffffff1673ffffffffffffffffffffffffffffffffffffffff1673ffffffffffffffffffffffffffffffffffffffff1681526020016001820154815260200160028201548152602001600382015481526020016004820180546110d990612af5565b80601f016020809104026020016040519081016040528092919081815260200182805461110590612af5565b80156111525780601f1061112757610100808354040283529160200191611152565b820191906000526020600020905b81548152906001019060200180831161113557829003601f168201915b5050505050815260200160058201805461116b90612af5565b80601f016020809104026020016040519081016040528092919081815260200182805461119790612af5565b80156111e45780601f106111b9576101008083540402835291602001916111e4565b820191906000526020600020905b8154815290600101906020018083116111c757829003601f168201915b505050505081525050905084565b6060600d80548060200260200160405190810160405280929190818152602001828054801561127657602002820191906000526020600020905b8160009054906101000a900473ffffffffffffffffffffffffffffffffffffffff1673ffffffffffffffffffffffffffffffffffffffff168152602001906001019080831161122c575b5050505050905090565b3373ffffffffffffffffffffffffffffffffffffffff167fe826f71647b8486f2bae59832124c70792fba044036720a54ec8dacdd5df4fcb600a836040516112c9929190612e28565b60405180910390a280600a90816112e09190612cd2565b5050565b60405180608001604052808581526020018473ffffffffffffffffffffffffffffffffffffffff1681526020018381526020018281525060106000600b54815260200190815260200160002060008201518160000190816113459190612cd2565b5060208201518160010160006101000a81548173ffffffffffffffffffffffffffffffffffffffff021916908373ffffffffffffffffffffffffffffffffffffffff16021790555060408201518160020190816113a29190612cd2565b5060608201518160030155905050600060106000600b5481526020019081526020016000206040518060800160405290816000820180546113e290612af5565b80601f016020809104026020016040519081016040528092919081815260200182805461140e90612af5565b801561145b5780601f106114305761010080835404028352916020019161145b565b820191906000526020600020905b81548152906001019060200180831161143e57829003601f168201915b505050505081526020016001820160009054906101000a900473ffffffffffffffffffffffffffffffffffffffff1673ffffffffffffffffffffffffffffffffffffffff1673ffffffffffffffffffffffffffffffffffffffff1681526020016002820180546114ca90612af5565b80601f01602080910402602001604051908101604052809291908181526020018280546114f690612af5565b80156115435780601f1061151857610100808354040283529160200191611543565b820191906000526020600020905b81548152906001019060200180831161152657829003601f168201915b50505050508152602001600382015481525050905060008160600151036115805761157b8160200151826000015183604001516119ab565b6115a5565b60018160600151036115a4576115a3816020015182600001518360400151611c3e565b5b5b6001600b546115b49190612e8e565b600b819055507f43fa451d1fb47cf164ccb6a777532e04af59430576b822519086e12fa351f1518160200151826040015160016040516115f693929190612ec2565b60405180910390a16001601182604001516040516116149190612aaf565b908152602001604051809103902060006101000a81548160ff0219169083151502179055505050505050565b600e602052816000526040600020818154811061165c57600080fd5b9060005260206000200160009150915050805461167890612af5565b80601f01602080910402602001604051908101604052809291908181526020018280546116a490612af5565b80156116f15780601f106116c6576101008083540402835291602001916116f1565b820191906000526020600020905b8154815290600101906020018083116116d457829003601f168201915b505050505081565b60606040518060600160405280602a8152602001612f6d602a9139905090565b60136020528060005260406000206000915054906101000a900460ff1681565b6060600e60008373ffffffffffffffffffffffffffffffffffffffff1673ffffffffffffffffffffffffffffffffffffffff168152602001908152602001600020805480602002602001604051908101604052809291908181526020016000905b828210156118465783829060005260206000200180546117b990612af5565b80601f01602080910402602001604051908101604052809291908181526020018280546117e590612af5565b80156118325780601f1061180757610100808354040283529160200191611832565b820191906000526020600020905b81548152906001019060200180831161181557829003601f168201915b50505050508152602001906001019061179a565b505050509050919050565b60126020528060005260406000206000915090508060000160009054906101000a900473ffffffffffffffffffffffffffffffffffffffff169080600101805461189a90612af5565b80601f01602080910402602001604051908101604052809291908181526020018280546118c690612af5565b80156119135780601f106118e857610100808354040283529160200191611913565b820191906000526020600020905b8154815290600101906020018083116118f657829003601f168201915b50505050509080600201805461192890612af5565b80601f016020809104026020016040519081016040528092919081815260200182805461195490612af5565b80156119a15780601f10611976576101008083540402835291602001916119a1565b820191906000526020600020905b81548152906001019060200180831161198457829003601f168201915b5050505050905083565b601460008473ffffffffffffffffffffffffffffffffffffffff1673ffffffffffffffffffffffffffffffffffffffff16815260200190815260200160002060009054906101000a900460ff1615611a38576040517f08c379a0000000000000000000000000000000000000000000000000000000008152600401611a2f90612f4c565b60405180910390fd5b600c839080600181540180825580915050600190039060005260206000200160009091909190916101000a81548173ffffffffffffffffffffffffffffffffffffffff021916908373ffffffffffffffffffffffffffffffffffffffff1602179055506001601460008573ffffffffffffffffffffffffffffffffffffffff1673ffffffffffffffffffffffffffffffffffffffff16815260200190815260200160002060006101000a81548160ff021916908315150217905550611afb611f61565b83816000019073ffffffffffffffffffffffffffffffffffffffff16908173ffffffffffffffffffffffffffffffffffffffff168152505082816020018190525081816040018190525080601260008673ffffffffffffffffffffffffffffffffffffffff1673ffffffffffffffffffffffffffffffffffffffff16815260200190815260200160002060008201518160000160006101000a81548173ffffffffffffffffffffffffffffffffffffffff021916908373ffffffffffffffffffffffffffffffffffffffff1602179055506020820151816001019081611be19190612cd2565b506040820151816002019081611bf79190612cd2565b509050507f5d8da039f46939dac1f22e6429f726ab699d613ead17618999c45147211fb9d383858442604051611c309493929190612421565b60405180910390a150505050565b601360008473ffffffffffffffffffffffffffffffffffffffff1673ffffffffffffffffffffffffffffffffffffffff16815260200190815260200160002060009054906101000a900460ff1615611ccb576040517f08c379a0000000000000000000000000000000000000000000000000000000008152600401611cc290612f4c565b60405180910390fd5b600d839080600181540180825580915050600190039060005260206000200160009091909190916101000a81548173ffffffffffffffffffffffffffffffffffffffff021916908373ffffffffffffffffffffffffffffffffffffffff1602179055506001601360008573ffffffffffffffffffffffffffffffffffffffff1673ffffffffffffffffffffffffffffffffffffffff16815260200190815260200160002060006101000a81548160ff021916908315150217905550611d8e611f61565b83816000019073ffffffffffffffffffffffffffffffffffffffff16908173ffffffffffffffffffffffffffffffffffffffff168152505082816020018190525081816040018190525080601260008673ffffffffffffffffffffffffffffffffffffffff1673ffffffffffffffffffffffffffffffffffffffff16815260200190815260200160002060008201518160000160006101000a81548173ffffffffffffffffffffffffffffffffffffffff021916908373ffffffffffffffffffffffffffffffffffffffff1602179055506020820151816001019081611e749190612cd2565b506040820151816002019081611e8a9190612cd2565b509050507f465daa34e4a04fd10e1b1da9ecb97133b5ff5b459841488cb1d9128dd793fd4d83858442604051611ec39493929190612421565b60405180910390a150505050565b60405180608001604052806060815260200160608152602001600073ffffffffffffffffffffffffffffffffffffffff168152602001611f0f611f15565b81525090565b6040518060c00160405280600073ffffffffffffffffffffffffffffffffffffffff16815260200160008152602001600081526020016000815260200160608152602001606081525090565b6040518060600160405280600073ffffffffffffffffffffffffffffffffffffffff16815260200160608152602001606081525090565b600073ffffffffffffffffffffffffffffffffffffffff82169050919050565b6000611fc382611f98565b9050919050565b611fd381611fb8565b82525050565b6000819050919050565b611fec81611fd9565b82525050565b60006040820190506120076000830185611fca565b6120146020830184611fe3565b9392505050565b6000604051905090565b600080fd5b600080fd5b600080fd5b600080fd5b6000601f19601f8301169050919050565b7f4e487b7100000000000000000000000000000000000000000000000000000000600052604160045260246000fd5b61208282612039565b810181811067ffffffffffffffff821117156120a1576120a061204a565b5b80604052505050565b60006120b461201b565b90506120c08282612079565b919050565b600067ffffffffffffffff8211156120e0576120df61204a565b5b6120e982612039565b9050602081019050919050565b82818337600083830152505050565b6000612118612113846120c5565b6120aa565b90508281526020810184848401111561213457612133612034565b5b61213f8482856120f6565b509392505050565b600082601f83011261215c5761215b61202f565b5b813561216c848260208601612105565b91505092915050565b60006020828403121561218b5761218a612025565b5b600082013567ffffffffffffffff8111156121a9576121a861202a565b5b6121b584828501612147565b91505092915050565b600081519050919050565b600082825260208201905092915050565b60005b838110156121f85780820151818401526020810190506121dd565b60008484015250505050565b600061220f826121be565b61221981856121c9565b93506122298185602086016121da565b61223281612039565b840191505092915050565b61224681611fb8565b82525050565b61225581611fd9565b82525050565b600060c083016000830151612273600086018261223d565b506020830151612286602086018261224c565b506040830151612299604086018261224c565b5060608301516122ac606086018261224c565b50608083015184820360808601526122c48282612204565b91505060a083015184820360a08601526122de8282612204565b9150508091505092915050565b600060808301600083015184820360008601526123088282612204565b915050602083015184820360208601526123228282612204565b9150506040830151612337604086018261223d565b506060830151848203606086015261234f828261225b565b9150508091505092915050565b6000602082019050818103600083015261237681846122eb565b905092915050565b61238781611fd9565b811461239257600080fd5b50565b6000813590506123a48161237e565b92915050565b6000602082840312156123c0576123bf612025565b5b60006123ce84828501612395565b91505092915050565b600082825260208201905092915050565b60006123f3826121be565b6123fd81856123d7565b935061240d8185602086016121da565b61241681612039565b840191505092915050565b6000608082019050818103600083015261243b81876123e8565b905061244a6020830186611fca565b818103604083015261245c81856123e8565b905061246b6060830184611fe3565b95945050505050565b600080600080600080600060e0888a03121561249357612492612025565b5b600088013567ffffffffffffffff8111156124b1576124b061202a565b5b6124bd8a828b01612147565b975050602088013567ffffffffffffffff8111156124de576124dd61202a565b5b6124ea8a828b01612147565b96505060406124fb8a828b01612395565b955050606061250c8a828b01612395565b945050608061251d8a828b01612395565b93505060a088013567ffffffffffffffff81111561253e5761253d61202a565b5b61254a8a828b01612147565b92505060c088013567ffffffffffffffff81111561256b5761256a61202a565b5b6125778a828b01612147565b91505092959891949750929550565b600081519050919050565b600082825260208201905092915050565b6000819050602082019050919050565b60006125be838361223d565b60208301905092915050565b6000602082019050919050565b60006125e282612586565b6125ec8185612591565b93506125f7836125a2565b8060005b8381101561262857815161260f88826125b2565b975061261a836125ca565b9250506001810190506125fb565b5085935050505092915050565b6000602082019050818103600083015261264f81846125d7565b905092915050565b61266081611fb8565b811461266b57600080fd5b50565b60008135905061267d81612657565b92915050565b60006020828403121561269957612698612025565b5b60006126a78482850161266e565b91505092915050565b60006060830160008301516126c8600086018261223d565b50602083015184820360208601526126e08282612204565b915050604083015184820360408601526126fa8282612204565b9150508091505092915050565b6000602082019050818103600083015261272181846126b0565b905092915050565b6000602082019050818103600083015261274381846123e8565b905092915050565b60008115159050919050565b6127608161274b565b82525050565b600060208201905061277b6000830184612757565b92915050565b600060c083016000830151612799600086018261223d565b5060208301516127ac602086018261224c565b5060408301516127bf604086018261224c565b5060608301516127d2606086018261224c565b50608083015184820360808601526127ea8282612204565b91505060a083015184820360a08601526128048282612204565b9150508091505092915050565b6000608082019050818103600083015261282b81876123e8565b9050818103602083015261283f81866123e8565b905061284e6040830185611fca565b81810360608301526128608184612781565b905095945050505050565b6000806000806080858703121561288557612884612025565b5b600085013567ffffffffffffffff8111156128a3576128a261202a565b5b6128af87828801612147565b94505060206128c08782880161266e565b935050604085013567ffffffffffffffff8111156128e1576128e061202a565b5b6128ed87828801612147565b92505060606128fe87828801612395565b91505092959194509250565b6000806040838503121561292157612920612025565b5b600061292f8582860161266e565b925050602061294085828601612395565b9150509250929050565b600081519050919050565b600082825260208201905092915050565b6000819050602082019050919050565b60006129828383612204565b905092915050565b6000602082019050919050565b60006129a28261294a565b6129ac8185612955565b9350836020820285016129be85612966565b8060005b858110156129fa57848403895281516129db8582612976565b94506129e68361298a565b925060208a019950506001810190506129c2565b50829750879550505050505092915050565b60006020820190508181036000830152612a268184612997565b905092915050565b6000606082019050612a436000830186611fca565b8181036020830152612a5581856123e8565b90508181036040830152612a6981846123e8565b9050949350505050565b600081905092915050565b6000612a89826121be565b612a938185612a73565b9350612aa38185602086016121da565b80840191505092915050565b6000612abb8284612a7e565b915081905092915050565b7f4e487b7100000000000000000000000000000000000000000000000000000000600052602260045260246000fd5b60006002820490506001821680612b0d57607f821691505b602082108103612b2057612b1f612ac6565b5b50919050565b60008190508160005260206000209050919050565b60006020601f8301049050919050565b600082821b905092915050565b600060088302612b887fffffffffffffffffffffffffffffffffffffffffffffffffffffffffffffffff82612b4b565b612b928683612b4b565b95508019841693508086168417925050509392505050565b6000819050919050565b6000612bcf612bca612bc584611fd9565b612baa565b611fd9565b9050919050565b6000819050919050565b612be983612bb4565b612bfd612bf582612bd6565b848454612b58565b825550505050565b600090565b612c12612c05565b612c1d818484612be0565b505050565b5b81811015612c4157612c36600082612c0a565b600181019050612c23565b5050565b601f821115612c8657612c5781612b26565b612c6084612b3b565b81016020851015612c6f578190505b612c83612c7b85612b3b565b830182612c22565b50505b505050565b600082821c905092915050565b6000612ca960001984600802612c8b565b1980831691505092915050565b6000612cc28383612c98565b9150826002028217905092915050565b612cdb826121be565b67ffffffffffffffff811115612cf457612cf361204a565b5b612cfe8254612af5565b612d09828285612c45565b600060209050601f831160018114612d3c5760008415612d2a578287015190505b612d348582612cb6565b865550612d9c565b601f198416612d4a86612b26565b60005b82811015612d7257848901518255600182019150602085019450602081019050612d4d565b86831015612d8f5784890151612d8b601f891682612c98565b8355505b6001600288020188555050505b505050505050565b60008154612db181612af5565b612dbb81866123d7565b94506001821660008114612dd65760018114612dec57612e1f565b60ff198316865281151560200286019350612e1f565b612df585612b26565b60005b83811015612e1757815481890152600182019150602081019050612df8565b808801955050505b50505092915050565b60006040820190508181036000830152612e428185612da4565b90508181036020830152612e5681846123e8565b90509392505050565b7f4e487b7100000000000000000000000000000000000000000000000000000000600052601160045260246000fd5b6000612e9982611fd9565b9150612ea483611fd9565b9250828201905080821115612ebc57612ebb612e5f565b5b92915050565b6000606082019050612ed76000830186611fca565b8181036020830152612ee981856123e8565b9050612ef86040830184612757565b949350505050565b7f416c726561647920726567697374657265642100000000000000000000000000600082015250565b6000612f366013836123d7565b9150612f4182612f00565b602082019050919050565b60006020820190508181036000830152612f6581612f29565b905091905056fe48656c6c6f212054686520436f6e747261637420697320636f6e6e656374656420776974682077656233a2646970667358221220ca4b133745c1875cf4c422faca145d2ff6f1f76faecb90db5cae8bf161c471d064736f6c63430008110033",
  "immutableReferences": {},
  "source": "// SPDX-License-Identifier: MIT\r\npragma solidity ^0.8.0;\r\n\r\n// [X] 1  - Apply for verification as Doctor/Hospital\r\n// [X] 2  - Find Patient/User Reports Collection\r\n// [X] 3  - Find Doctors\r\n// [X] 4  - Find Hospitals\r\n// [X] 5  - Send Report to Doctor/Hospital for analysis\r\n// [ ] 6  - Send Report Analysis back to patient\r\n// [ ] 7  - Reviews Doctor/Hospital on receiving the report\r\n// [X] 8  - Find authorized Doctor/Hospital\r\n\r\nimport \"@chainlink/contracts/src/v0.8/ChainlinkClient.sol\";\r\n\r\ncontract DoctorWeb3 is ChainlinkClient {\r\n    using Chainlink for Chainlink.Request;\r\n    address owner;\r\n    address private oracle;\r\n    bytes32 private jobId;\r\n    uint256 private fee;\r\n    string _value;\r\n    uint256 requestId;\r\n\r\n    constructor() {\r\n        owner = msg.sender;\r\n        setChainlinkToken(0x326C977E6efc84E512bB9C30f76E30c160eD06FB);\r\n        oracle = 0x40193c8518BB267228Fc409a613bDbD8eC5a97b3;\r\n        jobId = \"ca98366cc7314957b8c012c72f05aeeb\";\r\n        fee = 0.1 * 10 ** 18; // 0.1 LINK\r\n        _value = \"hello\";\r\n        requestId = 1;\r\n\r\n    }\r\n    event ValueChanged(address indexed author, string oldValue, string newValue);\r\n\r\n\r\n    struct PatientInfo {\r\n        address patient;\r\n        uint256 age;\r\n        uint256 weight;\r\n        uint256 height;\r\n        string gender;\r\n        string bloodGroup;\r\n    }\r\n\r\n    struct Report {\r\n        string fileHash;\r\n        string category;\r\n        address Patient;\r\n        PatientInfo patientInfo;\r\n    }\r\n\r\n    struct Applicant {\r\n        string name;\r\n        address applicantAddress;\r\n        string medicalId;\r\n        uint256 applicantType; // 0 = Doctor, 1 = Hospital\r\n    }\r\n\r\n    struct AuthorizedDHDetails {\r\n        address authorizedDHAddress;\r\n        string name;\r\n        string medicalId;\r\n    }\r\n\r\n    address[] Doctors;\r\n    address[] Hospitals;\r\n    mapping(address => string[]) public PatientReports; // Maps Patient's address to its reports\r\n    mapping(string => Report) public Reports; // Maps report hash value from IPFS to Report Datatype\r\n    //mapping(bytes32 => Applicant) public Applicants; // Maps address of applicant to Applicant DataType\r\n    mapping(uint256 => Applicant) public Applicants;\r\n    mapping(string => bool) private medicalIdUsed; // Maps medicalId to boolean\r\n    mapping(address => AuthorizedDHDetails) public AuthorizedDH; // Maps address of authorized Doctor or hospital with their details\r\n    mapping(address => bool) public AuthorisedHospital;\r\n    mapping(address => bool) public AuthorisedDoctor;\r\n\r\n    event AuthorizationResult(\r\n        address applicantAddress,\r\n        string medicalId,\r\n        bool status\r\n    );\r\n\r\n    event DoctorAuthorized(\r\n        string name,\r\n        address _authAddress,\r\n        string medicalId,\r\n        uint AuthOnDate\r\n    );\r\n\r\n    event HospitalAuthorized(\r\n        string name,\r\n        address _authAddress,\r\n        string medicalId,\r\n        uint AuthOnDate\r\n    );\r\n\r\n    function getValue() view public returns (string memory) {\r\n        return _value;\r\n    }\r\n\r\n    function setValue(string memory value) public {\r\n        emit ValueChanged(msg.sender, _value, value);\r\n        _value = value;\r\n    }\r\n\r\n    function testFunction() public pure returns (string memory myString) {\r\n        return \"Hello! The Contract is connected with web3\";\r\n    }\r\n\r\n    event Received(address, uint);\r\n    receive() external payable {\r\n        emit Received(msg.sender, msg.value);\r\n    }\r\n\r\n    function getPatientReports(address _address)\r\n        public\r\n        view\r\n        returns (string[] memory)\r\n    {\r\n        return PatientReports[_address];\r\n    }\r\n\r\n    function getDetailedReports(string memory _fileHash)\r\n        public\r\n        view\r\n        returns (Report memory)\r\n    {\r\n        return Reports[_fileHash];\r\n    }\r\n\r\n    function findDoctors() public view returns (address[] memory) {\r\n        return Doctors;\r\n    }\r\n\r\n    function findHospitals() public view returns (address[] memory) {\r\n        return Hospitals;\r\n    }\r\n\r\n    function getAuthorizedDHDetails(address _address) public view returns (AuthorizedDHDetails memory) {\r\n        return AuthorizedDH[_address];\r\n    }\r\n\r\n    /* function ApplyForVerification(\r\n        string memory _name,\r\n        address _applicantAddress,\r\n        string memory _medicalId,\r\n        uint256 _applicantType\r\n    ) public returns (bytes32 requestId) {\r\n        require(_applicantType == 1 || _applicantType == 0,\"Apply id should be either 0 or 1\");\r\n        require(!medicalIdUsed[_medicalId], \"Medical ID is already used\"); // Stopping function spamming\r\n\r\n        //ChainLink Code for Verification\r\n\r\n        Chainlink.Request memory request = buildChainlinkRequest(jobId, address(this), this.fulfill.selector);\r\n        request.add(\"get\", \"https://mocki.io/v1/9471e151-4903-43bb-8bf9-45e98994672b\");\r\n\r\n        //Set the path {\"data\":{\"id\":100}}\r\n\r\n        request.add(\"path\", \"data,id\");\r\n\r\n        requestId = sendChainlinkRequestTo(oracle, request, fee);\r\n        Applicants[requestId] = Applicant(\r\n            _name,\r\n            _applicantAddress,\r\n            _medicalId,\r\n            _applicantType\r\n        );\r\n\r\n        return requestId;\r\n    }\r\n\r\n    function fulfill(bytes32 _requestId, uint256 _verification)\r\n        public\r\n        recordChainlinkFulfillment(_requestId)\r\n    {\r\n        Applicant memory applicant = Applicants[_requestId];\r\n        if (_verification == 100) {\r\n            if (applicant.applicantType == 0) {\r\n                addAuthorizedDoctor(\r\n                    applicant.applicantAddress,\r\n                    applicant.name,\r\n                    applicant.medicalId\r\n                );\r\n            } else {\r\n                addAuthorizedHospital(\r\n                    applicant.applicantAddress,\r\n                    applicant.name,\r\n                    applicant.medicalId\r\n                );\r\n            }\r\n            emit AuthorizationResult(applicant.applicantAddress, applicant.medicalId, true);\r\n        } else {\r\n            emit AuthorizationResult(applicant.applicantAddress, applicant.medicalId, false);\r\n        }\r\n        medicalIdUsed[applicant.medicalId] = true;\r\n    } */\r\n\r\n    function ApplyForVerification(\r\n        string memory _name,\r\n        address _applicantAddress,\r\n        string memory _medicalId,\r\n        uint256 _applicantType\r\n    ) public {\r\n        //require(_applicantType == 1 || _applicantType == 0,\"Apply id should be either 0 or 1\");\r\n        //require(!medicalIdUsed[_medicalId], \"Medical ID is already used\"); // Stopping function spamming\r\n        Applicants[requestId] = Applicant(\r\n            _name,\r\n            _applicantAddress,\r\n            _medicalId,\r\n            _applicantType\r\n        );\r\n\r\n        Applicant memory applicant = Applicants[requestId];\r\n\r\n        if (applicant.applicantType == 0) {\r\n                addAuthorizedDoctor(\r\n                    applicant.applicantAddress,\r\n                    applicant.name,\r\n                    applicant.medicalId\r\n                );\r\n            } else if (applicant.applicantType == 1)  {\r\n                addAuthorizedHospital(\r\n                    applicant.applicantAddress,\r\n                    applicant.name,\r\n                    applicant.medicalId\r\n                );\r\n            }\r\n        requestId = requestId + 1;\r\n        emit AuthorizationResult(applicant.applicantAddress, applicant.medicalId, true);\r\n        medicalIdUsed[applicant.medicalId] = true;\r\n\r\n    }\r\n\r\n    function addAuthorizedDoctor(\r\n        address _authAddress,\r\n        string memory _name,\r\n        string memory _medicalId\r\n    ) private {\r\n        require(!AuthorisedDoctor[_authAddress], \"Already registered!\");\r\n        Doctors.push(_authAddress);\r\n        AuthorisedDoctor[_authAddress] = true;\r\n\r\n        AuthorizedDHDetails memory _authorizedDHDetail;\r\n\r\n        _authorizedDHDetail.authorizedDHAddress = _authAddress;\r\n        _authorizedDHDetail.name = _name;\r\n        _authorizedDHDetail.medicalId = _medicalId;\r\n\r\n        AuthorizedDH[_authAddress] = _authorizedDHDetail;\r\n\r\n        emit DoctorAuthorized(_name, _authAddress, _medicalId, block.timestamp);\r\n    }\r\n\r\n    function addAuthorizedHospital(\r\n        address _authAddress,\r\n        string memory _name,\r\n        string memory _medicalId\r\n    ) private {\r\n        require(!AuthorisedHospital[_authAddress], \"Already registered!\");\r\n        Hospitals.push(_authAddress);\r\n        AuthorisedHospital[_authAddress] = true;\r\n\r\n        AuthorizedDHDetails memory _authorizedDHDetail;\r\n\r\n        _authorizedDHDetail.authorizedDHAddress = _authAddress;\r\n        _authorizedDHDetail.name = _name;\r\n        _authorizedDHDetail.medicalId = _medicalId;\r\n\r\n        AuthorizedDH[_authAddress] = _authorizedDHDetail;\r\n\r\n        emit HospitalAuthorized(_name, _authAddress, _medicalId, block.timestamp);\r\n    }\r\n\r\n    function uploadReport(\r\n        string memory _fileHash,\r\n        string memory _category,\r\n        uint256 _age,\r\n        uint256 _weight,\r\n        uint256 _height,\r\n        string memory _gender,\r\n        string memory _bloodGroup\r\n    ) public {\r\n        PatientInfo memory _patientInfo;\r\n        Report memory _report;\r\n\r\n        _patientInfo.patient = msg.sender;\r\n        _patientInfo.age = _age;\r\n        _patientInfo.bloodGroup = _bloodGroup;\r\n        _patientInfo.gender = _gender;\r\n        _patientInfo.weight = _weight;\r\n        _patientInfo.height = _height;\r\n\r\n        _report.fileHash = _fileHash;\r\n        _report.Patient = msg.sender;\r\n        _report.category = _category;\r\n        _report.patientInfo = _patientInfo;\r\n\r\n        Reports[_fileHash] = _report;\r\n        PatientReports[msg.sender].push(_fileHash);\r\n    }\r\n\r\n}\r\n",
  "sourcePath": "D:\\OLD_PC\\JavaScript_apps\\React\\DoctorWeb3\\doctorweb3\\src\\contracts\\DoctorWeb3.sol",
  "compiler": {
    "name": "solc",
    "version": "0.8.17+commit.8df45f5f.Emscripten.clang"
  },
  "schemaVersion": "3.4.9",
  "updatedAt": "2022-11-21T18:45:07.731Z",
  "networkType": "ethereum",
  "devdoc": {
    "kind": "dev",
    "methods": {},
    "version": 1
  },
  "userdoc": {
    "kind": "user",
    "methods": {},
    "version": 1
  }
}