{
  "contractName": "DoctorWeb3",
  "abi": [
    {
      "inputs": [],
      "stateMutability": "nonpayable",
      "type": "constructor"
    },
    {
      "anonymous": false,
      "inputs": [
        {
          "indexed": false,
          "internalType": "address",
          "name": "applicantAddress",
          "type": "address"
        },
        {
          "indexed": false,
          "internalType": "string",
          "name": "medicalId",
          "type": "string"
        },
        {
          "indexed": false,
          "internalType": "bool",
          "name": "status",
          "type": "bool"
        }
      ],
      "name": "AuthorizationResult",
      "type": "event"
    },
    {
      "anonymous": false,
      "inputs": [
        {
          "indexed": true,
          "internalType": "bytes32",
          "name": "id",
          "type": "bytes32"
        }
      ],
      "name": "ChainlinkCancelled",
      "type": "event"
    },
    {
      "anonymous": false,
      "inputs": [
        {
          "indexed": true,
          "internalType": "bytes32",
          "name": "id",
          "type": "bytes32"
        }
      ],
      "name": "ChainlinkFulfilled",
      "type": "event"
    },
    {
      "anonymous": false,
      "inputs": [
        {
          "indexed": true,
          "internalType": "bytes32",
          "name": "id",
          "type": "bytes32"
        }
      ],
      "name": "ChainlinkRequested",
      "type": "event"
    },
    {
      "anonymous": false,
      "inputs": [
        {
          "indexed": false,
          "internalType": "string",
          "name": "name",
          "type": "string"
        },
        {
          "indexed": false,
          "internalType": "address",
          "name": "_authAddress",
          "type": "address"
        },
        {
          "indexed": false,
          "internalType": "string",
          "name": "medicalId",
          "type": "string"
        },
        {
          "indexed": false,
          "internalType": "uint256",
          "name": "AuthOnDate",
          "type": "uint256"
        }
      ],
      "name": "DoctorAuthorized",
      "type": "event"
    },
    {
      "anonymous": false,
      "inputs": [
        {
          "indexed": false,
          "internalType": "string",
          "name": "name",
          "type": "string"
        },
        {
          "indexed": false,
          "internalType": "address",
          "name": "_authAddress",
          "type": "address"
        },
        {
          "indexed": false,
          "internalType": "string",
          "name": "medicalId",
          "type": "string"
        },
        {
          "indexed": false,
          "internalType": "uint256",
          "name": "AuthOnDate",
          "type": "uint256"
        }
      ],
      "name": "HospitalAuthorized",
      "type": "event"
    },
    {
      "anonymous": false,
      "inputs": [
        {
          "indexed": false,
          "internalType": "address",
          "name": "",
          "type": "address"
        },
        {
          "indexed": false,
          "internalType": "uint256",
          "name": "",
          "type": "uint256"
        }
      ],
      "name": "Received",
      "type": "event"
    },
    {
      "anonymous": false,
      "inputs": [
        {
          "indexed": true,
          "internalType": "address",
          "name": "author",
          "type": "address"
        },
        {
          "indexed": false,
          "internalType": "string",
          "name": "oldValue",
          "type": "string"
        },
        {
          "indexed": false,
          "internalType": "string",
          "name": "newValue",
          "type": "string"
        }
      ],
      "name": "ValueChanged",
      "type": "event"
    },
    {
      "inputs": [
        {
          "internalType": "uint256",
          "name": "",
          "type": "uint256"
        }
      ],
      "name": "Applicants",
      "outputs": [
        {
          "internalType": "string",
          "name": "name",
          "type": "string"
        },
        {
          "internalType": "address",
          "name": "applicantAddress",
          "type": "address"
        },
        {
          "internalType": "string",
          "name": "medicalId",
          "type": "string"
        },
        {
          "internalType": "uint256",
          "name": "applicantType",
          "type": "uint256"
        }
      ],
      "stateMutability": "view",
      "type": "function",
      "constant": true
    },
    {
      "inputs": [
        {
          "internalType": "address",
          "name": "",
          "type": "address"
        }
      ],
      "name": "AuthorisedDoctor",
      "outputs": [
        {
          "internalType": "bool",
          "name": "",
          "type": "bool"
        }
      ],
      "stateMutability": "view",
      "type": "function",
      "constant": true
    },
    {
      "inputs": [
        {
          "internalType": "address",
          "name": "",
          "type": "address"
        }
      ],
      "name": "AuthorisedHospital",
      "outputs": [
        {
          "internalType": "bool",
          "name": "",
          "type": "bool"
        }
      ],
      "stateMutability": "view",
      "type": "function",
      "constant": true
    },
    {
      "inputs": [
        {
          "internalType": "address",
          "name": "",
          "type": "address"
        }
      ],
      "name": "AuthorizedDH",
      "outputs": [
        {
          "internalType": "address",
          "name": "authorizedDHAddress",
          "type": "address"
        },
        {
          "internalType": "string",
          "name": "name",
          "type": "string"
        },
        {
          "internalType": "string",
          "name": "medicalId",
          "type": "string"
        }
      ],
      "stateMutability": "view",
      "type": "function",
      "constant": true
    },
    {
      "inputs": [
        {
          "internalType": "address",
          "name": "",
          "type": "address"
        },
        {
          "internalType": "uint256",
          "name": "",
          "type": "uint256"
        }
      ],
      "name": "PatientReports",
      "outputs": [
        {
          "internalType": "string",
          "name": "",
          "type": "string"
        }
      ],
      "stateMutability": "view",
      "type": "function",
      "constant": true
    },
    {
      "inputs": [
        {
          "internalType": "string",
          "name": "",
          "type": "string"
        }
      ],
      "name": "Reports",
      "outputs": [
        {
          "internalType": "string",
          "name": "fileHash",
          "type": "string"
        },
        {
          "internalType": "string",
          "name": "category",
          "type": "string"
        },
        {
          "internalType": "address",
          "name": "Patient",
          "type": "address"
        },
        {
          "components": [
            {
              "internalType": "address",
              "name": "patient",
              "type": "address"
            },
            {
              "internalType": "uint256",
              "name": "age",
              "type": "uint256"
            },
            {
              "internalType": "uint256",
              "name": "weight",
              "type": "uint256"
            },
            {
              "internalType": "uint256",
              "name": "height",
              "type": "uint256"
            },
            {
              "internalType": "string",
              "name": "gender",
              "type": "string"
            },
            {
              "internalType": "string",
              "name": "bloodGroup",
              "type": "string"
            }
          ],
          "internalType": "struct DoctorWeb3.PatientInfo",
          "name": "patientInfo",
          "type": "tuple"
        }
      ],
      "stateMutability": "view",
      "type": "function",
      "constant": true
    },
    {
      "stateMutability": "payable",
      "type": "receive",
      "payable": true
    },
    {
      "inputs": [],
      "name": "getValue",
      "outputs": [
        {
          "internalType": "string",
          "name": "",
          "type": "string"
        }
      ],
      "stateMutability": "view",
      "type": "function",
      "constant": true
    },
    {
      "inputs": [
        {
          "internalType": "string",
          "name": "value",
          "type": "string"
        }
      ],
      "name": "setValue",
      "outputs": [],
      "stateMutability": "nonpayable",
      "type": "function"
    },
    {
      "inputs": [],
      "name": "testFunction",
      "outputs": [
        {
          "internalType": "string",
          "name": "myString",
          "type": "string"
        }
      ],
      "stateMutability": "pure",
      "type": "function",
      "constant": true
    },
    {
      "inputs": [
        {
          "internalType": "address",
          "name": "_address",
          "type": "address"
        }
      ],
      "name": "getPatientReports",
      "outputs": [
        {
          "internalType": "string[]",
          "name": "",
          "type": "string[]"
        }
      ],
      "stateMutability": "view",
      "type": "function",
      "constant": true
    },
    {
      "inputs": [
        {
          "internalType": "string",
          "name": "_fileHash",
          "type": "string"
        }
      ],
      "name": "getDetailedReports",
      "outputs": [
        {
          "components": [
            {
              "internalType": "string",
              "name": "fileHash",
              "type": "string"
            },
            {
              "internalType": "string",
              "name": "category",
              "type": "string"
            },
            {
              "internalType": "address",
              "name": "Patient",
              "type": "address"
            },
            {
              "components": [
                {
                  "internalType": "address",
                  "name": "patient",
                  "type": "address"
                },
                {
                  "internalType": "uint256",
                  "name": "age",
                  "type": "uint256"
                },
                {
                  "internalType": "uint256",
                  "name": "weight",
                  "type": "uint256"
                },
                {
                  "internalType": "uint256",
                  "name": "height",
                  "type": "uint256"
                },
                {
                  "internalType": "string",
                  "name": "gender",
                  "type": "string"
                },
                {
                  "internalType": "string",
                  "name": "bloodGroup",
                  "type": "string"
                }
              ],
              "internalType": "struct DoctorWeb3.PatientInfo",
              "name": "patientInfo",
              "type": "tuple"
            }
          ],
          "internalType": "struct DoctorWeb3.Report",
          "name": "",
          "type": "tuple"
        }
      ],
      "stateMutability": "view",
      "type": "function",
      "constant": true
    },
    {
      "inputs": [],
      "name": "findDoctors",
      "outputs": [
        {
          "internalType": "address[]",
          "name": "",
          "type": "address[]"
        }
      ],
      "stateMutability": "view",
      "type": "function",
      "constant": true
    },
    {
      "inputs": [],
      "name": "findHospitals",
      "outputs": [
        {
          "internalType": "address[]",
          "name": "",
          "type": "address[]"
        }
      ],
      "stateMutability": "view",
      "type": "function",
      "constant": true
    },
    {
      "inputs": [
        {
          "internalType": "address",
          "name": "_addr",
          "type": "address"
        }
      ],
      "name": "getAuthorizedDHDetails",
      "outputs": [
        {
          "internalType": "address",
          "name": "",
          "type": "address"
        },
        {
          "internalType": "string",
          "name": "",
          "type": "string"
        },
        {
          "internalType": "string",
          "name": "",
          "type": "string"
        }
      ],
      "stateMutability": "view",
      "type": "function",
      "constant": true
    },
    {
      "inputs": [
        {
          "internalType": "string",
          "name": "_name",
          "type": "string"
        },
        {
          "internalType": "address",
          "name": "_applicantAddress",
          "type": "address"
        },
        {
          "internalType": "string",
          "name": "_medicalId",
          "type": "string"
        },
        {
          "internalType": "uint256",
          "name": "_applicantType",
          "type": "uint256"
        }
      ],
      "name": "ApplyForVerification",
      "outputs": [],
      "stateMutability": "nonpayable",
      "type": "function"
    },
    {
      "inputs": [
        {
          "internalType": "string",
          "name": "_fileHash",
          "type": "string"
        },
        {
          "internalType": "string",
          "name": "_category",
          "type": "string"
        },
        {
          "internalType": "uint256",
          "name": "_age",
          "type": "uint256"
        },
        {
          "internalType": "uint256",
          "name": "_weight",
          "type": "uint256"
        },
        {
          "internalType": "uint256",
          "name": "_height",
          "type": "uint256"
        },
        {
          "internalType": "string",
          "name": "_gender",
          "type": "string"
        },
        {
          "internalType": "string",
          "name": "_bloodGroup",
          "type": "string"
        }
      ],
      "name": "uploadReport",
      "outputs": [],
      "stateMutability": "nonpayable",
      "type": "function"
    }
  ],
  "bytecode": "0x608060405260016004553480156200001657600080fd5b5033600660006101000a81548173ffffffffffffffffffffffffffffffffffffffff021916908373ffffffffffffffffffffffffffffffffffffffff1602179055506200007d73326c977e6efc84e512bb9c30f76e30c160ed06fb6200015d60201b60201c565b7340193c8518bb267228fc409a613bdbd8ec5a97b3600760006101000a81548173ffffffffffffffffffffffffffffffffffffffff021916908373ffffffffffffffffffffffffffffffffffffffff1602179055507f636139383336366363373331343935376238633031326337326630356165656260088190555067016345785d8a00006009819055506040518060400160405280600581526020017f68656c6c6f000000000000000000000000000000000000000000000000000000815250600a90816200014e91906200041b565b506001600b8190555062000502565b80600260006101000a81548173ffffffffffffffffffffffffffffffffffffffff021916908373ffffffffffffffffffffffffffffffffffffffff16021790555050565b600081519050919050565b7f4e487b7100000000000000000000000000000000000000000000000000000000600052604160045260246000fd5b7f4e487b7100000000000000000000000000000000000000000000000000000000600052602260045260246000fd5b600060028204905060018216806200022357607f821691505b602082108103620002395762000238620001db565b5b50919050565b60008190508160005260206000209050919050565b60006020601f8301049050919050565b600082821b905092915050565b600060088302620002a37fffffffffffffffffffffffffffffffffffffffffffffffffffffffffffffffff8262000264565b620002af868362000264565b95508019841693508086168417925050509392505050565b6000819050919050565b6000819050919050565b6000620002fc620002f6620002f084620002c7565b620002d1565b620002c7565b9050919050565b6000819050919050565b6200031883620002db565b62000330620003278262000303565b84845462000271565b825550505050565b600090565b6200034762000338565b620003548184846200030d565b505050565b5b818110156200037c57620003706000826200033d565b6001810190506200035a565b5050565b601f821115620003cb5762000395816200023f565b620003a08462000254565b81016020851015620003b0578190505b620003c8620003bf8562000254565b83018262000359565b50505b505050565b600082821c905092915050565b6000620003f060001984600802620003d0565b1980831691505092915050565b60006200040b8383620003dd565b9150826002028217905092915050565b6200042682620001a1565b67ffffffffffffffff811115620004425762000441620001ac565b5b6200044e82546200020a565b6200045b82828562000380565b600060209050601f8311600181146200049357600084156200047e578287015190505b6200048a8582620003fd565b865550620004fa565b601f198416620004a3866200023f565b60005b82811015620004cd57848901518255600182019150602085019450602081019050620004a6565b86831015620004ed5784890151620004e9601f891682620003dd565b8355505b6001600288020188555050505b505050505050565b612f9f80620005126000396000f3fe6080604052600436106100f75760003560e01c80637f5962411161008a578063e16b4a9b11610059578063e16b4a9b146103ae578063e5e78920146103d9578063e65a069114610416578063fcd9f2c01461045357610137565b80637f596241146102f457806393a093521461031f5780639b43ef6514610348578063aa134f1e1461037157610137565b806318718fa9116100c657806318718fa91461020d578063209652551461024c5780635bfc05481461027757806373b911d5146102b457610137565b8063060efe0e1461013c578063064f88c2146101795780631057299c146101b957806312ecfacf146101e257610137565b36610137577f88a5966d370b9919b20f3e2c13ff65706f196a4e32cc2c12bf57088f88525874333460405161012d92919061203e565b60405180910390a1005b600080fd5b34801561014857600080fd5b50610163600480360381019061015e91906121c1565b610492565b60405161017091906123a8565b60405180910390f35b34801561018557600080fd5b506101a0600480360381019061019b91906123f6565b6107f0565b6040516101b0949392919061246d565b60405180910390f35b3480156101c557600080fd5b506101e060048036038101906101db91906124c0565b610950565b005b3480156101ee57600080fd5b506101f7610bc9565b6040516102049190612681565b60405180910390f35b34801561021957600080fd5b50610234600480360381019061022f91906126cf565b610c57565b604051610243939291906126fc565b60405180910390f35b34801561025857600080fd5b50610261610e74565b60405161026e9190612741565b60405180910390f35b34801561028357600080fd5b5061029e600480360381019061029991906126cf565b610f06565b6040516102ab919061277e565b60405180910390f35b3480156102c057600080fd5b506102db60048036038101906102d691906121c1565b610f26565b6040516102eb9493929190612829565b60405180910390f35b34801561030057600080fd5b5061030961123e565b6040516103169190612681565b60405180910390f35b34801561032b57600080fd5b50610346600480360381019061034191906121c1565b6112cc565b005b34801561035457600080fd5b5061036f600480360381019061036a9190612883565b611330565b005b34801561037d57600080fd5b5061039860048036038101906103939190612922565b61168c565b6040516103a59190612741565b60405180910390f35b3480156103ba57600080fd5b506103c3611745565b6040516103d09190612741565b60405180910390f35b3480156103e557600080fd5b5061040060048036038101906103fb91906126cf565b611765565b60405161040d919061277e565b60405180910390f35b34801561042257600080fd5b5061043d600480360381019061043891906126cf565b611785565b60405161044a9190612a24565b60405180910390f35b34801561045f57600080fd5b5061047a600480360381019061047591906126cf565b61189d565b604051610489939291906126fc565b60405180910390f35b61049a611f1d565b600f826040516104aa9190612a82565b90815260200160405180910390206040518060800160405290816000820180546104d390612ac8565b80601f01602080910402602001604051908101604052809291908181526020018280546104ff90612ac8565b801561054c5780601f106105215761010080835404028352916020019161054c565b820191906000526020600020905b81548152906001019060200180831161052f57829003601f168201915b5050505050815260200160018201805461056590612ac8565b80601f016020809104026020016040519081016040528092919081815260200182805461059190612ac8565b80156105de5780601f106105b3576101008083540402835291602001916105de565b820191906000526020600020905b8154815290600101906020018083116105c157829003601f168201915b505050505081526020016002820160009054906101000a900473ffffffffffffffffffffffffffffffffffffffff1673ffffffffffffffffffffffffffffffffffffffff1673ffffffffffffffffffffffffffffffffffffffff168152602001600382016040518060c00160405290816000820160009054906101000a900473ffffffffffffffffffffffffffffffffffffffff1673ffffffffffffffffffffffffffffffffffffffff1673ffffffffffffffffffffffffffffffffffffffff1681526020016001820154815260200160028201548152602001600382015481526020016004820180546106d190612ac8565b80601f01602080910402602001604051908101604052809291908181526020018280546106fd90612ac8565b801561074a5780601f1061071f5761010080835404028352916020019161074a565b820191906000526020600020905b81548152906001019060200180831161072d57829003601f168201915b5050505050815260200160058201805461076390612ac8565b80601f016020809104026020016040519081016040528092919081815260200182805461078f90612ac8565b80156107dc5780601f106107b1576101008083540402835291602001916107dc565b820191906000526020600020905b8154815290600101906020018083116107bf57829003601f168201915b505050505081525050815250509050919050565b601060205280600052604060002060009150905080600001805461081390612ac8565b80601f016020809104026020016040519081016040528092919081815260200182805461083f90612ac8565b801561088c5780601f106108615761010080835404028352916020019161088c565b820191906000526020600020905b81548152906001019060200180831161086f57829003601f168201915b5050505050908060010160009054906101000a900473ffffffffffffffffffffffffffffffffffffffff16908060020180546108c790612ac8565b80601f01602080910402602001604051908101604052809291908181526020018280546108f390612ac8565b80156109405780601f1061091557610100808354040283529160200191610940565b820191906000526020600020905b81548152906001019060200180831161092357829003601f168201915b5050505050908060030154905084565b610958611f61565b610960611f1d565b33826000019073ffffffffffffffffffffffffffffffffffffffff16908173ffffffffffffffffffffffffffffffffffffffff168152505086826020018181525050828260a00181905250838260800181905250858260400181815250508482606001818152505088816000018190525033816040019073ffffffffffffffffffffffffffffffffffffffff16908173ffffffffffffffffffffffffffffffffffffffff168152505087816020018190525081816060018190525080600f8a604051610a2c9190612a82565b90815260200160405180910390206000820151816000019081610a4f9190612ca5565b506020820151816001019081610a659190612ca5565b5060408201518160020160006101000a81548173ffffffffffffffffffffffffffffffffffffffff021916908373ffffffffffffffffffffffffffffffffffffffff16021790555060608201518160030160008201518160000160006101000a81548173ffffffffffffffffffffffffffffffffffffffff021916908373ffffffffffffffffffffffffffffffffffffffff1602179055506020820151816001015560408201518160020155606082015181600301556080820151816004019081610b309190612ca5565b5060a0820151816005019081610b469190612ca5565b505050905050600e60003373ffffffffffffffffffffffffffffffffffffffff1673ffffffffffffffffffffffffffffffffffffffff16815260200190815260200160002089908060018154018082558091505060019003906000526020600020016000909190919091509081610bbd9190612ca5565b50505050505050505050565b6060600c805480602002602001604051908101604052809291908181526020018280548015610c4d57602002820191906000526020600020905b8160009054906101000a900473ffffffffffffffffffffffffffffffffffffffff1673ffffffffffffffffffffffffffffffffffffffff1681526020019060010190808311610c03575b5050505050905090565b60006060806000601260008673ffffffffffffffffffffffffffffffffffffffff1673ffffffffffffffffffffffffffffffffffffffff1681526020019081526020016000206001018054610cab90612ac8565b80601f0160208091040260200160405190810160405280929190818152602001828054610cd790612ac8565b8015610d245780601f10610cf957610100808354040283529160200191610d24565b820191906000526020600020905b815481529060010190602001808311610d0757829003601f168201915b505050505090506000601260008773ffffffffffffffffffffffffffffffffffffffff1673ffffffffffffffffffffffffffffffffffffffff16815260200190815260200160002060000160009054906101000a900473ffffffffffffffffffffffffffffffffffffffff1690506000601260008873ffffffffffffffffffffffffffffffffffffffff1673ffffffffffffffffffffffffffffffffffffffff1681526020019081526020016000206002018054610de190612ac8565b80601f0160208091040260200160405190810160405280929190818152602001828054610e0d90612ac8565b8015610e5a5780601f10610e2f57610100808354040283529160200191610e5a565b820191906000526020600020905b815481529060010190602001808311610e3d57829003601f168201915b505050505090508183829550955095505050509193909250565b6060600a8054610e8390612ac8565b80601f0160208091040260200160405190810160405280929190818152602001828054610eaf90612ac8565b8015610efc5780601f10610ed157610100808354040283529160200191610efc565b820191906000526020600020905b815481529060010190602001808311610edf57829003601f168201915b5050505050905090565b60146020528060005260406000206000915054906101000a900460ff1681565b600f81805160208101820180518482526020830160208501208183528095505050505050600091509050806000018054610f5f90612ac8565b80601f0160208091040260200160405190810160405280929190818152602001828054610f8b90612ac8565b8015610fd85780601f10610fad57610100808354040283529160200191610fd8565b820191906000526020600020905b815481529060010190602001808311610fbb57829003601f168201915b505050505090806001018054610fed90612ac8565b80601f016020809104026020016040519081016040528092919081815260200182805461101990612ac8565b80156110665780601f1061103b57610100808354040283529160200191611066565b820191906000526020600020905b81548152906001019060200180831161104957829003601f168201915b5050505050908060020160009054906101000a900473ffffffffffffffffffffffffffffffffffffffff1690806003016040518060c00160405290816000820160009054906101000a900473ffffffffffffffffffffffffffffffffffffffff1673ffffffffffffffffffffffffffffffffffffffff1673ffffffffffffffffffffffffffffffffffffffff16815260200160018201548152602001600282015481526020016003820154815260200160048201805461112590612ac8565b80601f016020809104026020016040519081016040528092919081815260200182805461115190612ac8565b801561119e5780601f106111735761010080835404028352916020019161119e565b820191906000526020600020905b81548152906001019060200180831161118157829003601f168201915b505050505081526020016005820180546111b790612ac8565b80601f01602080910402602001604051908101604052809291908181526020018280546111e390612ac8565b80156112305780601f1061120557610100808354040283529160200191611230565b820191906000526020600020905b81548152906001019060200180831161121357829003601f168201915b505050505081525050905084565b6060600d8054806020026020016040519081016040528092919081815260200182805480156112c257602002820191906000526020600020905b8160009054906101000a900473ffffffffffffffffffffffffffffffffffffffff1673ffffffffffffffffffffffffffffffffffffffff1681526020019060010190808311611278575b5050505050905090565b3373ffffffffffffffffffffffffffffffffffffffff167fe826f71647b8486f2bae59832124c70792fba044036720a54ec8dacdd5df4fcb600a83604051611315929190612dfb565b60405180910390a280600a908161132c9190612ca5565b5050565b60405180608001604052808581526020018473ffffffffffffffffffffffffffffffffffffffff1681526020018381526020018281525060106000600b54815260200190815260200160002060008201518160000190816113919190612ca5565b5060208201518160010160006101000a81548173ffffffffffffffffffffffffffffffffffffffff021916908373ffffffffffffffffffffffffffffffffffffffff16021790555060408201518160020190816113ee9190612ca5565b5060608201518160030155905050600060106000600b54815260200190815260200160002060405180608001604052908160008201805461142e90612ac8565b80601f016020809104026020016040519081016040528092919081815260200182805461145a90612ac8565b80156114a75780601f1061147c576101008083540402835291602001916114a7565b820191906000526020600020905b81548152906001019060200180831161148a57829003601f168201915b505050505081526020016001820160009054906101000a900473ffffffffffffffffffffffffffffffffffffffff1673ffffffffffffffffffffffffffffffffffffffff1673ffffffffffffffffffffffffffffffffffffffff16815260200160028201805461151690612ac8565b80601f016020809104026020016040519081016040528092919081815260200182805461154290612ac8565b801561158f5780601f106115645761010080835404028352916020019161158f565b820191906000526020600020905b81548152906001019060200180831161157257829003601f168201915b50505050508152602001600382015481525050905060008160600151036115cc576115c78160200151826000015183604001516119f7565b6115f1565b60018160600151036115f0576115ef816020015182600001518360400151611c8a565b5b5b6001600b546116009190612e61565b600b819055507f43fa451d1fb47cf164ccb6a777532e04af59430576b822519086e12fa351f15181602001518260400151600160405161164293929190612e95565b60405180910390a16001601182604001516040516116609190612a82565b908152602001604051809103902060006101000a81548160ff0219169083151502179055505050505050565b600e60205281600052604060002081815481106116a857600080fd5b906000526020600020016000915091505080546116c490612ac8565b80601f01602080910402602001604051908101604052809291908181526020018280546116f090612ac8565b801561173d5780601f106117125761010080835404028352916020019161173d565b820191906000526020600020905b81548152906001019060200180831161172057829003601f168201915b505050505081565b60606040518060600160405280602a8152602001612f40602a9139905090565b60136020528060005260406000206000915054906101000a900460ff1681565b6060600e60008373ffffffffffffffffffffffffffffffffffffffff1673ffffffffffffffffffffffffffffffffffffffff168152602001908152602001600020805480602002602001604051908101604052809291908181526020016000905b8282101561189257838290600052602060002001805461180590612ac8565b80601f016020809104026020016040519081016040528092919081815260200182805461183190612ac8565b801561187e5780601f106118535761010080835404028352916020019161187e565b820191906000526020600020905b81548152906001019060200180831161186157829003601f168201915b5050505050815260200190600101906117e6565b505050509050919050565b60126020528060005260406000206000915090508060000160009054906101000a900473ffffffffffffffffffffffffffffffffffffffff16908060010180546118e690612ac8565b80601f016020809104026020016040519081016040528092919081815260200182805461191290612ac8565b801561195f5780601f106119345761010080835404028352916020019161195f565b820191906000526020600020905b81548152906001019060200180831161194257829003601f168201915b50505050509080600201805461197490612ac8565b80601f01602080910402602001604051908101604052809291908181526020018280546119a090612ac8565b80156119ed5780601f106119c2576101008083540402835291602001916119ed565b820191906000526020600020905b8154815290600101906020018083116119d057829003601f168201915b5050505050905083565b601460008473ffffffffffffffffffffffffffffffffffffffff1673ffffffffffffffffffffffffffffffffffffffff16815260200190815260200160002060009054906101000a900460ff1615611a84576040517f08c379a0000000000000000000000000000000000000000000000000000000008152600401611a7b90612f1f565b60405180910390fd5b600c839080600181540180825580915050600190039060005260206000200160009091909190916101000a81548173ffffffffffffffffffffffffffffffffffffffff021916908373ffffffffffffffffffffffffffffffffffffffff1602179055506001601460008573ffffffffffffffffffffffffffffffffffffffff1673ffffffffffffffffffffffffffffffffffffffff16815260200190815260200160002060006101000a81548160ff021916908315150217905550611b47611fad565b83816000019073ffffffffffffffffffffffffffffffffffffffff16908173ffffffffffffffffffffffffffffffffffffffff168152505082816020018190525081816040018190525080601260008673ffffffffffffffffffffffffffffffffffffffff1673ffffffffffffffffffffffffffffffffffffffff16815260200190815260200160002060008201518160000160006101000a81548173ffffffffffffffffffffffffffffffffffffffff021916908373ffffffffffffffffffffffffffffffffffffffff1602179055506020820151816001019081611c2d9190612ca5565b506040820151816002019081611c439190612ca5565b509050507f5d8da039f46939dac1f22e6429f726ab699d613ead17618999c45147211fb9d383858442604051611c7c949392919061246d565b60405180910390a150505050565b601360008473ffffffffffffffffffffffffffffffffffffffff1673ffffffffffffffffffffffffffffffffffffffff16815260200190815260200160002060009054906101000a900460ff1615611d17576040517f08c379a0000000000000000000000000000000000000000000000000000000008152600401611d0e90612f1f565b60405180910390fd5b600d839080600181540180825580915050600190039060005260206000200160009091909190916101000a81548173ffffffffffffffffffffffffffffffffffffffff021916908373ffffffffffffffffffffffffffffffffffffffff1602179055506001601360008573ffffffffffffffffffffffffffffffffffffffff1673ffffffffffffffffffffffffffffffffffffffff16815260200190815260200160002060006101000a81548160ff021916908315150217905550611dda611fad565b83816000019073ffffffffffffffffffffffffffffffffffffffff16908173ffffffffffffffffffffffffffffffffffffffff168152505082816020018190525081816040018190525080601260008673ffffffffffffffffffffffffffffffffffffffff1673ffffffffffffffffffffffffffffffffffffffff16815260200190815260200160002060008201518160000160006101000a81548173ffffffffffffffffffffffffffffffffffffffff021916908373ffffffffffffffffffffffffffffffffffffffff1602179055506020820151816001019081611ec09190612ca5565b506040820151816002019081611ed69190612ca5565b509050507f465daa34e4a04fd10e1b1da9ecb97133b5ff5b459841488cb1d9128dd793fd4d83858442604051611f0f949392919061246d565b60405180910390a150505050565b60405180608001604052806060815260200160608152602001600073ffffffffffffffffffffffffffffffffffffffff168152602001611f5b611f61565b81525090565b6040518060c00160405280600073ffffffffffffffffffffffffffffffffffffffff16815260200160008152602001600081526020016000815260200160608152602001606081525090565b6040518060600160405280600073ffffffffffffffffffffffffffffffffffffffff16815260200160608152602001606081525090565b600073ffffffffffffffffffffffffffffffffffffffff82169050919050565b600061200f82611fe4565b9050919050565b61201f81612004565b82525050565b6000819050919050565b61203881612025565b82525050565b60006040820190506120536000830185612016565b612060602083018461202f565b9392505050565b6000604051905090565b600080fd5b600080fd5b600080fd5b600080fd5b6000601f19601f8301169050919050565b7f4e487b7100000000000000000000000000000000000000000000000000000000600052604160045260246000fd5b6120ce82612085565b810181811067ffffffffffffffff821117156120ed576120ec612096565b5b80604052505050565b6000612100612067565b905061210c82826120c5565b919050565b600067ffffffffffffffff82111561212c5761212b612096565b5b61213582612085565b9050602081019050919050565b82818337600083830152505050565b600061216461215f84612111565b6120f6565b9050828152602081018484840111156121805761217f612080565b5b61218b848285612142565b509392505050565b600082601f8301126121a8576121a761207b565b5b81356121b8848260208601612151565b91505092915050565b6000602082840312156121d7576121d6612071565b5b600082013567ffffffffffffffff8111156121f5576121f4612076565b5b61220184828501612193565b91505092915050565b600081519050919050565b600082825260208201905092915050565b60005b83811015612244578082015181840152602081019050612229565b60008484015250505050565b600061225b8261220a565b6122658185612215565b9350612275818560208601612226565b61227e81612085565b840191505092915050565b61229281612004565b82525050565b6122a181612025565b82525050565b600060c0830160008301516122bf6000860182612289565b5060208301516122d26020860182612298565b5060408301516122e56040860182612298565b5060608301516122f86060860182612298565b50608083015184820360808601526123108282612250565b91505060a083015184820360a086015261232a8282612250565b9150508091505092915050565b600060808301600083015184820360008601526123548282612250565b9150506020830151848203602086015261236e8282612250565b91505060408301516123836040860182612289565b506060830151848203606086015261239b82826122a7565b9150508091505092915050565b600060208201905081810360008301526123c28184612337565b905092915050565b6123d381612025565b81146123de57600080fd5b50565b6000813590506123f0816123ca565b92915050565b60006020828403121561240c5761240b612071565b5b600061241a848285016123e1565b91505092915050565b600082825260208201905092915050565b600061243f8261220a565b6124498185612423565b9350612459818560208601612226565b61246281612085565b840191505092915050565b600060808201905081810360008301526124878187612434565b90506124966020830186612016565b81810360408301526124a88185612434565b90506124b7606083018461202f565b95945050505050565b600080600080600080600060e0888a0312156124df576124de612071565b5b600088013567ffffffffffffffff8111156124fd576124fc612076565b5b6125098a828b01612193565b975050602088013567ffffffffffffffff81111561252a57612529612076565b5b6125368a828b01612193565b96505060406125478a828b016123e1565b95505060606125588a828b016123e1565b94505060806125698a828b016123e1565b93505060a088013567ffffffffffffffff81111561258a57612589612076565b5b6125968a828b01612193565b92505060c088013567ffffffffffffffff8111156125b7576125b6612076565b5b6125c38a828b01612193565b91505092959891949750929550565b600081519050919050565b600082825260208201905092915050565b6000819050602082019050919050565b600061260a8383612289565b60208301905092915050565b6000602082019050919050565b600061262e826125d2565b61263881856125dd565b9350612643836125ee565b8060005b8381101561267457815161265b88826125fe565b975061266683612616565b925050600181019050612647565b5085935050505092915050565b6000602082019050818103600083015261269b8184612623565b905092915050565b6126ac81612004565b81146126b757600080fd5b50565b6000813590506126c9816126a3565b92915050565b6000602082840312156126e5576126e4612071565b5b60006126f3848285016126ba565b91505092915050565b60006060820190506127116000830186612016565b81810360208301526127238185612434565b905081810360408301526127378184612434565b9050949350505050565b6000602082019050818103600083015261275b8184612434565b905092915050565b60008115159050919050565b61277881612763565b82525050565b6000602082019050612793600083018461276f565b92915050565b600060c0830160008301516127b16000860182612289565b5060208301516127c46020860182612298565b5060408301516127d76040860182612298565b5060608301516127ea6060860182612298565b50608083015184820360808601526128028282612250565b91505060a083015184820360a086015261281c8282612250565b9150508091505092915050565b600060808201905081810360008301526128438187612434565b905081810360208301526128578186612434565b90506128666040830185612016565b81810360608301526128788184612799565b905095945050505050565b6000806000806080858703121561289d5761289c612071565b5b600085013567ffffffffffffffff8111156128bb576128ba612076565b5b6128c787828801612193565b94505060206128d8878288016126ba565b935050604085013567ffffffffffffffff8111156128f9576128f8612076565b5b61290587828801612193565b9250506060612916878288016123e1565b91505092959194509250565b6000806040838503121561293957612938612071565b5b6000612947858286016126ba565b9250506020612958858286016123e1565b9150509250929050565b600081519050919050565b600082825260208201905092915050565b6000819050602082019050919050565b600061299a8383612250565b905092915050565b6000602082019050919050565b60006129ba82612962565b6129c4818561296d565b9350836020820285016129d68561297e565b8060005b85811015612a1257848403895281516129f3858261298e565b94506129fe836129a2565b925060208a019950506001810190506129da565b50829750879550505050505092915050565b60006020820190508181036000830152612a3e81846129af565b905092915050565b600081905092915050565b6000612a5c8261220a565b612a668185612a46565b9350612a76818560208601612226565b80840191505092915050565b6000612a8e8284612a51565b915081905092915050565b7f4e487b7100000000000000000000000000000000000000000000000000000000600052602260045260246000fd5b60006002820490506001821680612ae057607f821691505b602082108103612af357612af2612a99565b5b50919050565b60008190508160005260206000209050919050565b60006020601f8301049050919050565b600082821b905092915050565b600060088302612b5b7fffffffffffffffffffffffffffffffffffffffffffffffffffffffffffffffff82612b1e565b612b658683612b1e565b95508019841693508086168417925050509392505050565b6000819050919050565b6000612ba2612b9d612b9884612025565b612b7d565b612025565b9050919050565b6000819050919050565b612bbc83612b87565b612bd0612bc882612ba9565b848454612b2b565b825550505050565b600090565b612be5612bd8565b612bf0818484612bb3565b505050565b5b81811015612c1457612c09600082612bdd565b600181019050612bf6565b5050565b601f821115612c5957612c2a81612af9565b612c3384612b0e565b81016020851015612c42578190505b612c56612c4e85612b0e565b830182612bf5565b50505b505050565b600082821c905092915050565b6000612c7c60001984600802612c5e565b1980831691505092915050565b6000612c958383612c6b565b9150826002028217905092915050565b612cae8261220a565b67ffffffffffffffff811115612cc757612cc6612096565b5b612cd18254612ac8565b612cdc828285612c18565b600060209050601f831160018114612d0f5760008415612cfd578287015190505b612d078582612c89565b865550612d6f565b601f198416612d1d86612af9565b60005b82811015612d4557848901518255600182019150602085019450602081019050612d20565b86831015612d625784890151612d5e601f891682612c6b565b8355505b6001600288020188555050505b505050505050565b60008154612d8481612ac8565b612d8e8186612423565b94506001821660008114612da95760018114612dbf57612df2565b60ff198316865281151560200286019350612df2565b612dc885612af9565b60005b83811015612dea57815481890152600182019150602081019050612dcb565b808801955050505b50505092915050565b60006040820190508181036000830152612e158185612d77565b90508181036020830152612e298184612434565b90509392505050565b7f4e487b7100000000000000000000000000000000000000000000000000000000600052601160045260246000fd5b6000612e6c82612025565b9150612e7783612025565b9250828201905080821115612e8f57612e8e612e32565b5b92915050565b6000606082019050612eaa6000830186612016565b8181036020830152612ebc8185612434565b9050612ecb604083018461276f565b949350505050565b7f416c726561647920726567697374657265642100000000000000000000000000600082015250565b6000612f09601383612423565b9150612f1482612ed3565b602082019050919050565b60006020820190508181036000830152612f3881612efc565b905091905056fe48656c6c6f212054686520436f6e747261637420697320636f6e6e656374656420776974682077656233a26469706673582212204cc42a54e88d99e6bfb2c1f5290a3dd731e219d39be9f88af582fc84b24cfd4464736f6c63430008110033",
  "immutableReferences": {},
  "source": "// SPDX-License-Identifier: MIT\r\npragma solidity ^0.8.0;\r\n\r\n// [X] 1  - Apply for verification as Doctor/Hospital\r\n// [X] 2  - Find Patient/User Reports Collection\r\n// [X] 3  - Find Doctors\r\n// [X] 4  - Find Hospitals\r\n// [ ] 5  - Send Report to Doctor/Hospital for analysis\r\n// [ ] 6  - Send Report Analysis back to patient\r\n// [ ] 7  - Reviews Doctor/Hospital on receiving the report\r\n// [X] 8  - Find authorized Doctor/Hospital\r\n\r\nimport \"@chainlink/contracts/src/v0.8/ChainlinkClient.sol\";\r\n\r\ncontract DoctorWeb3 is ChainlinkClient {\r\n    using Chainlink for Chainlink.Request;\r\n    address owner;\r\n    address private oracle;\r\n    bytes32 private jobId;\r\n    uint256 private fee;\r\n    string _value;\r\n    uint256 requestId;\r\n\r\n    constructor() {\r\n        owner = msg.sender;\r\n        setChainlinkToken(0x326C977E6efc84E512bB9C30f76E30c160eD06FB);\r\n        oracle = 0x40193c8518BB267228Fc409a613bDbD8eC5a97b3;\r\n        jobId = \"ca98366cc7314957b8c012c72f05aeeb\";\r\n        fee = 0.1 * 10 ** 18; // 0.1 LINK\r\n        _value = \"hello\";\r\n        requestId = 1;\r\n\r\n    }\r\n    event ValueChanged(address indexed author, string oldValue, string newValue);\r\n\r\n\r\n    struct PatientInfo {\r\n        address patient;\r\n        uint256 age;\r\n        uint256 weight;\r\n        uint256 height;\r\n        string gender;\r\n        string bloodGroup;\r\n    }\r\n\r\n    struct Report {\r\n        string fileHash;\r\n        string category;\r\n        address Patient;\r\n        PatientInfo patientInfo;\r\n    }\r\n\r\n    struct Applicant {\r\n        string name;\r\n        address applicantAddress;\r\n        string medicalId;\r\n        uint256 applicantType; // 0 = Doctor, 1 = Hospital\r\n    }\r\n\r\n    struct AuthorizedDHDetails {\r\n        address authorizedDHAddress;\r\n        string name;\r\n        string medicalId;\r\n    }\r\n\r\n    address[] Doctors;\r\n    address[] Hospitals;\r\n    mapping(address => string[]) public PatientReports; // Maps Patient's address to its reports\r\n    mapping(string => Report) public Reports; // Maps report hash value from IPFS to Report Datatype\r\n    //mapping(bytes32 => Applicant) public Applicants; // Maps address of applicant to Applicant DataType\r\n    mapping(uint256 => Applicant) public Applicants; // remove during main chain\r\n    mapping(string => bool) private medicalIdUsed; // Maps medicalId to boolean\r\n    mapping(address => AuthorizedDHDetails) public AuthorizedDH; // Maps address of authorized Doctor or hospital with their details\r\n    mapping(address => bool) public AuthorisedHospital;\r\n    mapping(address => bool) public AuthorisedDoctor;\r\n\r\n    event AuthorizationResult(\r\n        address applicantAddress,\r\n        string medicalId,\r\n        bool status\r\n    );\r\n\r\n    event DoctorAuthorized(\r\n        string name,\r\n        address _authAddress,\r\n        string medicalId,\r\n        uint AuthOnDate\r\n    );\r\n\r\n    event HospitalAuthorized(\r\n        string name,\r\n        address _authAddress,\r\n        string medicalId,\r\n        uint AuthOnDate\r\n    );\r\n\r\n    function getValue() view public returns (string memory) {\r\n        return _value;\r\n    }\r\n\r\n    function setValue(string memory value) public {\r\n        emit ValueChanged(msg.sender, _value, value);\r\n        _value = value;\r\n    }\r\n\r\n    function testFunction() public pure returns (string memory myString) {\r\n        return \"Hello! The Contract is connected with web3\";\r\n    }\r\n\r\n    event Received(address, uint);\r\n    receive() external payable {\r\n        emit Received(msg.sender, msg.value);\r\n    }\r\n\r\n    function getPatientReports(address _address)\r\n        public\r\n        view\r\n        returns (string[] memory)\r\n    {\r\n        return PatientReports[_address];\r\n    }\r\n\r\n    function getDetailedReports(string memory _fileHash)\r\n        public\r\n        view\r\n        returns (Report memory)\r\n    {\r\n        return Reports[_fileHash];\r\n    }\r\n\r\n    function findDoctors() public view returns (address[] memory) {\r\n        return Doctors;\r\n    }\r\n\r\n    function findHospitals() public view returns (address[] memory) {\r\n        return Hospitals;\r\n    }\r\n\r\n    function getAuthorizedDHDetails(address _addr) public view returns (address, string memory, string memory) {\r\n        string memory _name = AuthorizedDH[_addr].name;\r\n        address _address = AuthorizedDH[_addr].authorizedDHAddress;\r\n        string memory _medicalId = AuthorizedDH[_addr].medicalId;\r\n        return (_address, _name, _medicalId);\r\n    }\r\n\r\n    /* function ApplyForVerification(\r\n        string memory _name,\r\n        address _applicantAddress,\r\n        string memory _medicalId,\r\n        uint256 _applicantType\r\n    ) public returns (bytes32 requestId) {\r\n        require(_applicantType == 1 || _applicantType == 0,\"Apply id should be either 0 or 1\");\r\n        require(!medicalIdUsed[_medicalId], \"Medical ID is already used\"); // Stopping function spamming\r\n\r\n        //ChainLink Code for Verification\r\n\r\n        Chainlink.Request memory request = buildChainlinkRequest(jobId, address(this), this.fulfill.selector);\r\n        request.add(\"get\", \"https://mocki.io/v1/9471e151-4903-43bb-8bf9-45e98994672b\");\r\n\r\n        //Set the path {\"data\":{\"id\":100}}\r\n\r\n        request.add(\"path\", \"data,id\");\r\n\r\n        requestId = sendChainlinkRequestTo(oracle, request, fee);\r\n        Applicants[requestId] = Applicant(\r\n            _name,\r\n            _applicantAddress,\r\n            _medicalId,\r\n            _applicantType\r\n        );\r\n\r\n        return requestId;\r\n    }\r\n\r\n    function fulfill(bytes32 _requestId, uint256 _verification)\r\n        public\r\n        recordChainlinkFulfillment(_requestId)\r\n    {\r\n        Applicant memory applicant = Applicants[_requestId];\r\n        if (_verification == 100) {\r\n            if (applicant.applicantType == 0) {\r\n                addAuthorizedDoctor(\r\n                    applicant.applicantAddress,\r\n                    applicant.name,\r\n                    applicant.medicalId\r\n                );\r\n            } else {\r\n                addAuthorizedHospital(\r\n                    applicant.applicantAddress,\r\n                    applicant.name,\r\n                    applicant.medicalId\r\n                );\r\n            }\r\n            emit AuthorizationResult(applicant.applicantAddress, applicant.medicalId, true);\r\n        } else {\r\n            emit AuthorizationResult(applicant.applicantAddress, applicant.medicalId, false);\r\n        }\r\n        medicalIdUsed[applicant.medicalId] = true;\r\n    } */\r\n\r\n    function ApplyForVerification(\r\n        string memory _name,\r\n        address _applicantAddress,\r\n        string memory _medicalId,\r\n        uint256 _applicantType\r\n    ) public {\r\n        //require(_applicantType == 1 || _applicantType == 0,\"Apply id should be either 0 or 1\");\r\n        //require(!medicalIdUsed[_medicalId], \"Medical ID is already used\"); // Stopping function spamming\r\n        Applicants[requestId] = Applicant(\r\n            _name,\r\n            _applicantAddress,\r\n            _medicalId,\r\n            _applicantType\r\n        );\r\n\r\n        Applicant memory applicant = Applicants[requestId];\r\n\r\n        if (applicant.applicantType == 0) {\r\n                addAuthorizedDoctor(\r\n                    applicant.applicantAddress,\r\n                    applicant.name,\r\n                    applicant.medicalId\r\n                );\r\n            } else if (applicant.applicantType == 1)  {\r\n                addAuthorizedHospital(\r\n                    applicant.applicantAddress,\r\n                    applicant.name,\r\n                    applicant.medicalId\r\n                );\r\n            }\r\n        requestId = requestId + 1;\r\n        emit AuthorizationResult(applicant.applicantAddress, applicant.medicalId, true);\r\n        medicalIdUsed[applicant.medicalId] = true;\r\n\r\n    }\r\n\r\n    function addAuthorizedDoctor(\r\n        address _authAddress,\r\n        string memory _name,\r\n        string memory _medicalId\r\n    ) private {\r\n        require(!AuthorisedDoctor[_authAddress], \"Already registered!\");\r\n        Doctors.push(_authAddress);\r\n        AuthorisedDoctor[_authAddress] = true;\r\n\r\n        AuthorizedDHDetails memory _authorizedDHDetail;\r\n\r\n        _authorizedDHDetail.authorizedDHAddress = _authAddress;\r\n        _authorizedDHDetail.name = _name;\r\n        _authorizedDHDetail.medicalId = _medicalId;\r\n\r\n        AuthorizedDH[_authAddress] = _authorizedDHDetail;\r\n\r\n        emit DoctorAuthorized(_name, _authAddress, _medicalId, block.timestamp);\r\n    }\r\n\r\n    function addAuthorizedHospital(\r\n        address _authAddress,\r\n        string memory _name,\r\n        string memory _medicalId\r\n    ) private {\r\n        require(!AuthorisedHospital[_authAddress], \"Already registered!\");\r\n        Hospitals.push(_authAddress);\r\n        AuthorisedHospital[_authAddress] = true;\r\n\r\n        AuthorizedDHDetails memory _authorizedDHDetail;\r\n\r\n        _authorizedDHDetail.authorizedDHAddress = _authAddress;\r\n        _authorizedDHDetail.name = _name;\r\n        _authorizedDHDetail.medicalId = _medicalId;\r\n\r\n        AuthorizedDH[_authAddress] = _authorizedDHDetail;\r\n\r\n        emit HospitalAuthorized(_name, _authAddress, _medicalId, block.timestamp);\r\n    }\r\n\r\n    function uploadReport(\r\n        string memory _fileHash,\r\n        string memory _category,\r\n        uint256 _age,\r\n        uint256 _weight,\r\n        uint256 _height,\r\n        string memory _gender,\r\n        string memory _bloodGroup\r\n    ) public {\r\n        PatientInfo memory _patientInfo;\r\n        Report memory _report;\r\n\r\n        _patientInfo.patient = msg.sender;\r\n        _patientInfo.age = _age;\r\n        _patientInfo.bloodGroup = _bloodGroup;\r\n        _patientInfo.gender = _gender;\r\n        _patientInfo.weight = _weight;\r\n        _patientInfo.height = _height;\r\n\r\n        _report.fileHash = _fileHash;\r\n        _report.Patient = msg.sender;\r\n        _report.category = _category;\r\n        _report.patientInfo = _patientInfo;\r\n\r\n        Reports[_fileHash] = _report;\r\n        PatientReports[msg.sender].push(_fileHash);\r\n    }\r\n\r\n}\r\n",
  "sourcePath": "D:\\OLD_PC\\JavaScript_apps\\React\\DoctorWeb3\\doctorweb3\\src\\contracts\\DoctorWeb3.sol",
  "compiler": {
    "name": "solc",
    "version": "0.8.17+commit.8df45f5f.Emscripten.clang"
  },
  "schemaVersion": "3.4.9",
  "updatedAt": "2022-11-23T04:41:09.652Z",
  "networkType": "ethereum",
  "devdoc": {
    "kind": "dev",
    "methods": {},
    "version": 1
  },
  "userdoc": {
    "kind": "user",
    "methods": {},
    "version": 1
  }
}